{
	"github/hugocis/VoluntariadoUFV/contracts/TokenUFV.sol": {
		"VoluntariadoUFV": {
			"abi": [
				{
					"inputs": [
						{
							"internalType": "address",
							"name": "initialOwner",
							"type": "address"
						}
					],
					"stateMutability": "nonpayable",
					"type": "constructor"
				},
				{
					"inputs": [
						{
							"internalType": "address",
							"name": "sender",
							"type": "address"
						},
						{
							"internalType": "uint256",
							"name": "balance",
							"type": "uint256"
						},
						{
							"internalType": "uint256",
							"name": "needed",
							"type": "uint256"
						},
						{
							"internalType": "uint256",
							"name": "tokenId",
							"type": "uint256"
						}
					],
					"name": "ERC1155InsufficientBalance",
					"type": "error"
				},
				{
					"inputs": [
						{
							"internalType": "address",
							"name": "approver",
							"type": "address"
						}
					],
					"name": "ERC1155InvalidApprover",
					"type": "error"
				},
				{
					"inputs": [
						{
							"internalType": "uint256",
							"name": "idsLength",
							"type": "uint256"
						},
						{
							"internalType": "uint256",
							"name": "valuesLength",
							"type": "uint256"
						}
					],
					"name": "ERC1155InvalidArrayLength",
					"type": "error"
				},
				{
					"inputs": [
						{
							"internalType": "address",
							"name": "operator",
							"type": "address"
						}
					],
					"name": "ERC1155InvalidOperator",
					"type": "error"
				},
				{
					"inputs": [
						{
							"internalType": "address",
							"name": "receiver",
							"type": "address"
						}
					],
					"name": "ERC1155InvalidReceiver",
					"type": "error"
				},
				{
					"inputs": [
						{
							"internalType": "address",
							"name": "sender",
							"type": "address"
						}
					],
					"name": "ERC1155InvalidSender",
					"type": "error"
				},
				{
					"inputs": [
						{
							"internalType": "address",
							"name": "operator",
							"type": "address"
						},
						{
							"internalType": "address",
							"name": "owner",
							"type": "address"
						}
					],
					"name": "ERC1155MissingApprovalForAll",
					"type": "error"
				},
				{
					"inputs": [],
					"name": "EnforcedPause",
					"type": "error"
				},
				{
					"inputs": [],
					"name": "ExpectedPause",
					"type": "error"
				},
				{
					"inputs": [
						{
							"internalType": "address",
							"name": "owner",
							"type": "address"
						}
					],
					"name": "OwnableInvalidOwner",
					"type": "error"
				},
				{
					"inputs": [
						{
							"internalType": "address",
							"name": "account",
							"type": "address"
						}
					],
					"name": "OwnableUnauthorizedAccount",
					"type": "error"
				},
				{
					"anonymous": false,
					"inputs": [
						{
							"indexed": true,
							"internalType": "address",
							"name": "account",
							"type": "address"
						},
						{
							"indexed": true,
							"internalType": "address",
							"name": "operator",
							"type": "address"
						},
						{
							"indexed": false,
							"internalType": "bool",
							"name": "approved",
							"type": "bool"
						}
					],
					"name": "ApprovalForAll",
					"type": "event"
				},
				{
					"anonymous": false,
					"inputs": [
						{
							"indexed": true,
							"internalType": "address",
							"name": "previousOwner",
							"type": "address"
						},
						{
							"indexed": true,
							"internalType": "address",
							"name": "newOwner",
							"type": "address"
						}
					],
					"name": "OwnershipTransferred",
					"type": "event"
				},
				{
					"anonymous": false,
					"inputs": [
						{
							"indexed": false,
							"internalType": "address",
							"name": "account",
							"type": "address"
						}
					],
					"name": "Paused",
					"type": "event"
				},
				{
					"anonymous": false,
					"inputs": [
						{
							"indexed": true,
							"internalType": "address",
							"name": "operator",
							"type": "address"
						},
						{
							"indexed": true,
							"internalType": "address",
							"name": "from",
							"type": "address"
						},
						{
							"indexed": true,
							"internalType": "address",
							"name": "to",
							"type": "address"
						},
						{
							"indexed": false,
							"internalType": "uint256[]",
							"name": "ids",
							"type": "uint256[]"
						},
						{
							"indexed": false,
							"internalType": "uint256[]",
							"name": "values",
							"type": "uint256[]"
						}
					],
					"name": "TransferBatch",
					"type": "event"
				},
				{
					"anonymous": false,
					"inputs": [
						{
							"indexed": true,
							"internalType": "address",
							"name": "operator",
							"type": "address"
						},
						{
							"indexed": true,
							"internalType": "address",
							"name": "from",
							"type": "address"
						},
						{
							"indexed": true,
							"internalType": "address",
							"name": "to",
							"type": "address"
						},
						{
							"indexed": false,
							"internalType": "uint256",
							"name": "id",
							"type": "uint256"
						},
						{
							"indexed": false,
							"internalType": "uint256",
							"name": "value",
							"type": "uint256"
						}
					],
					"name": "TransferSingle",
					"type": "event"
				},
				{
					"anonymous": false,
					"inputs": [
						{
							"indexed": false,
							"internalType": "string",
							"name": "value",
							"type": "string"
						},
						{
							"indexed": true,
							"internalType": "uint256",
							"name": "id",
							"type": "uint256"
						}
					],
					"name": "URI",
					"type": "event"
				},
				{
					"anonymous": false,
					"inputs": [
						{
							"indexed": false,
							"internalType": "address",
							"name": "account",
							"type": "address"
						}
					],
					"name": "Unpaused",
					"type": "event"
				},
				{
					"inputs": [
						{
							"internalType": "address",
							"name": "account",
							"type": "address"
						},
						{
							"internalType": "uint256",
							"name": "id",
							"type": "uint256"
						}
					],
					"name": "balanceOf",
					"outputs": [
						{
							"internalType": "uint256",
							"name": "",
							"type": "uint256"
						}
					],
					"stateMutability": "view",
					"type": "function"
				},
				{
					"inputs": [
						{
							"internalType": "address[]",
							"name": "accounts",
							"type": "address[]"
						},
						{
							"internalType": "uint256[]",
							"name": "ids",
							"type": "uint256[]"
						}
					],
					"name": "balanceOfBatch",
					"outputs": [
						{
							"internalType": "uint256[]",
							"name": "",
							"type": "uint256[]"
						}
					],
					"stateMutability": "view",
					"type": "function"
				},
				{
					"inputs": [
						{
							"internalType": "address",
							"name": "account",
							"type": "address"
						},
						{
							"internalType": "address",
							"name": "operator",
							"type": "address"
						}
					],
					"name": "isApprovedForAll",
					"outputs": [
						{
							"internalType": "bool",
							"name": "",
							"type": "bool"
						}
					],
					"stateMutability": "view",
					"type": "function"
				},
				{
					"inputs": [
						{
							"internalType": "address",
							"name": "account",
							"type": "address"
						},
						{
							"internalType": "uint256",
							"name": "id",
							"type": "uint256"
						},
						{
							"internalType": "uint256",
							"name": "amount",
							"type": "uint256"
						},
						{
							"internalType": "bytes",
							"name": "data",
							"type": "bytes"
						}
					],
					"name": "mint",
					"outputs": [],
					"stateMutability": "nonpayable",
					"type": "function"
				},
				{
					"inputs": [
						{
							"internalType": "address",
							"name": "to",
							"type": "address"
						},
						{
							"internalType": "uint256[]",
							"name": "ids",
							"type": "uint256[]"
						},
						{
							"internalType": "uint256[]",
							"name": "amounts",
							"type": "uint256[]"
						},
						{
							"internalType": "bytes",
							"name": "data",
							"type": "bytes"
						}
					],
					"name": "mintBatch",
					"outputs": [],
					"stateMutability": "nonpayable",
					"type": "function"
				},
				{
					"inputs": [],
					"name": "owner",
					"outputs": [
						{
							"internalType": "address",
							"name": "",
							"type": "address"
						}
					],
					"stateMutability": "view",
					"type": "function"
				},
				{
					"inputs": [],
					"name": "pause",
					"outputs": [],
					"stateMutability": "nonpayable",
					"type": "function"
				},
				{
					"inputs": [],
					"name": "paused",
					"outputs": [
						{
							"internalType": "bool",
							"name": "",
							"type": "bool"
						}
					],
					"stateMutability": "view",
					"type": "function"
				},
				{
					"inputs": [],
					"name": "renounceOwnership",
					"outputs": [],
					"stateMutability": "nonpayable",
					"type": "function"
				},
				{
					"inputs": [
						{
							"internalType": "address",
							"name": "from",
							"type": "address"
						},
						{
							"internalType": "address",
							"name": "to",
							"type": "address"
						},
						{
							"internalType": "uint256[]",
							"name": "ids",
							"type": "uint256[]"
						},
						{
							"internalType": "uint256[]",
							"name": "values",
							"type": "uint256[]"
						},
						{
							"internalType": "bytes",
							"name": "data",
							"type": "bytes"
						}
					],
					"name": "safeBatchTransferFrom",
					"outputs": [],
					"stateMutability": "nonpayable",
					"type": "function"
				},
				{
					"inputs": [
						{
							"internalType": "address",
							"name": "from",
							"type": "address"
						},
						{
							"internalType": "address",
							"name": "to",
							"type": "address"
						},
						{
							"internalType": "uint256",
							"name": "id",
							"type": "uint256"
						},
						{
							"internalType": "uint256",
							"name": "value",
							"type": "uint256"
						},
						{
							"internalType": "bytes",
							"name": "data",
							"type": "bytes"
						}
					],
					"name": "safeTransferFrom",
					"outputs": [],
					"stateMutability": "nonpayable",
					"type": "function"
				},
				{
					"inputs": [
						{
							"internalType": "address",
							"name": "operator",
							"type": "address"
						},
						{
							"internalType": "bool",
							"name": "approved",
							"type": "bool"
						}
					],
					"name": "setApprovalForAll",
					"outputs": [],
					"stateMutability": "nonpayable",
					"type": "function"
				},
				{
					"inputs": [
						{
							"internalType": "string",
							"name": "newuri",
							"type": "string"
						}
					],
					"name": "setURI",
					"outputs": [],
					"stateMutability": "nonpayable",
					"type": "function"
				},
				{
					"inputs": [
						{
							"internalType": "bytes4",
							"name": "interfaceId",
							"type": "bytes4"
						}
					],
					"name": "supportsInterface",
					"outputs": [
						{
							"internalType": "bool",
							"name": "",
							"type": "bool"
						}
					],
					"stateMutability": "view",
					"type": "function"
				},
				{
					"inputs": [
						{
							"internalType": "address",
							"name": "newOwner",
							"type": "address"
						}
					],
					"name": "transferOwnership",
					"outputs": [],
					"stateMutability": "nonpayable",
					"type": "function"
				},
				{
					"inputs": [],
					"name": "unpause",
					"outputs": [],
					"stateMutability": "nonpayable",
					"type": "function"
				},
				{
					"inputs": [
						{
							"internalType": "uint256",
							"name": "",
							"type": "uint256"
						}
					],
					"name": "uri",
					"outputs": [
						{
							"internalType": "string",
							"name": "",
							"type": "string"
						}
					],
					"stateMutability": "view",
					"type": "function"
				}
			],
			"devdoc": {
				"errors": {
					"ERC1155InsufficientBalance(address,uint256,uint256,uint256)": [
						{
							"details": "Indicates an error related to the current `balance` of a `sender`. Used in transfers.",
							"params": {
								"balance": "Current balance for the interacting account.",
								"needed": "Minimum amount required to perform a transfer.",
								"sender": "Address whose tokens are being transferred.",
								"tokenId": "Identifier number of a token."
							}
						}
					],
					"ERC1155InvalidApprover(address)": [
						{
							"details": "Indicates a failure with the `approver` of a token to be approved. Used in approvals.",
							"params": {
								"approver": "Address initiating an approval operation."
							}
						}
					],
					"ERC1155InvalidArrayLength(uint256,uint256)": [
						{
							"details": "Indicates an array length mismatch between ids and values in a safeBatchTransferFrom operation. Used in batch transfers.",
							"params": {
								"idsLength": "Length of the array of token identifiers",
								"valuesLength": "Length of the array of token amounts"
							}
						}
					],
					"ERC1155InvalidOperator(address)": [
						{
							"details": "Indicates a failure with the `operator` to be approved. Used in approvals.",
							"params": {
								"operator": "Address that may be allowed to operate on tokens without being their owner."
							}
						}
					],
					"ERC1155InvalidReceiver(address)": [
						{
							"details": "Indicates a failure with the token `receiver`. Used in transfers.",
							"params": {
								"receiver": "Address to which tokens are being transferred."
							}
						}
					],
					"ERC1155InvalidSender(address)": [
						{
							"details": "Indicates a failure with the token `sender`. Used in transfers.",
							"params": {
								"sender": "Address whose tokens are being transferred."
							}
						}
					],
					"ERC1155MissingApprovalForAll(address,address)": [
						{
							"details": "Indicates a failure with the `operator`’s approval. Used in transfers.",
							"params": {
								"operator": "Address that may be allowed to operate on tokens without being their owner.",
								"owner": "Address of the current owner of a token."
							}
						}
					],
					"EnforcedPause()": [
						{
							"details": "The operation failed because the contract is paused."
						}
					],
					"ExpectedPause()": [
						{
							"details": "The operation failed because the contract is not paused."
						}
					],
					"OwnableInvalidOwner(address)": [
						{
							"details": "The owner is not a valid owner account. (eg. `address(0)`)"
						}
					],
					"OwnableUnauthorizedAccount(address)": [
						{
							"details": "The caller account is not authorized to perform an operation."
						}
					]
				},
				"events": {
					"ApprovalForAll(address,address,bool)": {
						"details": "Emitted when `account` grants or revokes permission to `operator` to transfer their tokens, according to `approved`."
					},
					"Paused(address)": {
						"details": "Emitted when the pause is triggered by `account`."
					},
					"TransferBatch(address,address,address,uint256[],uint256[])": {
						"details": "Equivalent to multiple {TransferSingle} events, where `operator`, `from` and `to` are the same for all transfers."
					},
					"TransferSingle(address,address,address,uint256,uint256)": {
						"details": "Emitted when `value` amount of tokens of type `id` are transferred from `from` to `to` by `operator`."
					},
					"URI(string,uint256)": {
						"details": "Emitted when the URI for token type `id` changes to `value`, if it is a non-programmatic URI. If an {URI} event was emitted for `id`, the standard https://eips.ethereum.org/EIPS/eip-1155#metadata-extensions[guarantees] that `value` will equal the value returned by {IERC1155MetadataURI-uri}."
					},
					"Unpaused(address)": {
						"details": "Emitted when the pause is lifted by `account`."
					}
				},
				"kind": "dev",
				"methods": {
					"balanceOf(address,uint256)": {
						"details": "See {IERC1155-balanceOf}."
					},
					"balanceOfBatch(address[],uint256[])": {
						"details": "See {IERC1155-balanceOfBatch}. Requirements: - `accounts` and `ids` must have the same length."
					},
					"isApprovedForAll(address,address)": {
						"details": "See {IERC1155-isApprovedForAll}."
					},
					"owner()": {
						"details": "Returns the address of the current owner."
					},
					"paused()": {
						"details": "Returns true if the contract is paused, and false otherwise."
					},
					"renounceOwnership()": {
						"details": "Leaves the contract without owner. It will not be possible to call `onlyOwner` functions. Can only be called by the current owner. NOTE: Renouncing ownership will leave the contract without an owner, thereby disabling any functionality that is only available to the owner."
					},
					"safeBatchTransferFrom(address,address,uint256[],uint256[],bytes)": {
						"details": "See {IERC1155-safeBatchTransferFrom}."
					},
					"safeTransferFrom(address,address,uint256,uint256,bytes)": {
						"details": "See {IERC1155-safeTransferFrom}."
					},
					"setApprovalForAll(address,bool)": {
						"details": "See {IERC1155-setApprovalForAll}."
					},
					"supportsInterface(bytes4)": {
						"details": "See {IERC165-supportsInterface}."
					},
					"transferOwnership(address)": {
						"details": "Transfers ownership of the contract to a new account (`newOwner`). Can only be called by the current owner."
					},
					"uri(uint256)": {
						"details": "See {IERC1155MetadataURI-uri}. This implementation returns the same URI for *all* token types. It relies on the token type ID substitution mechanism https://eips.ethereum.org/EIPS/eip-1155#metadata[defined in the EIP]. Clients calling this function must replace the `\\{id\\}` substring with the actual token type ID."
					}
				},
				"version": 1
			},
			"evm": {
				"assembly": "    /* \"github/hugocis/VoluntariadoUFV/contracts/TokenUFV.sol\":300:1693  contract VoluntariadoUFV is ERC1155, Ownable, ERC1155Pausable {... */\n  mstore(0x40, 0x80)\n    /* \"github/hugocis/VoluntariadoUFV/contracts/TokenUFV.sol\":656:821  constructor(address initialOwner)... */\n  callvalue\n  dup1\n  iszero\n  tag_1\n  jumpi\n  0x00\n  dup1\n  revert\ntag_1:\n  pop\n  mload(0x40)\n  sub(codesize, bytecodeSize)\n  dup1\n  bytecodeSize\n  dup4\n  codecopy\n  dup2\n  dup2\n  add\n  0x40\n  mstore\n  dup2\n  add\n  swap1\n  tag_2\n  swap2\n  swap1\n  tag_3\n  jump\t// in\ntag_2:\n    /* \"github/hugocis/VoluntariadoUFV/contracts/TokenUFV.sol\":801:813  initialOwner */\n  dup1\n    /* \"@openzeppelin/contracts/token/ERC1155/ERC1155.sol\":1251:1313  constructor(string memory uri_) {... */\n  mload(0x40)\n  dup1\n  0x80\n  add\n  0x40\n  mstore\n  dup1\n  0x4b\n  dup2\n  mstore\n  0x20\n  add\n  data_eae80a2c7bf2c9d096e554e5e4405cf6aefa68f606389f34d4cda8a311083ded\n  0x4b\n  swap2\n  codecopy\n    /* \"@openzeppelin/contracts/token/ERC1155/ERC1155.sol\":1293:1306  _setURI(uri_) */\n  tag_9\n    /* \"@openzeppelin/contracts/token/ERC1155/ERC1155.sol\":1301:1305  uri_ */\n  dup2\n    /* \"@openzeppelin/contracts/token/ERC1155/ERC1155.sol\":1293:1300  _setURI */\n  shl(0x20, tag_10)\n    /* \"@openzeppelin/contracts/token/ERC1155/ERC1155.sol\":1293:1306  _setURI(uri_) */\n  0x20\n  shr\n  jump\t// in\ntag_9:\n    /* \"@openzeppelin/contracts/token/ERC1155/ERC1155.sol\":1251:1313  constructor(string memory uri_) {... */\n  pop\n    /* \"@openzeppelin/contracts/access/Ownable.sol\":1297:1298  0 */\n  0x00\n    /* \"@openzeppelin/contracts/access/Ownable.sol\":1273:1299  initialOwner == address(0) */\n  0xffffffffffffffffffffffffffffffffffffffff\n  and\n    /* \"@openzeppelin/contracts/access/Ownable.sol\":1273:1285  initialOwner */\n  dup2\n    /* \"@openzeppelin/contracts/access/Ownable.sol\":1273:1299  initialOwner == address(0) */\n  0xffffffffffffffffffffffffffffffffffffffff\n  and\n  sub\n    /* \"@openzeppelin/contracts/access/Ownable.sol\":1269:1364  if (initialOwner == address(0)) {... */\n  tag_12\n  jumpi\n    /* \"@openzeppelin/contracts/access/Ownable.sol\":1350:1351  0 */\n  0x00\n    /* \"@openzeppelin/contracts/access/Ownable.sol\":1322:1353  OwnableInvalidOwner(address(0)) */\n  mload(0x40)\n  0x1e4fbdf700000000000000000000000000000000000000000000000000000000\n  dup2\n  mstore\n  0x04\n  add\n  tag_13\n  swap2\n  swap1\n  tag_14\n  jump\t// in\ntag_13:\n  mload(0x40)\n  dup1\n  swap2\n  sub\n  swap1\n  revert\n    /* \"@openzeppelin/contracts/access/Ownable.sol\":1269:1364  if (initialOwner == address(0)) {... */\ntag_12:\n    /* \"@openzeppelin/contracts/access/Ownable.sol\":1373:1405  _transferOwnership(initialOwner) */\n  tag_15\n    /* \"@openzeppelin/contracts/access/Ownable.sol\":1392:1404  initialOwner */\n  dup2\n    /* \"@openzeppelin/contracts/access/Ownable.sol\":1373:1391  _transferOwnership */\n  shl(0x20, tag_16)\n    /* \"@openzeppelin/contracts/access/Ownable.sol\":1373:1405  _transferOwnership(initialOwner) */\n  0x20\n  shr\n  jump\t// in\ntag_15:\n    /* \"@openzeppelin/contracts/access/Ownable.sol\":1225:1412  constructor(address initialOwner) {... */\n  pop\n    /* \"@openzeppelin/contracts/utils/Pausable.sol\":1241:1246  false */\n  0x00\n    /* \"@openzeppelin/contracts/utils/Pausable.sol\":1231:1238  _paused */\n  0x03\n  0x14\n    /* \"@openzeppelin/contracts/utils/Pausable.sol\":1231:1246  _paused = false */\n  0x0100\n  exp\n  dup2\n  sload\n  dup2\n  0xff\n  mul\n  not\n  and\n  swap1\n  dup4\n  iszero\n  iszero\n  mul\n  or\n  swap1\n  sstore\n  pop\n    /* \"github/hugocis/VoluntariadoUFV/contracts/TokenUFV.sol\":656:821  constructor(address initialOwner)... */\n  pop\n    /* \"github/hugocis/VoluntariadoUFV/contracts/TokenUFV.sol\":300:1693  contract VoluntariadoUFV is ERC1155, Ownable, ERC1155Pausable {... */\n  jump(tag_19)\n    /* \"@openzeppelin/contracts/token/ERC1155/ERC1155.sol\":10282:10368  function _setURI(string memory newuri) internal virtual {... */\ntag_10:\n    /* \"@openzeppelin/contracts/token/ERC1155/ERC1155.sol\":10355:10361  newuri */\n  dup1\n    /* \"@openzeppelin/contracts/token/ERC1155/ERC1155.sol\":10348:10352  _uri */\n  0x02\n    /* \"@openzeppelin/contracts/token/ERC1155/ERC1155.sol\":10348:10361  _uri = newuri */\n  swap1\n  dup2\n  tag_21\n  swap2\n  swap1\n  tag_22\n  jump\t// in\ntag_21:\n  pop\n    /* \"@openzeppelin/contracts/token/ERC1155/ERC1155.sol\":10282:10368  function _setURI(string memory newuri) internal virtual {... */\n  pop\n  jump\t// out\n    /* \"@openzeppelin/contracts/access/Ownable.sol\":2912:3099  function _transferOwnership(address newOwner) internal virtual {... */\ntag_16:\n    /* \"@openzeppelin/contracts/access/Ownable.sol\":2985:3001  address oldOwner */\n  0x00\n    /* \"@openzeppelin/contracts/access/Ownable.sol\":3004:3010  _owner */\n  0x03\n  0x00\n  swap1\n  sload\n  swap1\n  0x0100\n  exp\n  swap1\n  div\n  0xffffffffffffffffffffffffffffffffffffffff\n  and\n    /* \"@openzeppelin/contracts/access/Ownable.sol\":2985:3010  address oldOwner = _owner */\n  swap1\n  pop\n    /* \"@openzeppelin/contracts/access/Ownable.sol\":3029:3037  newOwner */\n  dup2\n    /* \"@openzeppelin/contracts/access/Ownable.sol\":3020:3026  _owner */\n  0x03\n  0x00\n    /* \"@openzeppelin/contracts/access/Ownable.sol\":3020:3037  _owner = newOwner */\n  0x0100\n  exp\n  dup2\n  sload\n  dup2\n  0xffffffffffffffffffffffffffffffffffffffff\n  mul\n  not\n  and\n  swap1\n  dup4\n  0xffffffffffffffffffffffffffffffffffffffff\n  and\n  mul\n  or\n  swap1\n  sstore\n  pop\n    /* \"@openzeppelin/contracts/access/Ownable.sol\":3083:3091  newOwner */\n  dup2\n    /* \"@openzeppelin/contracts/access/Ownable.sol\":3052:3092  OwnershipTransferred(oldOwner, newOwner) */\n  0xffffffffffffffffffffffffffffffffffffffff\n  and\n    /* \"@openzeppelin/contracts/access/Ownable.sol\":3073:3081  oldOwner */\n  dup2\n    /* \"@openzeppelin/contracts/access/Ownable.sol\":3052:3092  OwnershipTransferred(oldOwner, newOwner) */\n  0xffffffffffffffffffffffffffffffffffffffff\n  and\n  0x8be0079c531659141344cd1fd0a4f28419497f9722a3daafe3b4186f6b6457e0\n  mload(0x40)\n  mload(0x40)\n  dup1\n  swap2\n  sub\n  swap1\n  log3\n    /* \"@openzeppelin/contracts/access/Ownable.sol\":2975:3099  {... */\n  pop\n    /* \"@openzeppelin/contracts/access/Ownable.sol\":2912:3099  function _transferOwnership(address newOwner) internal virtual {... */\n  pop\n  jump\t// out\n    /* \"#utility.yul\":88:205   */\ntag_25:\n    /* \"#utility.yul\":197:198   */\n  0x00\n    /* \"#utility.yul\":194:195   */\n  dup1\n    /* \"#utility.yul\":187:199   */\n  revert\n    /* \"#utility.yul\":334:460   */\ntag_27:\n    /* \"#utility.yul\":371:378   */\n  0x00\n    /* \"#utility.yul\":411:453   */\n  0xffffffffffffffffffffffffffffffffffffffff\n    /* \"#utility.yul\":404:409   */\n  dup3\n    /* \"#utility.yul\":400:454   */\n  and\n    /* \"#utility.yul\":389:454   */\n  swap1\n  pop\n    /* \"#utility.yul\":334:460   */\n  swap2\n  swap1\n  pop\n  jump\t// out\n    /* \"#utility.yul\":466:562   */\ntag_28:\n    /* \"#utility.yul\":503:510   */\n  0x00\n    /* \"#utility.yul\":532:556   */\n  tag_58\n    /* \"#utility.yul\":550:555   */\n  dup3\n    /* \"#utility.yul\":532:556   */\n  tag_27\n  jump\t// in\ntag_58:\n    /* \"#utility.yul\":521:556   */\n  swap1\n  pop\n    /* \"#utility.yul\":466:562   */\n  swap2\n  swap1\n  pop\n  jump\t// out\n    /* \"#utility.yul\":568:690   */\ntag_29:\n    /* \"#utility.yul\":641:665   */\n  tag_60\n    /* \"#utility.yul\":659:664   */\n  dup2\n    /* \"#utility.yul\":641:665   */\n  tag_28\n  jump\t// in\ntag_60:\n    /* \"#utility.yul\":634:639   */\n  dup2\n    /* \"#utility.yul\":631:666   */\n  eq\n    /* \"#utility.yul\":621:684   */\n  tag_61\n  jumpi\n    /* \"#utility.yul\":680:681   */\n  0x00\n    /* \"#utility.yul\":677:678   */\n  dup1\n    /* \"#utility.yul\":670:682   */\n  revert\n    /* \"#utility.yul\":621:684   */\ntag_61:\n    /* \"#utility.yul\":568:690   */\n  pop\n  jump\t// out\n    /* \"#utility.yul\":696:839   */\ntag_30:\n    /* \"#utility.yul\":753:758   */\n  0x00\n    /* \"#utility.yul\":784:790   */\n  dup2\n    /* \"#utility.yul\":778:791   */\n  mload\n    /* \"#utility.yul\":769:791   */\n  swap1\n  pop\n    /* \"#utility.yul\":800:833   */\n  tag_63\n    /* \"#utility.yul\":827:832   */\n  dup2\n    /* \"#utility.yul\":800:833   */\n  tag_29\n  jump\t// in\ntag_63:\n    /* \"#utility.yul\":696:839   */\n  swap3\n  swap2\n  pop\n  pop\n  jump\t// out\n    /* \"#utility.yul\":845:1196   */\ntag_3:\n    /* \"#utility.yul\":915:921   */\n  0x00\n    /* \"#utility.yul\":964:966   */\n  0x20\n    /* \"#utility.yul\":952:961   */\n  dup3\n    /* \"#utility.yul\":943:950   */\n  dup5\n    /* \"#utility.yul\":939:962   */\n  sub\n    /* \"#utility.yul\":935:967   */\n  slt\n    /* \"#utility.yul\":932:1051   */\n  iszero\n  tag_65\n  jumpi\n    /* \"#utility.yul\":970:1049   */\n  tag_66\n  tag_25\n  jump\t// in\ntag_66:\n    /* \"#utility.yul\":932:1051   */\ntag_65:\n    /* \"#utility.yul\":1090:1091   */\n  0x00\n    /* \"#utility.yul\":1115:1179   */\n  tag_67\n    /* \"#utility.yul\":1171:1178   */\n  dup5\n    /* \"#utility.yul\":1162:1168   */\n  dup3\n    /* \"#utility.yul\":1151:1160   */\n  dup6\n    /* \"#utility.yul\":1147:1169   */\n  add\n    /* \"#utility.yul\":1115:1179   */\n  tag_30\n  jump\t// in\ntag_67:\n    /* \"#utility.yul\":1105:1179   */\n  swap2\n  pop\n    /* \"#utility.yul\":1061:1189   */\n  pop\n    /* \"#utility.yul\":845:1196   */\n  swap3\n  swap2\n  pop\n  pop\n  jump\t// out\n    /* \"#utility.yul\":1202:1320   */\ntag_31:\n    /* \"#utility.yul\":1289:1313   */\n  tag_69\n    /* \"#utility.yul\":1307:1312   */\n  dup2\n    /* \"#utility.yul\":1289:1313   */\n  tag_28\n  jump\t// in\ntag_69:\n    /* \"#utility.yul\":1284:1287   */\n  dup3\n    /* \"#utility.yul\":1277:1314   */\n  mstore\n    /* \"#utility.yul\":1202:1320   */\n  pop\n  pop\n  jump\t// out\n    /* \"#utility.yul\":1326:1548   */\ntag_14:\n    /* \"#utility.yul\":1419:1423   */\n  0x00\n    /* \"#utility.yul\":1457:1459   */\n  0x20\n    /* \"#utility.yul\":1446:1455   */\n  dup3\n    /* \"#utility.yul\":1442:1460   */\n  add\n    /* \"#utility.yul\":1434:1460   */\n  swap1\n  pop\n    /* \"#utility.yul\":1470:1541   */\n  tag_71\n    /* \"#utility.yul\":1538:1539   */\n  0x00\n    /* \"#utility.yul\":1527:1536   */\n  dup4\n    /* \"#utility.yul\":1523:1540   */\n  add\n    /* \"#utility.yul\":1514:1520   */\n  dup5\n    /* \"#utility.yul\":1470:1541   */\n  tag_31\n  jump\t// in\ntag_71:\n    /* \"#utility.yul\":1326:1548   */\n  swap3\n  swap2\n  pop\n  pop\n  jump\t// out\n    /* \"#utility.yul\":1554:1653   */\ntag_32:\n    /* \"#utility.yul\":1606:1612   */\n  0x00\n    /* \"#utility.yul\":1640:1645   */\n  dup2\n    /* \"#utility.yul\":1634:1646   */\n  mload\n    /* \"#utility.yul\":1624:1646   */\n  swap1\n  pop\n    /* \"#utility.yul\":1554:1653   */\n  swap2\n  swap1\n  pop\n  jump\t// out\n    /* \"#utility.yul\":1659:1839   */\ntag_33:\n    /* \"#utility.yul\":1707:1784   */\n  0x4e487b7100000000000000000000000000000000000000000000000000000000\n    /* \"#utility.yul\":1704:1705   */\n  0x00\n    /* \"#utility.yul\":1697:1785   */\n  mstore\n    /* \"#utility.yul\":1804:1808   */\n  0x41\n    /* \"#utility.yul\":1801:1802   */\n  0x04\n    /* \"#utility.yul\":1794:1809   */\n  mstore\n    /* \"#utility.yul\":1828:1832   */\n  0x24\n    /* \"#utility.yul\":1825:1826   */\n  0x00\n    /* \"#utility.yul\":1818:1833   */\n  revert\n    /* \"#utility.yul\":1845:2025   */\ntag_34:\n    /* \"#utility.yul\":1893:1970   */\n  0x4e487b7100000000000000000000000000000000000000000000000000000000\n    /* \"#utility.yul\":1890:1891   */\n  0x00\n    /* \"#utility.yul\":1883:1971   */\n  mstore\n    /* \"#utility.yul\":1990:1994   */\n  0x22\n    /* \"#utility.yul\":1987:1988   */\n  0x04\n    /* \"#utility.yul\":1980:1995   */\n  mstore\n    /* \"#utility.yul\":2014:2018   */\n  0x24\n    /* \"#utility.yul\":2011:2012   */\n  0x00\n    /* \"#utility.yul\":2004:2019   */\n  revert\n    /* \"#utility.yul\":2031:2351   */\ntag_35:\n    /* \"#utility.yul\":2075:2081   */\n  0x00\n    /* \"#utility.yul\":2112:2113   */\n  0x02\n    /* \"#utility.yul\":2106:2110   */\n  dup3\n    /* \"#utility.yul\":2102:2114   */\n  div\n    /* \"#utility.yul\":2092:2114   */\n  swap1\n  pop\n    /* \"#utility.yul\":2159:2160   */\n  0x01\n    /* \"#utility.yul\":2153:2157   */\n  dup3\n    /* \"#utility.yul\":2149:2161   */\n  and\n    /* \"#utility.yul\":2180:2198   */\n  dup1\n    /* \"#utility.yul\":2170:2251   */\n  tag_76\n  jumpi\n    /* \"#utility.yul\":2236:2240   */\n  0x7f\n    /* \"#utility.yul\":2228:2234   */\n  dup3\n    /* \"#utility.yul\":2224:2241   */\n  and\n    /* \"#utility.yul\":2214:2241   */\n  swap2\n  pop\n    /* \"#utility.yul\":2170:2251   */\ntag_76:\n    /* \"#utility.yul\":2298:2300   */\n  0x20\n    /* \"#utility.yul\":2290:2296   */\n  dup3\n    /* \"#utility.yul\":2287:2301   */\n  lt\n    /* \"#utility.yul\":2267:2285   */\n  dup2\n    /* \"#utility.yul\":2264:2302   */\n  sub\n    /* \"#utility.yul\":2261:2345   */\n  tag_77\n  jumpi\n    /* \"#utility.yul\":2317:2335   */\n  tag_78\n  tag_34\n  jump\t// in\ntag_78:\n    /* \"#utility.yul\":2261:2345   */\ntag_77:\n    /* \"#utility.yul\":2082:2351   */\n  pop\n    /* \"#utility.yul\":2031:2351   */\n  swap2\n  swap1\n  pop\n  jump\t// out\n    /* \"#utility.yul\":2357:2498   */\ntag_36:\n    /* \"#utility.yul\":2406:2410   */\n  0x00\n    /* \"#utility.yul\":2429:2432   */\n  dup2\n    /* \"#utility.yul\":2421:2432   */\n  swap1\n  pop\n    /* \"#utility.yul\":2452:2455   */\n  dup2\n    /* \"#utility.yul\":2449:2450   */\n  0x00\n    /* \"#utility.yul\":2442:2456   */\n  mstore\n    /* \"#utility.yul\":2486:2490   */\n  0x20\n    /* \"#utility.yul\":2483:2484   */\n  0x00\n    /* \"#utility.yul\":2473:2491   */\n  keccak256\n    /* \"#utility.yul\":2465:2491   */\n  swap1\n  pop\n    /* \"#utility.yul\":2357:2498   */\n  swap2\n  swap1\n  pop\n  jump\t// out\n    /* \"#utility.yul\":2504:2597   */\ntag_37:\n    /* \"#utility.yul\":2541:2547   */\n  0x00\n    /* \"#utility.yul\":2588:2590   */\n  0x20\n    /* \"#utility.yul\":2583:2585   */\n  0x1f\n    /* \"#utility.yul\":2576:2581   */\n  dup4\n    /* \"#utility.yul\":2572:2586   */\n  add\n    /* \"#utility.yul\":2568:2591   */\n  div\n    /* \"#utility.yul\":2558:2591   */\n  swap1\n  pop\n    /* \"#utility.yul\":2504:2597   */\n  swap2\n  swap1\n  pop\n  jump\t// out\n    /* \"#utility.yul\":2603:2710   */\ntag_38:\n    /* \"#utility.yul\":2647:2655   */\n  0x00\n    /* \"#utility.yul\":2697:2702   */\n  dup3\n    /* \"#utility.yul\":2691:2695   */\n  dup3\n    /* \"#utility.yul\":2687:2703   */\n  shl\n    /* \"#utility.yul\":2666:2703   */\n  swap1\n  pop\n    /* \"#utility.yul\":2603:2710   */\n  swap3\n  swap2\n  pop\n  pop\n  jump\t// out\n    /* \"#utility.yul\":2716:3109   */\ntag_39:\n    /* \"#utility.yul\":2785:2791   */\n  0x00\n    /* \"#utility.yul\":2835:2836   */\n  0x08\n    /* \"#utility.yul\":2823:2833   */\n  dup4\n    /* \"#utility.yul\":2819:2837   */\n  mul\n    /* \"#utility.yul\":2858:2955   */\n  tag_83\n    /* \"#utility.yul\":2888:2954   */\n  0xffffffffffffffffffffffffffffffffffffffffffffffffffffffffffffffff\n    /* \"#utility.yul\":2877:2886   */\n  dup3\n    /* \"#utility.yul\":2858:2955   */\n  tag_38\n  jump\t// in\ntag_83:\n    /* \"#utility.yul\":2976:3015   */\n  tag_84\n    /* \"#utility.yul\":3006:3014   */\n  dup7\n    /* \"#utility.yul\":2995:3004   */\n  dup4\n    /* \"#utility.yul\":2976:3015   */\n  tag_38\n  jump\t// in\ntag_84:\n    /* \"#utility.yul\":2964:3015   */\n  swap6\n  pop\n    /* \"#utility.yul\":3048:3052   */\n  dup1\n    /* \"#utility.yul\":3044:3053   */\n  not\n    /* \"#utility.yul\":3037:3042   */\n  dup5\n    /* \"#utility.yul\":3033:3054   */\n  and\n    /* \"#utility.yul\":3024:3054   */\n  swap4\n  pop\n    /* \"#utility.yul\":3097:3101   */\n  dup1\n    /* \"#utility.yul\":3087:3095   */\n  dup7\n    /* \"#utility.yul\":3083:3102   */\n  and\n    /* \"#utility.yul\":3076:3081   */\n  dup5\n    /* \"#utility.yul\":3073:3103   */\n  or\n    /* \"#utility.yul\":3063:3103   */\n  swap3\n  pop\n    /* \"#utility.yul\":2792:3109   */\n  pop\n  pop\n    /* \"#utility.yul\":2716:3109   */\n  swap4\n  swap3\n  pop\n  pop\n  pop\n  jump\t// out\n    /* \"#utility.yul\":3115:3192   */\ntag_40:\n    /* \"#utility.yul\":3152:3159   */\n  0x00\n    /* \"#utility.yul\":3181:3186   */\n  dup2\n    /* \"#utility.yul\":3170:3186   */\n  swap1\n  pop\n    /* \"#utility.yul\":3115:3192   */\n  swap2\n  swap1\n  pop\n  jump\t// out\n    /* \"#utility.yul\":3198:3258   */\ntag_41:\n    /* \"#utility.yul\":3226:3229   */\n  0x00\n    /* \"#utility.yul\":3247:3252   */\n  dup2\n    /* \"#utility.yul\":3240:3252   */\n  swap1\n  pop\n    /* \"#utility.yul\":3198:3258   */\n  swap2\n  swap1\n  pop\n  jump\t// out\n    /* \"#utility.yul\":3264:3406   */\ntag_42:\n    /* \"#utility.yul\":3314:3323   */\n  0x00\n    /* \"#utility.yul\":3347:3400   */\n  tag_88\n    /* \"#utility.yul\":3365:3399   */\n  tag_89\n    /* \"#utility.yul\":3374:3398   */\n  tag_90\n    /* \"#utility.yul\":3392:3397   */\n  dup5\n    /* \"#utility.yul\":3374:3398   */\n  tag_40\n  jump\t// in\ntag_90:\n    /* \"#utility.yul\":3365:3399   */\n  tag_41\n  jump\t// in\ntag_89:\n    /* \"#utility.yul\":3347:3400   */\n  tag_40\n  jump\t// in\ntag_88:\n    /* \"#utility.yul\":3334:3400   */\n  swap1\n  pop\n    /* \"#utility.yul\":3264:3406   */\n  swap2\n  swap1\n  pop\n  jump\t// out\n    /* \"#utility.yul\":3412:3487   */\ntag_43:\n    /* \"#utility.yul\":3455:3458   */\n  0x00\n    /* \"#utility.yul\":3476:3481   */\n  dup2\n    /* \"#utility.yul\":3469:3481   */\n  swap1\n  pop\n    /* \"#utility.yul\":3412:3487   */\n  swap2\n  swap1\n  pop\n  jump\t// out\n    /* \"#utility.yul\":3493:3762   */\ntag_44:\n    /* \"#utility.yul\":3603:3642   */\n  tag_93\n    /* \"#utility.yul\":3634:3641   */\n  dup4\n    /* \"#utility.yul\":3603:3642   */\n  tag_42\n  jump\t// in\ntag_93:\n    /* \"#utility.yul\":3664:3755   */\n  tag_94\n    /* \"#utility.yul\":3713:3754   */\n  tag_95\n    /* \"#utility.yul\":3737:3753   */\n  dup3\n    /* \"#utility.yul\":3713:3754   */\n  tag_43\n  jump\t// in\ntag_95:\n    /* \"#utility.yul\":3705:3711   */\n  dup5\n    /* \"#utility.yul\":3698:3702   */\n  dup5\n    /* \"#utility.yul\":3692:3703   */\n  sload\n    /* \"#utility.yul\":3664:3755   */\n  tag_39\n  jump\t// in\ntag_94:\n    /* \"#utility.yul\":3658:3662   */\n  dup3\n    /* \"#utility.yul\":3651:3756   */\n  sstore\n    /* \"#utility.yul\":3569:3762   */\n  pop\n    /* \"#utility.yul\":3493:3762   */\n  pop\n  pop\n  pop\n  jump\t// out\n    /* \"#utility.yul\":3768:3841   */\ntag_45:\n    /* \"#utility.yul\":3813:3816   */\n  0x00\n    /* \"#utility.yul\":3768:3841   */\n  swap1\n  jump\t// out\n    /* \"#utility.yul\":3847:4036   */\ntag_46:\n    /* \"#utility.yul\":3924:3956   */\n  tag_98\n  tag_45\n  jump\t// in\ntag_98:\n    /* \"#utility.yul\":3965:4030   */\n  tag_99\n    /* \"#utility.yul\":4023:4029   */\n  dup2\n    /* \"#utility.yul\":4015:4021   */\n  dup5\n    /* \"#utility.yul\":4009:4013   */\n  dup5\n    /* \"#utility.yul\":3965:4030   */\n  tag_44\n  jump\t// in\ntag_99:\n    /* \"#utility.yul\":3900:4036   */\n  pop\n    /* \"#utility.yul\":3847:4036   */\n  pop\n  pop\n  jump\t// out\n    /* \"#utility.yul\":4042:4228   */\ntag_47:\n    /* \"#utility.yul\":4102:4222   */\ntag_101:\n    /* \"#utility.yul\":4119:4122   */\n  dup2\n    /* \"#utility.yul\":4112:4117   */\n  dup2\n    /* \"#utility.yul\":4109:4123   */\n  lt\n    /* \"#utility.yul\":4102:4222   */\n  iszero\n  tag_103\n  jumpi\n    /* \"#utility.yul\":4173:4212   */\n  tag_104\n    /* \"#utility.yul\":4210:4211   */\n  0x00\n    /* \"#utility.yul\":4203:4208   */\n  dup3\n    /* \"#utility.yul\":4173:4212   */\n  tag_46\n  jump\t// in\ntag_104:\n    /* \"#utility.yul\":4146:4147   */\n  0x01\n    /* \"#utility.yul\":4139:4144   */\n  dup2\n    /* \"#utility.yul\":4135:4148   */\n  add\n    /* \"#utility.yul\":4126:4148   */\n  swap1\n  pop\n    /* \"#utility.yul\":4102:4222   */\n  jump(tag_101)\ntag_103:\n    /* \"#utility.yul\":4042:4228   */\n  pop\n  pop\n  jump\t// out\n    /* \"#utility.yul\":4234:4777   */\ntag_48:\n    /* \"#utility.yul\":4335:4337   */\n  0x1f\n    /* \"#utility.yul\":4330:4333   */\n  dup3\n    /* \"#utility.yul\":4327:4338   */\n  gt\n    /* \"#utility.yul\":4324:4770   */\n  iszero\n  tag_106\n  jumpi\n    /* \"#utility.yul\":4369:4407   */\n  tag_107\n    /* \"#utility.yul\":4401:4406   */\n  dup2\n    /* \"#utility.yul\":4369:4407   */\n  tag_36\n  jump\t// in\ntag_107:\n    /* \"#utility.yul\":4453:4482   */\n  tag_108\n    /* \"#utility.yul\":4471:4481   */\n  dup5\n    /* \"#utility.yul\":4453:4482   */\n  tag_37\n  jump\t// in\ntag_108:\n    /* \"#utility.yul\":4443:4451   */\n  dup2\n    /* \"#utility.yul\":4439:4483   */\n  add\n    /* \"#utility.yul\":4636:4638   */\n  0x20\n    /* \"#utility.yul\":4624:4634   */\n  dup6\n    /* \"#utility.yul\":4621:4639   */\n  lt\n    /* \"#utility.yul\":4618:4667   */\n  iszero\n  tag_109\n  jumpi\n    /* \"#utility.yul\":4657:4665   */\n  dup2\n    /* \"#utility.yul\":4642:4665   */\n  swap1\n  pop\n    /* \"#utility.yul\":4618:4667   */\ntag_109:\n    /* \"#utility.yul\":4680:4760   */\n  tag_110\n    /* \"#utility.yul\":4736:4758   */\n  tag_111\n    /* \"#utility.yul\":4754:4757   */\n  dup6\n    /* \"#utility.yul\":4736:4758   */\n  tag_37\n  jump\t// in\ntag_111:\n    /* \"#utility.yul\":4726:4734   */\n  dup4\n    /* \"#utility.yul\":4722:4759   */\n  add\n    /* \"#utility.yul\":4709:4720   */\n  dup3\n    /* \"#utility.yul\":4680:4760   */\n  tag_47\n  jump\t// in\ntag_110:\n    /* \"#utility.yul\":4339:4770   */\n  pop\n  pop\n    /* \"#utility.yul\":4324:4770   */\ntag_106:\n    /* \"#utility.yul\":4234:4777   */\n  pop\n  pop\n  pop\n  jump\t// out\n    /* \"#utility.yul\":4783:4900   */\ntag_49:\n    /* \"#utility.yul\":4837:4845   */\n  0x00\n    /* \"#utility.yul\":4887:4892   */\n  dup3\n    /* \"#utility.yul\":4881:4885   */\n  dup3\n    /* \"#utility.yul\":4877:4893   */\n  shr\n    /* \"#utility.yul\":4856:4893   */\n  swap1\n  pop\n    /* \"#utility.yul\":4783:4900   */\n  swap3\n  swap2\n  pop\n  pop\n  jump\t// out\n    /* \"#utility.yul\":4906:5075   */\ntag_50:\n    /* \"#utility.yul\":4950:4956   */\n  0x00\n    /* \"#utility.yul\":4983:5034   */\n  tag_114\n    /* \"#utility.yul\":5031:5032   */\n  0x00\n    /* \"#utility.yul\":5027:5033   */\n  not\n    /* \"#utility.yul\":5019:5024   */\n  dup5\n    /* \"#utility.yul\":5016:5017   */\n  0x08\n    /* \"#utility.yul\":5012:5025   */\n  mul\n    /* \"#utility.yul\":4983:5034   */\n  tag_49\n  jump\t// in\ntag_114:\n    /* \"#utility.yul\":4979:5035   */\n  not\n    /* \"#utility.yul\":5064:5068   */\n  dup1\n    /* \"#utility.yul\":5058:5062   */\n  dup4\n    /* \"#utility.yul\":5054:5069   */\n  and\n    /* \"#utility.yul\":5044:5069   */\n  swap2\n  pop\n    /* \"#utility.yul\":4957:5075   */\n  pop\n    /* \"#utility.yul\":4906:5075   */\n  swap3\n  swap2\n  pop\n  pop\n  jump\t// out\n    /* \"#utility.yul\":5080:5375   */\ntag_51:\n    /* \"#utility.yul\":5156:5160   */\n  0x00\n    /* \"#utility.yul\":5302:5331   */\n  tag_116\n    /* \"#utility.yul\":5327:5330   */\n  dup4\n    /* \"#utility.yul\":5321:5325   */\n  dup4\n    /* \"#utility.yul\":5302:5331   */\n  tag_50\n  jump\t// in\ntag_116:\n    /* \"#utility.yul\":5294:5331   */\n  swap2\n  pop\n    /* \"#utility.yul\":5364:5367   */\n  dup3\n    /* \"#utility.yul\":5361:5362   */\n  0x02\n    /* \"#utility.yul\":5357:5368   */\n  mul\n    /* \"#utility.yul\":5351:5355   */\n  dup3\n    /* \"#utility.yul\":5348:5369   */\n  or\n    /* \"#utility.yul\":5340:5369   */\n  swap1\n  pop\n    /* \"#utility.yul\":5080:5375   */\n  swap3\n  swap2\n  pop\n  pop\n  jump\t// out\n    /* \"#utility.yul\":5380:6775   */\ntag_22:\n    /* \"#utility.yul\":5497:5534   */\n  tag_118\n    /* \"#utility.yul\":5530:5533   */\n  dup3\n    /* \"#utility.yul\":5497:5534   */\n  tag_32\n  jump\t// in\ntag_118:\n    /* \"#utility.yul\":5599:5617   */\n  0xffffffffffffffff\n    /* \"#utility.yul\":5591:5597   */\n  dup2\n    /* \"#utility.yul\":5588:5618   */\n  gt\n    /* \"#utility.yul\":5585:5641   */\n  iszero\n  tag_119\n  jumpi\n    /* \"#utility.yul\":5621:5639   */\n  tag_120\n  tag_33\n  jump\t// in\ntag_120:\n    /* \"#utility.yul\":5585:5641   */\ntag_119:\n    /* \"#utility.yul\":5665:5703   */\n  tag_121\n    /* \"#utility.yul\":5697:5701   */\n  dup3\n    /* \"#utility.yul\":5691:5702   */\n  sload\n    /* \"#utility.yul\":5665:5703   */\n  tag_35\n  jump\t// in\ntag_121:\n    /* \"#utility.yul\":5750:5817   */\n  tag_122\n    /* \"#utility.yul\":5810:5816   */\n  dup3\n    /* \"#utility.yul\":5802:5808   */\n  dup3\n    /* \"#utility.yul\":5796:5800   */\n  dup6\n    /* \"#utility.yul\":5750:5817   */\n  tag_48\n  jump\t// in\ntag_122:\n    /* \"#utility.yul\":5844:5845   */\n  0x00\n    /* \"#utility.yul\":5868:5872   */\n  0x20\n    /* \"#utility.yul\":5855:5872   */\n  swap1\n  pop\n    /* \"#utility.yul\":5900:5902   */\n  0x1f\n    /* \"#utility.yul\":5892:5898   */\n  dup4\n    /* \"#utility.yul\":5889:5903   */\n  gt\n    /* \"#utility.yul\":5917:5918   */\n  0x01\n    /* \"#utility.yul\":5912:6530   */\n  dup2\n  eq\n  tag_124\n  jumpi\n    /* \"#utility.yul\":6574:6575   */\n  0x00\n    /* \"#utility.yul\":6591:6597   */\n  dup5\n    /* \"#utility.yul\":6588:6665   */\n  iszero\n  tag_125\n  jumpi\n    /* \"#utility.yul\":6640:6649   */\n  dup3\n    /* \"#utility.yul\":6635:6638   */\n  dup8\n    /* \"#utility.yul\":6631:6650   */\n  add\n    /* \"#utility.yul\":6625:6651   */\n  mload\n    /* \"#utility.yul\":6616:6651   */\n  swap1\n  pop\n    /* \"#utility.yul\":6588:6665   */\ntag_125:\n    /* \"#utility.yul\":6691:6758   */\n  tag_126\n    /* \"#utility.yul\":6751:6757   */\n  dup6\n    /* \"#utility.yul\":6744:6749   */\n  dup3\n    /* \"#utility.yul\":6691:6758   */\n  tag_51\n  jump\t// in\ntag_126:\n    /* \"#utility.yul\":6685:6689   */\n  dup7\n    /* \"#utility.yul\":6678:6759   */\n  sstore\n    /* \"#utility.yul\":6547:6769   */\n  pop\n    /* \"#utility.yul\":5882:6769   */\n  jump(tag_123)\n    /* \"#utility.yul\":5912:6530   */\ntag_124:\n    /* \"#utility.yul\":5964:5968   */\n  0x1f\n    /* \"#utility.yul\":5960:5969   */\n  not\n    /* \"#utility.yul\":5952:5958   */\n  dup5\n    /* \"#utility.yul\":5948:5970   */\n  and\n    /* \"#utility.yul\":5998:6035   */\n  tag_127\n    /* \"#utility.yul\":6030:6034   */\n  dup7\n    /* \"#utility.yul\":5998:6035   */\n  tag_36\n  jump\t// in\ntag_127:\n    /* \"#utility.yul\":6057:6058   */\n  0x00\n    /* \"#utility.yul\":6071:6279   */\ntag_128:\n    /* \"#utility.yul\":6085:6092   */\n  dup3\n    /* \"#utility.yul\":6082:6083   */\n  dup2\n    /* \"#utility.yul\":6079:6093   */\n  lt\n    /* \"#utility.yul\":6071:6279   */\n  iszero\n  tag_130\n  jumpi\n    /* \"#utility.yul\":6164:6173   */\n  dup5\n    /* \"#utility.yul\":6159:6162   */\n  dup10\n    /* \"#utility.yul\":6155:6174   */\n  add\n    /* \"#utility.yul\":6149:6175   */\n  mload\n    /* \"#utility.yul\":6141:6147   */\n  dup3\n    /* \"#utility.yul\":6134:6176   */\n  sstore\n    /* \"#utility.yul\":6215:6216   */\n  0x01\n    /* \"#utility.yul\":6207:6213   */\n  dup3\n    /* \"#utility.yul\":6203:6217   */\n  add\n    /* \"#utility.yul\":6193:6217   */\n  swap2\n  pop\n    /* \"#utility.yul\":6262:6264   */\n  0x20\n    /* \"#utility.yul\":6251:6260   */\n  dup6\n    /* \"#utility.yul\":6247:6265   */\n  add\n    /* \"#utility.yul\":6234:6265   */\n  swap5\n  pop\n    /* \"#utility.yul\":6108:6112   */\n  0x20\n    /* \"#utility.yul\":6105:6106   */\n  dup2\n    /* \"#utility.yul\":6101:6113   */\n  add\n    /* \"#utility.yul\":6096:6113   */\n  swap1\n  pop\n    /* \"#utility.yul\":6071:6279   */\n  jump(tag_128)\ntag_130:\n    /* \"#utility.yul\":6307:6313   */\n  dup7\n    /* \"#utility.yul\":6298:6305   */\n  dup4\n    /* \"#utility.yul\":6295:6314   */\n  lt\n    /* \"#utility.yul\":6292:6471   */\n  iszero\n  tag_131\n  jumpi\n    /* \"#utility.yul\":6365:6374   */\n  dup5\n    /* \"#utility.yul\":6360:6363   */\n  dup10\n    /* \"#utility.yul\":6356:6375   */\n  add\n    /* \"#utility.yul\":6350:6376   */\n  mload\n    /* \"#utility.yul\":6408:6456   */\n  tag_132\n    /* \"#utility.yul\":6450:6454   */\n  0x1f\n    /* \"#utility.yul\":6442:6448   */\n  dup10\n    /* \"#utility.yul\":6438:6455   */\n  and\n    /* \"#utility.yul\":6427:6436   */\n  dup3\n    /* \"#utility.yul\":6408:6456   */\n  tag_50\n  jump\t// in\ntag_132:\n    /* \"#utility.yul\":6400:6406   */\n  dup4\n    /* \"#utility.yul\":6393:6457   */\n  sstore\n    /* \"#utility.yul\":6315:6471   */\n  pop\n    /* \"#utility.yul\":6292:6471   */\ntag_131:\n    /* \"#utility.yul\":6517:6518   */\n  0x01\n    /* \"#utility.yul\":6513:6514   */\n  0x02\n    /* \"#utility.yul\":6505:6511   */\n  dup9\n    /* \"#utility.yul\":6501:6515   */\n  mul\n    /* \"#utility.yul\":6497:6519   */\n  add\n    /* \"#utility.yul\":6491:6495   */\n  dup9\n    /* \"#utility.yul\":6484:6520   */\n  sstore\n    /* \"#utility.yul\":5919:6530   */\n  pop\n  pop\n  pop\n    /* \"#utility.yul\":5882:6769   */\ntag_123:\n  pop\n    /* \"#utility.yul\":5472:6775   */\n  pop\n  pop\n  pop\n    /* \"#utility.yul\":5380:6775   */\n  pop\n  pop\n  jump\t// out\n    /* \"github/hugocis/VoluntariadoUFV/contracts/TokenUFV.sol\":300:1693  contract VoluntariadoUFV is ERC1155, Ownable, ERC1155Pausable {... */\ntag_19:\n  dataSize(sub_0)\n  dup1\n  dataOffset(sub_0)\n  0x00\n  codecopy\n  0x00\n  return\nstop\ndata_eae80a2c7bf2c9d096e554e5e4405cf6aefa68f606389f34d4cda8a311083ded 68747470733a2f2f7261772e67697468756275736572636f6e74656e742e636f6d2f4a4c44536a722f6d657461646174615f626c6f636b636861696e2f6d61696e2f7b69647d2e6a736f6e\n\nsub_0: assembly {\n        /* \"github/hugocis/VoluntariadoUFV/contracts/TokenUFV.sol\":300:1693  contract VoluntariadoUFV is ERC1155, Ownable, ERC1155Pausable {... */\n      mstore(0x40, 0x80)\n      callvalue\n      dup1\n      iszero\n      tag_1\n      jumpi\n      0x00\n      dup1\n      revert\n    tag_1:\n      pop\n      jumpi(tag_2, lt(calldatasize, 0x04))\n      shr(0xe0, calldataload(0x00))\n      dup1\n      0x5c975abb\n      gt\n      tag_20\n      jumpi\n      dup1\n      0x8da5cb5b\n      gt\n      tag_21\n      jumpi\n      dup1\n      0x8da5cb5b\n      eq\n      tag_15\n      jumpi\n      dup1\n      0xa22cb465\n      eq\n      tag_16\n      jumpi\n      dup1\n      0xe985e9c5\n      eq\n      tag_17\n      jumpi\n      dup1\n      0xf242432a\n      eq\n      tag_18\n      jumpi\n      dup1\n      0xf2fde38b\n      eq\n      tag_19\n      jumpi\n      jump(tag_2)\n    tag_21:\n      dup1\n      0x5c975abb\n      eq\n      tag_11\n      jumpi\n      dup1\n      0x715018a6\n      eq\n      tag_12\n      jumpi\n      dup1\n      0x731133e9\n      eq\n      tag_13\n      jumpi\n      dup1\n      0x8456cb59\n      eq\n      tag_14\n      jumpi\n      jump(tag_2)\n    tag_20:\n      dup1\n      0x1f7fdffa\n      gt\n      tag_22\n      jumpi\n      dup1\n      0x1f7fdffa\n      eq\n      tag_7\n      jumpi\n      dup1\n      0x2eb2c2d6\n      eq\n      tag_8\n      jumpi\n      dup1\n      0x3f4ba83a\n      eq\n      tag_9\n      jumpi\n      dup1\n      0x4e1273f4\n      eq\n      tag_10\n      jumpi\n      jump(tag_2)\n    tag_22:\n      dup1\n      0xfdd58e\n      eq\n      tag_3\n      jumpi\n      dup1\n      0x01ffc9a7\n      eq\n      tag_4\n      jumpi\n      dup1\n      0x02fe5305\n      eq\n      tag_5\n      jumpi\n      dup1\n      0x0e89341c\n      eq\n      tag_6\n      jumpi\n    tag_2:\n      0x00\n      dup1\n      revert\n        /* \"@openzeppelin/contracts/token/ERC1155/ERC1155.sol\":2247:2379  function balanceOf(address account, uint256 id) public view virtual returns (uint256) {... */\n    tag_3:\n      tag_23\n      0x04\n      dup1\n      calldatasize\n      sub\n      dup2\n      add\n      swap1\n      tag_24\n      swap2\n      swap1\n      tag_25\n      jump\t// in\n    tag_24:\n      tag_26\n      jump\t// in\n    tag_23:\n      mload(0x40)\n      tag_27\n      swap2\n      swap1\n      tag_28\n      jump\t// in\n    tag_27:\n      mload(0x40)\n      dup1\n      swap2\n      sub\n      swap1\n      return\n        /* \"@openzeppelin/contracts/token/ERC1155/ERC1155.sol\":1380:1685  function supportsInterface(bytes4 interfaceId) public view virtual override(ERC165, IERC165) returns (bool) {... */\n    tag_4:\n      tag_29\n      0x04\n      dup1\n      calldatasize\n      sub\n      dup2\n      add\n      swap1\n      tag_30\n      swap2\n      swap1\n      tag_31\n      jump\t// in\n    tag_30:\n      tag_32\n      jump\t// in\n    tag_29:\n      mload(0x40)\n      tag_33\n      swap2\n      swap1\n      tag_34\n      jump\t// in\n    tag_33:\n      mload(0x40)\n      dup1\n      swap2\n      sub\n      swap1\n      return\n        /* \"github/hugocis/VoluntariadoUFV/contracts/TokenUFV.sol\":827:914  function setURI(string memory newuri) public onlyOwner {... */\n    tag_5:\n      tag_35\n      0x04\n      dup1\n      calldatasize\n      sub\n      dup2\n      add\n      swap1\n      tag_36\n      swap2\n      swap1\n      tag_37\n      jump\t// in\n    tag_36:\n      tag_38\n      jump\t// in\n    tag_35:\n      stop\n        /* \"@openzeppelin/contracts/token/ERC1155/ERC1155.sol\":2084:2187  function uri(uint256 /* id */) public view virtual returns (string memory) {... */\n    tag_6:\n      tag_39\n      0x04\n      dup1\n      calldatasize\n      sub\n      dup2\n      add\n      swap1\n      tag_40\n      swap2\n      swap1\n      tag_41\n      jump\t// in\n    tag_40:\n      tag_42\n      jump\t// in\n    tag_39:\n      mload(0x40)\n      tag_43\n      swap2\n      swap1\n      tag_44\n      jump\t// in\n    tag_43:\n      mload(0x40)\n      dup1\n      swap2\n      sub\n      swap1\n      return\n        /* \"github/hugocis/VoluntariadoUFV/contracts/TokenUFV.sol\":1224:1410  function mintBatch(address to, uint256[] memory ids, uint256[] memory amounts, bytes memory data)... */\n    tag_7:\n      tag_45\n      0x04\n      dup1\n      calldatasize\n      sub\n      dup2\n      add\n      swap1\n      tag_46\n      swap2\n      swap1\n      tag_47\n      jump\t// in\n    tag_46:\n      tag_48\n      jump\t// in\n    tag_45:\n      stop\n        /* \"@openzeppelin/contracts/token/ERC1155/ERC1155.sol\":4014:4443  function safeBatchTransferFrom(... */\n    tag_8:\n      tag_49\n      0x04\n      dup1\n      calldatasize\n      sub\n      dup2\n      add\n      swap1\n      tag_50\n      swap2\n      swap1\n      tag_51\n      jump\t// in\n    tag_50:\n      tag_52\n      jump\t// in\n    tag_49:\n      stop\n        /* \"github/hugocis/VoluntariadoUFV/contracts/TokenUFV.sol\":985:1048  function unpause() public onlyOwner {... */\n    tag_9:\n      tag_53\n      tag_54\n      jump\t// in\n    tag_53:\n      stop\n        /* \"@openzeppelin/contracts/token/ERC1155/ERC1155.sol\":2536:3088  function balanceOfBatch(... */\n    tag_10:\n      tag_55\n      0x04\n      dup1\n      calldatasize\n      sub\n      dup2\n      add\n      swap1\n      tag_56\n      swap2\n      swap1\n      tag_57\n      jump\t// in\n    tag_56:\n      tag_58\n      jump\t// in\n    tag_55:\n      mload(0x40)\n      tag_59\n      swap2\n      swap1\n      tag_60\n      jump\t// in\n    tag_59:\n      mload(0x40)\n      dup1\n      swap2\n      sub\n      swap1\n      return\n        /* \"@openzeppelin/contracts/utils/Pausable.sol\":1850:1934  function paused() public view virtual returns (bool) {... */\n    tag_11:\n      tag_61\n      tag_62\n      jump\t// in\n    tag_61:\n      mload(0x40)\n      tag_63\n      swap2\n      swap1\n      tag_34\n      jump\t// in\n    tag_63:\n      mload(0x40)\n      dup1\n      swap2\n      sub\n      swap1\n      return\n        /* \"@openzeppelin/contracts/access/Ownable.sol\":2293:2394  function renounceOwnership() public virtual onlyOwner {... */\n    tag_12:\n      tag_64\n      tag_65\n      jump\t// in\n    tag_64:\n      stop\n        /* \"github/hugocis/VoluntariadoUFV/contracts/TokenUFV.sol\":1054:1218  function mint(address account, uint256 id, uint256 amount, bytes memory data)... */\n    tag_13:\n      tag_66\n      0x04\n      dup1\n      calldatasize\n      sub\n      dup2\n      add\n      swap1\n      tag_67\n      swap2\n      swap1\n      tag_68\n      jump\t// in\n    tag_67:\n      tag_69\n      jump\t// in\n    tag_66:\n      stop\n        /* \"github/hugocis/VoluntariadoUFV/contracts/TokenUFV.sol\":920:979  function pause() public onlyOwner {... */\n    tag_14:\n      tag_70\n      tag_71\n      jump\t// in\n    tag_70:\n      stop\n        /* \"@openzeppelin/contracts/access/Ownable.sol\":1638:1723  function owner() public view virtual returns (address) {... */\n    tag_15:\n      tag_72\n      tag_73\n      jump\t// in\n    tag_72:\n      mload(0x40)\n      tag_74\n      swap2\n      swap1\n      tag_75\n      jump\t// in\n    tag_74:\n      mload(0x40)\n      dup1\n      swap2\n      sub\n      swap1\n      return\n        /* \"@openzeppelin/contracts/token/ERC1155/ERC1155.sol\":3156:3300  function setApprovalForAll(address operator, bool approved) public virtual {... */\n    tag_16:\n      tag_76\n      0x04\n      dup1\n      calldatasize\n      sub\n      dup2\n      add\n      swap1\n      tag_77\n      swap2\n      swap1\n      tag_78\n      jump\t// in\n    tag_77:\n      tag_79\n      jump\t// in\n    tag_76:\n      stop\n        /* \"@openzeppelin/contracts/token/ERC1155/ERC1155.sol\":3367:3524  function isApprovedForAll(address account, address operator) public view virtual returns (bool) {... */\n    tag_17:\n      tag_80\n      0x04\n      dup1\n      calldatasize\n      sub\n      dup2\n      add\n      swap1\n      tag_81\n      swap2\n      swap1\n      tag_82\n      jump\t// in\n    tag_81:\n      tag_83\n      jump\t// in\n    tag_80:\n      mload(0x40)\n      tag_84\n      swap2\n      swap1\n      tag_34\n      jump\t// in\n    tag_84:\n      mload(0x40)\n      dup1\n      swap2\n      sub\n      swap1\n      return\n        /* \"@openzeppelin/contracts/token/ERC1155/ERC1155.sol\":3591:3942  function safeTransferFrom(address from, address to, uint256 id, uint256 value, bytes memory data) public virtual {... */\n    tag_18:\n      tag_85\n      0x04\n      dup1\n      calldatasize\n      sub\n      dup2\n      add\n      swap1\n      tag_86\n      swap2\n      swap1\n      tag_87\n      jump\t// in\n    tag_86:\n      tag_88\n      jump\t// in\n    tag_85:\n      stop\n        /* \"@openzeppelin/contracts/access/Ownable.sol\":2543:2758  function transferOwnership(address newOwner) public virtual onlyOwner {... */\n    tag_19:\n      tag_89\n      0x04\n      dup1\n      calldatasize\n      sub\n      dup2\n      add\n      swap1\n      tag_90\n      swap2\n      swap1\n      tag_91\n      jump\t// in\n    tag_90:\n      tag_92\n      jump\t// in\n    tag_89:\n      stop\n        /* \"@openzeppelin/contracts/token/ERC1155/ERC1155.sol\":2247:2379  function balanceOf(address account, uint256 id) public view virtual returns (uint256) {... */\n    tag_26:\n        /* \"@openzeppelin/contracts/token/ERC1155/ERC1155.sol\":2324:2331  uint256 */\n      0x00\n        /* \"@openzeppelin/contracts/token/ERC1155/ERC1155.sol\":2350:2359  _balances */\n      dup1\n        /* \"@openzeppelin/contracts/token/ERC1155/ERC1155.sol\":2350:2363  _balances[id] */\n      0x00\n        /* \"@openzeppelin/contracts/token/ERC1155/ERC1155.sol\":2360:2362  id */\n      dup4\n        /* \"@openzeppelin/contracts/token/ERC1155/ERC1155.sol\":2350:2363  _balances[id] */\n      dup2\n      mstore\n      0x20\n      add\n      swap1\n      dup2\n      mstore\n      0x20\n      add\n      0x00\n      keccak256\n        /* \"@openzeppelin/contracts/token/ERC1155/ERC1155.sol\":2350:2372  _balances[id][account] */\n      0x00\n        /* \"@openzeppelin/contracts/token/ERC1155/ERC1155.sol\":2364:2371  account */\n      dup5\n        /* \"@openzeppelin/contracts/token/ERC1155/ERC1155.sol\":2350:2372  _balances[id][account] */\n      0xffffffffffffffffffffffffffffffffffffffff\n      and\n      0xffffffffffffffffffffffffffffffffffffffff\n      and\n      dup2\n      mstore\n      0x20\n      add\n      swap1\n      dup2\n      mstore\n      0x20\n      add\n      0x00\n      keccak256\n      sload\n        /* \"@openzeppelin/contracts/token/ERC1155/ERC1155.sol\":2343:2372  return _balances[id][account] */\n      swap1\n      pop\n        /* \"@openzeppelin/contracts/token/ERC1155/ERC1155.sol\":2247:2379  function balanceOf(address account, uint256 id) public view virtual returns (uint256) {... */\n      swap3\n      swap2\n      pop\n      pop\n      jump\t// out\n        /* \"@openzeppelin/contracts/token/ERC1155/ERC1155.sol\":1380:1685  function supportsInterface(bytes4 interfaceId) public view virtual override(ERC165, IERC165) returns (bool) {... */\n    tag_32:\n        /* \"@openzeppelin/contracts/token/ERC1155/ERC1155.sol\":1482:1486  bool */\n      0x00\n        /* \"@openzeppelin/contracts/token/ERC1155/ERC1155.sol\":1532:1558  type(IERC1155).interfaceId */\n      0xd9b67a2600000000000000000000000000000000000000000000000000000000\n        /* \"@openzeppelin/contracts/token/ERC1155/ERC1155.sol\":1517:1558  interfaceId == type(IERC1155).interfaceId */\n      not(0xffffffffffffffffffffffffffffffffffffffffffffffffffffffff)\n      and\n        /* \"@openzeppelin/contracts/token/ERC1155/ERC1155.sol\":1517:1528  interfaceId */\n      dup3\n        /* \"@openzeppelin/contracts/token/ERC1155/ERC1155.sol\":1517:1558  interfaceId == type(IERC1155).interfaceId */\n      not(0xffffffffffffffffffffffffffffffffffffffffffffffffffffffff)\n      and\n      eq\n        /* \"@openzeppelin/contracts/token/ERC1155/ERC1155.sol\":1517:1626  interfaceId == type(IERC1155).interfaceId ||... */\n      dup1\n      tag_95\n      jumpi\n      pop\n        /* \"@openzeppelin/contracts/token/ERC1155/ERC1155.sol\":1589:1626  type(IERC1155MetadataURI).interfaceId */\n      0x0e89341c00000000000000000000000000000000000000000000000000000000\n        /* \"@openzeppelin/contracts/token/ERC1155/ERC1155.sol\":1574:1626  interfaceId == type(IERC1155MetadataURI).interfaceId */\n      not(0xffffffffffffffffffffffffffffffffffffffffffffffffffffffff)\n      and\n        /* \"@openzeppelin/contracts/token/ERC1155/ERC1155.sol\":1574:1585  interfaceId */\n      dup3\n        /* \"@openzeppelin/contracts/token/ERC1155/ERC1155.sol\":1574:1626  interfaceId == type(IERC1155MetadataURI).interfaceId */\n      not(0xffffffffffffffffffffffffffffffffffffffffffffffffffffffff)\n      and\n      eq\n        /* \"@openzeppelin/contracts/token/ERC1155/ERC1155.sol\":1517:1626  interfaceId == type(IERC1155).interfaceId ||... */\n    tag_95:\n        /* \"@openzeppelin/contracts/token/ERC1155/ERC1155.sol\":1517:1678  interfaceId == type(IERC1155).interfaceId ||... */\n      dup1\n      tag_96\n      jumpi\n      pop\n        /* \"@openzeppelin/contracts/token/ERC1155/ERC1155.sol\":1642:1678  super.supportsInterface(interfaceId) */\n      tag_97\n        /* \"@openzeppelin/contracts/token/ERC1155/ERC1155.sol\":1666:1677  interfaceId */\n      dup3\n        /* \"@openzeppelin/contracts/token/ERC1155/ERC1155.sol\":1642:1665  super.supportsInterface */\n      tag_98\n        /* \"@openzeppelin/contracts/token/ERC1155/ERC1155.sol\":1642:1678  super.supportsInterface(interfaceId) */\n      jump\t// in\n    tag_97:\n        /* \"@openzeppelin/contracts/token/ERC1155/ERC1155.sol\":1517:1678  interfaceId == type(IERC1155).interfaceId ||... */\n    tag_96:\n        /* \"@openzeppelin/contracts/token/ERC1155/ERC1155.sol\":1498:1678  return... */\n      swap1\n      pop\n        /* \"@openzeppelin/contracts/token/ERC1155/ERC1155.sol\":1380:1685  function supportsInterface(bytes4 interfaceId) public view virtual override(ERC165, IERC165) returns (bool) {... */\n      swap2\n      swap1\n      pop\n      jump\t// out\n        /* \"github/hugocis/VoluntariadoUFV/contracts/TokenUFV.sol\":827:914  function setURI(string memory newuri) public onlyOwner {... */\n    tag_38:\n        /* \"@openzeppelin/contracts/access/Ownable.sol\":1531:1544  _checkOwner() */\n      tag_100\n        /* \"@openzeppelin/contracts/access/Ownable.sol\":1531:1542  _checkOwner */\n      tag_101\n        /* \"@openzeppelin/contracts/access/Ownable.sol\":1531:1544  _checkOwner() */\n      jump\t// in\n    tag_100:\n        /* \"github/hugocis/VoluntariadoUFV/contracts/TokenUFV.sol\":892:907  _setURI(newuri) */\n      tag_103\n        /* \"github/hugocis/VoluntariadoUFV/contracts/TokenUFV.sol\":900:906  newuri */\n      dup2\n        /* \"github/hugocis/VoluntariadoUFV/contracts/TokenUFV.sol\":892:899  _setURI */\n      tag_104\n        /* \"github/hugocis/VoluntariadoUFV/contracts/TokenUFV.sol\":892:907  _setURI(newuri) */\n      jump\t// in\n    tag_103:\n        /* \"github/hugocis/VoluntariadoUFV/contracts/TokenUFV.sol\":827:914  function setURI(string memory newuri) public onlyOwner {... */\n      pop\n      jump\t// out\n        /* \"@openzeppelin/contracts/token/ERC1155/ERC1155.sol\":2084:2187  function uri(uint256 /* id */) public view virtual returns (string memory) {... */\n    tag_42:\n        /* \"@openzeppelin/contracts/token/ERC1155/ERC1155.sol\":2144:2157  string memory */\n      0x60\n        /* \"@openzeppelin/contracts/token/ERC1155/ERC1155.sol\":2176:2180  _uri */\n      0x02\n        /* \"@openzeppelin/contracts/token/ERC1155/ERC1155.sol\":2169:2180  return _uri */\n      dup1\n      sload\n      tag_106\n      swap1\n      tag_107\n      jump\t// in\n    tag_106:\n      dup1\n      0x1f\n      add\n      0x20\n      dup1\n      swap2\n      div\n      mul\n      0x20\n      add\n      mload(0x40)\n      swap1\n      dup2\n      add\n      0x40\n      mstore\n      dup1\n      swap3\n      swap2\n      swap1\n      dup2\n      dup2\n      mstore\n      0x20\n      add\n      dup3\n      dup1\n      sload\n      tag_108\n      swap1\n      tag_107\n      jump\t// in\n    tag_108:\n      dup1\n      iszero\n      tag_109\n      jumpi\n      dup1\n      0x1f\n      lt\n      tag_110\n      jumpi\n      0x0100\n      dup1\n      dup4\n      sload\n      div\n      mul\n      dup4\n      mstore\n      swap2\n      0x20\n      add\n      swap2\n      jump(tag_109)\n    tag_110:\n      dup3\n      add\n      swap2\n      swap1\n      0x00\n      mstore\n      keccak256(0x00, 0x20)\n      swap1\n    tag_111:\n      dup2\n      sload\n      dup2\n      mstore\n      swap1\n      0x01\n      add\n      swap1\n      0x20\n      add\n      dup1\n      dup4\n      gt\n      tag_111\n      jumpi\n      dup3\n      swap1\n      sub\n      0x1f\n      and\n      dup3\n      add\n      swap2\n    tag_109:\n      pop\n      pop\n      pop\n      pop\n      pop\n      swap1\n      pop\n        /* \"@openzeppelin/contracts/token/ERC1155/ERC1155.sol\":2084:2187  function uri(uint256 /* id */) public view virtual returns (string memory) {... */\n      swap2\n      swap1\n      pop\n      jump\t// out\n        /* \"github/hugocis/VoluntariadoUFV/contracts/TokenUFV.sol\":1224:1410  function mintBatch(address to, uint256[] memory ids, uint256[] memory amounts, bytes memory data)... */\n    tag_48:\n        /* \"@openzeppelin/contracts/access/Ownable.sol\":1531:1544  _checkOwner() */\n      tag_113\n        /* \"@openzeppelin/contracts/access/Ownable.sol\":1531:1542  _checkOwner */\n      tag_101\n        /* \"@openzeppelin/contracts/access/Ownable.sol\":1531:1544  _checkOwner() */\n      jump\t// in\n    tag_113:\n        /* \"github/hugocis/VoluntariadoUFV/contracts/TokenUFV.sol\":1369:1403  _mintBatch(to, ids, amounts, data) */\n      tag_115\n        /* \"github/hugocis/VoluntariadoUFV/contracts/TokenUFV.sol\":1380:1382  to */\n      dup5\n        /* \"github/hugocis/VoluntariadoUFV/contracts/TokenUFV.sol\":1384:1387  ids */\n      dup5\n        /* \"github/hugocis/VoluntariadoUFV/contracts/TokenUFV.sol\":1389:1396  amounts */\n      dup5\n        /* \"github/hugocis/VoluntariadoUFV/contracts/TokenUFV.sol\":1398:1402  data */\n      dup5\n        /* \"github/hugocis/VoluntariadoUFV/contracts/TokenUFV.sol\":1369:1379  _mintBatch */\n      tag_116\n        /* \"github/hugocis/VoluntariadoUFV/contracts/TokenUFV.sol\":1369:1403  _mintBatch(to, ids, amounts, data) */\n      jump\t// in\n    tag_115:\n        /* \"github/hugocis/VoluntariadoUFV/contracts/TokenUFV.sol\":1224:1410  function mintBatch(address to, uint256[] memory ids, uint256[] memory amounts, bytes memory data)... */\n      pop\n      pop\n      pop\n      pop\n      jump\t// out\n        /* \"@openzeppelin/contracts/token/ERC1155/ERC1155.sol\":4014:4443  function safeBatchTransferFrom(... */\n    tag_52:\n        /* \"@openzeppelin/contracts/token/ERC1155/ERC1155.sol\":4208:4222  address sender */\n      0x00\n        /* \"@openzeppelin/contracts/token/ERC1155/ERC1155.sol\":4225:4237  _msgSender() */\n      tag_118\n        /* \"@openzeppelin/contracts/token/ERC1155/ERC1155.sol\":4225:4235  _msgSender */\n      tag_119\n        /* \"@openzeppelin/contracts/token/ERC1155/ERC1155.sol\":4225:4237  _msgSender() */\n      jump\t// in\n    tag_118:\n        /* \"@openzeppelin/contracts/token/ERC1155/ERC1155.sol\":4208:4237  address sender = _msgSender() */\n      swap1\n      pop\n        /* \"@openzeppelin/contracts/token/ERC1155/ERC1155.sol\":4259:4265  sender */\n      dup1\n        /* \"@openzeppelin/contracts/token/ERC1155/ERC1155.sol\":4251:4265  from != sender */\n      0xffffffffffffffffffffffffffffffffffffffff\n      and\n        /* \"@openzeppelin/contracts/token/ERC1155/ERC1155.sol\":4251:4255  from */\n      dup7\n        /* \"@openzeppelin/contracts/token/ERC1155/ERC1155.sol\":4251:4265  from != sender */\n      0xffffffffffffffffffffffffffffffffffffffff\n      and\n      eq\n      iszero\n        /* \"@openzeppelin/contracts/token/ERC1155/ERC1155.sol\":4251:4300  from != sender && !isApprovedForAll(from, sender) */\n      dup1\n      iszero\n      tag_120\n      jumpi\n      pop\n        /* \"@openzeppelin/contracts/token/ERC1155/ERC1155.sol\":4270:4300  isApprovedForAll(from, sender) */\n      tag_121\n        /* \"@openzeppelin/contracts/token/ERC1155/ERC1155.sol\":4287:4291  from */\n      dup7\n        /* \"@openzeppelin/contracts/token/ERC1155/ERC1155.sol\":4293:4299  sender */\n      dup3\n        /* \"@openzeppelin/contracts/token/ERC1155/ERC1155.sol\":4270:4286  isApprovedForAll */\n      tag_83\n        /* \"@openzeppelin/contracts/token/ERC1155/ERC1155.sol\":4270:4300  isApprovedForAll(from, sender) */\n      jump\t// in\n    tag_121:\n        /* \"@openzeppelin/contracts/token/ERC1155/ERC1155.sol\":4269:4300  !isApprovedForAll(from, sender) */\n      iszero\n        /* \"@openzeppelin/contracts/token/ERC1155/ERC1155.sol\":4251:4300  from != sender && !isApprovedForAll(from, sender) */\n    tag_120:\n        /* \"@openzeppelin/contracts/token/ERC1155/ERC1155.sol\":4247:4376  if (from != sender && !isApprovedForAll(from, sender)) {... */\n      iszero\n      tag_122\n      jumpi\n        /* \"@openzeppelin/contracts/token/ERC1155/ERC1155.sol\":4352:4358  sender */\n      dup1\n        /* \"@openzeppelin/contracts/token/ERC1155/ERC1155.sol\":4360:4364  from */\n      dup7\n        /* \"@openzeppelin/contracts/token/ERC1155/ERC1155.sol\":4323:4365  ERC1155MissingApprovalForAll(sender, from) */\n      mload(0x40)\n      0xe237d92200000000000000000000000000000000000000000000000000000000\n      dup2\n      mstore\n      0x04\n      add\n      tag_123\n      swap3\n      swap2\n      swap1\n      tag_124\n      jump\t// in\n    tag_123:\n      mload(0x40)\n      dup1\n      swap2\n      sub\n      swap1\n      revert\n        /* \"@openzeppelin/contracts/token/ERC1155/ERC1155.sol\":4247:4376  if (from != sender && !isApprovedForAll(from, sender)) {... */\n    tag_122:\n        /* \"@openzeppelin/contracts/token/ERC1155/ERC1155.sol\":4385:4436  _safeBatchTransferFrom(from, to, ids, values, data) */\n      tag_125\n        /* \"@openzeppelin/contracts/token/ERC1155/ERC1155.sol\":4408:4412  from */\n      dup7\n        /* \"@openzeppelin/contracts/token/ERC1155/ERC1155.sol\":4414:4416  to */\n      dup7\n        /* \"@openzeppelin/contracts/token/ERC1155/ERC1155.sol\":4418:4421  ids */\n      dup7\n        /* \"@openzeppelin/contracts/token/ERC1155/ERC1155.sol\":4423:4429  values */\n      dup7\n        /* \"@openzeppelin/contracts/token/ERC1155/ERC1155.sol\":4431:4435  data */\n      dup7\n        /* \"@openzeppelin/contracts/token/ERC1155/ERC1155.sol\":4385:4407  _safeBatchTransferFrom */\n      tag_126\n        /* \"@openzeppelin/contracts/token/ERC1155/ERC1155.sol\":4385:4436  _safeBatchTransferFrom(from, to, ids, values, data) */\n      jump\t// in\n    tag_125:\n        /* \"@openzeppelin/contracts/token/ERC1155/ERC1155.sol\":4198:4443  {... */\n      pop\n        /* \"@openzeppelin/contracts/token/ERC1155/ERC1155.sol\":4014:4443  function safeBatchTransferFrom(... */\n      pop\n      pop\n      pop\n      pop\n      pop\n      jump\t// out\n        /* \"github/hugocis/VoluntariadoUFV/contracts/TokenUFV.sol\":985:1048  function unpause() public onlyOwner {... */\n    tag_54:\n        /* \"@openzeppelin/contracts/access/Ownable.sol\":1531:1544  _checkOwner() */\n      tag_128\n        /* \"@openzeppelin/contracts/access/Ownable.sol\":1531:1542  _checkOwner */\n      tag_101\n        /* \"@openzeppelin/contracts/access/Ownable.sol\":1531:1544  _checkOwner() */\n      jump\t// in\n    tag_128:\n        /* \"github/hugocis/VoluntariadoUFV/contracts/TokenUFV.sol\":1031:1041  _unpause() */\n      tag_130\n        /* \"github/hugocis/VoluntariadoUFV/contracts/TokenUFV.sol\":1031:1039  _unpause */\n      tag_131\n        /* \"github/hugocis/VoluntariadoUFV/contracts/TokenUFV.sol\":1031:1041  _unpause() */\n      jump\t// in\n    tag_130:\n        /* \"github/hugocis/VoluntariadoUFV/contracts/TokenUFV.sol\":985:1048  function unpause() public onlyOwner {... */\n      jump\t// out\n        /* \"@openzeppelin/contracts/token/ERC1155/ERC1155.sol\":2536:3088  function balanceOfBatch(... */\n    tag_58:\n        /* \"@openzeppelin/contracts/token/ERC1155/ERC1155.sol\":2660:2676  uint256[] memory */\n      0x60\n        /* \"@openzeppelin/contracts/token/ERC1155/ERC1155.sol\":2711:2714  ids */\n      dup2\n        /* \"@openzeppelin/contracts/token/ERC1155/ERC1155.sol\":2711:2721  ids.length */\n      mload\n        /* \"@openzeppelin/contracts/token/ERC1155/ERC1155.sol\":2692:2700  accounts */\n      dup4\n        /* \"@openzeppelin/contracts/token/ERC1155/ERC1155.sol\":2692:2707  accounts.length */\n      mload\n        /* \"@openzeppelin/contracts/token/ERC1155/ERC1155.sol\":2692:2721  accounts.length != ids.length */\n      eq\n        /* \"@openzeppelin/contracts/token/ERC1155/ERC1155.sol\":2688:2809  if (accounts.length != ids.length) {... */\n      tag_133\n      jumpi\n        /* \"@openzeppelin/contracts/token/ERC1155/ERC1155.sol\":2770:2773  ids */\n      dup2\n        /* \"@openzeppelin/contracts/token/ERC1155/ERC1155.sol\":2770:2780  ids.length */\n      mload\n        /* \"@openzeppelin/contracts/token/ERC1155/ERC1155.sol\":2782:2790  accounts */\n      dup4\n        /* \"@openzeppelin/contracts/token/ERC1155/ERC1155.sol\":2782:2797  accounts.length */\n      mload\n        /* \"@openzeppelin/contracts/token/ERC1155/ERC1155.sol\":2744:2798  ERC1155InvalidArrayLength(ids.length, accounts.length) */\n      mload(0x40)\n      0x5b05999100000000000000000000000000000000000000000000000000000000\n      dup2\n      mstore\n      0x04\n      add\n      tag_134\n      swap3\n      swap2\n      swap1\n      tag_135\n      jump\t// in\n    tag_134:\n      mload(0x40)\n      dup1\n      swap2\n      sub\n      swap1\n      revert\n        /* \"@openzeppelin/contracts/token/ERC1155/ERC1155.sol\":2688:2809  if (accounts.length != ids.length) {... */\n    tag_133:\n        /* \"@openzeppelin/contracts/token/ERC1155/ERC1155.sol\":2819:2849  uint256[] memory batchBalances */\n      0x00\n        /* \"@openzeppelin/contracts/token/ERC1155/ERC1155.sol\":2866:2874  accounts */\n      dup4\n        /* \"@openzeppelin/contracts/token/ERC1155/ERC1155.sol\":2866:2881  accounts.length */\n      mload\n        /* \"@openzeppelin/contracts/token/ERC1155/ERC1155.sol\":2852:2882  new uint256[](accounts.length) */\n      0xffffffffffffffff\n      dup2\n      gt\n      iszero\n      tag_136\n      jumpi\n      tag_137\n      tag_138\n      jump\t// in\n    tag_137:\n    tag_136:\n      mload(0x40)\n      swap1\n      dup1\n      dup3\n      mstore\n      dup1\n      0x20\n      mul\n      0x20\n      add\n      dup3\n      add\n      0x40\n      mstore\n      dup1\n      iszero\n      tag_139\n      jumpi\n      dup2\n      0x20\n      add\n      0x20\n      dup3\n      mul\n      dup1\n      calldatasize\n      dup4\n      calldatacopy\n      dup1\n      dup3\n      add\n      swap2\n      pop\n      pop\n      swap1\n      pop\n    tag_139:\n      pop\n        /* \"@openzeppelin/contracts/token/ERC1155/ERC1155.sol\":2819:2882  uint256[] memory batchBalances = new uint256[](accounts.length) */\n      swap1\n      pop\n        /* \"@openzeppelin/contracts/token/ERC1155/ERC1155.sol\":2898:2907  uint256 i */\n      0x00\n        /* \"@openzeppelin/contracts/token/ERC1155/ERC1155.sol\":2893:3051  for (uint256 i = 0; i < accounts.length; ++i) {... */\n    tag_140:\n        /* \"@openzeppelin/contracts/token/ERC1155/ERC1155.sol\":2917:2925  accounts */\n      dup5\n        /* \"@openzeppelin/contracts/token/ERC1155/ERC1155.sol\":2917:2932  accounts.length */\n      mload\n        /* \"@openzeppelin/contracts/token/ERC1155/ERC1155.sol\":2913:2914  i */\n      dup2\n        /* \"@openzeppelin/contracts/token/ERC1155/ERC1155.sol\":2913:2932  i < accounts.length */\n      lt\n        /* \"@openzeppelin/contracts/token/ERC1155/ERC1155.sol\":2893:3051  for (uint256 i = 0; i < accounts.length; ++i) {... */\n      iszero\n      tag_141\n      jumpi\n        /* \"@openzeppelin/contracts/token/ERC1155/ERC1155.sol\":2972:3040  balanceOf(accounts.unsafeMemoryAccess(i), ids.unsafeMemoryAccess(i)) */\n      tag_143\n        /* \"@openzeppelin/contracts/token/ERC1155/ERC1155.sol\":2982:3012  accounts.unsafeMemoryAccess(i) */\n      tag_144\n        /* \"@openzeppelin/contracts/token/ERC1155/ERC1155.sol\":3010:3011  i */\n      dup3\n        /* \"@openzeppelin/contracts/token/ERC1155/ERC1155.sol\":2982:2990  accounts */\n      dup8\n        /* \"@openzeppelin/contracts/token/ERC1155/ERC1155.sol\":2982:3009  accounts.unsafeMemoryAccess */\n      tag_145\n      swap1\n        /* \"@openzeppelin/contracts/token/ERC1155/ERC1155.sol\":2982:3012  accounts.unsafeMemoryAccess(i) */\n      swap2\n      swap1\n      0xffffffff\n      and\n      jump\t// in\n    tag_144:\n        /* \"@openzeppelin/contracts/token/ERC1155/ERC1155.sol\":3014:3039  ids.unsafeMemoryAccess(i) */\n      tag_146\n        /* \"@openzeppelin/contracts/token/ERC1155/ERC1155.sol\":3037:3038  i */\n      dup4\n        /* \"@openzeppelin/contracts/token/ERC1155/ERC1155.sol\":3014:3017  ids */\n      dup8\n        /* \"@openzeppelin/contracts/token/ERC1155/ERC1155.sol\":3014:3036  ids.unsafeMemoryAccess */\n      tag_147\n      swap1\n        /* \"@openzeppelin/contracts/token/ERC1155/ERC1155.sol\":3014:3039  ids.unsafeMemoryAccess(i) */\n      swap2\n      swap1\n      0xffffffff\n      and\n      jump\t// in\n    tag_146:\n        /* \"@openzeppelin/contracts/token/ERC1155/ERC1155.sol\":2972:2981  balanceOf */\n      tag_26\n        /* \"@openzeppelin/contracts/token/ERC1155/ERC1155.sol\":2972:3040  balanceOf(accounts.unsafeMemoryAccess(i), ids.unsafeMemoryAccess(i)) */\n      jump\t// in\n    tag_143:\n        /* \"@openzeppelin/contracts/token/ERC1155/ERC1155.sol\":2953:2966  batchBalances */\n      dup3\n        /* \"@openzeppelin/contracts/token/ERC1155/ERC1155.sol\":2967:2968  i */\n      dup3\n        /* \"@openzeppelin/contracts/token/ERC1155/ERC1155.sol\":2953:2969  batchBalances[i] */\n      dup2\n      mload\n      dup2\n      lt\n      tag_148\n      jumpi\n      tag_149\n      tag_150\n      jump\t// in\n    tag_149:\n    tag_148:\n      0x20\n      mul\n      0x20\n      add\n      add\n        /* \"@openzeppelin/contracts/token/ERC1155/ERC1155.sol\":2953:3040  batchBalances[i] = balanceOf(accounts.unsafeMemoryAccess(i), ids.unsafeMemoryAccess(i)) */\n      dup2\n      dup2\n      mstore\n      pop\n      pop\n        /* \"@openzeppelin/contracts/token/ERC1155/ERC1155.sol\":2934:2937  ++i */\n      dup1\n      0x01\n      add\n      swap1\n      pop\n        /* \"@openzeppelin/contracts/token/ERC1155/ERC1155.sol\":2893:3051  for (uint256 i = 0; i < accounts.length; ++i) {... */\n      jump(tag_140)\n    tag_141:\n      pop\n        /* \"@openzeppelin/contracts/token/ERC1155/ERC1155.sol\":3068:3081  batchBalances */\n      dup1\n        /* \"@openzeppelin/contracts/token/ERC1155/ERC1155.sol\":3061:3081  return batchBalances */\n      swap2\n      pop\n      pop\n        /* \"@openzeppelin/contracts/token/ERC1155/ERC1155.sol\":2536:3088  function balanceOfBatch(... */\n      swap3\n      swap2\n      pop\n      pop\n      jump\t// out\n        /* \"@openzeppelin/contracts/utils/Pausable.sol\":1850:1934  function paused() public view virtual returns (bool) {... */\n    tag_62:\n        /* \"@openzeppelin/contracts/utils/Pausable.sol\":1897:1901  bool */\n      0x00\n        /* \"@openzeppelin/contracts/utils/Pausable.sol\":1920:1927  _paused */\n      0x03\n      0x14\n      swap1\n      sload\n      swap1\n      0x0100\n      exp\n      swap1\n      div\n      0xff\n      and\n        /* \"@openzeppelin/contracts/utils/Pausable.sol\":1913:1927  return _paused */\n      swap1\n      pop\n        /* \"@openzeppelin/contracts/utils/Pausable.sol\":1850:1934  function paused() public view virtual returns (bool) {... */\n      swap1\n      jump\t// out\n        /* \"@openzeppelin/contracts/access/Ownable.sol\":2293:2394  function renounceOwnership() public virtual onlyOwner {... */\n    tag_65:\n        /* \"@openzeppelin/contracts/access/Ownable.sol\":1531:1544  _checkOwner() */\n      tag_153\n        /* \"@openzeppelin/contracts/access/Ownable.sol\":1531:1542  _checkOwner */\n      tag_101\n        /* \"@openzeppelin/contracts/access/Ownable.sol\":1531:1544  _checkOwner() */\n      jump\t// in\n    tag_153:\n        /* \"@openzeppelin/contracts/access/Ownable.sol\":2357:2387  _transferOwnership(address(0)) */\n      tag_155\n        /* \"@openzeppelin/contracts/access/Ownable.sol\":2384:2385  0 */\n      0x00\n        /* \"@openzeppelin/contracts/access/Ownable.sol\":2357:2375  _transferOwnership */\n      tag_156\n        /* \"@openzeppelin/contracts/access/Ownable.sol\":2357:2387  _transferOwnership(address(0)) */\n      jump\t// in\n    tag_155:\n        /* \"@openzeppelin/contracts/access/Ownable.sol\":2293:2394  function renounceOwnership() public virtual onlyOwner {... */\n      jump\t// out\n        /* \"github/hugocis/VoluntariadoUFV/contracts/TokenUFV.sol\":1054:1218  function mint(address account, uint256 id, uint256 amount, bytes memory data)... */\n    tag_69:\n        /* \"@openzeppelin/contracts/access/Ownable.sol\":1531:1544  _checkOwner() */\n      tag_158\n        /* \"@openzeppelin/contracts/access/Ownable.sol\":1531:1542  _checkOwner */\n      tag_101\n        /* \"@openzeppelin/contracts/access/Ownable.sol\":1531:1544  _checkOwner() */\n      jump\t// in\n    tag_158:\n        /* \"github/hugocis/VoluntariadoUFV/contracts/TokenUFV.sol\":1179:1211  _mint(account, id, amount, data) */\n      tag_160\n        /* \"github/hugocis/VoluntariadoUFV/contracts/TokenUFV.sol\":1185:1192  account */\n      dup5\n        /* \"github/hugocis/VoluntariadoUFV/contracts/TokenUFV.sol\":1194:1196  id */\n      dup5\n        /* \"github/hugocis/VoluntariadoUFV/contracts/TokenUFV.sol\":1198:1204  amount */\n      dup5\n        /* \"github/hugocis/VoluntariadoUFV/contracts/TokenUFV.sol\":1206:1210  data */\n      dup5\n        /* \"github/hugocis/VoluntariadoUFV/contracts/TokenUFV.sol\":1179:1184  _mint */\n      tag_161\n        /* \"github/hugocis/VoluntariadoUFV/contracts/TokenUFV.sol\":1179:1211  _mint(account, id, amount, data) */\n      jump\t// in\n    tag_160:\n        /* \"github/hugocis/VoluntariadoUFV/contracts/TokenUFV.sol\":1054:1218  function mint(address account, uint256 id, uint256 amount, bytes memory data)... */\n      pop\n      pop\n      pop\n      pop\n      jump\t// out\n        /* \"github/hugocis/VoluntariadoUFV/contracts/TokenUFV.sol\":920:979  function pause() public onlyOwner {... */\n    tag_71:\n        /* \"@openzeppelin/contracts/access/Ownable.sol\":1531:1544  _checkOwner() */\n      tag_163\n        /* \"@openzeppelin/contracts/access/Ownable.sol\":1531:1542  _checkOwner */\n      tag_101\n        /* \"@openzeppelin/contracts/access/Ownable.sol\":1531:1544  _checkOwner() */\n      jump\t// in\n    tag_163:\n        /* \"github/hugocis/VoluntariadoUFV/contracts/TokenUFV.sol\":964:972  _pause() */\n      tag_165\n        /* \"github/hugocis/VoluntariadoUFV/contracts/TokenUFV.sol\":964:970  _pause */\n      tag_166\n        /* \"github/hugocis/VoluntariadoUFV/contracts/TokenUFV.sol\":964:972  _pause() */\n      jump\t// in\n    tag_165:\n        /* \"github/hugocis/VoluntariadoUFV/contracts/TokenUFV.sol\":920:979  function pause() public onlyOwner {... */\n      jump\t// out\n        /* \"@openzeppelin/contracts/access/Ownable.sol\":1638:1723  function owner() public view virtual returns (address) {... */\n    tag_73:\n        /* \"@openzeppelin/contracts/access/Ownable.sol\":1684:1691  address */\n      0x00\n        /* \"@openzeppelin/contracts/access/Ownable.sol\":1710:1716  _owner */\n      0x03\n      0x00\n      swap1\n      sload\n      swap1\n      0x0100\n      exp\n      swap1\n      div\n      0xffffffffffffffffffffffffffffffffffffffff\n      and\n        /* \"@openzeppelin/contracts/access/Ownable.sol\":1703:1716  return _owner */\n      swap1\n      pop\n        /* \"@openzeppelin/contracts/access/Ownable.sol\":1638:1723  function owner() public view virtual returns (address) {... */\n      swap1\n      jump\t// out\n        /* \"@openzeppelin/contracts/token/ERC1155/ERC1155.sol\":3156:3300  function setApprovalForAll(address operator, bool approved) public virtual {... */\n    tag_79:\n        /* \"@openzeppelin/contracts/token/ERC1155/ERC1155.sol\":3241:3293  _setApprovalForAll(_msgSender(), operator, approved) */\n      tag_169\n        /* \"@openzeppelin/contracts/token/ERC1155/ERC1155.sol\":3260:3272  _msgSender() */\n      tag_170\n        /* \"@openzeppelin/contracts/token/ERC1155/ERC1155.sol\":3260:3270  _msgSender */\n      tag_119\n        /* \"@openzeppelin/contracts/token/ERC1155/ERC1155.sol\":3260:3272  _msgSender() */\n      jump\t// in\n    tag_170:\n        /* \"@openzeppelin/contracts/token/ERC1155/ERC1155.sol\":3274:3282  operator */\n      dup4\n        /* \"@openzeppelin/contracts/token/ERC1155/ERC1155.sol\":3284:3292  approved */\n      dup4\n        /* \"@openzeppelin/contracts/token/ERC1155/ERC1155.sol\":3241:3259  _setApprovalForAll */\n      tag_171\n        /* \"@openzeppelin/contracts/token/ERC1155/ERC1155.sol\":3241:3293  _setApprovalForAll(_msgSender(), operator, approved) */\n      jump\t// in\n    tag_169:\n        /* \"@openzeppelin/contracts/token/ERC1155/ERC1155.sol\":3156:3300  function setApprovalForAll(address operator, bool approved) public virtual {... */\n      pop\n      pop\n      jump\t// out\n        /* \"@openzeppelin/contracts/token/ERC1155/ERC1155.sol\":3367:3524  function isApprovedForAll(address account, address operator) public view virtual returns (bool) {... */\n    tag_83:\n        /* \"@openzeppelin/contracts/token/ERC1155/ERC1155.sol\":3457:3461  bool */\n      0x00\n        /* \"@openzeppelin/contracts/token/ERC1155/ERC1155.sol\":3480:3498  _operatorApprovals */\n      0x01\n        /* \"@openzeppelin/contracts/token/ERC1155/ERC1155.sol\":3480:3507  _operatorApprovals[account] */\n      0x00\n        /* \"@openzeppelin/contracts/token/ERC1155/ERC1155.sol\":3499:3506  account */\n      dup5\n        /* \"@openzeppelin/contracts/token/ERC1155/ERC1155.sol\":3480:3507  _operatorApprovals[account] */\n      0xffffffffffffffffffffffffffffffffffffffff\n      and\n      0xffffffffffffffffffffffffffffffffffffffff\n      and\n      dup2\n      mstore\n      0x20\n      add\n      swap1\n      dup2\n      mstore\n      0x20\n      add\n      0x00\n      keccak256\n        /* \"@openzeppelin/contracts/token/ERC1155/ERC1155.sol\":3480:3517  _operatorApprovals[account][operator] */\n      0x00\n        /* \"@openzeppelin/contracts/token/ERC1155/ERC1155.sol\":3508:3516  operator */\n      dup4\n        /* \"@openzeppelin/contracts/token/ERC1155/ERC1155.sol\":3480:3517  _operatorApprovals[account][operator] */\n      0xffffffffffffffffffffffffffffffffffffffff\n      and\n      0xffffffffffffffffffffffffffffffffffffffff\n      and\n      dup2\n      mstore\n      0x20\n      add\n      swap1\n      dup2\n      mstore\n      0x20\n      add\n      0x00\n      keccak256\n      0x00\n      swap1\n      sload\n      swap1\n      0x0100\n      exp\n      swap1\n      div\n      0xff\n      and\n        /* \"@openzeppelin/contracts/token/ERC1155/ERC1155.sol\":3473:3517  return _operatorApprovals[account][operator] */\n      swap1\n      pop\n        /* \"@openzeppelin/contracts/token/ERC1155/ERC1155.sol\":3367:3524  function isApprovedForAll(address account, address operator) public view virtual returns (bool) {... */\n      swap3\n      swap2\n      pop\n      pop\n      jump\t// out\n        /* \"@openzeppelin/contracts/token/ERC1155/ERC1155.sol\":3591:3942  function safeTransferFrom(address from, address to, uint256 id, uint256 value, bytes memory data) public virtual {... */\n    tag_88:\n        /* \"@openzeppelin/contracts/token/ERC1155/ERC1155.sol\":3714:3728  address sender */\n      0x00\n        /* \"@openzeppelin/contracts/token/ERC1155/ERC1155.sol\":3731:3743  _msgSender() */\n      tag_174\n        /* \"@openzeppelin/contracts/token/ERC1155/ERC1155.sol\":3731:3741  _msgSender */\n      tag_119\n        /* \"@openzeppelin/contracts/token/ERC1155/ERC1155.sol\":3731:3743  _msgSender() */\n      jump\t// in\n    tag_174:\n        /* \"@openzeppelin/contracts/token/ERC1155/ERC1155.sol\":3714:3743  address sender = _msgSender() */\n      swap1\n      pop\n        /* \"@openzeppelin/contracts/token/ERC1155/ERC1155.sol\":3765:3771  sender */\n      dup1\n        /* \"@openzeppelin/contracts/token/ERC1155/ERC1155.sol\":3757:3771  from != sender */\n      0xffffffffffffffffffffffffffffffffffffffff\n      and\n        /* \"@openzeppelin/contracts/token/ERC1155/ERC1155.sol\":3757:3761  from */\n      dup7\n        /* \"@openzeppelin/contracts/token/ERC1155/ERC1155.sol\":3757:3771  from != sender */\n      0xffffffffffffffffffffffffffffffffffffffff\n      and\n      eq\n      iszero\n        /* \"@openzeppelin/contracts/token/ERC1155/ERC1155.sol\":3757:3806  from != sender && !isApprovedForAll(from, sender) */\n      dup1\n      iszero\n      tag_175\n      jumpi\n      pop\n        /* \"@openzeppelin/contracts/token/ERC1155/ERC1155.sol\":3776:3806  isApprovedForAll(from, sender) */\n      tag_176\n        /* \"@openzeppelin/contracts/token/ERC1155/ERC1155.sol\":3793:3797  from */\n      dup7\n        /* \"@openzeppelin/contracts/token/ERC1155/ERC1155.sol\":3799:3805  sender */\n      dup3\n        /* \"@openzeppelin/contracts/token/ERC1155/ERC1155.sol\":3776:3792  isApprovedForAll */\n      tag_83\n        /* \"@openzeppelin/contracts/token/ERC1155/ERC1155.sol\":3776:3806  isApprovedForAll(from, sender) */\n      jump\t// in\n    tag_176:\n        /* \"@openzeppelin/contracts/token/ERC1155/ERC1155.sol\":3775:3806  !isApprovedForAll(from, sender) */\n      iszero\n        /* \"@openzeppelin/contracts/token/ERC1155/ERC1155.sol\":3757:3806  from != sender && !isApprovedForAll(from, sender) */\n    tag_175:\n        /* \"@openzeppelin/contracts/token/ERC1155/ERC1155.sol\":3753:3882  if (from != sender && !isApprovedForAll(from, sender)) {... */\n      iszero\n      tag_177\n      jumpi\n        /* \"@openzeppelin/contracts/token/ERC1155/ERC1155.sol\":3858:3864  sender */\n      dup1\n        /* \"@openzeppelin/contracts/token/ERC1155/ERC1155.sol\":3866:3870  from */\n      dup7\n        /* \"@openzeppelin/contracts/token/ERC1155/ERC1155.sol\":3829:3871  ERC1155MissingApprovalForAll(sender, from) */\n      mload(0x40)\n      0xe237d92200000000000000000000000000000000000000000000000000000000\n      dup2\n      mstore\n      0x04\n      add\n      tag_178\n      swap3\n      swap2\n      swap1\n      tag_124\n      jump\t// in\n    tag_178:\n      mload(0x40)\n      dup1\n      swap2\n      sub\n      swap1\n      revert\n        /* \"@openzeppelin/contracts/token/ERC1155/ERC1155.sol\":3753:3882  if (from != sender && !isApprovedForAll(from, sender)) {... */\n    tag_177:\n        /* \"@openzeppelin/contracts/token/ERC1155/ERC1155.sol\":3891:3935  _safeTransferFrom(from, to, id, value, data) */\n      tag_179\n        /* \"@openzeppelin/contracts/token/ERC1155/ERC1155.sol\":3909:3913  from */\n      dup7\n        /* \"@openzeppelin/contracts/token/ERC1155/ERC1155.sol\":3915:3917  to */\n      dup7\n        /* \"@openzeppelin/contracts/token/ERC1155/ERC1155.sol\":3919:3921  id */\n      dup7\n        /* \"@openzeppelin/contracts/token/ERC1155/ERC1155.sol\":3923:3928  value */\n      dup7\n        /* \"@openzeppelin/contracts/token/ERC1155/ERC1155.sol\":3930:3934  data */\n      dup7\n        /* \"@openzeppelin/contracts/token/ERC1155/ERC1155.sol\":3891:3908  _safeTransferFrom */\n      tag_180\n        /* \"@openzeppelin/contracts/token/ERC1155/ERC1155.sol\":3891:3935  _safeTransferFrom(from, to, id, value, data) */\n      jump\t// in\n    tag_179:\n        /* \"@openzeppelin/contracts/token/ERC1155/ERC1155.sol\":3704:3942  {... */\n      pop\n        /* \"@openzeppelin/contracts/token/ERC1155/ERC1155.sol\":3591:3942  function safeTransferFrom(address from, address to, uint256 id, uint256 value, bytes memory data) public virtual {... */\n      pop\n      pop\n      pop\n      pop\n      pop\n      jump\t// out\n        /* \"@openzeppelin/contracts/access/Ownable.sol\":2543:2758  function transferOwnership(address newOwner) public virtual onlyOwner {... */\n    tag_92:\n        /* \"@openzeppelin/contracts/access/Ownable.sol\":1531:1544  _checkOwner() */\n      tag_182\n        /* \"@openzeppelin/contracts/access/Ownable.sol\":1531:1542  _checkOwner */\n      tag_101\n        /* \"@openzeppelin/contracts/access/Ownable.sol\":1531:1544  _checkOwner() */\n      jump\t// in\n    tag_182:\n        /* \"@openzeppelin/contracts/access/Ownable.sol\":2647:2648  0 */\n      0x00\n        /* \"@openzeppelin/contracts/access/Ownable.sol\":2627:2649  newOwner == address(0) */\n      0xffffffffffffffffffffffffffffffffffffffff\n      and\n        /* \"@openzeppelin/contracts/access/Ownable.sol\":2627:2635  newOwner */\n      dup2\n        /* \"@openzeppelin/contracts/access/Ownable.sol\":2627:2649  newOwner == address(0) */\n      0xffffffffffffffffffffffffffffffffffffffff\n      and\n      sub\n        /* \"@openzeppelin/contracts/access/Ownable.sol\":2623:2714  if (newOwner == address(0)) {... */\n      tag_184\n      jumpi\n        /* \"@openzeppelin/contracts/access/Ownable.sol\":2700:2701  0 */\n      0x00\n        /* \"@openzeppelin/contracts/access/Ownable.sol\":2672:2703  OwnableInvalidOwner(address(0)) */\n      mload(0x40)\n      0x1e4fbdf700000000000000000000000000000000000000000000000000000000\n      dup2\n      mstore\n      0x04\n      add\n      tag_185\n      swap2\n      swap1\n      tag_75\n      jump\t// in\n    tag_185:\n      mload(0x40)\n      dup1\n      swap2\n      sub\n      swap1\n      revert\n        /* \"@openzeppelin/contracts/access/Ownable.sol\":2623:2714  if (newOwner == address(0)) {... */\n    tag_184:\n        /* \"@openzeppelin/contracts/access/Ownable.sol\":2723:2751  _transferOwnership(newOwner) */\n      tag_186\n        /* \"@openzeppelin/contracts/access/Ownable.sol\":2742:2750  newOwner */\n      dup2\n        /* \"@openzeppelin/contracts/access/Ownable.sol\":2723:2741  _transferOwnership */\n      tag_156\n        /* \"@openzeppelin/contracts/access/Ownable.sol\":2723:2751  _transferOwnership(newOwner) */\n      jump\t// in\n    tag_186:\n        /* \"@openzeppelin/contracts/access/Ownable.sol\":2543:2758  function transferOwnership(address newOwner) public virtual onlyOwner {... */\n      pop\n      jump\t// out\n        /* \"@openzeppelin/contracts/utils/introspection/ERC165.sol\":762:908  function supportsInterface(bytes4 interfaceId) public view virtual returns (bool) {... */\n    tag_98:\n        /* \"@openzeppelin/contracts/utils/introspection/ERC165.sol\":838:842  bool */\n      0x00\n        /* \"@openzeppelin/contracts/utils/introspection/ERC165.sol\":876:901  type(IERC165).interfaceId */\n      0x01ffc9a700000000000000000000000000000000000000000000000000000000\n        /* \"@openzeppelin/contracts/utils/introspection/ERC165.sol\":861:901  interfaceId == type(IERC165).interfaceId */\n      not(0xffffffffffffffffffffffffffffffffffffffffffffffffffffffff)\n      and\n        /* \"@openzeppelin/contracts/utils/introspection/ERC165.sol\":861:872  interfaceId */\n      dup3\n        /* \"@openzeppelin/contracts/utils/introspection/ERC165.sol\":861:901  interfaceId == type(IERC165).interfaceId */\n      not(0xffffffffffffffffffffffffffffffffffffffffffffffffffffffff)\n      and\n      eq\n        /* \"@openzeppelin/contracts/utils/introspection/ERC165.sol\":854:901  return interfaceId == type(IERC165).interfaceId */\n      swap1\n      pop\n        /* \"@openzeppelin/contracts/utils/introspection/ERC165.sol\":762:908  function supportsInterface(bytes4 interfaceId) public view virtual returns (bool) {... */\n      swap2\n      swap1\n      pop\n      jump\t// out\n        /* \"@openzeppelin/contracts/access/Ownable.sol\":1796:1958  function _checkOwner() internal view virtual {... */\n    tag_101:\n        /* \"@openzeppelin/contracts/access/Ownable.sol\":1866:1878  _msgSender() */\n      tag_189\n        /* \"@openzeppelin/contracts/access/Ownable.sol\":1866:1876  _msgSender */\n      tag_119\n        /* \"@openzeppelin/contracts/access/Ownable.sol\":1866:1878  _msgSender() */\n      jump\t// in\n    tag_189:\n        /* \"@openzeppelin/contracts/access/Ownable.sol\":1855:1878  owner() != _msgSender() */\n      0xffffffffffffffffffffffffffffffffffffffff\n      and\n        /* \"@openzeppelin/contracts/access/Ownable.sol\":1855:1862  owner() */\n      tag_190\n        /* \"@openzeppelin/contracts/access/Ownable.sol\":1855:1860  owner */\n      tag_73\n        /* \"@openzeppelin/contracts/access/Ownable.sol\":1855:1862  owner() */\n      jump\t// in\n    tag_190:\n        /* \"@openzeppelin/contracts/access/Ownable.sol\":1855:1878  owner() != _msgSender() */\n      0xffffffffffffffffffffffffffffffffffffffff\n      and\n      eq\n        /* \"@openzeppelin/contracts/access/Ownable.sol\":1851:1952  if (owner() != _msgSender()) {... */\n      tag_191\n      jumpi\n        /* \"@openzeppelin/contracts/access/Ownable.sol\":1928:1940  _msgSender() */\n      tag_192\n        /* \"@openzeppelin/contracts/access/Ownable.sol\":1928:1938  _msgSender */\n      tag_119\n        /* \"@openzeppelin/contracts/access/Ownable.sol\":1928:1940  _msgSender() */\n      jump\t// in\n    tag_192:\n        /* \"@openzeppelin/contracts/access/Ownable.sol\":1901:1941  OwnableUnauthorizedAccount(_msgSender()) */\n      mload(0x40)\n      0x118cdaa700000000000000000000000000000000000000000000000000000000\n      dup2\n      mstore\n      0x04\n      add\n      tag_193\n      swap2\n      swap1\n      tag_75\n      jump\t// in\n    tag_193:\n      mload(0x40)\n      dup1\n      swap2\n      sub\n      swap1\n      revert\n        /* \"@openzeppelin/contracts/access/Ownable.sol\":1851:1952  if (owner() != _msgSender()) {... */\n    tag_191:\n        /* \"@openzeppelin/contracts/access/Ownable.sol\":1796:1958  function _checkOwner() internal view virtual {... */\n      jump\t// out\n        /* \"@openzeppelin/contracts/token/ERC1155/ERC1155.sol\":10282:10368  function _setURI(string memory newuri) internal virtual {... */\n    tag_104:\n        /* \"@openzeppelin/contracts/token/ERC1155/ERC1155.sol\":10355:10361  newuri */\n      dup1\n        /* \"@openzeppelin/contracts/token/ERC1155/ERC1155.sol\":10348:10352  _uri */\n      0x02\n        /* \"@openzeppelin/contracts/token/ERC1155/ERC1155.sol\":10348:10361  _uri = newuri */\n      swap1\n      dup2\n      tag_195\n      swap2\n      swap1\n      tag_196\n      jump\t// in\n    tag_195:\n      pop\n        /* \"@openzeppelin/contracts/token/ERC1155/ERC1155.sol\":10282:10368  function _setURI(string memory newuri) internal virtual {... */\n      pop\n      jump\t// out\n        /* \"@openzeppelin/contracts/token/ERC1155/ERC1155.sol\":11523:11805  function _mintBatch(address to, uint256[] memory ids, uint256[] memory values, bytes memory data) internal {... */\n    tag_116:\n        /* \"@openzeppelin/contracts/token/ERC1155/ERC1155.sol\":11658:11659  0 */\n      0x00\n        /* \"@openzeppelin/contracts/token/ERC1155/ERC1155.sol\":11644:11660  to == address(0) */\n      0xffffffffffffffffffffffffffffffffffffffff\n      and\n        /* \"@openzeppelin/contracts/token/ERC1155/ERC1155.sol\":11644:11646  to */\n      dup5\n        /* \"@openzeppelin/contracts/token/ERC1155/ERC1155.sol\":11644:11660  to == address(0) */\n      0xffffffffffffffffffffffffffffffffffffffff\n      and\n      sub\n        /* \"@openzeppelin/contracts/token/ERC1155/ERC1155.sol\":11640:11728  if (to == address(0)) {... */\n      tag_198\n      jumpi\n        /* \"@openzeppelin/contracts/token/ERC1155/ERC1155.sol\":11714:11715  0 */\n      0x00\n        /* \"@openzeppelin/contracts/token/ERC1155/ERC1155.sol\":11683:11717  ERC1155InvalidReceiver(address(0)) */\n      mload(0x40)\n      0x57f447ce00000000000000000000000000000000000000000000000000000000\n      dup2\n      mstore\n      0x04\n      add\n      tag_199\n      swap2\n      swap1\n      tag_75\n      jump\t// in\n    tag_199:\n      mload(0x40)\n      dup1\n      swap2\n      sub\n      swap1\n      revert\n        /* \"@openzeppelin/contracts/token/ERC1155/ERC1155.sol\":11640:11728  if (to == address(0)) {... */\n    tag_198:\n        /* \"@openzeppelin/contracts/token/ERC1155/ERC1155.sol\":11737:11798  _updateWithAcceptanceCheck(address(0), to, ids, values, data) */\n      tag_200\n        /* \"@openzeppelin/contracts/token/ERC1155/ERC1155.sol\":11772:11773  0 */\n      0x00\n        /* \"@openzeppelin/contracts/token/ERC1155/ERC1155.sol\":11776:11778  to */\n      dup6\n        /* \"@openzeppelin/contracts/token/ERC1155/ERC1155.sol\":11780:11783  ids */\n      dup6\n        /* \"@openzeppelin/contracts/token/ERC1155/ERC1155.sol\":11785:11791  values */\n      dup6\n        /* \"@openzeppelin/contracts/token/ERC1155/ERC1155.sol\":11793:11797  data */\n      dup6\n        /* \"@openzeppelin/contracts/token/ERC1155/ERC1155.sol\":11737:11763  _updateWithAcceptanceCheck */\n      tag_201\n        /* \"@openzeppelin/contracts/token/ERC1155/ERC1155.sol\":11737:11798  _updateWithAcceptanceCheck(address(0), to, ids, values, data) */\n      jump\t// in\n    tag_200:\n        /* \"@openzeppelin/contracts/token/ERC1155/ERC1155.sol\":11523:11805  function _mintBatch(address to, uint256[] memory ids, uint256[] memory values, bytes memory data) internal {... */\n      pop\n      pop\n      pop\n      pop\n      jump\t// out\n        /* \"@openzeppelin/contracts/utils/Context.sol\":656:752  function _msgSender() internal view virtual returns (address) {... */\n    tag_119:\n        /* \"@openzeppelin/contracts/utils/Context.sol\":709:716  address */\n      0x00\n        /* \"@openzeppelin/contracts/utils/Context.sol\":735:745  msg.sender */\n      caller\n        /* \"@openzeppelin/contracts/utils/Context.sol\":728:745  return msg.sender */\n      swap1\n      pop\n        /* \"@openzeppelin/contracts/utils/Context.sol\":656:752  function _msgSender() internal view virtual returns (address) {... */\n      swap1\n      jump\t// out\n        /* \"@openzeppelin/contracts/token/ERC1155/ERC1155.sol\":9015:9460  function _safeBatchTransferFrom(... */\n    tag_126:\n        /* \"@openzeppelin/contracts/token/ERC1155/ERC1155.sol\":9222:9223  0 */\n      0x00\n        /* \"@openzeppelin/contracts/token/ERC1155/ERC1155.sol\":9208:9224  to == address(0) */\n      0xffffffffffffffffffffffffffffffffffffffff\n      and\n        /* \"@openzeppelin/contracts/token/ERC1155/ERC1155.sol\":9208:9210  to */\n      dup5\n        /* \"@openzeppelin/contracts/token/ERC1155/ERC1155.sol\":9208:9224  to == address(0) */\n      0xffffffffffffffffffffffffffffffffffffffff\n      and\n      sub\n        /* \"@openzeppelin/contracts/token/ERC1155/ERC1155.sol\":9204:9292  if (to == address(0)) {... */\n      tag_204\n      jumpi\n        /* \"@openzeppelin/contracts/token/ERC1155/ERC1155.sol\":9278:9279  0 */\n      0x00\n        /* \"@openzeppelin/contracts/token/ERC1155/ERC1155.sol\":9247:9281  ERC1155InvalidReceiver(address(0)) */\n      mload(0x40)\n      0x57f447ce00000000000000000000000000000000000000000000000000000000\n      dup2\n      mstore\n      0x04\n      add\n      tag_205\n      swap2\n      swap1\n      tag_75\n      jump\t// in\n    tag_205:\n      mload(0x40)\n      dup1\n      swap2\n      sub\n      swap1\n      revert\n        /* \"@openzeppelin/contracts/token/ERC1155/ERC1155.sol\":9204:9292  if (to == address(0)) {... */\n    tag_204:\n        /* \"@openzeppelin/contracts/token/ERC1155/ERC1155.sol\":9321:9322  0 */\n      0x00\n        /* \"@openzeppelin/contracts/token/ERC1155/ERC1155.sol\":9305:9323  from == address(0) */\n      0xffffffffffffffffffffffffffffffffffffffff\n      and\n        /* \"@openzeppelin/contracts/token/ERC1155/ERC1155.sol\":9305:9309  from */\n      dup6\n        /* \"@openzeppelin/contracts/token/ERC1155/ERC1155.sol\":9305:9323  from == address(0) */\n      0xffffffffffffffffffffffffffffffffffffffff\n      and\n      sub\n        /* \"@openzeppelin/contracts/token/ERC1155/ERC1155.sol\":9301:9389  if (from == address(0)) {... */\n      tag_206\n      jumpi\n        /* \"@openzeppelin/contracts/token/ERC1155/ERC1155.sol\":9375:9376  0 */\n      0x00\n        /* \"@openzeppelin/contracts/token/ERC1155/ERC1155.sol\":9346:9378  ERC1155InvalidSender(address(0)) */\n      mload(0x40)\n      0x01a8351400000000000000000000000000000000000000000000000000000000\n      dup2\n      mstore\n      0x04\n      add\n      tag_207\n      swap2\n      swap1\n      tag_75\n      jump\t// in\n    tag_207:\n      mload(0x40)\n      dup1\n      swap2\n      sub\n      swap1\n      revert\n        /* \"@openzeppelin/contracts/token/ERC1155/ERC1155.sol\":9301:9389  if (from == address(0)) {... */\n    tag_206:\n        /* \"@openzeppelin/contracts/token/ERC1155/ERC1155.sol\":9398:9453  _updateWithAcceptanceCheck(from, to, ids, values, data) */\n      tag_208\n        /* \"@openzeppelin/contracts/token/ERC1155/ERC1155.sol\":9425:9429  from */\n      dup6\n        /* \"@openzeppelin/contracts/token/ERC1155/ERC1155.sol\":9431:9433  to */\n      dup6\n        /* \"@openzeppelin/contracts/token/ERC1155/ERC1155.sol\":9435:9438  ids */\n      dup6\n        /* \"@openzeppelin/contracts/token/ERC1155/ERC1155.sol\":9440:9446  values */\n      dup6\n        /* \"@openzeppelin/contracts/token/ERC1155/ERC1155.sol\":9448:9452  data */\n      dup6\n        /* \"@openzeppelin/contracts/token/ERC1155/ERC1155.sol\":9398:9424  _updateWithAcceptanceCheck */\n      tag_201\n        /* \"@openzeppelin/contracts/token/ERC1155/ERC1155.sol\":9398:9453  _updateWithAcceptanceCheck(from, to, ids, values, data) */\n      jump\t// in\n    tag_208:\n        /* \"@openzeppelin/contracts/token/ERC1155/ERC1155.sol\":9015:9460  function _safeBatchTransferFrom(... */\n      pop\n      pop\n      pop\n      pop\n      pop\n      jump\t// out\n        /* \"@openzeppelin/contracts/utils/Pausable.sol\":2710:2827  function _unpause() internal virtual whenPaused {... */\n    tag_131:\n        /* \"@openzeppelin/contracts/utils/Pausable.sol\":1721:1737  _requirePaused() */\n      tag_210\n        /* \"@openzeppelin/contracts/utils/Pausable.sol\":1721:1735  _requirePaused */\n      tag_211\n        /* \"@openzeppelin/contracts/utils/Pausable.sol\":1721:1737  _requirePaused() */\n      jump\t// in\n    tag_210:\n        /* \"@openzeppelin/contracts/utils/Pausable.sol\":2778:2783  false */\n      0x00\n        /* \"@openzeppelin/contracts/utils/Pausable.sol\":2768:2775  _paused */\n      0x03\n      0x14\n        /* \"@openzeppelin/contracts/utils/Pausable.sol\":2768:2783  _paused = false */\n      0x0100\n      exp\n      dup2\n      sload\n      dup2\n      0xff\n      mul\n      not\n      and\n      swap1\n      dup4\n      iszero\n      iszero\n      mul\n      or\n      swap1\n      sstore\n      pop\n        /* \"@openzeppelin/contracts/utils/Pausable.sol\":2798:2820  Unpaused(_msgSender()) */\n      0x5db9ee0a495bf2e6ff9c91a7834c1ba4fdd244a5e8aa4e537bd38aeae4b073aa\n        /* \"@openzeppelin/contracts/utils/Pausable.sol\":2807:2819  _msgSender() */\n      tag_213\n        /* \"@openzeppelin/contracts/utils/Pausable.sol\":2807:2817  _msgSender */\n      tag_119\n        /* \"@openzeppelin/contracts/utils/Pausable.sol\":2807:2819  _msgSender() */\n      jump\t// in\n    tag_213:\n        /* \"@openzeppelin/contracts/utils/Pausable.sol\":2798:2820  Unpaused(_msgSender()) */\n      mload(0x40)\n      tag_214\n      swap2\n      swap1\n      tag_75\n      jump\t// in\n    tag_214:\n      mload(0x40)\n      dup1\n      swap2\n      sub\n      swap1\n      log1\n        /* \"@openzeppelin/contracts/utils/Pausable.sol\":2710:2827  function _unpause() internal virtual whenPaused {... */\n      jump\t// out\n        /* \"@openzeppelin/contracts/utils/Arrays.sol\":4603:4800  function unsafeMemoryAccess(address[] memory arr, uint256 pos) internal pure returns (address res) {... */\n    tag_145:\n        /* \"@openzeppelin/contracts/utils/Arrays.sol\":4689:4700  address res */\n      0x00\n        /* \"@openzeppelin/contracts/utils/Arrays.sol\":4777:4781  0x20 */\n      0x20\n        /* \"@openzeppelin/contracts/utils/Arrays.sol\":4772:4775  pos */\n      dup3\n        /* \"@openzeppelin/contracts/utils/Arrays.sol\":4768:4782  mul(pos, 0x20) */\n      mul\n        /* \"@openzeppelin/contracts/utils/Arrays.sol\":4761:4765  0x20 */\n      0x20\n        /* \"@openzeppelin/contracts/utils/Arrays.sol\":4756:4759  arr */\n      dup5\n        /* \"@openzeppelin/contracts/utils/Arrays.sol\":4752:4766  add(arr, 0x20) */\n      add\n        /* \"@openzeppelin/contracts/utils/Arrays.sol\":4748:4783  add(add(arr, 0x20), mul(pos, 0x20)) */\n      add\n        /* \"@openzeppelin/contracts/utils/Arrays.sol\":4742:4784  mload(add(add(arr, 0x20), mul(pos, 0x20))) */\n      mload\n        /* \"@openzeppelin/contracts/utils/Arrays.sol\":4735:4784  res := mload(add(add(arr, 0x20), mul(pos, 0x20))) */\n      swap1\n      pop\n        /* \"@openzeppelin/contracts/utils/Arrays.sol\":4603:4800  function unsafeMemoryAccess(address[] memory arr, uint256 pos) internal pure returns (address res) {... */\n      swap3\n      swap2\n      pop\n      pop\n      jump\t// out\n        /* \"@openzeppelin/contracts/utils/Arrays.sol\":4204:4401  function unsafeMemoryAccess(uint256[] memory arr, uint256 pos) internal pure returns (uint256 res) {... */\n    tag_147:\n        /* \"@openzeppelin/contracts/utils/Arrays.sol\":4290:4301  uint256 res */\n      0x00\n        /* \"@openzeppelin/contracts/utils/Arrays.sol\":4378:4382  0x20 */\n      0x20\n        /* \"@openzeppelin/contracts/utils/Arrays.sol\":4373:4376  pos */\n      dup3\n        /* \"@openzeppelin/contracts/utils/Arrays.sol\":4369:4383  mul(pos, 0x20) */\n      mul\n        /* \"@openzeppelin/contracts/utils/Arrays.sol\":4362:4366  0x20 */\n      0x20\n        /* \"@openzeppelin/contracts/utils/Arrays.sol\":4357:4360  arr */\n      dup5\n        /* \"@openzeppelin/contracts/utils/Arrays.sol\":4353:4367  add(arr, 0x20) */\n      add\n        /* \"@openzeppelin/contracts/utils/Arrays.sol\":4349:4384  add(add(arr, 0x20), mul(pos, 0x20)) */\n      add\n        /* \"@openzeppelin/contracts/utils/Arrays.sol\":4343:4385  mload(add(add(arr, 0x20), mul(pos, 0x20))) */\n      mload\n        /* \"@openzeppelin/contracts/utils/Arrays.sol\":4336:4385  res := mload(add(add(arr, 0x20), mul(pos, 0x20))) */\n      swap1\n      pop\n        /* \"@openzeppelin/contracts/utils/Arrays.sol\":4204:4401  function unsafeMemoryAccess(uint256[] memory arr, uint256 pos) internal pure returns (uint256 res) {... */\n      swap3\n      swap2\n      pop\n      pop\n      jump\t// out\n        /* \"@openzeppelin/contracts/access/Ownable.sol\":2912:3099  function _transferOwnership(address newOwner) internal virtual {... */\n    tag_156:\n        /* \"@openzeppelin/contracts/access/Ownable.sol\":2985:3001  address oldOwner */\n      0x00\n        /* \"@openzeppelin/contracts/access/Ownable.sol\":3004:3010  _owner */\n      0x03\n      0x00\n      swap1\n      sload\n      swap1\n      0x0100\n      exp\n      swap1\n      div\n      0xffffffffffffffffffffffffffffffffffffffff\n      and\n        /* \"@openzeppelin/contracts/access/Ownable.sol\":2985:3010  address oldOwner = _owner */\n      swap1\n      pop\n        /* \"@openzeppelin/contracts/access/Ownable.sol\":3029:3037  newOwner */\n      dup2\n        /* \"@openzeppelin/contracts/access/Ownable.sol\":3020:3026  _owner */\n      0x03\n      0x00\n        /* \"@openzeppelin/contracts/access/Ownable.sol\":3020:3037  _owner = newOwner */\n      0x0100\n      exp\n      dup2\n      sload\n      dup2\n      0xffffffffffffffffffffffffffffffffffffffff\n      mul\n      not\n      and\n      swap1\n      dup4\n      0xffffffffffffffffffffffffffffffffffffffff\n      and\n      mul\n      or\n      swap1\n      sstore\n      pop\n        /* \"@openzeppelin/contracts/access/Ownable.sol\":3083:3091  newOwner */\n      dup2\n        /* \"@openzeppelin/contracts/access/Ownable.sol\":3052:3092  OwnershipTransferred(oldOwner, newOwner) */\n      0xffffffffffffffffffffffffffffffffffffffff\n      and\n        /* \"@openzeppelin/contracts/access/Ownable.sol\":3073:3081  oldOwner */\n      dup2\n        /* \"@openzeppelin/contracts/access/Ownable.sol\":3052:3092  OwnershipTransferred(oldOwner, newOwner) */\n      0xffffffffffffffffffffffffffffffffffffffff\n      and\n      0x8be0079c531659141344cd1fd0a4f28419497f9722a3daafe3b4186f6b6457e0\n      mload(0x40)\n      mload(0x40)\n      dup1\n      swap2\n      sub\n      swap1\n      log3\n        /* \"@openzeppelin/contracts/access/Ownable.sol\":2975:3099  {... */\n      pop\n        /* \"@openzeppelin/contracts/access/Ownable.sol\":2912:3099  function _transferOwnership(address newOwner) internal virtual {... */\n      pop\n      jump\t// out\n        /* \"@openzeppelin/contracts/token/ERC1155/ERC1155.sol\":10746:11092  function _mint(address to, uint256 id, uint256 value, bytes memory data) internal {... */\n    tag_161:\n        /* \"@openzeppelin/contracts/token/ERC1155/ERC1155.sol\":10856:10857  0 */\n      0x00\n        /* \"@openzeppelin/contracts/token/ERC1155/ERC1155.sol\":10842:10858  to == address(0) */\n      0xffffffffffffffffffffffffffffffffffffffff\n      and\n        /* \"@openzeppelin/contracts/token/ERC1155/ERC1155.sol\":10842:10844  to */\n      dup5\n        /* \"@openzeppelin/contracts/token/ERC1155/ERC1155.sol\":10842:10858  to == address(0) */\n      0xffffffffffffffffffffffffffffffffffffffff\n      and\n      sub\n        /* \"@openzeppelin/contracts/token/ERC1155/ERC1155.sol\":10838:10926  if (to == address(0)) {... */\n      tag_219\n      jumpi\n        /* \"@openzeppelin/contracts/token/ERC1155/ERC1155.sol\":10912:10913  0 */\n      0x00\n        /* \"@openzeppelin/contracts/token/ERC1155/ERC1155.sol\":10881:10915  ERC1155InvalidReceiver(address(0)) */\n      mload(0x40)\n      0x57f447ce00000000000000000000000000000000000000000000000000000000\n      dup2\n      mstore\n      0x04\n      add\n      tag_220\n      swap2\n      swap1\n      tag_75\n      jump\t// in\n    tag_220:\n      mload(0x40)\n      dup1\n      swap2\n      sub\n      swap1\n      revert\n        /* \"@openzeppelin/contracts/token/ERC1155/ERC1155.sol\":10838:10926  if (to == address(0)) {... */\n    tag_219:\n        /* \"@openzeppelin/contracts/token/ERC1155/ERC1155.sol\":10936:10956  uint256[] memory ids */\n      0x00\n        /* \"@openzeppelin/contracts/token/ERC1155/ERC1155.sol\":10958:10981  uint256[] memory values */\n      dup1\n        /* \"@openzeppelin/contracts/token/ERC1155/ERC1155.sol\":10985:11014  _asSingletonArrays(id, value) */\n      tag_221\n        /* \"@openzeppelin/contracts/token/ERC1155/ERC1155.sol\":11004:11006  id */\n      dup6\n        /* \"@openzeppelin/contracts/token/ERC1155/ERC1155.sol\":11008:11013  value */\n      dup6\n        /* \"@openzeppelin/contracts/token/ERC1155/ERC1155.sol\":10985:11003  _asSingletonArrays */\n      tag_222\n        /* \"@openzeppelin/contracts/token/ERC1155/ERC1155.sol\":10985:11014  _asSingletonArrays(id, value) */\n      jump\t// in\n    tag_221:\n        /* \"@openzeppelin/contracts/token/ERC1155/ERC1155.sol\":10935:11014  (uint256[] memory ids, uint256[] memory values) = _asSingletonArrays(id, value) */\n      swap2\n      pop\n      swap2\n      pop\n        /* \"@openzeppelin/contracts/token/ERC1155/ERC1155.sol\":11024:11085  _updateWithAcceptanceCheck(address(0), to, ids, values, data) */\n      tag_223\n        /* \"@openzeppelin/contracts/token/ERC1155/ERC1155.sol\":11059:11060  0 */\n      0x00\n        /* \"@openzeppelin/contracts/token/ERC1155/ERC1155.sol\":11063:11065  to */\n      dup8\n        /* \"@openzeppelin/contracts/token/ERC1155/ERC1155.sol\":11067:11070  ids */\n      dup5\n        /* \"@openzeppelin/contracts/token/ERC1155/ERC1155.sol\":11072:11078  values */\n      dup5\n        /* \"@openzeppelin/contracts/token/ERC1155/ERC1155.sol\":11080:11084  data */\n      dup8\n        /* \"@openzeppelin/contracts/token/ERC1155/ERC1155.sol\":11024:11050  _updateWithAcceptanceCheck */\n      tag_201\n        /* \"@openzeppelin/contracts/token/ERC1155/ERC1155.sol\":11024:11085  _updateWithAcceptanceCheck(address(0), to, ids, values, data) */\n      jump\t// in\n    tag_223:\n        /* \"@openzeppelin/contracts/token/ERC1155/ERC1155.sol\":10828:11092  {... */\n      pop\n      pop\n        /* \"@openzeppelin/contracts/token/ERC1155/ERC1155.sol\":10746:11092  function _mint(address to, uint256 id, uint256 value, bytes memory data) internal {... */\n      pop\n      pop\n      pop\n      pop\n      jump\t// out\n        /* \"@openzeppelin/contracts/utils/Pausable.sol\":2463:2578  function _pause() internal virtual whenNotPaused {... */\n    tag_166:\n        /* \"@openzeppelin/contracts/utils/Pausable.sol\":1474:1493  _requireNotPaused() */\n      tag_225\n        /* \"@openzeppelin/contracts/utils/Pausable.sol\":1474:1491  _requireNotPaused */\n      tag_226\n        /* \"@openzeppelin/contracts/utils/Pausable.sol\":1474:1493  _requireNotPaused() */\n      jump\t// in\n    tag_225:\n        /* \"@openzeppelin/contracts/utils/Pausable.sol\":2532:2536  true */\n      0x01\n        /* \"@openzeppelin/contracts/utils/Pausable.sol\":2522:2529  _paused */\n      0x03\n      0x14\n        /* \"@openzeppelin/contracts/utils/Pausable.sol\":2522:2536  _paused = true */\n      0x0100\n      exp\n      dup2\n      sload\n      dup2\n      0xff\n      mul\n      not\n      and\n      swap1\n      dup4\n      iszero\n      iszero\n      mul\n      or\n      swap1\n      sstore\n      pop\n        /* \"@openzeppelin/contracts/utils/Pausable.sol\":2551:2571  Paused(_msgSender()) */\n      0x62e78cea01bee320cd4e420270b5ea74000d11b0c9f74754ebdbfc544b05a258\n        /* \"@openzeppelin/contracts/utils/Pausable.sol\":2558:2570  _msgSender() */\n      tag_228\n        /* \"@openzeppelin/contracts/utils/Pausable.sol\":2558:2568  _msgSender */\n      tag_119\n        /* \"@openzeppelin/contracts/utils/Pausable.sol\":2558:2570  _msgSender() */\n      jump\t// in\n    tag_228:\n        /* \"@openzeppelin/contracts/utils/Pausable.sol\":2551:2571  Paused(_msgSender()) */\n      mload(0x40)\n      tag_229\n      swap2\n      swap1\n      tag_75\n      jump\t// in\n    tag_229:\n      mload(0x40)\n      dup1\n      swap2\n      sub\n      swap1\n      log1\n        /* \"@openzeppelin/contracts/utils/Pausable.sol\":2463:2578  function _pause() internal virtual whenNotPaused {... */\n      jump\t// out\n        /* \"@openzeppelin/contracts/token/ERC1155/ERC1155.sol\":13268:13583  function _setApprovalForAll(address owner, address operator, bool approved) internal virtual {... */\n    tag_171:\n        /* \"@openzeppelin/contracts/token/ERC1155/ERC1155.sol\":13395:13396  0 */\n      0x00\n        /* \"@openzeppelin/contracts/token/ERC1155/ERC1155.sol\":13375:13397  operator == address(0) */\n      0xffffffffffffffffffffffffffffffffffffffff\n      and\n        /* \"@openzeppelin/contracts/token/ERC1155/ERC1155.sol\":13375:13383  operator */\n      dup3\n        /* \"@openzeppelin/contracts/token/ERC1155/ERC1155.sol\":13375:13397  operator == address(0) */\n      0xffffffffffffffffffffffffffffffffffffffff\n      and\n      sub\n        /* \"@openzeppelin/contracts/token/ERC1155/ERC1155.sol\":13371:13465  if (operator == address(0)) {... */\n      tag_231\n      jumpi\n        /* \"@openzeppelin/contracts/token/ERC1155/ERC1155.sol\":13451:13452  0 */\n      0x00\n        /* \"@openzeppelin/contracts/token/ERC1155/ERC1155.sol\":13420:13454  ERC1155InvalidOperator(address(0)) */\n      mload(0x40)\n      0xced3e10000000000000000000000000000000000000000000000000000000000\n      dup2\n      mstore\n      0x04\n      add\n      tag_232\n      swap2\n      swap1\n      tag_75\n      jump\t// in\n    tag_232:\n      mload(0x40)\n      dup1\n      swap2\n      sub\n      swap1\n      revert\n        /* \"@openzeppelin/contracts/token/ERC1155/ERC1155.sol\":13371:13465  if (operator == address(0)) {... */\n    tag_231:\n        /* \"@openzeppelin/contracts/token/ERC1155/ERC1155.sol\":13512:13520  approved */\n      dup1\n        /* \"@openzeppelin/contracts/token/ERC1155/ERC1155.sol\":13474:13492  _operatorApprovals */\n      0x01\n        /* \"@openzeppelin/contracts/token/ERC1155/ERC1155.sol\":13474:13499  _operatorApprovals[owner] */\n      0x00\n        /* \"@openzeppelin/contracts/token/ERC1155/ERC1155.sol\":13493:13498  owner */\n      dup6\n        /* \"@openzeppelin/contracts/token/ERC1155/ERC1155.sol\":13474:13499  _operatorApprovals[owner] */\n      0xffffffffffffffffffffffffffffffffffffffff\n      and\n      0xffffffffffffffffffffffffffffffffffffffff\n      and\n      dup2\n      mstore\n      0x20\n      add\n      swap1\n      dup2\n      mstore\n      0x20\n      add\n      0x00\n      keccak256\n        /* \"@openzeppelin/contracts/token/ERC1155/ERC1155.sol\":13474:13509  _operatorApprovals[owner][operator] */\n      0x00\n        /* \"@openzeppelin/contracts/token/ERC1155/ERC1155.sol\":13500:13508  operator */\n      dup5\n        /* \"@openzeppelin/contracts/token/ERC1155/ERC1155.sol\":13474:13509  _operatorApprovals[owner][operator] */\n      0xffffffffffffffffffffffffffffffffffffffff\n      and\n      0xffffffffffffffffffffffffffffffffffffffff\n      and\n      dup2\n      mstore\n      0x20\n      add\n      swap1\n      dup2\n      mstore\n      0x20\n      add\n      0x00\n      keccak256\n      0x00\n        /* \"@openzeppelin/contracts/token/ERC1155/ERC1155.sol\":13474:13520  _operatorApprovals[owner][operator] = approved */\n      0x0100\n      exp\n      dup2\n      sload\n      dup2\n      0xff\n      mul\n      not\n      and\n      swap1\n      dup4\n      iszero\n      iszero\n      mul\n      or\n      swap1\n      sstore\n      pop\n        /* \"@openzeppelin/contracts/token/ERC1155/ERC1155.sol\":13557:13565  operator */\n      dup2\n        /* \"@openzeppelin/contracts/token/ERC1155/ERC1155.sol\":13535:13576  ApprovalForAll(owner, operator, approved) */\n      0xffffffffffffffffffffffffffffffffffffffff\n      and\n        /* \"@openzeppelin/contracts/token/ERC1155/ERC1155.sol\":13550:13555  owner */\n      dup4\n        /* \"@openzeppelin/contracts/token/ERC1155/ERC1155.sol\":13535:13576  ApprovalForAll(owner, operator, approved) */\n      0xffffffffffffffffffffffffffffffffffffffff\n      and\n      0x17307eab39ab6107e8899845ad3d59bd9653f200f220920489ca2b5937696c31\n        /* \"@openzeppelin/contracts/token/ERC1155/ERC1155.sol\":13567:13575  approved */\n      dup4\n        /* \"@openzeppelin/contracts/token/ERC1155/ERC1155.sol\":13535:13576  ApprovalForAll(owner, operator, approved) */\n      mload(0x40)\n      tag_233\n      swap2\n      swap1\n      tag_34\n      jump\t// in\n    tag_233:\n      mload(0x40)\n      dup1\n      swap2\n      sub\n      swap1\n      log3\n        /* \"@openzeppelin/contracts/token/ERC1155/ERC1155.sol\":13268:13583  function _setApprovalForAll(address owner, address operator, bool approved) internal virtual {... */\n      pop\n      pop\n      pop\n      jump\t// out\n        /* \"@openzeppelin/contracts/token/ERC1155/ERC1155.sol\":8151:8614  function _safeTransferFrom(address from, address to, uint256 id, uint256 value, bytes memory data) internal {... */\n    tag_180:\n        /* \"@openzeppelin/contracts/token/ERC1155/ERC1155.sol\":8287:8288  0 */\n      0x00\n        /* \"@openzeppelin/contracts/token/ERC1155/ERC1155.sol\":8273:8289  to == address(0) */\n      0xffffffffffffffffffffffffffffffffffffffff\n      and\n        /* \"@openzeppelin/contracts/token/ERC1155/ERC1155.sol\":8273:8275  to */\n      dup5\n        /* \"@openzeppelin/contracts/token/ERC1155/ERC1155.sol\":8273:8289  to == address(0) */\n      0xffffffffffffffffffffffffffffffffffffffff\n      and\n      sub\n        /* \"@openzeppelin/contracts/token/ERC1155/ERC1155.sol\":8269:8357  if (to == address(0)) {... */\n      tag_235\n      jumpi\n        /* \"@openzeppelin/contracts/token/ERC1155/ERC1155.sol\":8343:8344  0 */\n      0x00\n        /* \"@openzeppelin/contracts/token/ERC1155/ERC1155.sol\":8312:8346  ERC1155InvalidReceiver(address(0)) */\n      mload(0x40)\n      0x57f447ce00000000000000000000000000000000000000000000000000000000\n      dup2\n      mstore\n      0x04\n      add\n      tag_236\n      swap2\n      swap1\n      tag_75\n      jump\t// in\n    tag_236:\n      mload(0x40)\n      dup1\n      swap2\n      sub\n      swap1\n      revert\n        /* \"@openzeppelin/contracts/token/ERC1155/ERC1155.sol\":8269:8357  if (to == address(0)) {... */\n    tag_235:\n        /* \"@openzeppelin/contracts/token/ERC1155/ERC1155.sol\":8386:8387  0 */\n      0x00\n        /* \"@openzeppelin/contracts/token/ERC1155/ERC1155.sol\":8370:8388  from == address(0) */\n      0xffffffffffffffffffffffffffffffffffffffff\n      and\n        /* \"@openzeppelin/contracts/token/ERC1155/ERC1155.sol\":8370:8374  from */\n      dup6\n        /* \"@openzeppelin/contracts/token/ERC1155/ERC1155.sol\":8370:8388  from == address(0) */\n      0xffffffffffffffffffffffffffffffffffffffff\n      and\n      sub\n        /* \"@openzeppelin/contracts/token/ERC1155/ERC1155.sol\":8366:8454  if (from == address(0)) {... */\n      tag_237\n      jumpi\n        /* \"@openzeppelin/contracts/token/ERC1155/ERC1155.sol\":8440:8441  0 */\n      0x00\n        /* \"@openzeppelin/contracts/token/ERC1155/ERC1155.sol\":8411:8443  ERC1155InvalidSender(address(0)) */\n      mload(0x40)\n      0x01a8351400000000000000000000000000000000000000000000000000000000\n      dup2\n      mstore\n      0x04\n      add\n      tag_238\n      swap2\n      swap1\n      tag_75\n      jump\t// in\n    tag_238:\n      mload(0x40)\n      dup1\n      swap2\n      sub\n      swap1\n      revert\n        /* \"@openzeppelin/contracts/token/ERC1155/ERC1155.sol\":8366:8454  if (from == address(0)) {... */\n    tag_237:\n        /* \"@openzeppelin/contracts/token/ERC1155/ERC1155.sol\":8464:8484  uint256[] memory ids */\n      0x00\n        /* \"@openzeppelin/contracts/token/ERC1155/ERC1155.sol\":8486:8509  uint256[] memory values */\n      dup1\n        /* \"@openzeppelin/contracts/token/ERC1155/ERC1155.sol\":8513:8542  _asSingletonArrays(id, value) */\n      tag_239\n        /* \"@openzeppelin/contracts/token/ERC1155/ERC1155.sol\":8532:8534  id */\n      dup6\n        /* \"@openzeppelin/contracts/token/ERC1155/ERC1155.sol\":8536:8541  value */\n      dup6\n        /* \"@openzeppelin/contracts/token/ERC1155/ERC1155.sol\":8513:8531  _asSingletonArrays */\n      tag_222\n        /* \"@openzeppelin/contracts/token/ERC1155/ERC1155.sol\":8513:8542  _asSingletonArrays(id, value) */\n      jump\t// in\n    tag_239:\n        /* \"@openzeppelin/contracts/token/ERC1155/ERC1155.sol\":8463:8542  (uint256[] memory ids, uint256[] memory values) = _asSingletonArrays(id, value) */\n      swap2\n      pop\n      swap2\n      pop\n        /* \"@openzeppelin/contracts/token/ERC1155/ERC1155.sol\":8552:8607  _updateWithAcceptanceCheck(from, to, ids, values, data) */\n      tag_240\n        /* \"@openzeppelin/contracts/token/ERC1155/ERC1155.sol\":8579:8583  from */\n      dup8\n        /* \"@openzeppelin/contracts/token/ERC1155/ERC1155.sol\":8585:8587  to */\n      dup8\n        /* \"@openzeppelin/contracts/token/ERC1155/ERC1155.sol\":8589:8592  ids */\n      dup5\n        /* \"@openzeppelin/contracts/token/ERC1155/ERC1155.sol\":8594:8600  values */\n      dup5\n        /* \"@openzeppelin/contracts/token/ERC1155/ERC1155.sol\":8602:8606  data */\n      dup8\n        /* \"@openzeppelin/contracts/token/ERC1155/ERC1155.sol\":8552:8578  _updateWithAcceptanceCheck */\n      tag_201\n        /* \"@openzeppelin/contracts/token/ERC1155/ERC1155.sol\":8552:8607  _updateWithAcceptanceCheck(from, to, ids, values, data) */\n      jump\t// in\n    tag_240:\n        /* \"@openzeppelin/contracts/token/ERC1155/ERC1155.sol\":8259:8614  {... */\n      pop\n      pop\n        /* \"@openzeppelin/contracts/token/ERC1155/ERC1155.sol\":8151:8614  function _safeTransferFrom(address from, address to, uint256 id, uint256 value, bytes memory data) internal {... */\n      pop\n      pop\n      pop\n      pop\n      pop\n      jump\t// out\n        /* \"@openzeppelin/contracts/token/ERC1155/ERC1155.sol\":7004:7694  function _updateWithAcceptanceCheck(... */\n    tag_201:\n        /* \"@openzeppelin/contracts/token/ERC1155/ERC1155.sol\":7205:7235  _update(from, to, ids, values) */\n      tag_242\n        /* \"@openzeppelin/contracts/token/ERC1155/ERC1155.sol\":7213:7217  from */\n      dup6\n        /* \"@openzeppelin/contracts/token/ERC1155/ERC1155.sol\":7219:7221  to */\n      dup6\n        /* \"@openzeppelin/contracts/token/ERC1155/ERC1155.sol\":7223:7226  ids */\n      dup6\n        /* \"@openzeppelin/contracts/token/ERC1155/ERC1155.sol\":7228:7234  values */\n      dup6\n        /* \"@openzeppelin/contracts/token/ERC1155/ERC1155.sol\":7205:7212  _update */\n      tag_243\n        /* \"@openzeppelin/contracts/token/ERC1155/ERC1155.sol\":7205:7235  _update(from, to, ids, values) */\n      jump\t// in\n    tag_242:\n        /* \"@openzeppelin/contracts/token/ERC1155/ERC1155.sol\":7263:7264  0 */\n      0x00\n        /* \"@openzeppelin/contracts/token/ERC1155/ERC1155.sol\":7249:7265  to != address(0) */\n      0xffffffffffffffffffffffffffffffffffffffff\n      and\n        /* \"@openzeppelin/contracts/token/ERC1155/ERC1155.sol\":7249:7251  to */\n      dup5\n        /* \"@openzeppelin/contracts/token/ERC1155/ERC1155.sol\":7249:7265  to != address(0) */\n      0xffffffffffffffffffffffffffffffffffffffff\n      and\n      eq\n        /* \"@openzeppelin/contracts/token/ERC1155/ERC1155.sol\":7245:7688  if (to != address(0)) {... */\n      tag_244\n      jumpi\n        /* \"@openzeppelin/contracts/token/ERC1155/ERC1155.sol\":7281:7297  address operator */\n      0x00\n        /* \"@openzeppelin/contracts/token/ERC1155/ERC1155.sol\":7300:7312  _msgSender() */\n      tag_245\n        /* \"@openzeppelin/contracts/token/ERC1155/ERC1155.sol\":7300:7310  _msgSender */\n      tag_119\n        /* \"@openzeppelin/contracts/token/ERC1155/ERC1155.sol\":7300:7312  _msgSender() */\n      jump\t// in\n    tag_245:\n        /* \"@openzeppelin/contracts/token/ERC1155/ERC1155.sol\":7281:7312  address operator = _msgSender() */\n      swap1\n      pop\n        /* \"@openzeppelin/contracts/token/ERC1155/ERC1155.sol\":7344:7345  1 */\n      0x01\n        /* \"@openzeppelin/contracts/token/ERC1155/ERC1155.sol\":7330:7333  ids */\n      dup5\n        /* \"@openzeppelin/contracts/token/ERC1155/ERC1155.sol\":7330:7340  ids.length */\n      mload\n        /* \"@openzeppelin/contracts/token/ERC1155/ERC1155.sol\":7330:7345  ids.length == 1 */\n      sub\n        /* \"@openzeppelin/contracts/token/ERC1155/ERC1155.sol\":7326:7678  if (ids.length == 1) {... */\n      tag_246\n      jumpi\n        /* \"@openzeppelin/contracts/token/ERC1155/ERC1155.sol\":7365:7375  uint256 id */\n      0x00\n        /* \"@openzeppelin/contracts/token/ERC1155/ERC1155.sol\":7378:7403  ids.unsafeMemoryAccess(0) */\n      tag_247\n        /* \"@openzeppelin/contracts/token/ERC1155/ERC1155.sol\":7401:7402  0 */\n      0x00\n        /* \"@openzeppelin/contracts/token/ERC1155/ERC1155.sol\":7378:7381  ids */\n      dup7\n        /* \"@openzeppelin/contracts/token/ERC1155/ERC1155.sol\":7378:7400  ids.unsafeMemoryAccess */\n      tag_147\n      swap1\n        /* \"@openzeppelin/contracts/token/ERC1155/ERC1155.sol\":7378:7403  ids.unsafeMemoryAccess(0) */\n      swap2\n      swap1\n      0xffffffff\n      and\n      jump\t// in\n    tag_247:\n        /* \"@openzeppelin/contracts/token/ERC1155/ERC1155.sol\":7365:7403  uint256 id = ids.unsafeMemoryAccess(0) */\n      swap1\n      pop\n        /* \"@openzeppelin/contracts/token/ERC1155/ERC1155.sol\":7421:7434  uint256 value */\n      0x00\n        /* \"@openzeppelin/contracts/token/ERC1155/ERC1155.sol\":7437:7465  values.unsafeMemoryAccess(0) */\n      tag_248\n        /* \"@openzeppelin/contracts/token/ERC1155/ERC1155.sol\":7463:7464  0 */\n      0x00\n        /* \"@openzeppelin/contracts/token/ERC1155/ERC1155.sol\":7437:7443  values */\n      dup7\n        /* \"@openzeppelin/contracts/token/ERC1155/ERC1155.sol\":7437:7462  values.unsafeMemoryAccess */\n      tag_147\n      swap1\n        /* \"@openzeppelin/contracts/token/ERC1155/ERC1155.sol\":7437:7465  values.unsafeMemoryAccess(0) */\n      swap2\n      swap1\n      0xffffffff\n      and\n      jump\t// in\n    tag_248:\n        /* \"@openzeppelin/contracts/token/ERC1155/ERC1155.sol\":7421:7465  uint256 value = values.unsafeMemoryAccess(0) */\n      swap1\n      pop\n        /* \"@openzeppelin/contracts/token/ERC1155/ERC1155.sol\":7483:7550  _doSafeTransferAcceptanceCheck(operator, from, to, id, value, data) */\n      tag_249\n        /* \"@openzeppelin/contracts/token/ERC1155/ERC1155.sol\":7514:7522  operator */\n      dup4\n        /* \"@openzeppelin/contracts/token/ERC1155/ERC1155.sol\":7524:7528  from */\n      dup10\n        /* \"@openzeppelin/contracts/token/ERC1155/ERC1155.sol\":7530:7532  to */\n      dup10\n        /* \"@openzeppelin/contracts/token/ERC1155/ERC1155.sol\":7534:7536  id */\n      dup6\n        /* \"@openzeppelin/contracts/token/ERC1155/ERC1155.sol\":7538:7543  value */\n      dup6\n        /* \"@openzeppelin/contracts/token/ERC1155/ERC1155.sol\":7545:7549  data */\n      dup10\n        /* \"@openzeppelin/contracts/token/ERC1155/ERC1155.sol\":7483:7513  _doSafeTransferAcceptanceCheck */\n      tag_250\n        /* \"@openzeppelin/contracts/token/ERC1155/ERC1155.sol\":7483:7550  _doSafeTransferAcceptanceCheck(operator, from, to, id, value, data) */\n      jump\t// in\n    tag_249:\n        /* \"@openzeppelin/contracts/token/ERC1155/ERC1155.sol\":7347:7565  {... */\n      pop\n      pop\n        /* \"@openzeppelin/contracts/token/ERC1155/ERC1155.sol\":7326:7678  if (ids.length == 1) {... */\n      jump(tag_251)\n    tag_246:\n        /* \"@openzeppelin/contracts/token/ERC1155/ERC1155.sol\":7589:7663  _doSafeBatchTransferAcceptanceCheck(operator, from, to, ids, values, data) */\n      tag_252\n        /* \"@openzeppelin/contracts/token/ERC1155/ERC1155.sol\":7625:7633  operator */\n      dup2\n        /* \"@openzeppelin/contracts/token/ERC1155/ERC1155.sol\":7635:7639  from */\n      dup8\n        /* \"@openzeppelin/contracts/token/ERC1155/ERC1155.sol\":7641:7643  to */\n      dup8\n        /* \"@openzeppelin/contracts/token/ERC1155/ERC1155.sol\":7645:7648  ids */\n      dup8\n        /* \"@openzeppelin/contracts/token/ERC1155/ERC1155.sol\":7650:7656  values */\n      dup8\n        /* \"@openzeppelin/contracts/token/ERC1155/ERC1155.sol\":7658:7662  data */\n      dup8\n        /* \"@openzeppelin/contracts/token/ERC1155/ERC1155.sol\":7589:7624  _doSafeBatchTransferAcceptanceCheck */\n      tag_253\n        /* \"@openzeppelin/contracts/token/ERC1155/ERC1155.sol\":7589:7663  _doSafeBatchTransferAcceptanceCheck(operator, from, to, ids, values, data) */\n      jump\t// in\n    tag_252:\n        /* \"@openzeppelin/contracts/token/ERC1155/ERC1155.sol\":7326:7678  if (ids.length == 1) {... */\n    tag_251:\n        /* \"@openzeppelin/contracts/token/ERC1155/ERC1155.sol\":7267:7688  {... */\n      pop\n        /* \"@openzeppelin/contracts/token/ERC1155/ERC1155.sol\":7245:7688  if (to != address(0)) {... */\n    tag_244:\n        /* \"@openzeppelin/contracts/token/ERC1155/ERC1155.sol\":7004:7694  function _updateWithAcceptanceCheck(... */\n      pop\n      pop\n      pop\n      pop\n      pop\n      jump\t// out\n        /* \"@openzeppelin/contracts/utils/Pausable.sol\":2202:2328  function _requirePaused() internal view virtual {... */\n    tag_211:\n        /* \"@openzeppelin/contracts/utils/Pausable.sol\":2265:2273  paused() */\n      tag_255\n        /* \"@openzeppelin/contracts/utils/Pausable.sol\":2265:2271  paused */\n      tag_62\n        /* \"@openzeppelin/contracts/utils/Pausable.sol\":2265:2273  paused() */\n      jump\t// in\n    tag_255:\n        /* \"@openzeppelin/contracts/utils/Pausable.sol\":2260:2322  if (!paused()) {... */\n      tag_256\n      jumpi\n        /* \"@openzeppelin/contracts/utils/Pausable.sol\":2296:2311  ExpectedPause() */\n      mload(0x40)\n      0x8dfc202b00000000000000000000000000000000000000000000000000000000\n      dup2\n      mstore\n      0x04\n      add\n      mload(0x40)\n      dup1\n      swap2\n      sub\n      swap1\n      revert\n        /* \"@openzeppelin/contracts/utils/Pausable.sol\":2260:2322  if (!paused()) {... */\n    tag_256:\n        /* \"@openzeppelin/contracts/utils/Pausable.sol\":2202:2328  function _requirePaused() internal view virtual {... */\n      jump\t// out\n        /* \"@openzeppelin/contracts/token/ERC1155/ERC1155.sol\":16080:16929  function _asSingletonArrays(... */\n    tag_222:\n        /* \"@openzeppelin/contracts/token/ERC1155/ERC1155.sol\":16188:16211  uint256[] memory array1 */\n      0x60\n        /* \"@openzeppelin/contracts/token/ERC1155/ERC1155.sol\":16213:16236  uint256[] memory array2 */\n      dup1\n        /* \"@openzeppelin/contracts/token/ERC1155/ERC1155.sol\":16374:16378  0x40 */\n      0x40\n        /* \"@openzeppelin/contracts/token/ERC1155/ERC1155.sol\":16368:16379  mload(0x40) */\n      mload\n        /* \"@openzeppelin/contracts/token/ERC1155/ERC1155.sol\":16358:16379  array1 := mload(0x40) */\n      swap2\n      pop\n        /* \"@openzeppelin/contracts/token/ERC1155/ERC1155.sol\":16444:16445  1 */\n      0x01\n        /* \"@openzeppelin/contracts/token/ERC1155/ERC1155.sol\":16436:16442  array1 */\n      dup3\n        /* \"@openzeppelin/contracts/token/ERC1155/ERC1155.sol\":16429:16446  mstore(array1, 1) */\n      mstore\n        /* \"@openzeppelin/contracts/token/ERC1155/ERC1155.sol\":16582:16590  element1 */\n      dup4\n        /* \"@openzeppelin/contracts/token/ERC1155/ERC1155.sol\":16575:16579  0x20 */\n      0x20\n        /* \"@openzeppelin/contracts/token/ERC1155/ERC1155.sol\":16567:16573  array1 */\n      dup4\n        /* \"@openzeppelin/contracts/token/ERC1155/ERC1155.sol\":16563:16580  add(array1, 0x20) */\n      add\n        /* \"@openzeppelin/contracts/token/ERC1155/ERC1155.sol\":16556:16591  mstore(add(array1, 0x20), element1) */\n      mstore\n        /* \"@openzeppelin/contracts/token/ERC1155/ERC1155.sol\":16704:16708  0x40 */\n      0x40\n        /* \"@openzeppelin/contracts/token/ERC1155/ERC1155.sol\":16696:16702  array1 */\n      dup3\n        /* \"@openzeppelin/contracts/token/ERC1155/ERC1155.sol\":16692:16709  add(array1, 0x40) */\n      add\n        /* \"@openzeppelin/contracts/token/ERC1155/ERC1155.sol\":16682:16709  array2 := add(array1, 0x40) */\n      swap1\n      pop\n        /* \"@openzeppelin/contracts/token/ERC1155/ERC1155.sol\":16737:16738  1 */\n      0x01\n        /* \"@openzeppelin/contracts/token/ERC1155/ERC1155.sol\":16729:16735  array2 */\n      dup2\n        /* \"@openzeppelin/contracts/token/ERC1155/ERC1155.sol\":16722:16739  mstore(array2, 1) */\n      mstore\n        /* \"@openzeppelin/contracts/token/ERC1155/ERC1155.sol\":16778:16786  element2 */\n      dup3\n        /* \"@openzeppelin/contracts/token/ERC1155/ERC1155.sol\":16771:16775  0x20 */\n      0x20\n        /* \"@openzeppelin/contracts/token/ERC1155/ERC1155.sol\":16763:16769  array2 */\n      dup3\n        /* \"@openzeppelin/contracts/token/ERC1155/ERC1155.sol\":16759:16776  add(array2, 0x20) */\n      add\n        /* \"@openzeppelin/contracts/token/ERC1155/ERC1155.sol\":16752:16787  mstore(add(array2, 0x20), element2) */\n      mstore\n        /* \"@openzeppelin/contracts/token/ERC1155/ERC1155.sol\":16907:16911  0x40 */\n      0x40\n        /* \"@openzeppelin/contracts/token/ERC1155/ERC1155.sol\":16899:16905  array2 */\n      dup2\n        /* \"@openzeppelin/contracts/token/ERC1155/ERC1155.sol\":16895:16912  add(array2, 0x40) */\n      add\n        /* \"@openzeppelin/contracts/token/ERC1155/ERC1155.sol\":16889:16893  0x40 */\n      0x40\n        /* \"@openzeppelin/contracts/token/ERC1155/ERC1155.sol\":16882:16913  mstore(0x40, add(array2, 0x40)) */\n      mstore\n        /* \"@openzeppelin/contracts/token/ERC1155/ERC1155.sol\":16080:16929  function _asSingletonArrays(... */\n      swap3\n      pop\n      swap3\n      swap1\n      pop\n      jump\t// out\n        /* \"@openzeppelin/contracts/utils/Pausable.sol\":2002:2130  function _requireNotPaused() internal view virtual {... */\n    tag_226:\n        /* \"@openzeppelin/contracts/utils/Pausable.sol\":2067:2075  paused() */\n      tag_259\n        /* \"@openzeppelin/contracts/utils/Pausable.sol\":2067:2073  paused */\n      tag_62\n        /* \"@openzeppelin/contracts/utils/Pausable.sol\":2067:2075  paused() */\n      jump\t// in\n    tag_259:\n        /* \"@openzeppelin/contracts/utils/Pausable.sol\":2063:2124  if (paused()) {... */\n      iszero\n      tag_260\n      jumpi\n        /* \"@openzeppelin/contracts/utils/Pausable.sol\":2098:2113  EnforcedPause() */\n      mload(0x40)\n      0xd93c066500000000000000000000000000000000000000000000000000000000\n      dup2\n      mstore\n      0x04\n      add\n      mload(0x40)\n      dup1\n      swap2\n      sub\n      swap1\n      revert\n        /* \"@openzeppelin/contracts/utils/Pausable.sol\":2063:2124  if (paused()) {... */\n    tag_260:\n        /* \"@openzeppelin/contracts/utils/Pausable.sol\":2002:2130  function _requireNotPaused() internal view virtual {... */\n      jump\t// out\n        /* \"github/hugocis/VoluntariadoUFV/contracts/TokenUFV.sol\":1484:1691  function _update(address from, address to, uint256[] memory ids, uint256[] memory values)... */\n    tag_243:\n        /* \"github/hugocis/VoluntariadoUFV/contracts/TokenUFV.sol\":1648:1684  super._update(from, to, ids, values) */\n      tag_262\n        /* \"github/hugocis/VoluntariadoUFV/contracts/TokenUFV.sol\":1662:1666  from */\n      dup5\n        /* \"github/hugocis/VoluntariadoUFV/contracts/TokenUFV.sol\":1668:1670  to */\n      dup5\n        /* \"github/hugocis/VoluntariadoUFV/contracts/TokenUFV.sol\":1672:1675  ids */\n      dup5\n        /* \"github/hugocis/VoluntariadoUFV/contracts/TokenUFV.sol\":1677:1683  values */\n      dup5\n        /* \"github/hugocis/VoluntariadoUFV/contracts/TokenUFV.sol\":1648:1661  super._update */\n      tag_263\n        /* \"github/hugocis/VoluntariadoUFV/contracts/TokenUFV.sol\":1648:1684  super._update(from, to, ids, values) */\n      jump\t// in\n    tag_262:\n        /* \"github/hugocis/VoluntariadoUFV/contracts/TokenUFV.sol\":1484:1691  function _update(address from, address to, uint256[] memory ids, uint256[] memory values)... */\n      pop\n      pop\n      pop\n      pop\n      jump\t// out\n        /* \"@openzeppelin/contracts/token/ERC1155/ERC1155.sol\":13761:14735  function _doSafeTransferAcceptanceCheck(... */\n    tag_250:\n        /* \"@openzeppelin/contracts/token/ERC1155/ERC1155.sol\":13984:13985  0 */\n      0x00\n        /* \"@openzeppelin/contracts/token/ERC1155/ERC1155.sol\":13967:13969  to */\n      dup5\n        /* \"@openzeppelin/contracts/token/ERC1155/ERC1155.sol\":13967:13981  to.code.length */\n      0xffffffffffffffffffffffffffffffffffffffff\n      and\n      extcodesize\n        /* \"@openzeppelin/contracts/token/ERC1155/ERC1155.sol\":13967:13985  to.code.length > 0 */\n      gt\n        /* \"@openzeppelin/contracts/token/ERC1155/ERC1155.sol\":13963:14729  if (to.code.length > 0) {... */\n      iszero\n      tag_265\n      jumpi\n        /* \"@openzeppelin/contracts/token/ERC1155/ERC1155.sol\":14022:14024  to */\n      dup4\n        /* \"@openzeppelin/contracts/token/ERC1155/ERC1155.sol\":14005:14043  IERC1155Receiver(to).onERC1155Received */\n      0xffffffffffffffffffffffffffffffffffffffff\n      and\n      0xf23a6e61\n        /* \"@openzeppelin/contracts/token/ERC1155/ERC1155.sol\":14044:14052  operator */\n      dup8\n        /* \"@openzeppelin/contracts/token/ERC1155/ERC1155.sol\":14054:14058  from */\n      dup8\n        /* \"@openzeppelin/contracts/token/ERC1155/ERC1155.sol\":14060:14062  id */\n      dup7\n        /* \"@openzeppelin/contracts/token/ERC1155/ERC1155.sol\":14064:14069  value */\n      dup7\n        /* \"@openzeppelin/contracts/token/ERC1155/ERC1155.sol\":14071:14075  data */\n      dup7\n        /* \"@openzeppelin/contracts/token/ERC1155/ERC1155.sol\":14005:14076  IERC1155Receiver(to).onERC1155Received(operator, from, id, value, data) */\n      mload(0x40)\n      dup7\n      0xffffffff\n      and\n      0xe0\n      shl\n      dup2\n      mstore\n      0x04\n      add\n      tag_266\n      swap6\n      swap5\n      swap4\n      swap3\n      swap2\n      swap1\n      tag_267\n      jump\t// in\n    tag_266:\n      0x20\n      mload(0x40)\n      dup1\n      dup4\n      sub\n      dup2\n      0x00\n      dup8\n      gas\n      call\n      swap3\n      pop\n      pop\n      pop\n      dup1\n      iszero\n      tag_268\n      jumpi\n      pop\n      mload(0x40)\n      returndatasize\n      not(0x1f)\n      0x1f\n      dup3\n      add\n      and\n      dup3\n      add\n      dup1\n      0x40\n      mstore\n      pop\n      dup2\n      add\n      swap1\n      tag_269\n      swap2\n      swap1\n      tag_270\n      jump\t// in\n    tag_269:\n      0x01\n    tag_268:\n        /* \"@openzeppelin/contracts/token/ERC1155/ERC1155.sol\":14001:14719  try IERC1155Receiver(to).onERC1155Received(operator, from, id, value, data) returns (bytes4 response) {... */\n      tag_271\n      jumpi\n      returndatasize\n      dup1\n      0x00\n      dup2\n      eq\n      tag_276\n      jumpi\n      mload(0x40)\n      swap2\n      pop\n      and(add(returndatasize, 0x3f), not(0x1f))\n      dup3\n      add\n      0x40\n      mstore\n      returndatasize\n      dup3\n      mstore\n      returndatasize\n      0x00\n      0x20\n      dup5\n      add\n      returndatacopy\n      jump(tag_275)\n    tag_276:\n      0x60\n      swap2\n      pop\n    tag_275:\n      pop\n        /* \"@openzeppelin/contracts/token/ERC1155/ERC1155.sol\":14377:14378  0 */\n      0x00\n        /* \"@openzeppelin/contracts/token/ERC1155/ERC1155.sol\":14360:14366  reason */\n      dup2\n        /* \"@openzeppelin/contracts/token/ERC1155/ERC1155.sol\":14360:14373  reason.length */\n      mload\n        /* \"@openzeppelin/contracts/token/ERC1155/ERC1155.sol\":14360:14378  reason.length == 0 */\n      sub\n        /* \"@openzeppelin/contracts/token/ERC1155/ERC1155.sol\":14356:14705  if (reason.length == 0) {... */\n      tag_277\n      jumpi\n        /* \"@openzeppelin/contracts/token/ERC1155/ERC1155.sol\":14487:14489  to */\n      dup5\n        /* \"@openzeppelin/contracts/token/ERC1155/ERC1155.sol\":14464:14490  ERC1155InvalidReceiver(to) */\n      mload(0x40)\n      0x57f447ce00000000000000000000000000000000000000000000000000000000\n      dup2\n      mstore\n      0x04\n      add\n      tag_278\n      swap2\n      swap1\n      tag_75\n      jump\t// in\n    tag_278:\n      mload(0x40)\n      dup1\n      swap2\n      sub\n      swap1\n      revert\n        /* \"@openzeppelin/contracts/token/ERC1155/ERC1155.sol\":14356:14705  if (reason.length == 0) {... */\n    tag_277:\n        /* \"@openzeppelin/contracts/token/ERC1155/ERC1155.sol\":14657:14663  reason */\n      dup1\n        /* \"@openzeppelin/contracts/token/ERC1155/ERC1155.sol\":14651:14664  mload(reason) */\n      mload\n        /* \"@openzeppelin/contracts/token/ERC1155/ERC1155.sol\":14642:14648  reason */\n      dup2\n        /* \"@openzeppelin/contracts/token/ERC1155/ERC1155.sol\":14638:14640  32 */\n      0x20\n        /* \"@openzeppelin/contracts/token/ERC1155/ERC1155.sol\":14634:14649  add(32, reason) */\n      add\n        /* \"@openzeppelin/contracts/token/ERC1155/ERC1155.sol\":14627:14665  revert(add(32, reason), mload(reason)) */\n      revert\n        /* \"@openzeppelin/contracts/token/ERC1155/ERC1155.sol\":14001:14719  try IERC1155Receiver(to).onERC1155Received(operator, from, id, value, data) returns (bytes4 response) {... */\n    tag_271:\n        /* \"@openzeppelin/contracts/token/ERC1155/ERC1155.sol\":14137:14180  IERC1155Receiver.onERC1155Received.selector */\n      shl(0xe0, 0xf23a6e61)\n        /* \"@openzeppelin/contracts/token/ERC1155/ERC1155.sol\":14125:14180  response != IERC1155Receiver.onERC1155Received.selector */\n      not(0xffffffffffffffffffffffffffffffffffffffffffffffffffffffff)\n      and\n        /* \"@openzeppelin/contracts/token/ERC1155/ERC1155.sol\":14125:14133  response */\n      dup2\n        /* \"@openzeppelin/contracts/token/ERC1155/ERC1155.sol\":14125:14180  response != IERC1155Receiver.onERC1155Received.selector */\n      not(0xffffffffffffffffffffffffffffffffffffffffffffffffffffffff)\n      and\n      eq\n        /* \"@openzeppelin/contracts/token/ERC1155/ERC1155.sol\":14121:14295  if (response != IERC1155Receiver.onERC1155Received.selector) {... */\n      tag_281\n      jumpi\n        /* \"@openzeppelin/contracts/token/ERC1155/ERC1155.sol\":14273:14275  to */\n      dup5\n        /* \"@openzeppelin/contracts/token/ERC1155/ERC1155.sol\":14250:14276  ERC1155InvalidReceiver(to) */\n      mload(0x40)\n      0x57f447ce00000000000000000000000000000000000000000000000000000000\n      dup2\n      mstore\n      0x04\n      add\n      tag_282\n      swap2\n      swap1\n      tag_75\n      jump\t// in\n    tag_282:\n      mload(0x40)\n      dup1\n      swap2\n      sub\n      swap1\n      revert\n        /* \"@openzeppelin/contracts/token/ERC1155/ERC1155.sol\":14121:14295  if (response != IERC1155Receiver.onERC1155Received.selector) {... */\n    tag_281:\n        /* \"@openzeppelin/contracts/token/ERC1155/ERC1155.sol\":14077:14309  returns (bytes4 response) {... */\n      pop\n        /* \"@openzeppelin/contracts/token/ERC1155/ERC1155.sol\":13963:14729  if (to.code.length > 0) {... */\n    tag_265:\n        /* \"@openzeppelin/contracts/token/ERC1155/ERC1155.sol\":13761:14735  function _doSafeTransferAcceptanceCheck(... */\n      pop\n      pop\n      pop\n      pop\n      pop\n      pop\n      jump\t// out\n        /* \"@openzeppelin/contracts/token/ERC1155/ERC1155.sol\":14923:15964  function _doSafeBatchTransferAcceptanceCheck(... */\n    tag_253:\n        /* \"@openzeppelin/contracts/token/ERC1155/ERC1155.sol\":15171:15172  0 */\n      0x00\n        /* \"@openzeppelin/contracts/token/ERC1155/ERC1155.sol\":15154:15156  to */\n      dup5\n        /* \"@openzeppelin/contracts/token/ERC1155/ERC1155.sol\":15154:15168  to.code.length */\n      0xffffffffffffffffffffffffffffffffffffffff\n      and\n      extcodesize\n        /* \"@openzeppelin/contracts/token/ERC1155/ERC1155.sol\":15154:15172  to.code.length > 0 */\n      gt\n        /* \"@openzeppelin/contracts/token/ERC1155/ERC1155.sol\":15150:15958  if (to.code.length > 0) {... */\n      iszero\n      tag_284\n      jumpi\n        /* \"@openzeppelin/contracts/token/ERC1155/ERC1155.sol\":15209:15211  to */\n      dup4\n        /* \"@openzeppelin/contracts/token/ERC1155/ERC1155.sol\":15192:15235  IERC1155Receiver(to).onERC1155BatchReceived */\n      0xffffffffffffffffffffffffffffffffffffffff\n      and\n      0xbc197c81\n        /* \"@openzeppelin/contracts/token/ERC1155/ERC1155.sol\":15236:15244  operator */\n      dup8\n        /* \"@openzeppelin/contracts/token/ERC1155/ERC1155.sol\":15246:15250  from */\n      dup8\n        /* \"@openzeppelin/contracts/token/ERC1155/ERC1155.sol\":15252:15255  ids */\n      dup7\n        /* \"@openzeppelin/contracts/token/ERC1155/ERC1155.sol\":15257:15263  values */\n      dup7\n        /* \"@openzeppelin/contracts/token/ERC1155/ERC1155.sol\":15265:15269  data */\n      dup7\n        /* \"@openzeppelin/contracts/token/ERC1155/ERC1155.sol\":15192:15270  IERC1155Receiver(to).onERC1155BatchReceived(operator, from, ids, values, data) */\n      mload(0x40)\n      dup7\n      0xffffffff\n      and\n      0xe0\n      shl\n      dup2\n      mstore\n      0x04\n      add\n      tag_285\n      swap6\n      swap5\n      swap4\n      swap3\n      swap2\n      swap1\n      tag_286\n      jump\t// in\n    tag_285:\n      0x20\n      mload(0x40)\n      dup1\n      dup4\n      sub\n      dup2\n      0x00\n      dup8\n      gas\n      call\n      swap3\n      pop\n      pop\n      pop\n      dup1\n      iszero\n      tag_287\n      jumpi\n      pop\n      mload(0x40)\n      returndatasize\n      not(0x1f)\n      0x1f\n      dup3\n      add\n      and\n      dup3\n      add\n      dup1\n      0x40\n      mstore\n      pop\n      dup2\n      add\n      swap1\n      tag_288\n      swap2\n      swap1\n      tag_270\n      jump\t// in\n    tag_288:\n      0x01\n    tag_287:\n        /* \"@openzeppelin/contracts/token/ERC1155/ERC1155.sol\":15188:15948  try IERC1155Receiver(to).onERC1155BatchReceived(operator, from, ids, values, data) returns (... */\n      tag_289\n      jumpi\n      returndatasize\n      dup1\n      0x00\n      dup2\n      eq\n      tag_294\n      jumpi\n      mload(0x40)\n      swap2\n      pop\n      and(add(returndatasize, 0x3f), not(0x1f))\n      dup3\n      add\n      0x40\n      mstore\n      returndatasize\n      dup3\n      mstore\n      returndatasize\n      0x00\n      0x20\n      dup5\n      add\n      returndatacopy\n      jump(tag_293)\n    tag_294:\n      0x60\n      swap2\n      pop\n    tag_293:\n      pop\n        /* \"@openzeppelin/contracts/token/ERC1155/ERC1155.sol\":15606:15607  0 */\n      0x00\n        /* \"@openzeppelin/contracts/token/ERC1155/ERC1155.sol\":15589:15595  reason */\n      dup2\n        /* \"@openzeppelin/contracts/token/ERC1155/ERC1155.sol\":15589:15602  reason.length */\n      mload\n        /* \"@openzeppelin/contracts/token/ERC1155/ERC1155.sol\":15589:15607  reason.length == 0 */\n      sub\n        /* \"@openzeppelin/contracts/token/ERC1155/ERC1155.sol\":15585:15934  if (reason.length == 0) {... */\n      tag_295\n      jumpi\n        /* \"@openzeppelin/contracts/token/ERC1155/ERC1155.sol\":15716:15718  to */\n      dup5\n        /* \"@openzeppelin/contracts/token/ERC1155/ERC1155.sol\":15693:15719  ERC1155InvalidReceiver(to) */\n      mload(0x40)\n      0x57f447ce00000000000000000000000000000000000000000000000000000000\n      dup2\n      mstore\n      0x04\n      add\n      tag_296\n      swap2\n      swap1\n      tag_75\n      jump\t// in\n    tag_296:\n      mload(0x40)\n      dup1\n      swap2\n      sub\n      swap1\n      revert\n        /* \"@openzeppelin/contracts/token/ERC1155/ERC1155.sol\":15585:15934  if (reason.length == 0) {... */\n    tag_295:\n        /* \"@openzeppelin/contracts/token/ERC1155/ERC1155.sol\":15886:15892  reason */\n      dup1\n        /* \"@openzeppelin/contracts/token/ERC1155/ERC1155.sol\":15880:15893  mload(reason) */\n      mload\n        /* \"@openzeppelin/contracts/token/ERC1155/ERC1155.sol\":15871:15877  reason */\n      dup2\n        /* \"@openzeppelin/contracts/token/ERC1155/ERC1155.sol\":15867:15869  32 */\n      0x20\n        /* \"@openzeppelin/contracts/token/ERC1155/ERC1155.sol\":15863:15878  add(32, reason) */\n      add\n        /* \"@openzeppelin/contracts/token/ERC1155/ERC1155.sol\":15856:15894  revert(add(32, reason), mload(reason)) */\n      revert\n        /* \"@openzeppelin/contracts/token/ERC1155/ERC1155.sol\":15188:15948  try IERC1155Receiver(to).onERC1155BatchReceived(operator, from, ids, values, data) returns (... */\n    tag_289:\n        /* \"@openzeppelin/contracts/token/ERC1155/ERC1155.sol\":15361:15409  IERC1155Receiver.onERC1155BatchReceived.selector */\n      shl(0xe0, 0xbc197c81)\n        /* \"@openzeppelin/contracts/token/ERC1155/ERC1155.sol\":15349:15409  response != IERC1155Receiver.onERC1155BatchReceived.selector */\n      not(0xffffffffffffffffffffffffffffffffffffffffffffffffffffffff)\n      and\n        /* \"@openzeppelin/contracts/token/ERC1155/ERC1155.sol\":15349:15357  response */\n      dup2\n        /* \"@openzeppelin/contracts/token/ERC1155/ERC1155.sol\":15349:15409  response != IERC1155Receiver.onERC1155BatchReceived.selector */\n      not(0xffffffffffffffffffffffffffffffffffffffffffffffffffffffff)\n      and\n      eq\n        /* \"@openzeppelin/contracts/token/ERC1155/ERC1155.sol\":15345:15524  if (response != IERC1155Receiver.onERC1155BatchReceived.selector) {... */\n      tag_299\n      jumpi\n        /* \"@openzeppelin/contracts/token/ERC1155/ERC1155.sol\":15502:15504  to */\n      dup5\n        /* \"@openzeppelin/contracts/token/ERC1155/ERC1155.sol\":15479:15505  ERC1155InvalidReceiver(to) */\n      mload(0x40)\n      0x57f447ce00000000000000000000000000000000000000000000000000000000\n      dup2\n      mstore\n      0x04\n      add\n      tag_300\n      swap2\n      swap1\n      tag_75\n      jump\t// in\n    tag_300:\n      mload(0x40)\n      dup1\n      swap2\n      sub\n      swap1\n      revert\n        /* \"@openzeppelin/contracts/token/ERC1155/ERC1155.sol\":15345:15524  if (response != IERC1155Receiver.onERC1155BatchReceived.selector) {... */\n    tag_299:\n        /* \"@openzeppelin/contracts/token/ERC1155/ERC1155.sol\":15271:15538  returns (... */\n      pop\n        /* \"@openzeppelin/contracts/token/ERC1155/ERC1155.sol\":15150:15958  if (to.code.length > 0) {... */\n    tag_284:\n        /* \"@openzeppelin/contracts/token/ERC1155/ERC1155.sol\":14923:15964  function _doSafeBatchTransferAcceptanceCheck(... */\n      pop\n      pop\n      pop\n      pop\n      pop\n      pop\n      jump\t// out\n        /* \"@openzeppelin/contracts/token/ERC1155/extensions/ERC1155Pausable.sol\":1128:1349  function _update(... */\n    tag_263:\n        /* \"@openzeppelin/contracts/utils/Pausable.sol\":1474:1493  _requireNotPaused() */\n      tag_302\n        /* \"@openzeppelin/contracts/utils/Pausable.sol\":1474:1491  _requireNotPaused */\n      tag_226\n        /* \"@openzeppelin/contracts/utils/Pausable.sol\":1474:1493  _requireNotPaused() */\n      jump\t// in\n    tag_302:\n        /* \"@openzeppelin/contracts/token/ERC1155/extensions/ERC1155Pausable.sol\":1306:1342  super._update(from, to, ids, values) */\n      tag_304\n        /* \"@openzeppelin/contracts/token/ERC1155/extensions/ERC1155Pausable.sol\":1320:1324  from */\n      dup5\n        /* \"@openzeppelin/contracts/token/ERC1155/extensions/ERC1155Pausable.sol\":1326:1328  to */\n      dup5\n        /* \"@openzeppelin/contracts/token/ERC1155/extensions/ERC1155Pausable.sol\":1330:1333  ids */\n      dup5\n        /* \"@openzeppelin/contracts/token/ERC1155/extensions/ERC1155Pausable.sol\":1335:1341  values */\n      dup5\n        /* \"@openzeppelin/contracts/token/ERC1155/extensions/ERC1155Pausable.sol\":1306:1319  super._update */\n      tag_305\n        /* \"@openzeppelin/contracts/token/ERC1155/extensions/ERC1155Pausable.sol\":1306:1342  super._update(from, to, ids, values) */\n      jump\t// in\n    tag_304:\n        /* \"@openzeppelin/contracts/token/ERC1155/extensions/ERC1155Pausable.sol\":1128:1349  function _update(... */\n      pop\n      pop\n      pop\n      pop\n      jump\t// out\n        /* \"@openzeppelin/contracts/token/ERC1155/ERC1155.sol\":5144:6425  function _update(address from, address to, uint256[] memory ids, uint256[] memory values) internal virtual {... */\n    tag_305:\n        /* \"@openzeppelin/contracts/token/ERC1155/ERC1155.sol\":5279:5285  values */\n      dup1\n        /* \"@openzeppelin/contracts/token/ERC1155/ERC1155.sol\":5279:5292  values.length */\n      mload\n        /* \"@openzeppelin/contracts/token/ERC1155/ERC1155.sol\":5265:5268  ids */\n      dup3\n        /* \"@openzeppelin/contracts/token/ERC1155/ERC1155.sol\":5265:5275  ids.length */\n      mload\n        /* \"@openzeppelin/contracts/token/ERC1155/ERC1155.sol\":5265:5292  ids.length != values.length */\n      eq\n        /* \"@openzeppelin/contracts/token/ERC1155/ERC1155.sol\":5261:5378  if (ids.length != values.length) {... */\n      tag_307\n      jumpi\n        /* \"@openzeppelin/contracts/token/ERC1155/ERC1155.sol\":5341:5344  ids */\n      dup2\n        /* \"@openzeppelin/contracts/token/ERC1155/ERC1155.sol\":5341:5351  ids.length */\n      mload\n        /* \"@openzeppelin/contracts/token/ERC1155/ERC1155.sol\":5353:5359  values */\n      dup2\n        /* \"@openzeppelin/contracts/token/ERC1155/ERC1155.sol\":5353:5366  values.length */\n      mload\n        /* \"@openzeppelin/contracts/token/ERC1155/ERC1155.sol\":5315:5367  ERC1155InvalidArrayLength(ids.length, values.length) */\n      mload(0x40)\n      0x5b05999100000000000000000000000000000000000000000000000000000000\n      dup2\n      mstore\n      0x04\n      add\n      tag_308\n      swap3\n      swap2\n      swap1\n      tag_135\n      jump\t// in\n    tag_308:\n      mload(0x40)\n      dup1\n      swap2\n      sub\n      swap1\n      revert\n        /* \"@openzeppelin/contracts/token/ERC1155/ERC1155.sol\":5261:5378  if (ids.length != values.length) {... */\n    tag_307:\n        /* \"@openzeppelin/contracts/token/ERC1155/ERC1155.sol\":5388:5404  address operator */\n      0x00\n        /* \"@openzeppelin/contracts/token/ERC1155/ERC1155.sol\":5407:5419  _msgSender() */\n      tag_309\n        /* \"@openzeppelin/contracts/token/ERC1155/ERC1155.sol\":5407:5417  _msgSender */\n      tag_119\n        /* \"@openzeppelin/contracts/token/ERC1155/ERC1155.sol\":5407:5419  _msgSender() */\n      jump\t// in\n    tag_309:\n        /* \"@openzeppelin/contracts/token/ERC1155/ERC1155.sol\":5388:5419  address operator = _msgSender() */\n      swap1\n      pop\n        /* \"@openzeppelin/contracts/token/ERC1155/ERC1155.sol\":5435:5444  uint256 i */\n      0x00\n        /* \"@openzeppelin/contracts/token/ERC1155/ERC1155.sol\":5430:6121  for (uint256 i = 0; i < ids.length; ++i) {... */\n    tag_310:\n        /* \"@openzeppelin/contracts/token/ERC1155/ERC1155.sol\":5454:5457  ids */\n      dup4\n        /* \"@openzeppelin/contracts/token/ERC1155/ERC1155.sol\":5454:5464  ids.length */\n      mload\n        /* \"@openzeppelin/contracts/token/ERC1155/ERC1155.sol\":5450:5451  i */\n      dup2\n        /* \"@openzeppelin/contracts/token/ERC1155/ERC1155.sol\":5450:5464  i < ids.length */\n      lt\n        /* \"@openzeppelin/contracts/token/ERC1155/ERC1155.sol\":5430:6121  for (uint256 i = 0; i < ids.length; ++i) {... */\n      iszero\n      tag_311\n      jumpi\n        /* \"@openzeppelin/contracts/token/ERC1155/ERC1155.sol\":5485:5495  uint256 id */\n      0x00\n        /* \"@openzeppelin/contracts/token/ERC1155/ERC1155.sol\":5498:5523  ids.unsafeMemoryAccess(i) */\n      tag_313\n        /* \"@openzeppelin/contracts/token/ERC1155/ERC1155.sol\":5521:5522  i */\n      dup3\n        /* \"@openzeppelin/contracts/token/ERC1155/ERC1155.sol\":5498:5501  ids */\n      dup7\n        /* \"@openzeppelin/contracts/token/ERC1155/ERC1155.sol\":5498:5520  ids.unsafeMemoryAccess */\n      tag_147\n      swap1\n        /* \"@openzeppelin/contracts/token/ERC1155/ERC1155.sol\":5498:5523  ids.unsafeMemoryAccess(i) */\n      swap2\n      swap1\n      0xffffffff\n      and\n      jump\t// in\n    tag_313:\n        /* \"@openzeppelin/contracts/token/ERC1155/ERC1155.sol\":5485:5523  uint256 id = ids.unsafeMemoryAccess(i) */\n      swap1\n      pop\n        /* \"@openzeppelin/contracts/token/ERC1155/ERC1155.sol\":5537:5550  uint256 value */\n      0x00\n        /* \"@openzeppelin/contracts/token/ERC1155/ERC1155.sol\":5553:5581  values.unsafeMemoryAccess(i) */\n      tag_314\n        /* \"@openzeppelin/contracts/token/ERC1155/ERC1155.sol\":5579:5580  i */\n      dup4\n        /* \"@openzeppelin/contracts/token/ERC1155/ERC1155.sol\":5553:5559  values */\n      dup7\n        /* \"@openzeppelin/contracts/token/ERC1155/ERC1155.sol\":5553:5578  values.unsafeMemoryAccess */\n      tag_147\n      swap1\n        /* \"@openzeppelin/contracts/token/ERC1155/ERC1155.sol\":5553:5581  values.unsafeMemoryAccess(i) */\n      swap2\n      swap1\n      0xffffffff\n      and\n      jump\t// in\n    tag_314:\n        /* \"@openzeppelin/contracts/token/ERC1155/ERC1155.sol\":5537:5581  uint256 value = values.unsafeMemoryAccess(i) */\n      swap1\n      pop\n        /* \"@openzeppelin/contracts/token/ERC1155/ERC1155.sol\":5616:5617  0 */\n      0x00\n        /* \"@openzeppelin/contracts/token/ERC1155/ERC1155.sol\":5600:5618  from != address(0) */\n      0xffffffffffffffffffffffffffffffffffffffff\n      and\n        /* \"@openzeppelin/contracts/token/ERC1155/ERC1155.sol\":5600:5604  from */\n      dup9\n        /* \"@openzeppelin/contracts/token/ERC1155/ERC1155.sol\":5600:5618  from != address(0) */\n      0xffffffffffffffffffffffffffffffffffffffff\n      and\n      eq\n        /* \"@openzeppelin/contracts/token/ERC1155/ERC1155.sol\":5596:6016  if (from != address(0)) {... */\n      tag_315\n      jumpi\n        /* \"@openzeppelin/contracts/token/ERC1155/ERC1155.sol\":5638:5657  uint256 fromBalance */\n      0x00\n        /* \"@openzeppelin/contracts/token/ERC1155/ERC1155.sol\":5660:5669  _balances */\n      dup1\n        /* \"@openzeppelin/contracts/token/ERC1155/ERC1155.sol\":5660:5673  _balances[id] */\n      0x00\n        /* \"@openzeppelin/contracts/token/ERC1155/ERC1155.sol\":5670:5672  id */\n      dup5\n        /* \"@openzeppelin/contracts/token/ERC1155/ERC1155.sol\":5660:5673  _balances[id] */\n      dup2\n      mstore\n      0x20\n      add\n      swap1\n      dup2\n      mstore\n      0x20\n      add\n      0x00\n      keccak256\n        /* \"@openzeppelin/contracts/token/ERC1155/ERC1155.sol\":5660:5679  _balances[id][from] */\n      0x00\n        /* \"@openzeppelin/contracts/token/ERC1155/ERC1155.sol\":5674:5678  from */\n      dup11\n        /* \"@openzeppelin/contracts/token/ERC1155/ERC1155.sol\":5660:5679  _balances[id][from] */\n      0xffffffffffffffffffffffffffffffffffffffff\n      and\n      0xffffffffffffffffffffffffffffffffffffffff\n      and\n      dup2\n      mstore\n      0x20\n      add\n      swap1\n      dup2\n      mstore\n      0x20\n      add\n      0x00\n      keccak256\n      sload\n        /* \"@openzeppelin/contracts/token/ERC1155/ERC1155.sol\":5638:5679  uint256 fromBalance = _balances[id][from] */\n      swap1\n      pop\n        /* \"@openzeppelin/contracts/token/ERC1155/ERC1155.sol\":5715:5720  value */\n      dup2\n        /* \"@openzeppelin/contracts/token/ERC1155/ERC1155.sol\":5701:5712  fromBalance */\n      dup2\n        /* \"@openzeppelin/contracts/token/ERC1155/ERC1155.sol\":5701:5720  fromBalance < value */\n      lt\n        /* \"@openzeppelin/contracts/token/ERC1155/ERC1155.sol\":5697:5826  if (fromBalance < value) {... */\n      iszero\n      tag_316\n      jumpi\n        /* \"@openzeppelin/contracts/token/ERC1155/ERC1155.sol\":5778:5782  from */\n      dup9\n        /* \"@openzeppelin/contracts/token/ERC1155/ERC1155.sol\":5784:5795  fromBalance */\n      dup2\n        /* \"@openzeppelin/contracts/token/ERC1155/ERC1155.sol\":5797:5802  value */\n      dup4\n        /* \"@openzeppelin/contracts/token/ERC1155/ERC1155.sol\":5804:5806  id */\n      dup6\n        /* \"@openzeppelin/contracts/token/ERC1155/ERC1155.sol\":5751:5807  ERC1155InsufficientBalance(from, fromBalance, value, id) */\n      mload(0x40)\n      0x03dee4c500000000000000000000000000000000000000000000000000000000\n      dup2\n      mstore\n      0x04\n      add\n      tag_317\n      swap5\n      swap4\n      swap3\n      swap2\n      swap1\n      tag_318\n      jump\t// in\n    tag_317:\n      mload(0x40)\n      dup1\n      swap2\n      sub\n      swap1\n      revert\n        /* \"@openzeppelin/contracts/token/ERC1155/ERC1155.sol\":5697:5826  if (fromBalance < value) {... */\n    tag_316:\n        /* \"@openzeppelin/contracts/token/ERC1155/ERC1155.sol\":5978:5983  value */\n      dup2\n        /* \"@openzeppelin/contracts/token/ERC1155/ERC1155.sol\":5964:5975  fromBalance */\n      dup2\n        /* \"@openzeppelin/contracts/token/ERC1155/ERC1155.sol\":5964:5983  fromBalance - value */\n      sub\n        /* \"@openzeppelin/contracts/token/ERC1155/ERC1155.sol\":5942:5951  _balances */\n      0x00\n        /* \"@openzeppelin/contracts/token/ERC1155/ERC1155.sol\":5942:5955  _balances[id] */\n      dup1\n        /* \"@openzeppelin/contracts/token/ERC1155/ERC1155.sol\":5952:5954  id */\n      dup6\n        /* \"@openzeppelin/contracts/token/ERC1155/ERC1155.sol\":5942:5955  _balances[id] */\n      dup2\n      mstore\n      0x20\n      add\n      swap1\n      dup2\n      mstore\n      0x20\n      add\n      0x00\n      keccak256\n        /* \"@openzeppelin/contracts/token/ERC1155/ERC1155.sol\":5942:5961  _balances[id][from] */\n      0x00\n        /* \"@openzeppelin/contracts/token/ERC1155/ERC1155.sol\":5956:5960  from */\n      dup12\n        /* \"@openzeppelin/contracts/token/ERC1155/ERC1155.sol\":5942:5961  _balances[id][from] */\n      0xffffffffffffffffffffffffffffffffffffffff\n      and\n      0xffffffffffffffffffffffffffffffffffffffff\n      and\n      dup2\n      mstore\n      0x20\n      add\n      swap1\n      dup2\n      mstore\n      0x20\n      add\n      0x00\n      keccak256\n        /* \"@openzeppelin/contracts/token/ERC1155/ERC1155.sol\":5942:5983  _balances[id][from] = fromBalance - value */\n      dup2\n      swap1\n      sstore\n      pop\n        /* \"@openzeppelin/contracts/token/ERC1155/ERC1155.sol\":5620:6016  {... */\n      pop\n        /* \"@openzeppelin/contracts/token/ERC1155/ERC1155.sol\":5596:6016  if (from != address(0)) {... */\n    tag_315:\n        /* \"@openzeppelin/contracts/token/ERC1155/ERC1155.sol\":6048:6049  0 */\n      0x00\n        /* \"@openzeppelin/contracts/token/ERC1155/ERC1155.sol\":6034:6050  to != address(0) */\n      0xffffffffffffffffffffffffffffffffffffffff\n      and\n        /* \"@openzeppelin/contracts/token/ERC1155/ERC1155.sol\":6034:6036  to */\n      dup8\n        /* \"@openzeppelin/contracts/token/ERC1155/ERC1155.sol\":6034:6050  to != address(0) */\n      0xffffffffffffffffffffffffffffffffffffffff\n      and\n      eq\n        /* \"@openzeppelin/contracts/token/ERC1155/ERC1155.sol\":6030:6111  if (to != address(0)) {... */\n      tag_319\n      jumpi\n        /* \"@openzeppelin/contracts/token/ERC1155/ERC1155.sol\":6091:6096  value */\n      dup1\n        /* \"@openzeppelin/contracts/token/ERC1155/ERC1155.sol\":6070:6079  _balances */\n      0x00\n        /* \"@openzeppelin/contracts/token/ERC1155/ERC1155.sol\":6070:6083  _balances[id] */\n      dup1\n        /* \"@openzeppelin/contracts/token/ERC1155/ERC1155.sol\":6080:6082  id */\n      dup5\n        /* \"@openzeppelin/contracts/token/ERC1155/ERC1155.sol\":6070:6083  _balances[id] */\n      dup2\n      mstore\n      0x20\n      add\n      swap1\n      dup2\n      mstore\n      0x20\n      add\n      0x00\n      keccak256\n        /* \"@openzeppelin/contracts/token/ERC1155/ERC1155.sol\":6070:6087  _balances[id][to] */\n      0x00\n        /* \"@openzeppelin/contracts/token/ERC1155/ERC1155.sol\":6084:6086  to */\n      dup10\n        /* \"@openzeppelin/contracts/token/ERC1155/ERC1155.sol\":6070:6087  _balances[id][to] */\n      0xffffffffffffffffffffffffffffffffffffffff\n      and\n      0xffffffffffffffffffffffffffffffffffffffff\n      and\n      dup2\n      mstore\n      0x20\n      add\n      swap1\n      dup2\n      mstore\n      0x20\n      add\n      0x00\n      keccak256\n      0x00\n        /* \"@openzeppelin/contracts/token/ERC1155/ERC1155.sol\":6070:6096  _balances[id][to] += value */\n      dup3\n      dup3\n      sload\n      tag_320\n      swap2\n      swap1\n      tag_321\n      jump\t// in\n    tag_320:\n      swap3\n      pop\n      pop\n      dup2\n      swap1\n      sstore\n      pop\n        /* \"@openzeppelin/contracts/token/ERC1155/ERC1155.sol\":6030:6111  if (to != address(0)) {... */\n    tag_319:\n        /* \"@openzeppelin/contracts/token/ERC1155/ERC1155.sol\":5471:6121  {... */\n      pop\n      pop\n        /* \"@openzeppelin/contracts/token/ERC1155/ERC1155.sol\":5466:5469  ++i */\n      dup1\n      0x01\n      add\n      swap1\n      pop\n        /* \"@openzeppelin/contracts/token/ERC1155/ERC1155.sol\":5430:6121  for (uint256 i = 0; i < ids.length; ++i) {... */\n      jump(tag_310)\n    tag_311:\n      pop\n        /* \"@openzeppelin/contracts/token/ERC1155/ERC1155.sol\":6149:6150  1 */\n      0x01\n        /* \"@openzeppelin/contracts/token/ERC1155/ERC1155.sol\":6135:6138  ids */\n      dup4\n        /* \"@openzeppelin/contracts/token/ERC1155/ERC1155.sol\":6135:6145  ids.length */\n      mload\n        /* \"@openzeppelin/contracts/token/ERC1155/ERC1155.sol\":6135:6150  ids.length == 1 */\n      sub\n        /* \"@openzeppelin/contracts/token/ERC1155/ERC1155.sol\":6131:6419  if (ids.length == 1) {... */\n      tag_322\n      jumpi\n        /* \"@openzeppelin/contracts/token/ERC1155/ERC1155.sol\":6166:6176  uint256 id */\n      0x00\n        /* \"@openzeppelin/contracts/token/ERC1155/ERC1155.sol\":6179:6204  ids.unsafeMemoryAccess(0) */\n      tag_323\n        /* \"@openzeppelin/contracts/token/ERC1155/ERC1155.sol\":6202:6203  0 */\n      0x00\n        /* \"@openzeppelin/contracts/token/ERC1155/ERC1155.sol\":6179:6182  ids */\n      dup6\n        /* \"@openzeppelin/contracts/token/ERC1155/ERC1155.sol\":6179:6201  ids.unsafeMemoryAccess */\n      tag_147\n      swap1\n        /* \"@openzeppelin/contracts/token/ERC1155/ERC1155.sol\":6179:6204  ids.unsafeMemoryAccess(0) */\n      swap2\n      swap1\n      0xffffffff\n      and\n      jump\t// in\n    tag_323:\n        /* \"@openzeppelin/contracts/token/ERC1155/ERC1155.sol\":6166:6204  uint256 id = ids.unsafeMemoryAccess(0) */\n      swap1\n      pop\n        /* \"@openzeppelin/contracts/token/ERC1155/ERC1155.sol\":6218:6231  uint256 value */\n      0x00\n        /* \"@openzeppelin/contracts/token/ERC1155/ERC1155.sol\":6234:6262  values.unsafeMemoryAccess(0) */\n      tag_324\n        /* \"@openzeppelin/contracts/token/ERC1155/ERC1155.sol\":6260:6261  0 */\n      0x00\n        /* \"@openzeppelin/contracts/token/ERC1155/ERC1155.sol\":6234:6240  values */\n      dup6\n        /* \"@openzeppelin/contracts/token/ERC1155/ERC1155.sol\":6234:6259  values.unsafeMemoryAccess */\n      tag_147\n      swap1\n        /* \"@openzeppelin/contracts/token/ERC1155/ERC1155.sol\":6234:6262  values.unsafeMemoryAccess(0) */\n      swap2\n      swap1\n      0xffffffff\n      and\n      jump\t// in\n    tag_324:\n        /* \"@openzeppelin/contracts/token/ERC1155/ERC1155.sol\":6218:6262  uint256 value = values.unsafeMemoryAccess(0) */\n      swap1\n      pop\n        /* \"@openzeppelin/contracts/token/ERC1155/ERC1155.sol\":6312:6314  to */\n      dup6\n        /* \"@openzeppelin/contracts/token/ERC1155/ERC1155.sol\":6281:6326  TransferSingle(operator, from, to, id, value) */\n      0xffffffffffffffffffffffffffffffffffffffff\n      and\n        /* \"@openzeppelin/contracts/token/ERC1155/ERC1155.sol\":6306:6310  from */\n      dup8\n        /* \"@openzeppelin/contracts/token/ERC1155/ERC1155.sol\":6281:6326  TransferSingle(operator, from, to, id, value) */\n      0xffffffffffffffffffffffffffffffffffffffff\n      and\n        /* \"@openzeppelin/contracts/token/ERC1155/ERC1155.sol\":6296:6304  operator */\n      dup5\n        /* \"@openzeppelin/contracts/token/ERC1155/ERC1155.sol\":6281:6326  TransferSingle(operator, from, to, id, value) */\n      0xffffffffffffffffffffffffffffffffffffffff\n      and\n      0xc3d58168c5ae7397731d063d5bbf3d657854427343f4c083240f7aacaa2d0f62\n        /* \"@openzeppelin/contracts/token/ERC1155/ERC1155.sol\":6316:6318  id */\n      dup6\n        /* \"@openzeppelin/contracts/token/ERC1155/ERC1155.sol\":6320:6325  value */\n      dup6\n        /* \"@openzeppelin/contracts/token/ERC1155/ERC1155.sol\":6281:6326  TransferSingle(operator, from, to, id, value) */\n      mload(0x40)\n      tag_325\n      swap3\n      swap2\n      swap1\n      tag_135\n      jump\t// in\n    tag_325:\n      mload(0x40)\n      dup1\n      swap2\n      sub\n      swap1\n      log4\n        /* \"@openzeppelin/contracts/token/ERC1155/ERC1155.sol\":6152:6337  {... */\n      pop\n      pop\n        /* \"@openzeppelin/contracts/token/ERC1155/ERC1155.sol\":6131:6419  if (ids.length == 1) {... */\n      jump(tag_326)\n    tag_322:\n        /* \"@openzeppelin/contracts/token/ERC1155/ERC1155.sol\":6392:6394  to */\n      dup4\n        /* \"@openzeppelin/contracts/token/ERC1155/ERC1155.sol\":6362:6408  TransferBatch(operator, from, to, ids, values) */\n      0xffffffffffffffffffffffffffffffffffffffff\n      and\n        /* \"@openzeppelin/contracts/token/ERC1155/ERC1155.sol\":6386:6390  from */\n      dup6\n        /* \"@openzeppelin/contracts/token/ERC1155/ERC1155.sol\":6362:6408  TransferBatch(operator, from, to, ids, values) */\n      0xffffffffffffffffffffffffffffffffffffffff\n      and\n        /* \"@openzeppelin/contracts/token/ERC1155/ERC1155.sol\":6376:6384  operator */\n      dup3\n        /* \"@openzeppelin/contracts/token/ERC1155/ERC1155.sol\":6362:6408  TransferBatch(operator, from, to, ids, values) */\n      0xffffffffffffffffffffffffffffffffffffffff\n      and\n      0x4a39dc06d4c0dbc64b70af90fd698a233a518aa5d07e595d983b8c0526c8f7fb\n        /* \"@openzeppelin/contracts/token/ERC1155/ERC1155.sol\":6396:6399  ids */\n      dup7\n        /* \"@openzeppelin/contracts/token/ERC1155/ERC1155.sol\":6401:6407  values */\n      dup7\n        /* \"@openzeppelin/contracts/token/ERC1155/ERC1155.sol\":6362:6408  TransferBatch(operator, from, to, ids, values) */\n      mload(0x40)\n      tag_327\n      swap3\n      swap2\n      swap1\n      tag_328\n      jump\t// in\n    tag_327:\n      mload(0x40)\n      dup1\n      swap2\n      sub\n      swap1\n      log4\n        /* \"@openzeppelin/contracts/token/ERC1155/ERC1155.sol\":6131:6419  if (ids.length == 1) {... */\n    tag_326:\n        /* \"@openzeppelin/contracts/token/ERC1155/ERC1155.sol\":5251:6425  {... */\n      pop\n        /* \"@openzeppelin/contracts/token/ERC1155/ERC1155.sol\":5144:6425  function _update(address from, address to, uint256[] memory ids, uint256[] memory values) internal virtual {... */\n      pop\n      pop\n      pop\n      pop\n      jump\t// out\n        /* \"#utility.yul\":7:82   */\n    tag_329:\n        /* \"#utility.yul\":40:46   */\n      0x00\n        /* \"#utility.yul\":73:75   */\n      0x40\n        /* \"#utility.yul\":67:76   */\n      mload\n        /* \"#utility.yul\":57:76   */\n      swap1\n      pop\n        /* \"#utility.yul\":7:82   */\n      swap1\n      jump\t// out\n        /* \"#utility.yul\":88:205   */\n    tag_330:\n        /* \"#utility.yul\":197:198   */\n      0x00\n        /* \"#utility.yul\":194:195   */\n      dup1\n        /* \"#utility.yul\":187:199   */\n      revert\n        /* \"#utility.yul\":211:328   */\n    tag_331:\n        /* \"#utility.yul\":320:321   */\n      0x00\n        /* \"#utility.yul\":317:318   */\n      dup1\n        /* \"#utility.yul\":310:322   */\n      revert\n        /* \"#utility.yul\":334:460   */\n    tag_332:\n        /* \"#utility.yul\":371:378   */\n      0x00\n        /* \"#utility.yul\":411:453   */\n      0xffffffffffffffffffffffffffffffffffffffff\n        /* \"#utility.yul\":404:409   */\n      dup3\n        /* \"#utility.yul\":400:454   */\n      and\n        /* \"#utility.yul\":389:454   */\n      swap1\n      pop\n        /* \"#utility.yul\":334:460   */\n      swap2\n      swap1\n      pop\n      jump\t// out\n        /* \"#utility.yul\":466:562   */\n    tag_333:\n        /* \"#utility.yul\":503:510   */\n      0x00\n        /* \"#utility.yul\":532:556   */\n      tag_405\n        /* \"#utility.yul\":550:555   */\n      dup3\n        /* \"#utility.yul\":532:556   */\n      tag_332\n      jump\t// in\n    tag_405:\n        /* \"#utility.yul\":521:556   */\n      swap1\n      pop\n        /* \"#utility.yul\":466:562   */\n      swap2\n      swap1\n      pop\n      jump\t// out\n        /* \"#utility.yul\":568:690   */\n    tag_334:\n        /* \"#utility.yul\":641:665   */\n      tag_407\n        /* \"#utility.yul\":659:664   */\n      dup2\n        /* \"#utility.yul\":641:665   */\n      tag_333\n      jump\t// in\n    tag_407:\n        /* \"#utility.yul\":634:639   */\n      dup2\n        /* \"#utility.yul\":631:666   */\n      eq\n        /* \"#utility.yul\":621:684   */\n      tag_408\n      jumpi\n        /* \"#utility.yul\":680:681   */\n      0x00\n        /* \"#utility.yul\":677:678   */\n      dup1\n        /* \"#utility.yul\":670:682   */\n      revert\n        /* \"#utility.yul\":621:684   */\n    tag_408:\n        /* \"#utility.yul\":568:690   */\n      pop\n      jump\t// out\n        /* \"#utility.yul\":696:835   */\n    tag_335:\n        /* \"#utility.yul\":742:747   */\n      0x00\n        /* \"#utility.yul\":780:786   */\n      dup2\n        /* \"#utility.yul\":767:787   */\n      calldataload\n        /* \"#utility.yul\":758:787   */\n      swap1\n      pop\n        /* \"#utility.yul\":796:829   */\n      tag_410\n        /* \"#utility.yul\":823:828   */\n      dup2\n        /* \"#utility.yul\":796:829   */\n      tag_334\n      jump\t// in\n    tag_410:\n        /* \"#utility.yul\":696:835   */\n      swap3\n      swap2\n      pop\n      pop\n      jump\t// out\n        /* \"#utility.yul\":841:918   */\n    tag_336:\n        /* \"#utility.yul\":878:885   */\n      0x00\n        /* \"#utility.yul\":907:912   */\n      dup2\n        /* \"#utility.yul\":896:912   */\n      swap1\n      pop\n        /* \"#utility.yul\":841:918   */\n      swap2\n      swap1\n      pop\n      jump\t// out\n        /* \"#utility.yul\":924:1046   */\n    tag_337:\n        /* \"#utility.yul\":997:1021   */\n      tag_413\n        /* \"#utility.yul\":1015:1020   */\n      dup2\n        /* \"#utility.yul\":997:1021   */\n      tag_336\n      jump\t// in\n    tag_413:\n        /* \"#utility.yul\":990:995   */\n      dup2\n        /* \"#utility.yul\":987:1022   */\n      eq\n        /* \"#utility.yul\":977:1040   */\n      tag_414\n      jumpi\n        /* \"#utility.yul\":1036:1037   */\n      0x00\n        /* \"#utility.yul\":1033:1034   */\n      dup1\n        /* \"#utility.yul\":1026:1038   */\n      revert\n        /* \"#utility.yul\":977:1040   */\n    tag_414:\n        /* \"#utility.yul\":924:1046   */\n      pop\n      jump\t// out\n        /* \"#utility.yul\":1052:1191   */\n    tag_338:\n        /* \"#utility.yul\":1098:1103   */\n      0x00\n        /* \"#utility.yul\":1136:1142   */\n      dup2\n        /* \"#utility.yul\":1123:1143   */\n      calldataload\n        /* \"#utility.yul\":1114:1143   */\n      swap1\n      pop\n        /* \"#utility.yul\":1152:1185   */\n      tag_416\n        /* \"#utility.yul\":1179:1184   */\n      dup2\n        /* \"#utility.yul\":1152:1185   */\n      tag_337\n      jump\t// in\n    tag_416:\n        /* \"#utility.yul\":1052:1191   */\n      swap3\n      swap2\n      pop\n      pop\n      jump\t// out\n        /* \"#utility.yul\":1197:1671   */\n    tag_25:\n        /* \"#utility.yul\":1265:1271   */\n      0x00\n        /* \"#utility.yul\":1273:1279   */\n      dup1\n        /* \"#utility.yul\":1322:1324   */\n      0x40\n        /* \"#utility.yul\":1310:1319   */\n      dup4\n        /* \"#utility.yul\":1301:1308   */\n      dup6\n        /* \"#utility.yul\":1297:1320   */\n      sub\n        /* \"#utility.yul\":1293:1325   */\n      slt\n        /* \"#utility.yul\":1290:1409   */\n      iszero\n      tag_418\n      jumpi\n        /* \"#utility.yul\":1328:1407   */\n      tag_419\n      tag_330\n      jump\t// in\n    tag_419:\n        /* \"#utility.yul\":1290:1409   */\n    tag_418:\n        /* \"#utility.yul\":1448:1449   */\n      0x00\n        /* \"#utility.yul\":1473:1526   */\n      tag_420\n        /* \"#utility.yul\":1518:1525   */\n      dup6\n        /* \"#utility.yul\":1509:1515   */\n      dup3\n        /* \"#utility.yul\":1498:1507   */\n      dup7\n        /* \"#utility.yul\":1494:1516   */\n      add\n        /* \"#utility.yul\":1473:1526   */\n      tag_335\n      jump\t// in\n    tag_420:\n        /* \"#utility.yul\":1463:1526   */\n      swap3\n      pop\n        /* \"#utility.yul\":1419:1536   */\n      pop\n        /* \"#utility.yul\":1575:1577   */\n      0x20\n        /* \"#utility.yul\":1601:1654   */\n      tag_421\n        /* \"#utility.yul\":1646:1653   */\n      dup6\n        /* \"#utility.yul\":1637:1643   */\n      dup3\n        /* \"#utility.yul\":1626:1635   */\n      dup7\n        /* \"#utility.yul\":1622:1644   */\n      add\n        /* \"#utility.yul\":1601:1654   */\n      tag_338\n      jump\t// in\n    tag_421:\n        /* \"#utility.yul\":1591:1654   */\n      swap2\n      pop\n        /* \"#utility.yul\":1546:1664   */\n      pop\n        /* \"#utility.yul\":1197:1671   */\n      swap3\n      pop\n      swap3\n      swap1\n      pop\n      jump\t// out\n        /* \"#utility.yul\":1677:1795   */\n    tag_339:\n        /* \"#utility.yul\":1764:1788   */\n      tag_423\n        /* \"#utility.yul\":1782:1787   */\n      dup2\n        /* \"#utility.yul\":1764:1788   */\n      tag_336\n      jump\t// in\n    tag_423:\n        /* \"#utility.yul\":1759:1762   */\n      dup3\n        /* \"#utility.yul\":1752:1789   */\n      mstore\n        /* \"#utility.yul\":1677:1795   */\n      pop\n      pop\n      jump\t// out\n        /* \"#utility.yul\":1801:2023   */\n    tag_28:\n        /* \"#utility.yul\":1894:1898   */\n      0x00\n        /* \"#utility.yul\":1932:1934   */\n      0x20\n        /* \"#utility.yul\":1921:1930   */\n      dup3\n        /* \"#utility.yul\":1917:1935   */\n      add\n        /* \"#utility.yul\":1909:1935   */\n      swap1\n      pop\n        /* \"#utility.yul\":1945:2016   */\n      tag_425\n        /* \"#utility.yul\":2013:2014   */\n      0x00\n        /* \"#utility.yul\":2002:2011   */\n      dup4\n        /* \"#utility.yul\":1998:2015   */\n      add\n        /* \"#utility.yul\":1989:1995   */\n      dup5\n        /* \"#utility.yul\":1945:2016   */\n      tag_339\n      jump\t// in\n    tag_425:\n        /* \"#utility.yul\":1801:2023   */\n      swap3\n      swap2\n      pop\n      pop\n      jump\t// out\n        /* \"#utility.yul\":2029:2178   */\n    tag_340:\n        /* \"#utility.yul\":2065:2072   */\n      0x00\n        /* \"#utility.yul\":2105:2171   */\n      0xffffffff00000000000000000000000000000000000000000000000000000000\n        /* \"#utility.yul\":2098:2103   */\n      dup3\n        /* \"#utility.yul\":2094:2172   */\n      and\n        /* \"#utility.yul\":2083:2172   */\n      swap1\n      pop\n        /* \"#utility.yul\":2029:2178   */\n      swap2\n      swap1\n      pop\n      jump\t// out\n        /* \"#utility.yul\":2184:2304   */\n    tag_341:\n        /* \"#utility.yul\":2256:2279   */\n      tag_428\n        /* \"#utility.yul\":2273:2278   */\n      dup2\n        /* \"#utility.yul\":2256:2279   */\n      tag_340\n      jump\t// in\n    tag_428:\n        /* \"#utility.yul\":2249:2254   */\n      dup2\n        /* \"#utility.yul\":2246:2280   */\n      eq\n        /* \"#utility.yul\":2236:2298   */\n      tag_429\n      jumpi\n        /* \"#utility.yul\":2294:2295   */\n      0x00\n        /* \"#utility.yul\":2291:2292   */\n      dup1\n        /* \"#utility.yul\":2284:2296   */\n      revert\n        /* \"#utility.yul\":2236:2298   */\n    tag_429:\n        /* \"#utility.yul\":2184:2304   */\n      pop\n      jump\t// out\n        /* \"#utility.yul\":2310:2447   */\n    tag_342:\n        /* \"#utility.yul\":2355:2360   */\n      0x00\n        /* \"#utility.yul\":2393:2399   */\n      dup2\n        /* \"#utility.yul\":2380:2400   */\n      calldataload\n        /* \"#utility.yul\":2371:2400   */\n      swap1\n      pop\n        /* \"#utility.yul\":2409:2441   */\n      tag_431\n        /* \"#utility.yul\":2435:2440   */\n      dup2\n        /* \"#utility.yul\":2409:2441   */\n      tag_341\n      jump\t// in\n    tag_431:\n        /* \"#utility.yul\":2310:2447   */\n      swap3\n      swap2\n      pop\n      pop\n      jump\t// out\n        /* \"#utility.yul\":2453:2780   */\n    tag_31:\n        /* \"#utility.yul\":2511:2517   */\n      0x00\n        /* \"#utility.yul\":2560:2562   */\n      0x20\n        /* \"#utility.yul\":2548:2557   */\n      dup3\n        /* \"#utility.yul\":2539:2546   */\n      dup5\n        /* \"#utility.yul\":2535:2558   */\n      sub\n        /* \"#utility.yul\":2531:2563   */\n      slt\n        /* \"#utility.yul\":2528:2647   */\n      iszero\n      tag_433\n      jumpi\n        /* \"#utility.yul\":2566:2645   */\n      tag_434\n      tag_330\n      jump\t// in\n    tag_434:\n        /* \"#utility.yul\":2528:2647   */\n    tag_433:\n        /* \"#utility.yul\":2686:2687   */\n      0x00\n        /* \"#utility.yul\":2711:2763   */\n      tag_435\n        /* \"#utility.yul\":2755:2762   */\n      dup5\n        /* \"#utility.yul\":2746:2752   */\n      dup3\n        /* \"#utility.yul\":2735:2744   */\n      dup6\n        /* \"#utility.yul\":2731:2753   */\n      add\n        /* \"#utility.yul\":2711:2763   */\n      tag_342\n      jump\t// in\n    tag_435:\n        /* \"#utility.yul\":2701:2763   */\n      swap2\n      pop\n        /* \"#utility.yul\":2657:2773   */\n      pop\n        /* \"#utility.yul\":2453:2780   */\n      swap3\n      swap2\n      pop\n      pop\n      jump\t// out\n        /* \"#utility.yul\":2786:2876   */\n    tag_343:\n        /* \"#utility.yul\":2820:2827   */\n      0x00\n        /* \"#utility.yul\":2863:2868   */\n      dup2\n        /* \"#utility.yul\":2856:2869   */\n      iszero\n        /* \"#utility.yul\":2849:2870   */\n      iszero\n        /* \"#utility.yul\":2838:2870   */\n      swap1\n      pop\n        /* \"#utility.yul\":2786:2876   */\n      swap2\n      swap1\n      pop\n      jump\t// out\n        /* \"#utility.yul\":2882:2991   */\n    tag_344:\n        /* \"#utility.yul\":2963:2984   */\n      tag_438\n        /* \"#utility.yul\":2978:2983   */\n      dup2\n        /* \"#utility.yul\":2963:2984   */\n      tag_343\n      jump\t// in\n    tag_438:\n        /* \"#utility.yul\":2958:2961   */\n      dup3\n        /* \"#utility.yul\":2951:2985   */\n      mstore\n        /* \"#utility.yul\":2882:2991   */\n      pop\n      pop\n      jump\t// out\n        /* \"#utility.yul\":2997:3207   */\n    tag_34:\n        /* \"#utility.yul\":3084:3088   */\n      0x00\n        /* \"#utility.yul\":3122:3124   */\n      0x20\n        /* \"#utility.yul\":3111:3120   */\n      dup3\n        /* \"#utility.yul\":3107:3125   */\n      add\n        /* \"#utility.yul\":3099:3125   */\n      swap1\n      pop\n        /* \"#utility.yul\":3135:3200   */\n      tag_440\n        /* \"#utility.yul\":3197:3198   */\n      0x00\n        /* \"#utility.yul\":3186:3195   */\n      dup4\n        /* \"#utility.yul\":3182:3199   */\n      add\n        /* \"#utility.yul\":3173:3179   */\n      dup5\n        /* \"#utility.yul\":3135:3200   */\n      tag_344\n      jump\t// in\n    tag_440:\n        /* \"#utility.yul\":2997:3207   */\n      swap3\n      swap2\n      pop\n      pop\n      jump\t// out\n        /* \"#utility.yul\":3213:3330   */\n    tag_345:\n        /* \"#utility.yul\":3322:3323   */\n      0x00\n        /* \"#utility.yul\":3319:3320   */\n      dup1\n        /* \"#utility.yul\":3312:3324   */\n      revert\n        /* \"#utility.yul\":3336:3453   */\n    tag_346:\n        /* \"#utility.yul\":3445:3446   */\n      0x00\n        /* \"#utility.yul\":3442:3443   */\n      dup1\n        /* \"#utility.yul\":3435:3447   */\n      revert\n        /* \"#utility.yul\":3459:3561   */\n    tag_347:\n        /* \"#utility.yul\":3500:3506   */\n      0x00\n        /* \"#utility.yul\":3551:3553   */\n      0x1f\n        /* \"#utility.yul\":3547:3554   */\n      not\n        /* \"#utility.yul\":3542:3544   */\n      0x1f\n        /* \"#utility.yul\":3535:3540   */\n      dup4\n        /* \"#utility.yul\":3531:3545   */\n      add\n        /* \"#utility.yul\":3527:3555   */\n      and\n        /* \"#utility.yul\":3517:3555   */\n      swap1\n      pop\n        /* \"#utility.yul\":3459:3561   */\n      swap2\n      swap1\n      pop\n      jump\t// out\n        /* \"#utility.yul\":3567:3747   */\n    tag_138:\n        /* \"#utility.yul\":3615:3692   */\n      0x4e487b7100000000000000000000000000000000000000000000000000000000\n        /* \"#utility.yul\":3612:3613   */\n      0x00\n        /* \"#utility.yul\":3605:3693   */\n      mstore\n        /* \"#utility.yul\":3712:3716   */\n      0x41\n        /* \"#utility.yul\":3709:3710   */\n      0x04\n        /* \"#utility.yul\":3702:3717   */\n      mstore\n        /* \"#utility.yul\":3736:3740   */\n      0x24\n        /* \"#utility.yul\":3733:3734   */\n      0x00\n        /* \"#utility.yul\":3726:3741   */\n      revert\n        /* \"#utility.yul\":3753:4034   */\n    tag_348:\n        /* \"#utility.yul\":3836:3863   */\n      tag_446\n        /* \"#utility.yul\":3858:3862   */\n      dup3\n        /* \"#utility.yul\":3836:3863   */\n      tag_347\n      jump\t// in\n    tag_446:\n        /* \"#utility.yul\":3828:3834   */\n      dup2\n        /* \"#utility.yul\":3824:3864   */\n      add\n        /* \"#utility.yul\":3966:3972   */\n      dup2\n        /* \"#utility.yul\":3954:3964   */\n      dup2\n        /* \"#utility.yul\":3951:3973   */\n      lt\n        /* \"#utility.yul\":3930:3948   */\n      0xffffffffffffffff\n        /* \"#utility.yul\":3918:3928   */\n      dup3\n        /* \"#utility.yul\":3915:3949   */\n      gt\n        /* \"#utility.yul\":3912:3974   */\n      or\n        /* \"#utility.yul\":3909:3997   */\n      iszero\n      tag_447\n      jumpi\n        /* \"#utility.yul\":3977:3995   */\n      tag_448\n      tag_138\n      jump\t// in\n    tag_448:\n        /* \"#utility.yul\":3909:3997   */\n    tag_447:\n        /* \"#utility.yul\":4017:4027   */\n      dup1\n        /* \"#utility.yul\":4013:4015   */\n      0x40\n        /* \"#utility.yul\":4006:4028   */\n      mstore\n        /* \"#utility.yul\":3796:4034   */\n      pop\n        /* \"#utility.yul\":3753:4034   */\n      pop\n      pop\n      jump\t// out\n        /* \"#utility.yul\":4040:4169   */\n    tag_349:\n        /* \"#utility.yul\":4074:4080   */\n      0x00\n        /* \"#utility.yul\":4101:4121   */\n      tag_450\n      tag_329\n      jump\t// in\n    tag_450:\n        /* \"#utility.yul\":4091:4121   */\n      swap1\n      pop\n        /* \"#utility.yul\":4130:4163   */\n      tag_451\n        /* \"#utility.yul\":4158:4162   */\n      dup3\n        /* \"#utility.yul\":4150:4156   */\n      dup3\n        /* \"#utility.yul\":4130:4163   */\n      tag_348\n      jump\t// in\n    tag_451:\n        /* \"#utility.yul\":4040:4169   */\n      swap2\n      swap1\n      pop\n      jump\t// out\n        /* \"#utility.yul\":4175:4483   */\n    tag_350:\n        /* \"#utility.yul\":4237:4241   */\n      0x00\n        /* \"#utility.yul\":4327:4345   */\n      0xffffffffffffffff\n        /* \"#utility.yul\":4319:4325   */\n      dup3\n        /* \"#utility.yul\":4316:4346   */\n      gt\n        /* \"#utility.yul\":4313:4369   */\n      iszero\n      tag_453\n      jumpi\n        /* \"#utility.yul\":4349:4367   */\n      tag_454\n      tag_138\n      jump\t// in\n    tag_454:\n        /* \"#utility.yul\":4313:4369   */\n    tag_453:\n        /* \"#utility.yul\":4387:4416   */\n      tag_455\n        /* \"#utility.yul\":4409:4415   */\n      dup3\n        /* \"#utility.yul\":4387:4416   */\n      tag_347\n      jump\t// in\n    tag_455:\n        /* \"#utility.yul\":4379:4416   */\n      swap1\n      pop\n        /* \"#utility.yul\":4471:4475   */\n      0x20\n        /* \"#utility.yul\":4465:4469   */\n      dup2\n        /* \"#utility.yul\":4461:4476   */\n      add\n        /* \"#utility.yul\":4453:4476   */\n      swap1\n      pop\n        /* \"#utility.yul\":4175:4483   */\n      swap2\n      swap1\n      pop\n      jump\t// out\n        /* \"#utility.yul\":4489:4637   */\n    tag_351:\n        /* \"#utility.yul\":4587:4593   */\n      dup3\n        /* \"#utility.yul\":4582:4585   */\n      dup2\n        /* \"#utility.yul\":4577:4580   */\n      dup4\n        /* \"#utility.yul\":4564:4594   */\n      calldatacopy\n        /* \"#utility.yul\":4628:4629   */\n      0x00\n        /* \"#utility.yul\":4619:4625   */\n      dup4\n        /* \"#utility.yul\":4614:4617   */\n      dup4\n        /* \"#utility.yul\":4610:4626   */\n      add\n        /* \"#utility.yul\":4603:4630   */\n      mstore\n        /* \"#utility.yul\":4489:4637   */\n      pop\n      pop\n      pop\n      jump\t// out\n        /* \"#utility.yul\":4643:5068   */\n    tag_352:\n        /* \"#utility.yul\":4721:4726   */\n      0x00\n        /* \"#utility.yul\":4746:4812   */\n      tag_458\n        /* \"#utility.yul\":4762:4811   */\n      tag_459\n        /* \"#utility.yul\":4804:4810   */\n      dup5\n        /* \"#utility.yul\":4762:4811   */\n      tag_350\n      jump\t// in\n    tag_459:\n        /* \"#utility.yul\":4746:4812   */\n      tag_349\n      jump\t// in\n    tag_458:\n        /* \"#utility.yul\":4737:4812   */\n      swap1\n      pop\n        /* \"#utility.yul\":4835:4841   */\n      dup3\n        /* \"#utility.yul\":4828:4833   */\n      dup2\n        /* \"#utility.yul\":4821:4842   */\n      mstore\n        /* \"#utility.yul\":4873:4877   */\n      0x20\n        /* \"#utility.yul\":4866:4871   */\n      dup2\n        /* \"#utility.yul\":4862:4878   */\n      add\n        /* \"#utility.yul\":4911:4914   */\n      dup5\n        /* \"#utility.yul\":4902:4908   */\n      dup5\n        /* \"#utility.yul\":4897:4900   */\n      dup5\n        /* \"#utility.yul\":4893:4909   */\n      add\n        /* \"#utility.yul\":4890:4915   */\n      gt\n        /* \"#utility.yul\":4887:4999   */\n      iszero\n      tag_460\n      jumpi\n        /* \"#utility.yul\":4918:4997   */\n      tag_461\n      tag_346\n      jump\t// in\n    tag_461:\n        /* \"#utility.yul\":4887:4999   */\n    tag_460:\n        /* \"#utility.yul\":5008:5062   */\n      tag_462\n        /* \"#utility.yul\":5055:5061   */\n      dup5\n        /* \"#utility.yul\":5050:5053   */\n      dup3\n        /* \"#utility.yul\":5045:5048   */\n      dup6\n        /* \"#utility.yul\":5008:5062   */\n      tag_351\n      jump\t// in\n    tag_462:\n        /* \"#utility.yul\":4727:5068   */\n      pop\n        /* \"#utility.yul\":4643:5068   */\n      swap4\n      swap3\n      pop\n      pop\n      pop\n      jump\t// out\n        /* \"#utility.yul\":5088:5428   */\n    tag_353:\n        /* \"#utility.yul\":5144:5149   */\n      0x00\n        /* \"#utility.yul\":5193:5196   */\n      dup3\n        /* \"#utility.yul\":5186:5190   */\n      0x1f\n        /* \"#utility.yul\":5178:5184   */\n      dup4\n        /* \"#utility.yul\":5174:5191   */\n      add\n        /* \"#utility.yul\":5170:5197   */\n      slt\n        /* \"#utility.yul\":5160:5282   */\n      tag_464\n      jumpi\n        /* \"#utility.yul\":5201:5280   */\n      tag_465\n      tag_345\n      jump\t// in\n    tag_465:\n        /* \"#utility.yul\":5160:5282   */\n    tag_464:\n        /* \"#utility.yul\":5318:5324   */\n      dup2\n        /* \"#utility.yul\":5305:5325   */\n      calldataload\n        /* \"#utility.yul\":5343:5422   */\n      tag_466\n        /* \"#utility.yul\":5418:5421   */\n      dup5\n        /* \"#utility.yul\":5410:5416   */\n      dup3\n        /* \"#utility.yul\":5403:5407   */\n      0x20\n        /* \"#utility.yul\":5395:5401   */\n      dup7\n        /* \"#utility.yul\":5391:5408   */\n      add\n        /* \"#utility.yul\":5343:5422   */\n      tag_352\n      jump\t// in\n    tag_466:\n        /* \"#utility.yul\":5334:5422   */\n      swap2\n      pop\n        /* \"#utility.yul\":5150:5428   */\n      pop\n        /* \"#utility.yul\":5088:5428   */\n      swap3\n      swap2\n      pop\n      pop\n      jump\t// out\n        /* \"#utility.yul\":5434:5943   */\n    tag_37:\n        /* \"#utility.yul\":5503:5509   */\n      0x00\n        /* \"#utility.yul\":5552:5554   */\n      0x20\n        /* \"#utility.yul\":5540:5549   */\n      dup3\n        /* \"#utility.yul\":5531:5538   */\n      dup5\n        /* \"#utility.yul\":5527:5550   */\n      sub\n        /* \"#utility.yul\":5523:5555   */\n      slt\n        /* \"#utility.yul\":5520:5639   */\n      iszero\n      tag_468\n      jumpi\n        /* \"#utility.yul\":5558:5637   */\n      tag_469\n      tag_330\n      jump\t// in\n    tag_469:\n        /* \"#utility.yul\":5520:5639   */\n    tag_468:\n        /* \"#utility.yul\":5706:5707   */\n      0x00\n        /* \"#utility.yul\":5695:5704   */\n      dup3\n        /* \"#utility.yul\":5691:5708   */\n      add\n        /* \"#utility.yul\":5678:5709   */\n      calldataload\n        /* \"#utility.yul\":5736:5754   */\n      0xffffffffffffffff\n        /* \"#utility.yul\":5728:5734   */\n      dup2\n        /* \"#utility.yul\":5725:5755   */\n      gt\n        /* \"#utility.yul\":5722:5839   */\n      iszero\n      tag_470\n      jumpi\n        /* \"#utility.yul\":5758:5837   */\n      tag_471\n      tag_331\n      jump\t// in\n    tag_471:\n        /* \"#utility.yul\":5722:5839   */\n    tag_470:\n        /* \"#utility.yul\":5863:5926   */\n      tag_472\n        /* \"#utility.yul\":5918:5925   */\n      dup5\n        /* \"#utility.yul\":5909:5915   */\n      dup3\n        /* \"#utility.yul\":5898:5907   */\n      dup6\n        /* \"#utility.yul\":5894:5916   */\n      add\n        /* \"#utility.yul\":5863:5926   */\n      tag_353\n      jump\t// in\n    tag_472:\n        /* \"#utility.yul\":5853:5926   */\n      swap2\n      pop\n        /* \"#utility.yul\":5649:5936   */\n      pop\n        /* \"#utility.yul\":5434:5943   */\n      swap3\n      swap2\n      pop\n      pop\n      jump\t// out\n        /* \"#utility.yul\":5949:6278   */\n    tag_41:\n        /* \"#utility.yul\":6008:6014   */\n      0x00\n        /* \"#utility.yul\":6057:6059   */\n      0x20\n        /* \"#utility.yul\":6045:6054   */\n      dup3\n        /* \"#utility.yul\":6036:6043   */\n      dup5\n        /* \"#utility.yul\":6032:6055   */\n      sub\n        /* \"#utility.yul\":6028:6060   */\n      slt\n        /* \"#utility.yul\":6025:6144   */\n      iszero\n      tag_474\n      jumpi\n        /* \"#utility.yul\":6063:6142   */\n      tag_475\n      tag_330\n      jump\t// in\n    tag_475:\n        /* \"#utility.yul\":6025:6144   */\n    tag_474:\n        /* \"#utility.yul\":6183:6184   */\n      0x00\n        /* \"#utility.yul\":6208:6261   */\n      tag_476\n        /* \"#utility.yul\":6253:6260   */\n      dup5\n        /* \"#utility.yul\":6244:6250   */\n      dup3\n        /* \"#utility.yul\":6233:6242   */\n      dup6\n        /* \"#utility.yul\":6229:6251   */\n      add\n        /* \"#utility.yul\":6208:6261   */\n      tag_338\n      jump\t// in\n    tag_476:\n        /* \"#utility.yul\":6198:6261   */\n      swap2\n      pop\n        /* \"#utility.yul\":6154:6271   */\n      pop\n        /* \"#utility.yul\":5949:6278   */\n      swap3\n      swap2\n      pop\n      pop\n      jump\t// out\n        /* \"#utility.yul\":6284:6383   */\n    tag_354:\n        /* \"#utility.yul\":6336:6342   */\n      0x00\n        /* \"#utility.yul\":6370:6375   */\n      dup2\n        /* \"#utility.yul\":6364:6376   */\n      mload\n        /* \"#utility.yul\":6354:6376   */\n      swap1\n      pop\n        /* \"#utility.yul\":6284:6383   */\n      swap2\n      swap1\n      pop\n      jump\t// out\n        /* \"#utility.yul\":6389:6558   */\n    tag_355:\n        /* \"#utility.yul\":6473:6484   */\n      0x00\n        /* \"#utility.yul\":6507:6513   */\n      dup3\n        /* \"#utility.yul\":6502:6505   */\n      dup3\n        /* \"#utility.yul\":6495:6514   */\n      mstore\n        /* \"#utility.yul\":6547:6551   */\n      0x20\n        /* \"#utility.yul\":6542:6545   */\n      dup3\n        /* \"#utility.yul\":6538:6552   */\n      add\n        /* \"#utility.yul\":6523:6552   */\n      swap1\n      pop\n        /* \"#utility.yul\":6389:6558   */\n      swap3\n      swap2\n      pop\n      pop\n      jump\t// out\n        /* \"#utility.yul\":6564:6703   */\n    tag_356:\n        /* \"#utility.yul\":6653:6659   */\n      dup3\n        /* \"#utility.yul\":6648:6651   */\n      dup2\n        /* \"#utility.yul\":6643:6646   */\n      dup4\n        /* \"#utility.yul\":6637:6660   */\n      mcopy\n        /* \"#utility.yul\":6694:6695   */\n      0x00\n        /* \"#utility.yul\":6685:6691   */\n      dup4\n        /* \"#utility.yul\":6680:6683   */\n      dup4\n        /* \"#utility.yul\":6676:6692   */\n      add\n        /* \"#utility.yul\":6669:6696   */\n      mstore\n        /* \"#utility.yul\":6564:6703   */\n      pop\n      pop\n      pop\n      jump\t// out\n        /* \"#utility.yul\":6709:7086   */\n    tag_357:\n        /* \"#utility.yul\":6797:6800   */\n      0x00\n        /* \"#utility.yul\":6825:6864   */\n      tag_481\n        /* \"#utility.yul\":6858:6863   */\n      dup3\n        /* \"#utility.yul\":6825:6864   */\n      tag_354\n      jump\t// in\n    tag_481:\n        /* \"#utility.yul\":6880:6951   */\n      tag_482\n        /* \"#utility.yul\":6944:6950   */\n      dup2\n        /* \"#utility.yul\":6939:6942   */\n      dup6\n        /* \"#utility.yul\":6880:6951   */\n      tag_355\n      jump\t// in\n    tag_482:\n        /* \"#utility.yul\":6873:6951   */\n      swap4\n      pop\n        /* \"#utility.yul\":6960:7025   */\n      tag_483\n        /* \"#utility.yul\":7018:7024   */\n      dup2\n        /* \"#utility.yul\":7013:7016   */\n      dup6\n        /* \"#utility.yul\":7006:7010   */\n      0x20\n        /* \"#utility.yul\":6999:7004   */\n      dup7\n        /* \"#utility.yul\":6995:7011   */\n      add\n        /* \"#utility.yul\":6960:7025   */\n      tag_356\n      jump\t// in\n    tag_483:\n        /* \"#utility.yul\":7050:7079   */\n      tag_484\n        /* \"#utility.yul\":7072:7078   */\n      dup2\n        /* \"#utility.yul\":7050:7079   */\n      tag_347\n      jump\t// in\n    tag_484:\n        /* \"#utility.yul\":7045:7048   */\n      dup5\n        /* \"#utility.yul\":7041:7080   */\n      add\n        /* \"#utility.yul\":7034:7080   */\n      swap2\n      pop\n        /* \"#utility.yul\":6801:7086   */\n      pop\n        /* \"#utility.yul\":6709:7086   */\n      swap3\n      swap2\n      pop\n      pop\n      jump\t// out\n        /* \"#utility.yul\":7092:7405   */\n    tag_44:\n        /* \"#utility.yul\":7205:7209   */\n      0x00\n        /* \"#utility.yul\":7243:7245   */\n      0x20\n        /* \"#utility.yul\":7232:7241   */\n      dup3\n        /* \"#utility.yul\":7228:7246   */\n      add\n        /* \"#utility.yul\":7220:7246   */\n      swap1\n      pop\n        /* \"#utility.yul\":7292:7301   */\n      dup2\n        /* \"#utility.yul\":7286:7290   */\n      dup2\n        /* \"#utility.yul\":7282:7302   */\n      sub\n        /* \"#utility.yul\":7278:7279   */\n      0x00\n        /* \"#utility.yul\":7267:7276   */\n      dup4\n        /* \"#utility.yul\":7263:7280   */\n      add\n        /* \"#utility.yul\":7256:7303   */\n      mstore\n        /* \"#utility.yul\":7320:7398   */\n      tag_486\n        /* \"#utility.yul\":7393:7397   */\n      dup2\n        /* \"#utility.yul\":7384:7390   */\n      dup5\n        /* \"#utility.yul\":7320:7398   */\n      tag_357\n      jump\t// in\n    tag_486:\n        /* \"#utility.yul\":7312:7398   */\n      swap1\n      pop\n        /* \"#utility.yul\":7092:7405   */\n      swap3\n      swap2\n      pop\n      pop\n      jump\t// out\n        /* \"#utility.yul\":7411:7722   */\n    tag_358:\n        /* \"#utility.yul\":7488:7492   */\n      0x00\n        /* \"#utility.yul\":7578:7596   */\n      0xffffffffffffffff\n        /* \"#utility.yul\":7570:7576   */\n      dup3\n        /* \"#utility.yul\":7567:7597   */\n      gt\n        /* \"#utility.yul\":7564:7620   */\n      iszero\n      tag_488\n      jumpi\n        /* \"#utility.yul\":7600:7618   */\n      tag_489\n      tag_138\n      jump\t// in\n    tag_489:\n        /* \"#utility.yul\":7564:7620   */\n    tag_488:\n        /* \"#utility.yul\":7650:7654   */\n      0x20\n        /* \"#utility.yul\":7642:7648   */\n      dup3\n        /* \"#utility.yul\":7638:7655   */\n      mul\n        /* \"#utility.yul\":7630:7655   */\n      swap1\n      pop\n        /* \"#utility.yul\":7710:7714   */\n      0x20\n        /* \"#utility.yul\":7704:7708   */\n      dup2\n        /* \"#utility.yul\":7700:7715   */\n      add\n        /* \"#utility.yul\":7692:7715   */\n      swap1\n      pop\n        /* \"#utility.yul\":7411:7722   */\n      swap2\n      swap1\n      pop\n      jump\t// out\n        /* \"#utility.yul\":7728:7845   */\n    tag_359:\n        /* \"#utility.yul\":7837:7838   */\n      0x00\n        /* \"#utility.yul\":7834:7835   */\n      dup1\n        /* \"#utility.yul\":7827:7839   */\n      revert\n        /* \"#utility.yul\":7868:8578   */\n    tag_360:\n        /* \"#utility.yul\":7964:7969   */\n      0x00\n        /* \"#utility.yul\":7989:8070   */\n      tag_492\n        /* \"#utility.yul\":8005:8069   */\n      tag_493\n        /* \"#utility.yul\":8062:8068   */\n      dup5\n        /* \"#utility.yul\":8005:8069   */\n      tag_358\n      jump\t// in\n    tag_493:\n        /* \"#utility.yul\":7989:8070   */\n      tag_349\n      jump\t// in\n    tag_492:\n        /* \"#utility.yul\":7980:8070   */\n      swap1\n      pop\n        /* \"#utility.yul\":8090:8095   */\n      dup1\n        /* \"#utility.yul\":8119:8125   */\n      dup4\n        /* \"#utility.yul\":8112:8117   */\n      dup3\n        /* \"#utility.yul\":8105:8126   */\n      mstore\n        /* \"#utility.yul\":8153:8157   */\n      0x20\n        /* \"#utility.yul\":8146:8151   */\n      dup3\n        /* \"#utility.yul\":8142:8158   */\n      add\n        /* \"#utility.yul\":8135:8158   */\n      swap1\n      pop\n        /* \"#utility.yul\":8206:8210   */\n      0x20\n        /* \"#utility.yul\":8198:8204   */\n      dup5\n        /* \"#utility.yul\":8194:8211   */\n      mul\n        /* \"#utility.yul\":8186:8192   */\n      dup4\n        /* \"#utility.yul\":8182:8212   */\n      add\n        /* \"#utility.yul\":8235:8238   */\n      dup6\n        /* \"#utility.yul\":8227:8233   */\n      dup2\n        /* \"#utility.yul\":8224:8239   */\n      gt\n        /* \"#utility.yul\":8221:8343   */\n      iszero\n      tag_494\n      jumpi\n        /* \"#utility.yul\":8254:8333   */\n      tag_495\n      tag_359\n      jump\t// in\n    tag_495:\n        /* \"#utility.yul\":8221:8343   */\n    tag_494:\n        /* \"#utility.yul\":8369:8375   */\n      dup4\n        /* \"#utility.yul\":8352:8572   */\n    tag_496:\n        /* \"#utility.yul\":8386:8392   */\n      dup2\n        /* \"#utility.yul\":8381:8384   */\n      dup2\n        /* \"#utility.yul\":8378:8393   */\n      lt\n        /* \"#utility.yul\":8352:8572   */\n      iszero\n      tag_498\n      jumpi\n        /* \"#utility.yul\":8461:8464   */\n      dup1\n        /* \"#utility.yul\":8490:8527   */\n      tag_499\n        /* \"#utility.yul\":8523:8526   */\n      dup9\n        /* \"#utility.yul\":8511:8521   */\n      dup3\n        /* \"#utility.yul\":8490:8527   */\n      tag_338\n      jump\t// in\n    tag_499:\n        /* \"#utility.yul\":8485:8488   */\n      dup5\n        /* \"#utility.yul\":8478:8528   */\n      mstore\n        /* \"#utility.yul\":8557:8561   */\n      0x20\n        /* \"#utility.yul\":8552:8555   */\n      dup5\n        /* \"#utility.yul\":8548:8562   */\n      add\n        /* \"#utility.yul\":8541:8562   */\n      swap4\n      pop\n        /* \"#utility.yul\":8428:8572   */\n      pop\n        /* \"#utility.yul\":8412:8416   */\n      0x20\n        /* \"#utility.yul\":8407:8410   */\n      dup2\n        /* \"#utility.yul\":8403:8417   */\n      add\n        /* \"#utility.yul\":8396:8417   */\n      swap1\n      pop\n        /* \"#utility.yul\":8352:8572   */\n      jump(tag_496)\n    tag_498:\n        /* \"#utility.yul\":8356:8377   */\n      pop\n        /* \"#utility.yul\":7970:8578   */\n      pop\n      pop\n        /* \"#utility.yul\":7868:8578   */\n      swap4\n      swap3\n      pop\n      pop\n      pop\n      jump\t// out\n        /* \"#utility.yul\":8601:8971   */\n    tag_361:\n        /* \"#utility.yul\":8672:8677   */\n      0x00\n        /* \"#utility.yul\":8721:8724   */\n      dup3\n        /* \"#utility.yul\":8714:8718   */\n      0x1f\n        /* \"#utility.yul\":8706:8712   */\n      dup4\n        /* \"#utility.yul\":8702:8719   */\n      add\n        /* \"#utility.yul\":8698:8725   */\n      slt\n        /* \"#utility.yul\":8688:8810   */\n      tag_501\n      jumpi\n        /* \"#utility.yul\":8729:8808   */\n      tag_502\n      tag_345\n      jump\t// in\n    tag_502:\n        /* \"#utility.yul\":8688:8810   */\n    tag_501:\n        /* \"#utility.yul\":8846:8852   */\n      dup2\n        /* \"#utility.yul\":8833:8853   */\n      calldataload\n        /* \"#utility.yul\":8871:8965   */\n      tag_503\n        /* \"#utility.yul\":8961:8964   */\n      dup5\n        /* \"#utility.yul\":8953:8959   */\n      dup3\n        /* \"#utility.yul\":8946:8950   */\n      0x20\n        /* \"#utility.yul\":8938:8944   */\n      dup7\n        /* \"#utility.yul\":8934:8951   */\n      add\n        /* \"#utility.yul\":8871:8965   */\n      tag_360\n      jump\t// in\n    tag_503:\n        /* \"#utility.yul\":8862:8965   */\n      swap2\n      pop\n        /* \"#utility.yul\":8678:8971   */\n      pop\n        /* \"#utility.yul\":8601:8971   */\n      swap3\n      swap2\n      pop\n      pop\n      jump\t// out\n        /* \"#utility.yul\":8977:9284   */\n    tag_362:\n        /* \"#utility.yul\":9038:9042   */\n      0x00\n        /* \"#utility.yul\":9128:9146   */\n      0xffffffffffffffff\n        /* \"#utility.yul\":9120:9126   */\n      dup3\n        /* \"#utility.yul\":9117:9147   */\n      gt\n        /* \"#utility.yul\":9114:9170   */\n      iszero\n      tag_505\n      jumpi\n        /* \"#utility.yul\":9150:9168   */\n      tag_506\n      tag_138\n      jump\t// in\n    tag_506:\n        /* \"#utility.yul\":9114:9170   */\n    tag_505:\n        /* \"#utility.yul\":9188:9217   */\n      tag_507\n        /* \"#utility.yul\":9210:9216   */\n      dup3\n        /* \"#utility.yul\":9188:9217   */\n      tag_347\n      jump\t// in\n    tag_507:\n        /* \"#utility.yul\":9180:9217   */\n      swap1\n      pop\n        /* \"#utility.yul\":9272:9276   */\n      0x20\n        /* \"#utility.yul\":9266:9270   */\n      dup2\n        /* \"#utility.yul\":9262:9277   */\n      add\n        /* \"#utility.yul\":9254:9277   */\n      swap1\n      pop\n        /* \"#utility.yul\":8977:9284   */\n      swap2\n      swap1\n      pop\n      jump\t// out\n        /* \"#utility.yul\":9290:9713   */\n    tag_363:\n        /* \"#utility.yul\":9367:9372   */\n      0x00\n        /* \"#utility.yul\":9392:9457   */\n      tag_509\n        /* \"#utility.yul\":9408:9456   */\n      tag_510\n        /* \"#utility.yul\":9449:9455   */\n      dup5\n        /* \"#utility.yul\":9408:9456   */\n      tag_362\n      jump\t// in\n    tag_510:\n        /* \"#utility.yul\":9392:9457   */\n      tag_349\n      jump\t// in\n    tag_509:\n        /* \"#utility.yul\":9383:9457   */\n      swap1\n      pop\n        /* \"#utility.yul\":9480:9486   */\n      dup3\n        /* \"#utility.yul\":9473:9478   */\n      dup2\n        /* \"#utility.yul\":9466:9487   */\n      mstore\n        /* \"#utility.yul\":9518:9522   */\n      0x20\n        /* \"#utility.yul\":9511:9516   */\n      dup2\n        /* \"#utility.yul\":9507:9523   */\n      add\n        /* \"#utility.yul\":9556:9559   */\n      dup5\n        /* \"#utility.yul\":9547:9553   */\n      dup5\n        /* \"#utility.yul\":9542:9545   */\n      dup5\n        /* \"#utility.yul\":9538:9554   */\n      add\n        /* \"#utility.yul\":9535:9560   */\n      gt\n        /* \"#utility.yul\":9532:9644   */\n      iszero\n      tag_511\n      jumpi\n        /* \"#utility.yul\":9563:9642   */\n      tag_512\n      tag_346\n      jump\t// in\n    tag_512:\n        /* \"#utility.yul\":9532:9644   */\n    tag_511:\n        /* \"#utility.yul\":9653:9707   */\n      tag_513\n        /* \"#utility.yul\":9700:9706   */\n      dup5\n        /* \"#utility.yul\":9695:9698   */\n      dup3\n        /* \"#utility.yul\":9690:9693   */\n      dup6\n        /* \"#utility.yul\":9653:9707   */\n      tag_351\n      jump\t// in\n    tag_513:\n        /* \"#utility.yul\":9373:9713   */\n      pop\n        /* \"#utility.yul\":9290:9713   */\n      swap4\n      swap3\n      pop\n      pop\n      pop\n      jump\t// out\n        /* \"#utility.yul\":9732:10070   */\n    tag_364:\n        /* \"#utility.yul\":9787:9792   */\n      0x00\n        /* \"#utility.yul\":9836:9839   */\n      dup3\n        /* \"#utility.yul\":9829:9833   */\n      0x1f\n        /* \"#utility.yul\":9821:9827   */\n      dup4\n        /* \"#utility.yul\":9817:9834   */\n      add\n        /* \"#utility.yul\":9813:9840   */\n      slt\n        /* \"#utility.yul\":9803:9925   */\n      tag_515\n      jumpi\n        /* \"#utility.yul\":9844:9923   */\n      tag_516\n      tag_345\n      jump\t// in\n    tag_516:\n        /* \"#utility.yul\":9803:9925   */\n    tag_515:\n        /* \"#utility.yul\":9961:9967   */\n      dup2\n        /* \"#utility.yul\":9948:9968   */\n      calldataload\n        /* \"#utility.yul\":9986:10064   */\n      tag_517\n        /* \"#utility.yul\":10060:10063   */\n      dup5\n        /* \"#utility.yul\":10052:10058   */\n      dup3\n        /* \"#utility.yul\":10045:10049   */\n      0x20\n        /* \"#utility.yul\":10037:10043   */\n      dup7\n        /* \"#utility.yul\":10033:10050   */\n      add\n        /* \"#utility.yul\":9986:10064   */\n      tag_363\n      jump\t// in\n    tag_517:\n        /* \"#utility.yul\":9977:10064   */\n      swap2\n      pop\n        /* \"#utility.yul\":9793:10070   */\n      pop\n        /* \"#utility.yul\":9732:10070   */\n      swap3\n      swap2\n      pop\n      pop\n      jump\t// out\n        /* \"#utility.yul\":10076:11439   */\n    tag_47:\n        /* \"#utility.yul\":10221:10227   */\n      0x00\n        /* \"#utility.yul\":10229:10235   */\n      dup1\n        /* \"#utility.yul\":10237:10243   */\n      0x00\n        /* \"#utility.yul\":10245:10251   */\n      dup1\n        /* \"#utility.yul\":10294:10297   */\n      0x80\n        /* \"#utility.yul\":10282:10291   */\n      dup6\n        /* \"#utility.yul\":10273:10280   */\n      dup8\n        /* \"#utility.yul\":10269:10292   */\n      sub\n        /* \"#utility.yul\":10265:10298   */\n      slt\n        /* \"#utility.yul\":10262:10382   */\n      iszero\n      tag_519\n      jumpi\n        /* \"#utility.yul\":10301:10380   */\n      tag_520\n      tag_330\n      jump\t// in\n    tag_520:\n        /* \"#utility.yul\":10262:10382   */\n    tag_519:\n        /* \"#utility.yul\":10421:10422   */\n      0x00\n        /* \"#utility.yul\":10446:10499   */\n      tag_521\n        /* \"#utility.yul\":10491:10498   */\n      dup8\n        /* \"#utility.yul\":10482:10488   */\n      dup3\n        /* \"#utility.yul\":10471:10480   */\n      dup9\n        /* \"#utility.yul\":10467:10489   */\n      add\n        /* \"#utility.yul\":10446:10499   */\n      tag_335\n      jump\t// in\n    tag_521:\n        /* \"#utility.yul\":10436:10499   */\n      swap5\n      pop\n        /* \"#utility.yul\":10392:10509   */\n      pop\n        /* \"#utility.yul\":10576:10578   */\n      0x20\n        /* \"#utility.yul\":10565:10574   */\n      dup6\n        /* \"#utility.yul\":10561:10579   */\n      add\n        /* \"#utility.yul\":10548:10580   */\n      calldataload\n        /* \"#utility.yul\":10607:10625   */\n      0xffffffffffffffff\n        /* \"#utility.yul\":10599:10605   */\n      dup2\n        /* \"#utility.yul\":10596:10626   */\n      gt\n        /* \"#utility.yul\":10593:10710   */\n      iszero\n      tag_522\n      jumpi\n        /* \"#utility.yul\":10629:10708   */\n      tag_523\n      tag_331\n      jump\t// in\n    tag_523:\n        /* \"#utility.yul\":10593:10710   */\n    tag_522:\n        /* \"#utility.yul\":10734:10812   */\n      tag_524\n        /* \"#utility.yul\":10804:10811   */\n      dup8\n        /* \"#utility.yul\":10795:10801   */\n      dup3\n        /* \"#utility.yul\":10784:10793   */\n      dup9\n        /* \"#utility.yul\":10780:10802   */\n      add\n        /* \"#utility.yul\":10734:10812   */\n      tag_361\n      jump\t// in\n    tag_524:\n        /* \"#utility.yul\":10724:10812   */\n      swap4\n      pop\n        /* \"#utility.yul\":10519:10822   */\n      pop\n        /* \"#utility.yul\":10889:10891   */\n      0x40\n        /* \"#utility.yul\":10878:10887   */\n      dup6\n        /* \"#utility.yul\":10874:10892   */\n      add\n        /* \"#utility.yul\":10861:10893   */\n      calldataload\n        /* \"#utility.yul\":10920:10938   */\n      0xffffffffffffffff\n        /* \"#utility.yul\":10912:10918   */\n      dup2\n        /* \"#utility.yul\":10909:10939   */\n      gt\n        /* \"#utility.yul\":10906:11023   */\n      iszero\n      tag_525\n      jumpi\n        /* \"#utility.yul\":10942:11021   */\n      tag_526\n      tag_331\n      jump\t// in\n    tag_526:\n        /* \"#utility.yul\":10906:11023   */\n    tag_525:\n        /* \"#utility.yul\":11047:11125   */\n      tag_527\n        /* \"#utility.yul\":11117:11124   */\n      dup8\n        /* \"#utility.yul\":11108:11114   */\n      dup3\n        /* \"#utility.yul\":11097:11106   */\n      dup9\n        /* \"#utility.yul\":11093:11115   */\n      add\n        /* \"#utility.yul\":11047:11125   */\n      tag_361\n      jump\t// in\n    tag_527:\n        /* \"#utility.yul\":11037:11125   */\n      swap3\n      pop\n        /* \"#utility.yul\":10832:11135   */\n      pop\n        /* \"#utility.yul\":11202:11204   */\n      0x60\n        /* \"#utility.yul\":11191:11200   */\n      dup6\n        /* \"#utility.yul\":11187:11205   */\n      add\n        /* \"#utility.yul\":11174:11206   */\n      calldataload\n        /* \"#utility.yul\":11233:11251   */\n      0xffffffffffffffff\n        /* \"#utility.yul\":11225:11231   */\n      dup2\n        /* \"#utility.yul\":11222:11252   */\n      gt\n        /* \"#utility.yul\":11219:11336   */\n      iszero\n      tag_528\n      jumpi\n        /* \"#utility.yul\":11255:11334   */\n      tag_529\n      tag_331\n      jump\t// in\n    tag_529:\n        /* \"#utility.yul\":11219:11336   */\n    tag_528:\n        /* \"#utility.yul\":11360:11422   */\n      tag_530\n        /* \"#utility.yul\":11414:11421   */\n      dup8\n        /* \"#utility.yul\":11405:11411   */\n      dup3\n        /* \"#utility.yul\":11394:11403   */\n      dup9\n        /* \"#utility.yul\":11390:11412   */\n      add\n        /* \"#utility.yul\":11360:11422   */\n      tag_364\n      jump\t// in\n    tag_530:\n        /* \"#utility.yul\":11350:11422   */\n      swap2\n      pop\n        /* \"#utility.yul\":11145:11432   */\n      pop\n        /* \"#utility.yul\":10076:11439   */\n      swap3\n      swap6\n      swap2\n      swap5\n      pop\n      swap3\n      pop\n      jump\t// out\n        /* \"#utility.yul\":11445:12954   */\n    tag_51:\n        /* \"#utility.yul\":11599:11605   */\n      0x00\n        /* \"#utility.yul\":11607:11613   */\n      dup1\n        /* \"#utility.yul\":11615:11621   */\n      0x00\n        /* \"#utility.yul\":11623:11629   */\n      dup1\n        /* \"#utility.yul\":11631:11637   */\n      0x00\n        /* \"#utility.yul\":11680:11683   */\n      0xa0\n        /* \"#utility.yul\":11668:11677   */\n      dup7\n        /* \"#utility.yul\":11659:11666   */\n      dup9\n        /* \"#utility.yul\":11655:11678   */\n      sub\n        /* \"#utility.yul\":11651:11684   */\n      slt\n        /* \"#utility.yul\":11648:11768   */\n      iszero\n      tag_532\n      jumpi\n        /* \"#utility.yul\":11687:11766   */\n      tag_533\n      tag_330\n      jump\t// in\n    tag_533:\n        /* \"#utility.yul\":11648:11768   */\n    tag_532:\n        /* \"#utility.yul\":11807:11808   */\n      0x00\n        /* \"#utility.yul\":11832:11885   */\n      tag_534\n        /* \"#utility.yul\":11877:11884   */\n      dup9\n        /* \"#utility.yul\":11868:11874   */\n      dup3\n        /* \"#utility.yul\":11857:11866   */\n      dup10\n        /* \"#utility.yul\":11853:11875   */\n      add\n        /* \"#utility.yul\":11832:11885   */\n      tag_335\n      jump\t// in\n    tag_534:\n        /* \"#utility.yul\":11822:11885   */\n      swap6\n      pop\n        /* \"#utility.yul\":11778:11895   */\n      pop\n        /* \"#utility.yul\":11934:11936   */\n      0x20\n        /* \"#utility.yul\":11960:12013   */\n      tag_535\n        /* \"#utility.yul\":12005:12012   */\n      dup9\n        /* \"#utility.yul\":11996:12002   */\n      dup3\n        /* \"#utility.yul\":11985:11994   */\n      dup10\n        /* \"#utility.yul\":11981:12003   */\n      add\n        /* \"#utility.yul\":11960:12013   */\n      tag_335\n      jump\t// in\n    tag_535:\n        /* \"#utility.yul\":11950:12013   */\n      swap5\n      pop\n        /* \"#utility.yul\":11905:12023   */\n      pop\n        /* \"#utility.yul\":12090:12092   */\n      0x40\n        /* \"#utility.yul\":12079:12088   */\n      dup7\n        /* \"#utility.yul\":12075:12093   */\n      add\n        /* \"#utility.yul\":12062:12094   */\n      calldataload\n        /* \"#utility.yul\":12121:12139   */\n      0xffffffffffffffff\n        /* \"#utility.yul\":12113:12119   */\n      dup2\n        /* \"#utility.yul\":12110:12140   */\n      gt\n        /* \"#utility.yul\":12107:12224   */\n      iszero\n      tag_536\n      jumpi\n        /* \"#utility.yul\":12143:12222   */\n      tag_537\n      tag_331\n      jump\t// in\n    tag_537:\n        /* \"#utility.yul\":12107:12224   */\n    tag_536:\n        /* \"#utility.yul\":12248:12326   */\n      tag_538\n        /* \"#utility.yul\":12318:12325   */\n      dup9\n        /* \"#utility.yul\":12309:12315   */\n      dup3\n        /* \"#utility.yul\":12298:12307   */\n      dup10\n        /* \"#utility.yul\":12294:12316   */\n      add\n        /* \"#utility.yul\":12248:12326   */\n      tag_361\n      jump\t// in\n    tag_538:\n        /* \"#utility.yul\":12238:12326   */\n      swap4\n      pop\n        /* \"#utility.yul\":12033:12336   */\n      pop\n        /* \"#utility.yul\":12403:12405   */\n      0x60\n        /* \"#utility.yul\":12392:12401   */\n      dup7\n        /* \"#utility.yul\":12388:12406   */\n      add\n        /* \"#utility.yul\":12375:12407   */\n      calldataload\n        /* \"#utility.yul\":12434:12452   */\n      0xffffffffffffffff\n        /* \"#utility.yul\":12426:12432   */\n      dup2\n        /* \"#utility.yul\":12423:12453   */\n      gt\n        /* \"#utility.yul\":12420:12537   */\n      iszero\n      tag_539\n      jumpi\n        /* \"#utility.yul\":12456:12535   */\n      tag_540\n      tag_331\n      jump\t// in\n    tag_540:\n        /* \"#utility.yul\":12420:12537   */\n    tag_539:\n        /* \"#utility.yul\":12561:12639   */\n      tag_541\n        /* \"#utility.yul\":12631:12638   */\n      dup9\n        /* \"#utility.yul\":12622:12628   */\n      dup3\n        /* \"#utility.yul\":12611:12620   */\n      dup10\n        /* \"#utility.yul\":12607:12629   */\n      add\n        /* \"#utility.yul\":12561:12639   */\n      tag_361\n      jump\t// in\n    tag_541:\n        /* \"#utility.yul\":12551:12639   */\n      swap3\n      pop\n        /* \"#utility.yul\":12346:12649   */\n      pop\n        /* \"#utility.yul\":12716:12719   */\n      0x80\n        /* \"#utility.yul\":12705:12714   */\n      dup7\n        /* \"#utility.yul\":12701:12720   */\n      add\n        /* \"#utility.yul\":12688:12721   */\n      calldataload\n        /* \"#utility.yul\":12748:12766   */\n      0xffffffffffffffff\n        /* \"#utility.yul\":12740:12746   */\n      dup2\n        /* \"#utility.yul\":12737:12767   */\n      gt\n        /* \"#utility.yul\":12734:12851   */\n      iszero\n      tag_542\n      jumpi\n        /* \"#utility.yul\":12770:12849   */\n      tag_543\n      tag_331\n      jump\t// in\n    tag_543:\n        /* \"#utility.yul\":12734:12851   */\n    tag_542:\n        /* \"#utility.yul\":12875:12937   */\n      tag_544\n        /* \"#utility.yul\":12929:12936   */\n      dup9\n        /* \"#utility.yul\":12920:12926   */\n      dup3\n        /* \"#utility.yul\":12909:12918   */\n      dup10\n        /* \"#utility.yul\":12905:12927   */\n      add\n        /* \"#utility.yul\":12875:12937   */\n      tag_364\n      jump\t// in\n    tag_544:\n        /* \"#utility.yul\":12865:12937   */\n      swap2\n      pop\n        /* \"#utility.yul\":12659:12947   */\n      pop\n        /* \"#utility.yul\":11445:12954   */\n      swap3\n      swap6\n      pop\n      swap3\n      swap6\n      swap1\n      swap4\n      pop\n      jump\t// out\n        /* \"#utility.yul\":12960:13271   */\n    tag_365:\n        /* \"#utility.yul\":13037:13041   */\n      0x00\n        /* \"#utility.yul\":13127:13145   */\n      0xffffffffffffffff\n        /* \"#utility.yul\":13119:13125   */\n      dup3\n        /* \"#utility.yul\":13116:13146   */\n      gt\n        /* \"#utility.yul\":13113:13169   */\n      iszero\n      tag_546\n      jumpi\n        /* \"#utility.yul\":13149:13167   */\n      tag_547\n      tag_138\n      jump\t// in\n    tag_547:\n        /* \"#utility.yul\":13113:13169   */\n    tag_546:\n        /* \"#utility.yul\":13199:13203   */\n      0x20\n        /* \"#utility.yul\":13191:13197   */\n      dup3\n        /* \"#utility.yul\":13187:13204   */\n      mul\n        /* \"#utility.yul\":13179:13204   */\n      swap1\n      pop\n        /* \"#utility.yul\":13259:13263   */\n      0x20\n        /* \"#utility.yul\":13253:13257   */\n      dup2\n        /* \"#utility.yul\":13249:13264   */\n      add\n        /* \"#utility.yul\":13241:13264   */\n      swap1\n      pop\n        /* \"#utility.yul\":12960:13271   */\n      swap2\n      swap1\n      pop\n      jump\t// out\n        /* \"#utility.yul\":13294:14004   */\n    tag_366:\n        /* \"#utility.yul\":13390:13395   */\n      0x00\n        /* \"#utility.yul\":13415:13496   */\n      tag_549\n        /* \"#utility.yul\":13431:13495   */\n      tag_550\n        /* \"#utility.yul\":13488:13494   */\n      dup5\n        /* \"#utility.yul\":13431:13495   */\n      tag_365\n      jump\t// in\n    tag_550:\n        /* \"#utility.yul\":13415:13496   */\n      tag_349\n      jump\t// in\n    tag_549:\n        /* \"#utility.yul\":13406:13496   */\n      swap1\n      pop\n        /* \"#utility.yul\":13516:13521   */\n      dup1\n        /* \"#utility.yul\":13545:13551   */\n      dup4\n        /* \"#utility.yul\":13538:13543   */\n      dup3\n        /* \"#utility.yul\":13531:13552   */\n      mstore\n        /* \"#utility.yul\":13579:13583   */\n      0x20\n        /* \"#utility.yul\":13572:13577   */\n      dup3\n        /* \"#utility.yul\":13568:13584   */\n      add\n        /* \"#utility.yul\":13561:13584   */\n      swap1\n      pop\n        /* \"#utility.yul\":13632:13636   */\n      0x20\n        /* \"#utility.yul\":13624:13630   */\n      dup5\n        /* \"#utility.yul\":13620:13637   */\n      mul\n        /* \"#utility.yul\":13612:13618   */\n      dup4\n        /* \"#utility.yul\":13608:13638   */\n      add\n        /* \"#utility.yul\":13661:13664   */\n      dup6\n        /* \"#utility.yul\":13653:13659   */\n      dup2\n        /* \"#utility.yul\":13650:13665   */\n      gt\n        /* \"#utility.yul\":13647:13769   */\n      iszero\n      tag_551\n      jumpi\n        /* \"#utility.yul\":13680:13759   */\n      tag_552\n      tag_359\n      jump\t// in\n    tag_552:\n        /* \"#utility.yul\":13647:13769   */\n    tag_551:\n        /* \"#utility.yul\":13795:13801   */\n      dup4\n        /* \"#utility.yul\":13778:13998   */\n    tag_553:\n        /* \"#utility.yul\":13812:13818   */\n      dup2\n        /* \"#utility.yul\":13807:13810   */\n      dup2\n        /* \"#utility.yul\":13804:13819   */\n      lt\n        /* \"#utility.yul\":13778:13998   */\n      iszero\n      tag_555\n      jumpi\n        /* \"#utility.yul\":13887:13890   */\n      dup1\n        /* \"#utility.yul\":13916:13953   */\n      tag_556\n        /* \"#utility.yul\":13949:13952   */\n      dup9\n        /* \"#utility.yul\":13937:13947   */\n      dup3\n        /* \"#utility.yul\":13916:13953   */\n      tag_335\n      jump\t// in\n    tag_556:\n        /* \"#utility.yul\":13911:13914   */\n      dup5\n        /* \"#utility.yul\":13904:13954   */\n      mstore\n        /* \"#utility.yul\":13983:13987   */\n      0x20\n        /* \"#utility.yul\":13978:13981   */\n      dup5\n        /* \"#utility.yul\":13974:13988   */\n      add\n        /* \"#utility.yul\":13967:13988   */\n      swap4\n      pop\n        /* \"#utility.yul\":13854:13998   */\n      pop\n        /* \"#utility.yul\":13838:13842   */\n      0x20\n        /* \"#utility.yul\":13833:13836   */\n      dup2\n        /* \"#utility.yul\":13829:13843   */\n      add\n        /* \"#utility.yul\":13822:13843   */\n      swap1\n      pop\n        /* \"#utility.yul\":13778:13998   */\n      jump(tag_553)\n    tag_555:\n        /* \"#utility.yul\":13782:13803   */\n      pop\n        /* \"#utility.yul\":13396:14004   */\n      pop\n      pop\n        /* \"#utility.yul\":13294:14004   */\n      swap4\n      swap3\n      pop\n      pop\n      pop\n      jump\t// out\n        /* \"#utility.yul\":14027:14397   */\n    tag_367:\n        /* \"#utility.yul\":14098:14103   */\n      0x00\n        /* \"#utility.yul\":14147:14150   */\n      dup3\n        /* \"#utility.yul\":14140:14144   */\n      0x1f\n        /* \"#utility.yul\":14132:14138   */\n      dup4\n        /* \"#utility.yul\":14128:14145   */\n      add\n        /* \"#utility.yul\":14124:14151   */\n      slt\n        /* \"#utility.yul\":14114:14236   */\n      tag_558\n      jumpi\n        /* \"#utility.yul\":14155:14234   */\n      tag_559\n      tag_345\n      jump\t// in\n    tag_559:\n        /* \"#utility.yul\":14114:14236   */\n    tag_558:\n        /* \"#utility.yul\":14272:14278   */\n      dup2\n        /* \"#utility.yul\":14259:14279   */\n      calldataload\n        /* \"#utility.yul\":14297:14391   */\n      tag_560\n        /* \"#utility.yul\":14387:14390   */\n      dup5\n        /* \"#utility.yul\":14379:14385   */\n      dup3\n        /* \"#utility.yul\":14372:14376   */\n      0x20\n        /* \"#utility.yul\":14364:14370   */\n      dup7\n        /* \"#utility.yul\":14360:14377   */\n      add\n        /* \"#utility.yul\":14297:14391   */\n      tag_366\n      jump\t// in\n    tag_560:\n        /* \"#utility.yul\":14288:14391   */\n      swap2\n      pop\n        /* \"#utility.yul\":14104:14397   */\n      pop\n        /* \"#utility.yul\":14027:14397   */\n      swap3\n      swap2\n      pop\n      pop\n      jump\t// out\n        /* \"#utility.yul\":14403:15297   */\n    tag_57:\n        /* \"#utility.yul\":14521:14527   */\n      0x00\n        /* \"#utility.yul\":14529:14535   */\n      dup1\n        /* \"#utility.yul\":14578:14580   */\n      0x40\n        /* \"#utility.yul\":14566:14575   */\n      dup4\n        /* \"#utility.yul\":14557:14564   */\n      dup6\n        /* \"#utility.yul\":14553:14576   */\n      sub\n        /* \"#utility.yul\":14549:14581   */\n      slt\n        /* \"#utility.yul\":14546:14665   */\n      iszero\n      tag_562\n      jumpi\n        /* \"#utility.yul\":14584:14663   */\n      tag_563\n      tag_330\n      jump\t// in\n    tag_563:\n        /* \"#utility.yul\":14546:14665   */\n    tag_562:\n        /* \"#utility.yul\":14732:14733   */\n      0x00\n        /* \"#utility.yul\":14721:14730   */\n      dup4\n        /* \"#utility.yul\":14717:14734   */\n      add\n        /* \"#utility.yul\":14704:14735   */\n      calldataload\n        /* \"#utility.yul\":14762:14780   */\n      0xffffffffffffffff\n        /* \"#utility.yul\":14754:14760   */\n      dup2\n        /* \"#utility.yul\":14751:14781   */\n      gt\n        /* \"#utility.yul\":14748:14865   */\n      iszero\n      tag_564\n      jumpi\n        /* \"#utility.yul\":14784:14863   */\n      tag_565\n      tag_331\n      jump\t// in\n    tag_565:\n        /* \"#utility.yul\":14748:14865   */\n    tag_564:\n        /* \"#utility.yul\":14889:14967   */\n      tag_566\n        /* \"#utility.yul\":14959:14966   */\n      dup6\n        /* \"#utility.yul\":14950:14956   */\n      dup3\n        /* \"#utility.yul\":14939:14948   */\n      dup7\n        /* \"#utility.yul\":14935:14957   */\n      add\n        /* \"#utility.yul\":14889:14967   */\n      tag_367\n      jump\t// in\n    tag_566:\n        /* \"#utility.yul\":14879:14967   */\n      swap3\n      pop\n        /* \"#utility.yul\":14675:14977   */\n      pop\n        /* \"#utility.yul\":15044:15046   */\n      0x20\n        /* \"#utility.yul\":15033:15042   */\n      dup4\n        /* \"#utility.yul\":15029:15047   */\n      add\n        /* \"#utility.yul\":15016:15048   */\n      calldataload\n        /* \"#utility.yul\":15075:15093   */\n      0xffffffffffffffff\n        /* \"#utility.yul\":15067:15073   */\n      dup2\n        /* \"#utility.yul\":15064:15094   */\n      gt\n        /* \"#utility.yul\":15061:15178   */\n      iszero\n      tag_567\n      jumpi\n        /* \"#utility.yul\":15097:15176   */\n      tag_568\n      tag_331\n      jump\t// in\n    tag_568:\n        /* \"#utility.yul\":15061:15178   */\n    tag_567:\n        /* \"#utility.yul\":15202:15280   */\n      tag_569\n        /* \"#utility.yul\":15272:15279   */\n      dup6\n        /* \"#utility.yul\":15263:15269   */\n      dup3\n        /* \"#utility.yul\":15252:15261   */\n      dup7\n        /* \"#utility.yul\":15248:15270   */\n      add\n        /* \"#utility.yul\":15202:15280   */\n      tag_361\n      jump\t// in\n    tag_569:\n        /* \"#utility.yul\":15192:15280   */\n      swap2\n      pop\n        /* \"#utility.yul\":14987:15290   */\n      pop\n        /* \"#utility.yul\":14403:15297   */\n      swap3\n      pop\n      swap3\n      swap1\n      pop\n      jump\t// out\n        /* \"#utility.yul\":15303:15417   */\n    tag_368:\n        /* \"#utility.yul\":15370:15376   */\n      0x00\n        /* \"#utility.yul\":15404:15409   */\n      dup2\n        /* \"#utility.yul\":15398:15410   */\n      mload\n        /* \"#utility.yul\":15388:15410   */\n      swap1\n      pop\n        /* \"#utility.yul\":15303:15417   */\n      swap2\n      swap1\n      pop\n      jump\t// out\n        /* \"#utility.yul\":15423:15607   */\n    tag_369:\n        /* \"#utility.yul\":15522:15533   */\n      0x00\n        /* \"#utility.yul\":15556:15562   */\n      dup3\n        /* \"#utility.yul\":15551:15554   */\n      dup3\n        /* \"#utility.yul\":15544:15563   */\n      mstore\n        /* \"#utility.yul\":15596:15600   */\n      0x20\n        /* \"#utility.yul\":15591:15594   */\n      dup3\n        /* \"#utility.yul\":15587:15601   */\n      add\n        /* \"#utility.yul\":15572:15601   */\n      swap1\n      pop\n        /* \"#utility.yul\":15423:15607   */\n      swap3\n      swap2\n      pop\n      pop\n      jump\t// out\n        /* \"#utility.yul\":15613:15745   */\n    tag_370:\n        /* \"#utility.yul\":15680:15684   */\n      0x00\n        /* \"#utility.yul\":15703:15706   */\n      dup2\n        /* \"#utility.yul\":15695:15706   */\n      swap1\n      pop\n        /* \"#utility.yul\":15733:15737   */\n      0x20\n        /* \"#utility.yul\":15728:15731   */\n      dup3\n        /* \"#utility.yul\":15724:15738   */\n      add\n        /* \"#utility.yul\":15716:15738   */\n      swap1\n      pop\n        /* \"#utility.yul\":15613:15745   */\n      swap2\n      swap1\n      pop\n      jump\t// out\n        /* \"#utility.yul\":15751:15859   */\n    tag_371:\n        /* \"#utility.yul\":15828:15852   */\n      tag_574\n        /* \"#utility.yul\":15846:15851   */\n      dup2\n        /* \"#utility.yul\":15828:15852   */\n      tag_336\n      jump\t// in\n    tag_574:\n        /* \"#utility.yul\":15823:15826   */\n      dup3\n        /* \"#utility.yul\":15816:15853   */\n      mstore\n        /* \"#utility.yul\":15751:15859   */\n      pop\n      pop\n      jump\t// out\n        /* \"#utility.yul\":15865:16044   */\n    tag_372:\n        /* \"#utility.yul\":15934:15944   */\n      0x00\n        /* \"#utility.yul\":15955:16001   */\n      tag_576\n        /* \"#utility.yul\":15997:16000   */\n      dup4\n        /* \"#utility.yul\":15989:15995   */\n      dup4\n        /* \"#utility.yul\":15955:16001   */\n      tag_371\n      jump\t// in\n    tag_576:\n        /* \"#utility.yul\":16033:16037   */\n      0x20\n        /* \"#utility.yul\":16028:16031   */\n      dup4\n        /* \"#utility.yul\":16024:16038   */\n      add\n        /* \"#utility.yul\":16010:16038   */\n      swap1\n      pop\n        /* \"#utility.yul\":15865:16044   */\n      swap3\n      swap2\n      pop\n      pop\n      jump\t// out\n        /* \"#utility.yul\":16050:16163   */\n    tag_373:\n        /* \"#utility.yul\":16120:16124   */\n      0x00\n        /* \"#utility.yul\":16152:16156   */\n      0x20\n        /* \"#utility.yul\":16147:16150   */\n      dup3\n        /* \"#utility.yul\":16143:16157   */\n      add\n        /* \"#utility.yul\":16135:16157   */\n      swap1\n      pop\n        /* \"#utility.yul\":16050:16163   */\n      swap2\n      swap1\n      pop\n      jump\t// out\n        /* \"#utility.yul\":16199:16931   */\n    tag_374:\n        /* \"#utility.yul\":16318:16321   */\n      0x00\n        /* \"#utility.yul\":16347:16401   */\n      tag_579\n        /* \"#utility.yul\":16395:16400   */\n      dup3\n        /* \"#utility.yul\":16347:16401   */\n      tag_368\n      jump\t// in\n    tag_579:\n        /* \"#utility.yul\":16417:16503   */\n      tag_580\n        /* \"#utility.yul\":16496:16502   */\n      dup2\n        /* \"#utility.yul\":16491:16494   */\n      dup6\n        /* \"#utility.yul\":16417:16503   */\n      tag_369\n      jump\t// in\n    tag_580:\n        /* \"#utility.yul\":16410:16503   */\n      swap4\n      pop\n        /* \"#utility.yul\":16527:16583   */\n      tag_581\n        /* \"#utility.yul\":16577:16582   */\n      dup4\n        /* \"#utility.yul\":16527:16583   */\n      tag_370\n      jump\t// in\n    tag_581:\n        /* \"#utility.yul\":16606:16613   */\n      dup1\n        /* \"#utility.yul\":16637:16638   */\n      0x00\n        /* \"#utility.yul\":16622:16906   */\n    tag_582:\n        /* \"#utility.yul\":16647:16653   */\n      dup4\n        /* \"#utility.yul\":16644:16645   */\n      dup2\n        /* \"#utility.yul\":16641:16654   */\n      lt\n        /* \"#utility.yul\":16622:16906   */\n      iszero\n      tag_584\n      jumpi\n        /* \"#utility.yul\":16723:16729   */\n      dup2\n        /* \"#utility.yul\":16717:16730   */\n      mload\n        /* \"#utility.yul\":16750:16813   */\n      tag_585\n        /* \"#utility.yul\":16809:16812   */\n      dup9\n        /* \"#utility.yul\":16794:16807   */\n      dup3\n        /* \"#utility.yul\":16750:16813   */\n      tag_372\n      jump\t// in\n    tag_585:\n        /* \"#utility.yul\":16743:16813   */\n      swap8\n      pop\n        /* \"#utility.yul\":16836:16896   */\n      tag_586\n        /* \"#utility.yul\":16889:16895   */\n      dup4\n        /* \"#utility.yul\":16836:16896   */\n      tag_373\n      jump\t// in\n    tag_586:\n        /* \"#utility.yul\":16826:16896   */\n      swap3\n      pop\n        /* \"#utility.yul\":16682:16906   */\n      pop\n        /* \"#utility.yul\":16669:16670   */\n      0x01\n        /* \"#utility.yul\":16666:16667   */\n      dup2\n        /* \"#utility.yul\":16662:16671   */\n      add\n        /* \"#utility.yul\":16657:16671   */\n      swap1\n      pop\n        /* \"#utility.yul\":16622:16906   */\n      jump(tag_582)\n    tag_584:\n        /* \"#utility.yul\":16626:16640   */\n      pop\n        /* \"#utility.yul\":16922:16925   */\n      dup6\n        /* \"#utility.yul\":16915:16925   */\n      swap4\n      pop\n        /* \"#utility.yul\":16323:16931   */\n      pop\n      pop\n      pop\n        /* \"#utility.yul\":16199:16931   */\n      swap3\n      swap2\n      pop\n      pop\n      jump\t// out\n        /* \"#utility.yul\":16937:17310   */\n    tag_60:\n        /* \"#utility.yul\":17080:17084   */\n      0x00\n        /* \"#utility.yul\":17118:17120   */\n      0x20\n        /* \"#utility.yul\":17107:17116   */\n      dup3\n        /* \"#utility.yul\":17103:17121   */\n      add\n        /* \"#utility.yul\":17095:17121   */\n      swap1\n      pop\n        /* \"#utility.yul\":17167:17176   */\n      dup2\n        /* \"#utility.yul\":17161:17165   */\n      dup2\n        /* \"#utility.yul\":17157:17177   */\n      sub\n        /* \"#utility.yul\":17153:17154   */\n      0x00\n        /* \"#utility.yul\":17142:17151   */\n      dup4\n        /* \"#utility.yul\":17138:17155   */\n      add\n        /* \"#utility.yul\":17131:17178   */\n      mstore\n        /* \"#utility.yul\":17195:17303   */\n      tag_588\n        /* \"#utility.yul\":17298:17302   */\n      dup2\n        /* \"#utility.yul\":17289:17295   */\n      dup5\n        /* \"#utility.yul\":17195:17303   */\n      tag_374\n      jump\t// in\n    tag_588:\n        /* \"#utility.yul\":17187:17303   */\n      swap1\n      pop\n        /* \"#utility.yul\":16937:17310   */\n      swap3\n      swap2\n      pop\n      pop\n      jump\t// out\n        /* \"#utility.yul\":17316:18259   */\n    tag_68:\n        /* \"#utility.yul\":17411:17417   */\n      0x00\n        /* \"#utility.yul\":17419:17425   */\n      dup1\n        /* \"#utility.yul\":17427:17433   */\n      0x00\n        /* \"#utility.yul\":17435:17441   */\n      dup1\n        /* \"#utility.yul\":17484:17487   */\n      0x80\n        /* \"#utility.yul\":17472:17481   */\n      dup6\n        /* \"#utility.yul\":17463:17470   */\n      dup8\n        /* \"#utility.yul\":17459:17482   */\n      sub\n        /* \"#utility.yul\":17455:17488   */\n      slt\n        /* \"#utility.yul\":17452:17572   */\n      iszero\n      tag_590\n      jumpi\n        /* \"#utility.yul\":17491:17570   */\n      tag_591\n      tag_330\n      jump\t// in\n    tag_591:\n        /* \"#utility.yul\":17452:17572   */\n    tag_590:\n        /* \"#utility.yul\":17611:17612   */\n      0x00\n        /* \"#utility.yul\":17636:17689   */\n      tag_592\n        /* \"#utility.yul\":17681:17688   */\n      dup8\n        /* \"#utility.yul\":17672:17678   */\n      dup3\n        /* \"#utility.yul\":17661:17670   */\n      dup9\n        /* \"#utility.yul\":17657:17679   */\n      add\n        /* \"#utility.yul\":17636:17689   */\n      tag_335\n      jump\t// in\n    tag_592:\n        /* \"#utility.yul\":17626:17689   */\n      swap5\n      pop\n        /* \"#utility.yul\":17582:17699   */\n      pop\n        /* \"#utility.yul\":17738:17740   */\n      0x20\n        /* \"#utility.yul\":17764:17817   */\n      tag_593\n        /* \"#utility.yul\":17809:17816   */\n      dup8\n        /* \"#utility.yul\":17800:17806   */\n      dup3\n        /* \"#utility.yul\":17789:17798   */\n      dup9\n        /* \"#utility.yul\":17785:17807   */\n      add\n        /* \"#utility.yul\":17764:17817   */\n      tag_338\n      jump\t// in\n    tag_593:\n        /* \"#utility.yul\":17754:17817   */\n      swap4\n      pop\n        /* \"#utility.yul\":17709:17827   */\n      pop\n        /* \"#utility.yul\":17866:17868   */\n      0x40\n        /* \"#utility.yul\":17892:17945   */\n      tag_594\n        /* \"#utility.yul\":17937:17944   */\n      dup8\n        /* \"#utility.yul\":17928:17934   */\n      dup3\n        /* \"#utility.yul\":17917:17926   */\n      dup9\n        /* \"#utility.yul\":17913:17935   */\n      add\n        /* \"#utility.yul\":17892:17945   */\n      tag_338\n      jump\t// in\n    tag_594:\n        /* \"#utility.yul\":17882:17945   */\n      swap3\n      pop\n        /* \"#utility.yul\":17837:17955   */\n      pop\n        /* \"#utility.yul\":18022:18024   */\n      0x60\n        /* \"#utility.yul\":18011:18020   */\n      dup6\n        /* \"#utility.yul\":18007:18025   */\n      add\n        /* \"#utility.yul\":17994:18026   */\n      calldataload\n        /* \"#utility.yul\":18053:18071   */\n      0xffffffffffffffff\n        /* \"#utility.yul\":18045:18051   */\n      dup2\n        /* \"#utility.yul\":18042:18072   */\n      gt\n        /* \"#utility.yul\":18039:18156   */\n      iszero\n      tag_595\n      jumpi\n        /* \"#utility.yul\":18075:18154   */\n      tag_596\n      tag_331\n      jump\t// in\n    tag_596:\n        /* \"#utility.yul\":18039:18156   */\n    tag_595:\n        /* \"#utility.yul\":18180:18242   */\n      tag_597\n        /* \"#utility.yul\":18234:18241   */\n      dup8\n        /* \"#utility.yul\":18225:18231   */\n      dup3\n        /* \"#utility.yul\":18214:18223   */\n      dup9\n        /* \"#utility.yul\":18210:18232   */\n      add\n        /* \"#utility.yul\":18180:18242   */\n      tag_364\n      jump\t// in\n    tag_597:\n        /* \"#utility.yul\":18170:18242   */\n      swap2\n      pop\n        /* \"#utility.yul\":17965:18252   */\n      pop\n        /* \"#utility.yul\":17316:18259   */\n      swap3\n      swap6\n      swap2\n      swap5\n      pop\n      swap3\n      pop\n      jump\t// out\n        /* \"#utility.yul\":18265:18383   */\n    tag_375:\n        /* \"#utility.yul\":18352:18376   */\n      tag_599\n        /* \"#utility.yul\":18370:18375   */\n      dup2\n        /* \"#utility.yul\":18352:18376   */\n      tag_333\n      jump\t// in\n    tag_599:\n        /* \"#utility.yul\":18347:18350   */\n      dup3\n        /* \"#utility.yul\":18340:18377   */\n      mstore\n        /* \"#utility.yul\":18265:18383   */\n      pop\n      pop\n      jump\t// out\n        /* \"#utility.yul\":18389:18611   */\n    tag_75:\n        /* \"#utility.yul\":18482:18486   */\n      0x00\n        /* \"#utility.yul\":18520:18522   */\n      0x20\n        /* \"#utility.yul\":18509:18518   */\n      dup3\n        /* \"#utility.yul\":18505:18523   */\n      add\n        /* \"#utility.yul\":18497:18523   */\n      swap1\n      pop\n        /* \"#utility.yul\":18533:18604   */\n      tag_601\n        /* \"#utility.yul\":18601:18602   */\n      0x00\n        /* \"#utility.yul\":18590:18599   */\n      dup4\n        /* \"#utility.yul\":18586:18603   */\n      add\n        /* \"#utility.yul\":18577:18583   */\n      dup5\n        /* \"#utility.yul\":18533:18604   */\n      tag_375\n      jump\t// in\n    tag_601:\n        /* \"#utility.yul\":18389:18611   */\n      swap3\n      swap2\n      pop\n      pop\n      jump\t// out\n        /* \"#utility.yul\":18617:18733   */\n    tag_376:\n        /* \"#utility.yul\":18687:18708   */\n      tag_603\n        /* \"#utility.yul\":18702:18707   */\n      dup2\n        /* \"#utility.yul\":18687:18708   */\n      tag_343\n      jump\t// in\n    tag_603:\n        /* \"#utility.yul\":18680:18685   */\n      dup2\n        /* \"#utility.yul\":18677:18709   */\n      eq\n        /* \"#utility.yul\":18667:18727   */\n      tag_604\n      jumpi\n        /* \"#utility.yul\":18723:18724   */\n      0x00\n        /* \"#utility.yul\":18720:18721   */\n      dup1\n        /* \"#utility.yul\":18713:18725   */\n      revert\n        /* \"#utility.yul\":18667:18727   */\n    tag_604:\n        /* \"#utility.yul\":18617:18733   */\n      pop\n      jump\t// out\n        /* \"#utility.yul\":18739:18872   */\n    tag_377:\n        /* \"#utility.yul\":18782:18787   */\n      0x00\n        /* \"#utility.yul\":18820:18826   */\n      dup2\n        /* \"#utility.yul\":18807:18827   */\n      calldataload\n        /* \"#utility.yul\":18798:18827   */\n      swap1\n      pop\n        /* \"#utility.yul\":18836:18866   */\n      tag_606\n        /* \"#utility.yul\":18860:18865   */\n      dup2\n        /* \"#utility.yul\":18836:18866   */\n      tag_376\n      jump\t// in\n    tag_606:\n        /* \"#utility.yul\":18739:18872   */\n      swap3\n      swap2\n      pop\n      pop\n      jump\t// out\n        /* \"#utility.yul\":18878:19346   */\n    tag_78:\n        /* \"#utility.yul\":18943:18949   */\n      0x00\n        /* \"#utility.yul\":18951:18957   */\n      dup1\n        /* \"#utility.yul\":19000:19002   */\n      0x40\n        /* \"#utility.yul\":18988:18997   */\n      dup4\n        /* \"#utility.yul\":18979:18986   */\n      dup6\n        /* \"#utility.yul\":18975:18998   */\n      sub\n        /* \"#utility.yul\":18971:19003   */\n      slt\n        /* \"#utility.yul\":18968:19087   */\n      iszero\n      tag_608\n      jumpi\n        /* \"#utility.yul\":19006:19085   */\n      tag_609\n      tag_330\n      jump\t// in\n    tag_609:\n        /* \"#utility.yul\":18968:19087   */\n    tag_608:\n        /* \"#utility.yul\":19126:19127   */\n      0x00\n        /* \"#utility.yul\":19151:19204   */\n      tag_610\n        /* \"#utility.yul\":19196:19203   */\n      dup6\n        /* \"#utility.yul\":19187:19193   */\n      dup3\n        /* \"#utility.yul\":19176:19185   */\n      dup7\n        /* \"#utility.yul\":19172:19194   */\n      add\n        /* \"#utility.yul\":19151:19204   */\n      tag_335\n      jump\t// in\n    tag_610:\n        /* \"#utility.yul\":19141:19204   */\n      swap3\n      pop\n        /* \"#utility.yul\":19097:19214   */\n      pop\n        /* \"#utility.yul\":19253:19255   */\n      0x20\n        /* \"#utility.yul\":19279:19329   */\n      tag_611\n        /* \"#utility.yul\":19321:19328   */\n      dup6\n        /* \"#utility.yul\":19312:19318   */\n      dup3\n        /* \"#utility.yul\":19301:19310   */\n      dup7\n        /* \"#utility.yul\":19297:19319   */\n      add\n        /* \"#utility.yul\":19279:19329   */\n      tag_377\n      jump\t// in\n    tag_611:\n        /* \"#utility.yul\":19269:19329   */\n      swap2\n      pop\n        /* \"#utility.yul\":19224:19339   */\n      pop\n        /* \"#utility.yul\":18878:19346   */\n      swap3\n      pop\n      swap3\n      swap1\n      pop\n      jump\t// out\n        /* \"#utility.yul\":19352:19826   */\n    tag_82:\n        /* \"#utility.yul\":19420:19426   */\n      0x00\n        /* \"#utility.yul\":19428:19434   */\n      dup1\n        /* \"#utility.yul\":19477:19479   */\n      0x40\n        /* \"#utility.yul\":19465:19474   */\n      dup4\n        /* \"#utility.yul\":19456:19463   */\n      dup6\n        /* \"#utility.yul\":19452:19475   */\n      sub\n        /* \"#utility.yul\":19448:19480   */\n      slt\n        /* \"#utility.yul\":19445:19564   */\n      iszero\n      tag_613\n      jumpi\n        /* \"#utility.yul\":19483:19562   */\n      tag_614\n      tag_330\n      jump\t// in\n    tag_614:\n        /* \"#utility.yul\":19445:19564   */\n    tag_613:\n        /* \"#utility.yul\":19603:19604   */\n      0x00\n        /* \"#utility.yul\":19628:19681   */\n      tag_615\n        /* \"#utility.yul\":19673:19680   */\n      dup6\n        /* \"#utility.yul\":19664:19670   */\n      dup3\n        /* \"#utility.yul\":19653:19662   */\n      dup7\n        /* \"#utility.yul\":19649:19671   */\n      add\n        /* \"#utility.yul\":19628:19681   */\n      tag_335\n      jump\t// in\n    tag_615:\n        /* \"#utility.yul\":19618:19681   */\n      swap3\n      pop\n        /* \"#utility.yul\":19574:19691   */\n      pop\n        /* \"#utility.yul\":19730:19732   */\n      0x20\n        /* \"#utility.yul\":19756:19809   */\n      tag_616\n        /* \"#utility.yul\":19801:19808   */\n      dup6\n        /* \"#utility.yul\":19792:19798   */\n      dup3\n        /* \"#utility.yul\":19781:19790   */\n      dup7\n        /* \"#utility.yul\":19777:19799   */\n      add\n        /* \"#utility.yul\":19756:19809   */\n      tag_335\n      jump\t// in\n    tag_616:\n        /* \"#utility.yul\":19746:19809   */\n      swap2\n      pop\n        /* \"#utility.yul\":19701:19819   */\n      pop\n        /* \"#utility.yul\":19352:19826   */\n      swap3\n      pop\n      swap3\n      swap1\n      pop\n      jump\t// out\n        /* \"#utility.yul\":19832:20921   */\n    tag_87:\n        /* \"#utility.yul\":19936:19942   */\n      0x00\n        /* \"#utility.yul\":19944:19950   */\n      dup1\n        /* \"#utility.yul\":19952:19958   */\n      0x00\n        /* \"#utility.yul\":19960:19966   */\n      dup1\n        /* \"#utility.yul\":19968:19974   */\n      0x00\n        /* \"#utility.yul\":20017:20020   */\n      0xa0\n        /* \"#utility.yul\":20005:20014   */\n      dup7\n        /* \"#utility.yul\":19996:20003   */\n      dup9\n        /* \"#utility.yul\":19992:20015   */\n      sub\n        /* \"#utility.yul\":19988:20021   */\n      slt\n        /* \"#utility.yul\":19985:20105   */\n      iszero\n      tag_618\n      jumpi\n        /* \"#utility.yul\":20024:20103   */\n      tag_619\n      tag_330\n      jump\t// in\n    tag_619:\n        /* \"#utility.yul\":19985:20105   */\n    tag_618:\n        /* \"#utility.yul\":20144:20145   */\n      0x00\n        /* \"#utility.yul\":20169:20222   */\n      tag_620\n        /* \"#utility.yul\":20214:20221   */\n      dup9\n        /* \"#utility.yul\":20205:20211   */\n      dup3\n        /* \"#utility.yul\":20194:20203   */\n      dup10\n        /* \"#utility.yul\":20190:20212   */\n      add\n        /* \"#utility.yul\":20169:20222   */\n      tag_335\n      jump\t// in\n    tag_620:\n        /* \"#utility.yul\":20159:20222   */\n      swap6\n      pop\n        /* \"#utility.yul\":20115:20232   */\n      pop\n        /* \"#utility.yul\":20271:20273   */\n      0x20\n        /* \"#utility.yul\":20297:20350   */\n      tag_621\n        /* \"#utility.yul\":20342:20349   */\n      dup9\n        /* \"#utility.yul\":20333:20339   */\n      dup3\n        /* \"#utility.yul\":20322:20331   */\n      dup10\n        /* \"#utility.yul\":20318:20340   */\n      add\n        /* \"#utility.yul\":20297:20350   */\n      tag_335\n      jump\t// in\n    tag_621:\n        /* \"#utility.yul\":20287:20350   */\n      swap5\n      pop\n        /* \"#utility.yul\":20242:20360   */\n      pop\n        /* \"#utility.yul\":20399:20401   */\n      0x40\n        /* \"#utility.yul\":20425:20478   */\n      tag_622\n        /* \"#utility.yul\":20470:20477   */\n      dup9\n        /* \"#utility.yul\":20461:20467   */\n      dup3\n        /* \"#utility.yul\":20450:20459   */\n      dup10\n        /* \"#utility.yul\":20446:20468   */\n      add\n        /* \"#utility.yul\":20425:20478   */\n      tag_338\n      jump\t// in\n    tag_622:\n        /* \"#utility.yul\":20415:20478   */\n      swap4\n      pop\n        /* \"#utility.yul\":20370:20488   */\n      pop\n        /* \"#utility.yul\":20527:20529   */\n      0x60\n        /* \"#utility.yul\":20553:20606   */\n      tag_623\n        /* \"#utility.yul\":20598:20605   */\n      dup9\n        /* \"#utility.yul\":20589:20595   */\n      dup3\n        /* \"#utility.yul\":20578:20587   */\n      dup10\n        /* \"#utility.yul\":20574:20596   */\n      add\n        /* \"#utility.yul\":20553:20606   */\n      tag_338\n      jump\t// in\n    tag_623:\n        /* \"#utility.yul\":20543:20606   */\n      swap3\n      pop\n        /* \"#utility.yul\":20498:20616   */\n      pop\n        /* \"#utility.yul\":20683:20686   */\n      0x80\n        /* \"#utility.yul\":20672:20681   */\n      dup7\n        /* \"#utility.yul\":20668:20687   */\n      add\n        /* \"#utility.yul\":20655:20688   */\n      calldataload\n        /* \"#utility.yul\":20715:20733   */\n      0xffffffffffffffff\n        /* \"#utility.yul\":20707:20713   */\n      dup2\n        /* \"#utility.yul\":20704:20734   */\n      gt\n        /* \"#utility.yul\":20701:20818   */\n      iszero\n      tag_624\n      jumpi\n        /* \"#utility.yul\":20737:20816   */\n      tag_625\n      tag_331\n      jump\t// in\n    tag_625:\n        /* \"#utility.yul\":20701:20818   */\n    tag_624:\n        /* \"#utility.yul\":20842:20904   */\n      tag_626\n        /* \"#utility.yul\":20896:20903   */\n      dup9\n        /* \"#utility.yul\":20887:20893   */\n      dup3\n        /* \"#utility.yul\":20876:20885   */\n      dup10\n        /* \"#utility.yul\":20872:20894   */\n      add\n        /* \"#utility.yul\":20842:20904   */\n      tag_364\n      jump\t// in\n    tag_626:\n        /* \"#utility.yul\":20832:20904   */\n      swap2\n      pop\n        /* \"#utility.yul\":20626:20914   */\n      pop\n        /* \"#utility.yul\":19832:20921   */\n      swap3\n      swap6\n      pop\n      swap3\n      swap6\n      swap1\n      swap4\n      pop\n      jump\t// out\n        /* \"#utility.yul\":20927:21256   */\n    tag_91:\n        /* \"#utility.yul\":20986:20992   */\n      0x00\n        /* \"#utility.yul\":21035:21037   */\n      0x20\n        /* \"#utility.yul\":21023:21032   */\n      dup3\n        /* \"#utility.yul\":21014:21021   */\n      dup5\n        /* \"#utility.yul\":21010:21033   */\n      sub\n        /* \"#utility.yul\":21006:21038   */\n      slt\n        /* \"#utility.yul\":21003:21122   */\n      iszero\n      tag_628\n      jumpi\n        /* \"#utility.yul\":21041:21120   */\n      tag_629\n      tag_330\n      jump\t// in\n    tag_629:\n        /* \"#utility.yul\":21003:21122   */\n    tag_628:\n        /* \"#utility.yul\":21161:21162   */\n      0x00\n        /* \"#utility.yul\":21186:21239   */\n      tag_630\n        /* \"#utility.yul\":21231:21238   */\n      dup5\n        /* \"#utility.yul\":21222:21228   */\n      dup3\n        /* \"#utility.yul\":21211:21220   */\n      dup6\n        /* \"#utility.yul\":21207:21229   */\n      add\n        /* \"#utility.yul\":21186:21239   */\n      tag_335\n      jump\t// in\n    tag_630:\n        /* \"#utility.yul\":21176:21239   */\n      swap2\n      pop\n        /* \"#utility.yul\":21132:21249   */\n      pop\n        /* \"#utility.yul\":20927:21256   */\n      swap3\n      swap2\n      pop\n      pop\n      jump\t// out\n        /* \"#utility.yul\":21262:21442   */\n    tag_378:\n        /* \"#utility.yul\":21310:21387   */\n      0x4e487b7100000000000000000000000000000000000000000000000000000000\n        /* \"#utility.yul\":21307:21308   */\n      0x00\n        /* \"#utility.yul\":21300:21388   */\n      mstore\n        /* \"#utility.yul\":21407:21411   */\n      0x22\n        /* \"#utility.yul\":21404:21405   */\n      0x04\n        /* \"#utility.yul\":21397:21412   */\n      mstore\n        /* \"#utility.yul\":21431:21435   */\n      0x24\n        /* \"#utility.yul\":21428:21429   */\n      0x00\n        /* \"#utility.yul\":21421:21436   */\n      revert\n        /* \"#utility.yul\":21448:21768   */\n    tag_107:\n        /* \"#utility.yul\":21492:21498   */\n      0x00\n        /* \"#utility.yul\":21529:21530   */\n      0x02\n        /* \"#utility.yul\":21523:21527   */\n      dup3\n        /* \"#utility.yul\":21519:21531   */\n      div\n        /* \"#utility.yul\":21509:21531   */\n      swap1\n      pop\n        /* \"#utility.yul\":21576:21577   */\n      0x01\n        /* \"#utility.yul\":21570:21574   */\n      dup3\n        /* \"#utility.yul\":21566:21578   */\n      and\n        /* \"#utility.yul\":21597:21615   */\n      dup1\n        /* \"#utility.yul\":21587:21668   */\n      tag_633\n      jumpi\n        /* \"#utility.yul\":21653:21657   */\n      0x7f\n        /* \"#utility.yul\":21645:21651   */\n      dup3\n        /* \"#utility.yul\":21641:21658   */\n      and\n        /* \"#utility.yul\":21631:21658   */\n      swap2\n      pop\n        /* \"#utility.yul\":21587:21668   */\n    tag_633:\n        /* \"#utility.yul\":21715:21717   */\n      0x20\n        /* \"#utility.yul\":21707:21713   */\n      dup3\n        /* \"#utility.yul\":21704:21718   */\n      lt\n        /* \"#utility.yul\":21684:21702   */\n      dup2\n        /* \"#utility.yul\":21681:21719   */\n      sub\n        /* \"#utility.yul\":21678:21762   */\n      tag_634\n      jumpi\n        /* \"#utility.yul\":21734:21752   */\n      tag_635\n      tag_378\n      jump\t// in\n    tag_635:\n        /* \"#utility.yul\":21678:21762   */\n    tag_634:\n        /* \"#utility.yul\":21499:21768   */\n      pop\n        /* \"#utility.yul\":21448:21768   */\n      swap2\n      swap1\n      pop\n      jump\t// out\n        /* \"#utility.yul\":21774:22106   */\n    tag_124:\n        /* \"#utility.yul\":21895:21899   */\n      0x00\n        /* \"#utility.yul\":21933:21935   */\n      0x40\n        /* \"#utility.yul\":21922:21931   */\n      dup3\n        /* \"#utility.yul\":21918:21936   */\n      add\n        /* \"#utility.yul\":21910:21936   */\n      swap1\n      pop\n        /* \"#utility.yul\":21946:22017   */\n      tag_637\n        /* \"#utility.yul\":22014:22015   */\n      0x00\n        /* \"#utility.yul\":22003:22012   */\n      dup4\n        /* \"#utility.yul\":21999:22016   */\n      add\n        /* \"#utility.yul\":21990:21996   */\n      dup6\n        /* \"#utility.yul\":21946:22017   */\n      tag_375\n      jump\t// in\n    tag_637:\n        /* \"#utility.yul\":22027:22099   */\n      tag_638\n        /* \"#utility.yul\":22095:22097   */\n      0x20\n        /* \"#utility.yul\":22084:22093   */\n      dup4\n        /* \"#utility.yul\":22080:22098   */\n      add\n        /* \"#utility.yul\":22071:22077   */\n      dup5\n        /* \"#utility.yul\":22027:22099   */\n      tag_375\n      jump\t// in\n    tag_638:\n        /* \"#utility.yul\":21774:22106   */\n      swap4\n      swap3\n      pop\n      pop\n      pop\n      jump\t// out\n        /* \"#utility.yul\":22112:22444   */\n    tag_135:\n        /* \"#utility.yul\":22233:22237   */\n      0x00\n        /* \"#utility.yul\":22271:22273   */\n      0x40\n        /* \"#utility.yul\":22260:22269   */\n      dup3\n        /* \"#utility.yul\":22256:22274   */\n      add\n        /* \"#utility.yul\":22248:22274   */\n      swap1\n      pop\n        /* \"#utility.yul\":22284:22355   */\n      tag_640\n        /* \"#utility.yul\":22352:22353   */\n      0x00\n        /* \"#utility.yul\":22341:22350   */\n      dup4\n        /* \"#utility.yul\":22337:22354   */\n      add\n        /* \"#utility.yul\":22328:22334   */\n      dup6\n        /* \"#utility.yul\":22284:22355   */\n      tag_339\n      jump\t// in\n    tag_640:\n        /* \"#utility.yul\":22365:22437   */\n      tag_641\n        /* \"#utility.yul\":22433:22435   */\n      0x20\n        /* \"#utility.yul\":22422:22431   */\n      dup4\n        /* \"#utility.yul\":22418:22436   */\n      add\n        /* \"#utility.yul\":22409:22415   */\n      dup5\n        /* \"#utility.yul\":22365:22437   */\n      tag_339\n      jump\t// in\n    tag_641:\n        /* \"#utility.yul\":22112:22444   */\n      swap4\n      swap3\n      pop\n      pop\n      pop\n      jump\t// out\n        /* \"#utility.yul\":22450:22630   */\n    tag_150:\n        /* \"#utility.yul\":22498:22575   */\n      0x4e487b7100000000000000000000000000000000000000000000000000000000\n        /* \"#utility.yul\":22495:22496   */\n      0x00\n        /* \"#utility.yul\":22488:22576   */\n      mstore\n        /* \"#utility.yul\":22595:22599   */\n      0x32\n        /* \"#utility.yul\":22592:22593   */\n      0x04\n        /* \"#utility.yul\":22585:22600   */\n      mstore\n        /* \"#utility.yul\":22619:22623   */\n      0x24\n        /* \"#utility.yul\":22616:22617   */\n      0x00\n        /* \"#utility.yul\":22609:22624   */\n      revert\n        /* \"#utility.yul\":22636:22777   */\n    tag_379:\n        /* \"#utility.yul\":22685:22689   */\n      0x00\n        /* \"#utility.yul\":22708:22711   */\n      dup2\n        /* \"#utility.yul\":22700:22711   */\n      swap1\n      pop\n        /* \"#utility.yul\":22731:22734   */\n      dup2\n        /* \"#utility.yul\":22728:22729   */\n      0x00\n        /* \"#utility.yul\":22721:22735   */\n      mstore\n        /* \"#utility.yul\":22765:22769   */\n      0x20\n        /* \"#utility.yul\":22762:22763   */\n      0x00\n        /* \"#utility.yul\":22752:22770   */\n      keccak256\n        /* \"#utility.yul\":22744:22770   */\n      swap1\n      pop\n        /* \"#utility.yul\":22636:22777   */\n      swap2\n      swap1\n      pop\n      jump\t// out\n        /* \"#utility.yul\":22783:22876   */\n    tag_380:\n        /* \"#utility.yul\":22820:22826   */\n      0x00\n        /* \"#utility.yul\":22867:22869   */\n      0x20\n        /* \"#utility.yul\":22862:22864   */\n      0x1f\n        /* \"#utility.yul\":22855:22860   */\n      dup4\n        /* \"#utility.yul\":22851:22865   */\n      add\n        /* \"#utility.yul\":22847:22870   */\n      div\n        /* \"#utility.yul\":22837:22870   */\n      swap1\n      pop\n        /* \"#utility.yul\":22783:22876   */\n      swap2\n      swap1\n      pop\n      jump\t// out\n        /* \"#utility.yul\":22882:22989   */\n    tag_381:\n        /* \"#utility.yul\":22926:22934   */\n      0x00\n        /* \"#utility.yul\":22976:22981   */\n      dup3\n        /* \"#utility.yul\":22970:22974   */\n      dup3\n        /* \"#utility.yul\":22966:22982   */\n      shl\n        /* \"#utility.yul\":22945:22982   */\n      swap1\n      pop\n        /* \"#utility.yul\":22882:22989   */\n      swap3\n      swap2\n      pop\n      pop\n      jump\t// out\n        /* \"#utility.yul\":22995:23388   */\n    tag_382:\n        /* \"#utility.yul\":23064:23070   */\n      0x00\n        /* \"#utility.yul\":23114:23115   */\n      0x08\n        /* \"#utility.yul\":23102:23112   */\n      dup4\n        /* \"#utility.yul\":23098:23116   */\n      mul\n        /* \"#utility.yul\":23137:23234   */\n      tag_647\n        /* \"#utility.yul\":23167:23233   */\n      0xffffffffffffffffffffffffffffffffffffffffffffffffffffffffffffffff\n        /* \"#utility.yul\":23156:23165   */\n      dup3\n        /* \"#utility.yul\":23137:23234   */\n      tag_381\n      jump\t// in\n    tag_647:\n        /* \"#utility.yul\":23255:23294   */\n      tag_648\n        /* \"#utility.yul\":23285:23293   */\n      dup7\n        /* \"#utility.yul\":23274:23283   */\n      dup4\n        /* \"#utility.yul\":23255:23294   */\n      tag_381\n      jump\t// in\n    tag_648:\n        /* \"#utility.yul\":23243:23294   */\n      swap6\n      pop\n        /* \"#utility.yul\":23327:23331   */\n      dup1\n        /* \"#utility.yul\":23323:23332   */\n      not\n        /* \"#utility.yul\":23316:23321   */\n      dup5\n        /* \"#utility.yul\":23312:23333   */\n      and\n        /* \"#utility.yul\":23303:23333   */\n      swap4\n      pop\n        /* \"#utility.yul\":23376:23380   */\n      dup1\n        /* \"#utility.yul\":23366:23374   */\n      dup7\n        /* \"#utility.yul\":23362:23381   */\n      and\n        /* \"#utility.yul\":23355:23360   */\n      dup5\n        /* \"#utility.yul\":23352:23382   */\n      or\n        /* \"#utility.yul\":23342:23382   */\n      swap3\n      pop\n        /* \"#utility.yul\":23071:23388   */\n      pop\n      pop\n        /* \"#utility.yul\":22995:23388   */\n      swap4\n      swap3\n      pop\n      pop\n      pop\n      jump\t// out\n        /* \"#utility.yul\":23394:23454   */\n    tag_383:\n        /* \"#utility.yul\":23422:23425   */\n      0x00\n        /* \"#utility.yul\":23443:23448   */\n      dup2\n        /* \"#utility.yul\":23436:23448   */\n      swap1\n      pop\n        /* \"#utility.yul\":23394:23454   */\n      swap2\n      swap1\n      pop\n      jump\t// out\n        /* \"#utility.yul\":23460:23602   */\n    tag_384:\n        /* \"#utility.yul\":23510:23519   */\n      0x00\n        /* \"#utility.yul\":23543:23596   */\n      tag_651\n        /* \"#utility.yul\":23561:23595   */\n      tag_652\n        /* \"#utility.yul\":23570:23594   */\n      tag_653\n        /* \"#utility.yul\":23588:23593   */\n      dup5\n        /* \"#utility.yul\":23570:23594   */\n      tag_336\n      jump\t// in\n    tag_653:\n        /* \"#utility.yul\":23561:23595   */\n      tag_383\n      jump\t// in\n    tag_652:\n        /* \"#utility.yul\":23543:23596   */\n      tag_336\n      jump\t// in\n    tag_651:\n        /* \"#utility.yul\":23530:23596   */\n      swap1\n      pop\n        /* \"#utility.yul\":23460:23602   */\n      swap2\n      swap1\n      pop\n      jump\t// out\n        /* \"#utility.yul\":23608:23683   */\n    tag_385:\n        /* \"#utility.yul\":23651:23654   */\n      0x00\n        /* \"#utility.yul\":23672:23677   */\n      dup2\n        /* \"#utility.yul\":23665:23677   */\n      swap1\n      pop\n        /* \"#utility.yul\":23608:23683   */\n      swap2\n      swap1\n      pop\n      jump\t// out\n        /* \"#utility.yul\":23689:23958   */\n    tag_386:\n        /* \"#utility.yul\":23799:23838   */\n      tag_656\n        /* \"#utility.yul\":23830:23837   */\n      dup4\n        /* \"#utility.yul\":23799:23838   */\n      tag_384\n      jump\t// in\n    tag_656:\n        /* \"#utility.yul\":23860:23951   */\n      tag_657\n        /* \"#utility.yul\":23909:23950   */\n      tag_658\n        /* \"#utility.yul\":23933:23949   */\n      dup3\n        /* \"#utility.yul\":23909:23950   */\n      tag_385\n      jump\t// in\n    tag_658:\n        /* \"#utility.yul\":23901:23907   */\n      dup5\n        /* \"#utility.yul\":23894:23898   */\n      dup5\n        /* \"#utility.yul\":23888:23899   */\n      sload\n        /* \"#utility.yul\":23860:23951   */\n      tag_382\n      jump\t// in\n    tag_657:\n        /* \"#utility.yul\":23854:23858   */\n      dup3\n        /* \"#utility.yul\":23847:23952   */\n      sstore\n        /* \"#utility.yul\":23765:23958   */\n      pop\n        /* \"#utility.yul\":23689:23958   */\n      pop\n      pop\n      pop\n      jump\t// out\n        /* \"#utility.yul\":23964:24037   */\n    tag_387:\n        /* \"#utility.yul\":24009:24012   */\n      0x00\n        /* \"#utility.yul\":23964:24037   */\n      swap1\n      jump\t// out\n        /* \"#utility.yul\":24043:24232   */\n    tag_388:\n        /* \"#utility.yul\":24120:24152   */\n      tag_661\n      tag_387\n      jump\t// in\n    tag_661:\n        /* \"#utility.yul\":24161:24226   */\n      tag_662\n        /* \"#utility.yul\":24219:24225   */\n      dup2\n        /* \"#utility.yul\":24211:24217   */\n      dup5\n        /* \"#utility.yul\":24205:24209   */\n      dup5\n        /* \"#utility.yul\":24161:24226   */\n      tag_386\n      jump\t// in\n    tag_662:\n        /* \"#utility.yul\":24096:24232   */\n      pop\n        /* \"#utility.yul\":24043:24232   */\n      pop\n      pop\n      jump\t// out\n        /* \"#utility.yul\":24238:24424   */\n    tag_389:\n        /* \"#utility.yul\":24298:24418   */\n    tag_664:\n        /* \"#utility.yul\":24315:24318   */\n      dup2\n        /* \"#utility.yul\":24308:24313   */\n      dup2\n        /* \"#utility.yul\":24305:24319   */\n      lt\n        /* \"#utility.yul\":24298:24418   */\n      iszero\n      tag_666\n      jumpi\n        /* \"#utility.yul\":24369:24408   */\n      tag_667\n        /* \"#utility.yul\":24406:24407   */\n      0x00\n        /* \"#utility.yul\":24399:24404   */\n      dup3\n        /* \"#utility.yul\":24369:24408   */\n      tag_388\n      jump\t// in\n    tag_667:\n        /* \"#utility.yul\":24342:24343   */\n      0x01\n        /* \"#utility.yul\":24335:24340   */\n      dup2\n        /* \"#utility.yul\":24331:24344   */\n      add\n        /* \"#utility.yul\":24322:24344   */\n      swap1\n      pop\n        /* \"#utility.yul\":24298:24418   */\n      jump(tag_664)\n    tag_666:\n        /* \"#utility.yul\":24238:24424   */\n      pop\n      pop\n      jump\t// out\n        /* \"#utility.yul\":24430:24973   */\n    tag_390:\n        /* \"#utility.yul\":24531:24533   */\n      0x1f\n        /* \"#utility.yul\":24526:24529   */\n      dup3\n        /* \"#utility.yul\":24523:24534   */\n      gt\n        /* \"#utility.yul\":24520:24966   */\n      iszero\n      tag_669\n      jumpi\n        /* \"#utility.yul\":24565:24603   */\n      tag_670\n        /* \"#utility.yul\":24597:24602   */\n      dup2\n        /* \"#utility.yul\":24565:24603   */\n      tag_379\n      jump\t// in\n    tag_670:\n        /* \"#utility.yul\":24649:24678   */\n      tag_671\n        /* \"#utility.yul\":24667:24677   */\n      dup5\n        /* \"#utility.yul\":24649:24678   */\n      tag_380\n      jump\t// in\n    tag_671:\n        /* \"#utility.yul\":24639:24647   */\n      dup2\n        /* \"#utility.yul\":24635:24679   */\n      add\n        /* \"#utility.yul\":24832:24834   */\n      0x20\n        /* \"#utility.yul\":24820:24830   */\n      dup6\n        /* \"#utility.yul\":24817:24835   */\n      lt\n        /* \"#utility.yul\":24814:24863   */\n      iszero\n      tag_672\n      jumpi\n        /* \"#utility.yul\":24853:24861   */\n      dup2\n        /* \"#utility.yul\":24838:24861   */\n      swap1\n      pop\n        /* \"#utility.yul\":24814:24863   */\n    tag_672:\n        /* \"#utility.yul\":24876:24956   */\n      tag_673\n        /* \"#utility.yul\":24932:24954   */\n      tag_674\n        /* \"#utility.yul\":24950:24953   */\n      dup6\n        /* \"#utility.yul\":24932:24954   */\n      tag_380\n      jump\t// in\n    tag_674:\n        /* \"#utility.yul\":24922:24930   */\n      dup4\n        /* \"#utility.yul\":24918:24955   */\n      add\n        /* \"#utility.yul\":24905:24916   */\n      dup3\n        /* \"#utility.yul\":24876:24956   */\n      tag_389\n      jump\t// in\n    tag_673:\n        /* \"#utility.yul\":24535:24966   */\n      pop\n      pop\n        /* \"#utility.yul\":24520:24966   */\n    tag_669:\n        /* \"#utility.yul\":24430:24973   */\n      pop\n      pop\n      pop\n      jump\t// out\n        /* \"#utility.yul\":24979:25096   */\n    tag_391:\n        /* \"#utility.yul\":25033:25041   */\n      0x00\n        /* \"#utility.yul\":25083:25088   */\n      dup3\n        /* \"#utility.yul\":25077:25081   */\n      dup3\n        /* \"#utility.yul\":25073:25089   */\n      shr\n        /* \"#utility.yul\":25052:25089   */\n      swap1\n      pop\n        /* \"#utility.yul\":24979:25096   */\n      swap3\n      swap2\n      pop\n      pop\n      jump\t// out\n        /* \"#utility.yul\":25102:25271   */\n    tag_392:\n        /* \"#utility.yul\":25146:25152   */\n      0x00\n        /* \"#utility.yul\":25179:25230   */\n      tag_677\n        /* \"#utility.yul\":25227:25228   */\n      0x00\n        /* \"#utility.yul\":25223:25229   */\n      not\n        /* \"#utility.yul\":25215:25220   */\n      dup5\n        /* \"#utility.yul\":25212:25213   */\n      0x08\n        /* \"#utility.yul\":25208:25221   */\n      mul\n        /* \"#utility.yul\":25179:25230   */\n      tag_391\n      jump\t// in\n    tag_677:\n        /* \"#utility.yul\":25175:25231   */\n      not\n        /* \"#utility.yul\":25260:25264   */\n      dup1\n        /* \"#utility.yul\":25254:25258   */\n      dup4\n        /* \"#utility.yul\":25250:25265   */\n      and\n        /* \"#utility.yul\":25240:25265   */\n      swap2\n      pop\n        /* \"#utility.yul\":25153:25271   */\n      pop\n        /* \"#utility.yul\":25102:25271   */\n      swap3\n      swap2\n      pop\n      pop\n      jump\t// out\n        /* \"#utility.yul\":25276:25571   */\n    tag_393:\n        /* \"#utility.yul\":25352:25356   */\n      0x00\n        /* \"#utility.yul\":25498:25527   */\n      tag_679\n        /* \"#utility.yul\":25523:25526   */\n      dup4\n        /* \"#utility.yul\":25517:25521   */\n      dup4\n        /* \"#utility.yul\":25498:25527   */\n      tag_392\n      jump\t// in\n    tag_679:\n        /* \"#utility.yul\":25490:25527   */\n      swap2\n      pop\n        /* \"#utility.yul\":25560:25563   */\n      dup3\n        /* \"#utility.yul\":25557:25558   */\n      0x02\n        /* \"#utility.yul\":25553:25564   */\n      mul\n        /* \"#utility.yul\":25547:25551   */\n      dup3\n        /* \"#utility.yul\":25544:25565   */\n      or\n        /* \"#utility.yul\":25536:25565   */\n      swap1\n      pop\n        /* \"#utility.yul\":25276:25571   */\n      swap3\n      swap2\n      pop\n      pop\n      jump\t// out\n        /* \"#utility.yul\":25576:26971   */\n    tag_196:\n        /* \"#utility.yul\":25693:25730   */\n      tag_681\n        /* \"#utility.yul\":25726:25729   */\n      dup3\n        /* \"#utility.yul\":25693:25730   */\n      tag_354\n      jump\t// in\n    tag_681:\n        /* \"#utility.yul\":25795:25813   */\n      0xffffffffffffffff\n        /* \"#utility.yul\":25787:25793   */\n      dup2\n        /* \"#utility.yul\":25784:25814   */\n      gt\n        /* \"#utility.yul\":25781:25837   */\n      iszero\n      tag_682\n      jumpi\n        /* \"#utility.yul\":25817:25835   */\n      tag_683\n      tag_138\n      jump\t// in\n    tag_683:\n        /* \"#utility.yul\":25781:25837   */\n    tag_682:\n        /* \"#utility.yul\":25861:25899   */\n      tag_684\n        /* \"#utility.yul\":25893:25897   */\n      dup3\n        /* \"#utility.yul\":25887:25898   */\n      sload\n        /* \"#utility.yul\":25861:25899   */\n      tag_107\n      jump\t// in\n    tag_684:\n        /* \"#utility.yul\":25946:26013   */\n      tag_685\n        /* \"#utility.yul\":26006:26012   */\n      dup3\n        /* \"#utility.yul\":25998:26004   */\n      dup3\n        /* \"#utility.yul\":25992:25996   */\n      dup6\n        /* \"#utility.yul\":25946:26013   */\n      tag_390\n      jump\t// in\n    tag_685:\n        /* \"#utility.yul\":26040:26041   */\n      0x00\n        /* \"#utility.yul\":26064:26068   */\n      0x20\n        /* \"#utility.yul\":26051:26068   */\n      swap1\n      pop\n        /* \"#utility.yul\":26096:26098   */\n      0x1f\n        /* \"#utility.yul\":26088:26094   */\n      dup4\n        /* \"#utility.yul\":26085:26099   */\n      gt\n        /* \"#utility.yul\":26113:26114   */\n      0x01\n        /* \"#utility.yul\":26108:26726   */\n      dup2\n      eq\n      tag_687\n      jumpi\n        /* \"#utility.yul\":26770:26771   */\n      0x00\n        /* \"#utility.yul\":26787:26793   */\n      dup5\n        /* \"#utility.yul\":26784:26861   */\n      iszero\n      tag_688\n      jumpi\n        /* \"#utility.yul\":26836:26845   */\n      dup3\n        /* \"#utility.yul\":26831:26834   */\n      dup8\n        /* \"#utility.yul\":26827:26846   */\n      add\n        /* \"#utility.yul\":26821:26847   */\n      mload\n        /* \"#utility.yul\":26812:26847   */\n      swap1\n      pop\n        /* \"#utility.yul\":26784:26861   */\n    tag_688:\n        /* \"#utility.yul\":26887:26954   */\n      tag_689\n        /* \"#utility.yul\":26947:26953   */\n      dup6\n        /* \"#utility.yul\":26940:26945   */\n      dup3\n        /* \"#utility.yul\":26887:26954   */\n      tag_393\n      jump\t// in\n    tag_689:\n        /* \"#utility.yul\":26881:26885   */\n      dup7\n        /* \"#utility.yul\":26874:26955   */\n      sstore\n        /* \"#utility.yul\":26743:26965   */\n      pop\n        /* \"#utility.yul\":26078:26965   */\n      jump(tag_686)\n        /* \"#utility.yul\":26108:26726   */\n    tag_687:\n        /* \"#utility.yul\":26160:26164   */\n      0x1f\n        /* \"#utility.yul\":26156:26165   */\n      not\n        /* \"#utility.yul\":26148:26154   */\n      dup5\n        /* \"#utility.yul\":26144:26166   */\n      and\n        /* \"#utility.yul\":26194:26231   */\n      tag_690\n        /* \"#utility.yul\":26226:26230   */\n      dup7\n        /* \"#utility.yul\":26194:26231   */\n      tag_379\n      jump\t// in\n    tag_690:\n        /* \"#utility.yul\":26253:26254   */\n      0x00\n        /* \"#utility.yul\":26267:26475   */\n    tag_691:\n        /* \"#utility.yul\":26281:26288   */\n      dup3\n        /* \"#utility.yul\":26278:26279   */\n      dup2\n        /* \"#utility.yul\":26275:26289   */\n      lt\n        /* \"#utility.yul\":26267:26475   */\n      iszero\n      tag_693\n      jumpi\n        /* \"#utility.yul\":26360:26369   */\n      dup5\n        /* \"#utility.yul\":26355:26358   */\n      dup10\n        /* \"#utility.yul\":26351:26370   */\n      add\n        /* \"#utility.yul\":26345:26371   */\n      mload\n        /* \"#utility.yul\":26337:26343   */\n      dup3\n        /* \"#utility.yul\":26330:26372   */\n      sstore\n        /* \"#utility.yul\":26411:26412   */\n      0x01\n        /* \"#utility.yul\":26403:26409   */\n      dup3\n        /* \"#utility.yul\":26399:26413   */\n      add\n        /* \"#utility.yul\":26389:26413   */\n      swap2\n      pop\n        /* \"#utility.yul\":26458:26460   */\n      0x20\n        /* \"#utility.yul\":26447:26456   */\n      dup6\n        /* \"#utility.yul\":26443:26461   */\n      add\n        /* \"#utility.yul\":26430:26461   */\n      swap5\n      pop\n        /* \"#utility.yul\":26304:26308   */\n      0x20\n        /* \"#utility.yul\":26301:26302   */\n      dup2\n        /* \"#utility.yul\":26297:26309   */\n      add\n        /* \"#utility.yul\":26292:26309   */\n      swap1\n      pop\n        /* \"#utility.yul\":26267:26475   */\n      jump(tag_691)\n    tag_693:\n        /* \"#utility.yul\":26503:26509   */\n      dup7\n        /* \"#utility.yul\":26494:26501   */\n      dup4\n        /* \"#utility.yul\":26491:26510   */\n      lt\n        /* \"#utility.yul\":26488:26667   */\n      iszero\n      tag_694\n      jumpi\n        /* \"#utility.yul\":26561:26570   */\n      dup5\n        /* \"#utility.yul\":26556:26559   */\n      dup10\n        /* \"#utility.yul\":26552:26571   */\n      add\n        /* \"#utility.yul\":26546:26572   */\n      mload\n        /* \"#utility.yul\":26604:26652   */\n      tag_695\n        /* \"#utility.yul\":26646:26650   */\n      0x1f\n        /* \"#utility.yul\":26638:26644   */\n      dup10\n        /* \"#utility.yul\":26634:26651   */\n      and\n        /* \"#utility.yul\":26623:26632   */\n      dup3\n        /* \"#utility.yul\":26604:26652   */\n      tag_392\n      jump\t// in\n    tag_695:\n        /* \"#utility.yul\":26596:26602   */\n      dup4\n        /* \"#utility.yul\":26589:26653   */\n      sstore\n        /* \"#utility.yul\":26511:26667   */\n      pop\n        /* \"#utility.yul\":26488:26667   */\n    tag_694:\n        /* \"#utility.yul\":26713:26714   */\n      0x01\n        /* \"#utility.yul\":26709:26710   */\n      0x02\n        /* \"#utility.yul\":26701:26707   */\n      dup9\n        /* \"#utility.yul\":26697:26711   */\n      mul\n        /* \"#utility.yul\":26693:26715   */\n      add\n        /* \"#utility.yul\":26687:26691   */\n      dup9\n        /* \"#utility.yul\":26680:26716   */\n      sstore\n        /* \"#utility.yul\":26115:26726   */\n      pop\n      pop\n      pop\n        /* \"#utility.yul\":26078:26965   */\n    tag_686:\n      pop\n        /* \"#utility.yul\":25668:26971   */\n      pop\n      pop\n      pop\n        /* \"#utility.yul\":25576:26971   */\n      pop\n      pop\n      jump\t// out\n        /* \"#utility.yul\":26977:27075   */\n    tag_394:\n        /* \"#utility.yul\":27028:27034   */\n      0x00\n        /* \"#utility.yul\":27062:27067   */\n      dup2\n        /* \"#utility.yul\":27056:27068   */\n      mload\n        /* \"#utility.yul\":27046:27068   */\n      swap1\n      pop\n        /* \"#utility.yul\":26977:27075   */\n      swap2\n      swap1\n      pop\n      jump\t// out\n        /* \"#utility.yul\":27081:27249   */\n    tag_395:\n        /* \"#utility.yul\":27164:27175   */\n      0x00\n        /* \"#utility.yul\":27198:27204   */\n      dup3\n        /* \"#utility.yul\":27193:27196   */\n      dup3\n        /* \"#utility.yul\":27186:27205   */\n      mstore\n        /* \"#utility.yul\":27238:27242   */\n      0x20\n        /* \"#utility.yul\":27233:27236   */\n      dup3\n        /* \"#utility.yul\":27229:27243   */\n      add\n        /* \"#utility.yul\":27214:27243   */\n      swap1\n      pop\n        /* \"#utility.yul\":27081:27249   */\n      swap3\n      swap2\n      pop\n      pop\n      jump\t// out\n        /* \"#utility.yul\":27255:27628   */\n    tag_396:\n        /* \"#utility.yul\":27341:27344   */\n      0x00\n        /* \"#utility.yul\":27369:27407   */\n      tag_699\n        /* \"#utility.yul\":27401:27406   */\n      dup3\n        /* \"#utility.yul\":27369:27407   */\n      tag_394\n      jump\t// in\n    tag_699:\n        /* \"#utility.yul\":27423:27493   */\n      tag_700\n        /* \"#utility.yul\":27486:27492   */\n      dup2\n        /* \"#utility.yul\":27481:27484   */\n      dup6\n        /* \"#utility.yul\":27423:27493   */\n      tag_395\n      jump\t// in\n    tag_700:\n        /* \"#utility.yul\":27416:27493   */\n      swap4\n      pop\n        /* \"#utility.yul\":27502:27567   */\n      tag_701\n        /* \"#utility.yul\":27560:27566   */\n      dup2\n        /* \"#utility.yul\":27555:27558   */\n      dup6\n        /* \"#utility.yul\":27548:27552   */\n      0x20\n        /* \"#utility.yul\":27541:27546   */\n      dup7\n        /* \"#utility.yul\":27537:27553   */\n      add\n        /* \"#utility.yul\":27502:27567   */\n      tag_356\n      jump\t// in\n    tag_701:\n        /* \"#utility.yul\":27592:27621   */\n      tag_702\n        /* \"#utility.yul\":27614:27620   */\n      dup2\n        /* \"#utility.yul\":27592:27621   */\n      tag_347\n      jump\t// in\n    tag_702:\n        /* \"#utility.yul\":27587:27590   */\n      dup5\n        /* \"#utility.yul\":27583:27622   */\n      add\n        /* \"#utility.yul\":27576:27622   */\n      swap2\n      pop\n        /* \"#utility.yul\":27345:27628   */\n      pop\n        /* \"#utility.yul\":27255:27628   */\n      swap3\n      swap2\n      pop\n      pop\n      jump\t// out\n        /* \"#utility.yul\":27634:28385   */\n    tag_267:\n        /* \"#utility.yul\":27857:27861   */\n      0x00\n        /* \"#utility.yul\":27895:27898   */\n      0xa0\n        /* \"#utility.yul\":27884:27893   */\n      dup3\n        /* \"#utility.yul\":27880:27899   */\n      add\n        /* \"#utility.yul\":27872:27899   */\n      swap1\n      pop\n        /* \"#utility.yul\":27909:27980   */\n      tag_704\n        /* \"#utility.yul\":27977:27978   */\n      0x00\n        /* \"#utility.yul\":27966:27975   */\n      dup4\n        /* \"#utility.yul\":27962:27979   */\n      add\n        /* \"#utility.yul\":27953:27959   */\n      dup9\n        /* \"#utility.yul\":27909:27980   */\n      tag_375\n      jump\t// in\n    tag_704:\n        /* \"#utility.yul\":27990:28062   */\n      tag_705\n        /* \"#utility.yul\":28058:28060   */\n      0x20\n        /* \"#utility.yul\":28047:28056   */\n      dup4\n        /* \"#utility.yul\":28043:28061   */\n      add\n        /* \"#utility.yul\":28034:28040   */\n      dup8\n        /* \"#utility.yul\":27990:28062   */\n      tag_375\n      jump\t// in\n    tag_705:\n        /* \"#utility.yul\":28072:28144   */\n      tag_706\n        /* \"#utility.yul\":28140:28142   */\n      0x40\n        /* \"#utility.yul\":28129:28138   */\n      dup4\n        /* \"#utility.yul\":28125:28143   */\n      add\n        /* \"#utility.yul\":28116:28122   */\n      dup7\n        /* \"#utility.yul\":28072:28144   */\n      tag_339\n      jump\t// in\n    tag_706:\n        /* \"#utility.yul\":28154:28226   */\n      tag_707\n        /* \"#utility.yul\":28222:28224   */\n      0x60\n        /* \"#utility.yul\":28211:28220   */\n      dup4\n        /* \"#utility.yul\":28207:28225   */\n      add\n        /* \"#utility.yul\":28198:28204   */\n      dup6\n        /* \"#utility.yul\":28154:28226   */\n      tag_339\n      jump\t// in\n    tag_707:\n        /* \"#utility.yul\":28274:28283   */\n      dup2\n        /* \"#utility.yul\":28268:28272   */\n      dup2\n        /* \"#utility.yul\":28264:28284   */\n      sub\n        /* \"#utility.yul\":28258:28261   */\n      0x80\n        /* \"#utility.yul\":28247:28256   */\n      dup4\n        /* \"#utility.yul\":28243:28262   */\n      add\n        /* \"#utility.yul\":28236:28285   */\n      mstore\n        /* \"#utility.yul\":28302:28378   */\n      tag_708\n        /* \"#utility.yul\":28373:28377   */\n      dup2\n        /* \"#utility.yul\":28364:28370   */\n      dup5\n        /* \"#utility.yul\":28302:28378   */\n      tag_396\n      jump\t// in\n    tag_708:\n        /* \"#utility.yul\":28294:28378   */\n      swap1\n      pop\n        /* \"#utility.yul\":27634:28385   */\n      swap7\n      swap6\n      pop\n      pop\n      pop\n      pop\n      pop\n      pop\n      jump\t// out\n        /* \"#utility.yul\":28391:28532   */\n    tag_397:\n        /* \"#utility.yul\":28447:28452   */\n      0x00\n        /* \"#utility.yul\":28478:28484   */\n      dup2\n        /* \"#utility.yul\":28472:28485   */\n      mload\n        /* \"#utility.yul\":28463:28485   */\n      swap1\n      pop\n        /* \"#utility.yul\":28494:28526   */\n      tag_710\n        /* \"#utility.yul\":28520:28525   */\n      dup2\n        /* \"#utility.yul\":28494:28526   */\n      tag_341\n      jump\t// in\n    tag_710:\n        /* \"#utility.yul\":28391:28532   */\n      swap3\n      swap2\n      pop\n      pop\n      jump\t// out\n        /* \"#utility.yul\":28538:28887   */\n    tag_270:\n        /* \"#utility.yul\":28607:28613   */\n      0x00\n        /* \"#utility.yul\":28656:28658   */\n      0x20\n        /* \"#utility.yul\":28644:28653   */\n      dup3\n        /* \"#utility.yul\":28635:28642   */\n      dup5\n        /* \"#utility.yul\":28631:28654   */\n      sub\n        /* \"#utility.yul\":28627:28659   */\n      slt\n        /* \"#utility.yul\":28624:28743   */\n      iszero\n      tag_712\n      jumpi\n        /* \"#utility.yul\":28662:28741   */\n      tag_713\n      tag_330\n      jump\t// in\n    tag_713:\n        /* \"#utility.yul\":28624:28743   */\n    tag_712:\n        /* \"#utility.yul\":28782:28783   */\n      0x00\n        /* \"#utility.yul\":28807:28870   */\n      tag_714\n        /* \"#utility.yul\":28862:28869   */\n      dup5\n        /* \"#utility.yul\":28853:28859   */\n      dup3\n        /* \"#utility.yul\":28842:28851   */\n      dup6\n        /* \"#utility.yul\":28838:28860   */\n      add\n        /* \"#utility.yul\":28807:28870   */\n      tag_397\n      jump\t// in\n    tag_714:\n        /* \"#utility.yul\":28797:28870   */\n      swap2\n      pop\n        /* \"#utility.yul\":28753:28880   */\n      pop\n        /* \"#utility.yul\":28538:28887   */\n      swap3\n      swap2\n      pop\n      pop\n      jump\t// out\n        /* \"#utility.yul\":28893:29946   */\n    tag_286:\n        /* \"#utility.yul\":29216:29220   */\n      0x00\n        /* \"#utility.yul\":29254:29257   */\n      0xa0\n        /* \"#utility.yul\":29243:29252   */\n      dup3\n        /* \"#utility.yul\":29239:29258   */\n      add\n        /* \"#utility.yul\":29231:29258   */\n      swap1\n      pop\n        /* \"#utility.yul\":29268:29339   */\n      tag_716\n        /* \"#utility.yul\":29336:29337   */\n      0x00\n        /* \"#utility.yul\":29325:29334   */\n      dup4\n        /* \"#utility.yul\":29321:29338   */\n      add\n        /* \"#utility.yul\":29312:29318   */\n      dup9\n        /* \"#utility.yul\":29268:29339   */\n      tag_375\n      jump\t// in\n    tag_716:\n        /* \"#utility.yul\":29349:29421   */\n      tag_717\n        /* \"#utility.yul\":29417:29419   */\n      0x20\n        /* \"#utility.yul\":29406:29415   */\n      dup4\n        /* \"#utility.yul\":29402:29420   */\n      add\n        /* \"#utility.yul\":29393:29399   */\n      dup8\n        /* \"#utility.yul\":29349:29421   */\n      tag_375\n      jump\t// in\n    tag_717:\n        /* \"#utility.yul\":29468:29477   */\n      dup2\n        /* \"#utility.yul\":29462:29466   */\n      dup2\n        /* \"#utility.yul\":29458:29478   */\n      sub\n        /* \"#utility.yul\":29453:29455   */\n      0x40\n        /* \"#utility.yul\":29442:29451   */\n      dup4\n        /* \"#utility.yul\":29438:29456   */\n      add\n        /* \"#utility.yul\":29431:29479   */\n      mstore\n        /* \"#utility.yul\":29496:29604   */\n      tag_718\n        /* \"#utility.yul\":29599:29603   */\n      dup2\n        /* \"#utility.yul\":29590:29596   */\n      dup7\n        /* \"#utility.yul\":29496:29604   */\n      tag_374\n      jump\t// in\n    tag_718:\n        /* \"#utility.yul\":29488:29604   */\n      swap1\n      pop\n        /* \"#utility.yul\":29651:29660   */\n      dup2\n        /* \"#utility.yul\":29645:29649   */\n      dup2\n        /* \"#utility.yul\":29641:29661   */\n      sub\n        /* \"#utility.yul\":29636:29638   */\n      0x60\n        /* \"#utility.yul\":29625:29634   */\n      dup4\n        /* \"#utility.yul\":29621:29639   */\n      add\n        /* \"#utility.yul\":29614:29662   */\n      mstore\n        /* \"#utility.yul\":29679:29787   */\n      tag_719\n        /* \"#utility.yul\":29782:29786   */\n      dup2\n        /* \"#utility.yul\":29773:29779   */\n      dup6\n        /* \"#utility.yul\":29679:29787   */\n      tag_374\n      jump\t// in\n    tag_719:\n        /* \"#utility.yul\":29671:29787   */\n      swap1\n      pop\n        /* \"#utility.yul\":29835:29844   */\n      dup2\n        /* \"#utility.yul\":29829:29833   */\n      dup2\n        /* \"#utility.yul\":29825:29845   */\n      sub\n        /* \"#utility.yul\":29819:29822   */\n      0x80\n        /* \"#utility.yul\":29808:29817   */\n      dup4\n        /* \"#utility.yul\":29804:29823   */\n      add\n        /* \"#utility.yul\":29797:29846   */\n      mstore\n        /* \"#utility.yul\":29863:29939   */\n      tag_720\n        /* \"#utility.yul\":29934:29938   */\n      dup2\n        /* \"#utility.yul\":29925:29931   */\n      dup5\n        /* \"#utility.yul\":29863:29939   */\n      tag_396\n      jump\t// in\n    tag_720:\n        /* \"#utility.yul\":29855:29939   */\n      swap1\n      pop\n        /* \"#utility.yul\":28893:29946   */\n      swap7\n      swap6\n      pop\n      pop\n      pop\n      pop\n      pop\n      pop\n      jump\t// out\n        /* \"#utility.yul\":29952:30505   */\n    tag_318:\n        /* \"#utility.yul\":30129:30133   */\n      0x00\n        /* \"#utility.yul\":30167:30170   */\n      0x80\n        /* \"#utility.yul\":30156:30165   */\n      dup3\n        /* \"#utility.yul\":30152:30171   */\n      add\n        /* \"#utility.yul\":30144:30171   */\n      swap1\n      pop\n        /* \"#utility.yul\":30181:30252   */\n      tag_722\n        /* \"#utility.yul\":30249:30250   */\n      0x00\n        /* \"#utility.yul\":30238:30247   */\n      dup4\n        /* \"#utility.yul\":30234:30251   */\n      add\n        /* \"#utility.yul\":30225:30231   */\n      dup8\n        /* \"#utility.yul\":30181:30252   */\n      tag_375\n      jump\t// in\n    tag_722:\n        /* \"#utility.yul\":30262:30334   */\n      tag_723\n        /* \"#utility.yul\":30330:30332   */\n      0x20\n        /* \"#utility.yul\":30319:30328   */\n      dup4\n        /* \"#utility.yul\":30315:30333   */\n      add\n        /* \"#utility.yul\":30306:30312   */\n      dup7\n        /* \"#utility.yul\":30262:30334   */\n      tag_339\n      jump\t// in\n    tag_723:\n        /* \"#utility.yul\":30344:30416   */\n      tag_724\n        /* \"#utility.yul\":30412:30414   */\n      0x40\n        /* \"#utility.yul\":30401:30410   */\n      dup4\n        /* \"#utility.yul\":30397:30415   */\n      add\n        /* \"#utility.yul\":30388:30394   */\n      dup6\n        /* \"#utility.yul\":30344:30416   */\n      tag_339\n      jump\t// in\n    tag_724:\n        /* \"#utility.yul\":30426:30498   */\n      tag_725\n        /* \"#utility.yul\":30494:30496   */\n      0x60\n        /* \"#utility.yul\":30483:30492   */\n      dup4\n        /* \"#utility.yul\":30479:30497   */\n      add\n        /* \"#utility.yul\":30470:30476   */\n      dup5\n        /* \"#utility.yul\":30426:30498   */\n      tag_339\n      jump\t// in\n    tag_725:\n        /* \"#utility.yul\":29952:30505   */\n      swap6\n      swap5\n      pop\n      pop\n      pop\n      pop\n      pop\n      jump\t// out\n        /* \"#utility.yul\":30511:30691   */\n    tag_398:\n        /* \"#utility.yul\":30559:30636   */\n      0x4e487b7100000000000000000000000000000000000000000000000000000000\n        /* \"#utility.yul\":30556:30557   */\n      0x00\n        /* \"#utility.yul\":30549:30637   */\n      mstore\n        /* \"#utility.yul\":30656:30660   */\n      0x11\n        /* \"#utility.yul\":30653:30654   */\n      0x04\n        /* \"#utility.yul\":30646:30661   */\n      mstore\n        /* \"#utility.yul\":30680:30684   */\n      0x24\n        /* \"#utility.yul\":30677:30678   */\n      0x00\n        /* \"#utility.yul\":30670:30685   */\n      revert\n        /* \"#utility.yul\":30697:30888   */\n    tag_321:\n        /* \"#utility.yul\":30737:30740   */\n      0x00\n        /* \"#utility.yul\":30756:30776   */\n      tag_728\n        /* \"#utility.yul\":30774:30775   */\n      dup3\n        /* \"#utility.yul\":30756:30776   */\n      tag_336\n      jump\t// in\n    tag_728:\n        /* \"#utility.yul\":30751:30776   */\n      swap2\n      pop\n        /* \"#utility.yul\":30790:30810   */\n      tag_729\n        /* \"#utility.yul\":30808:30809   */\n      dup4\n        /* \"#utility.yul\":30790:30810   */\n      tag_336\n      jump\t// in\n    tag_729:\n        /* \"#utility.yul\":30785:30810   */\n      swap3\n      pop\n        /* \"#utility.yul\":30833:30834   */\n      dup3\n        /* \"#utility.yul\":30830:30831   */\n      dup3\n        /* \"#utility.yul\":30826:30835   */\n      add\n        /* \"#utility.yul\":30819:30835   */\n      swap1\n      pop\n        /* \"#utility.yul\":30854:30857   */\n      dup1\n        /* \"#utility.yul\":30851:30852   */\n      dup3\n        /* \"#utility.yul\":30848:30858   */\n      gt\n        /* \"#utility.yul\":30845:30881   */\n      iszero\n      tag_730\n      jumpi\n        /* \"#utility.yul\":30861:30879   */\n      tag_731\n      tag_398\n      jump\t// in\n    tag_731:\n        /* \"#utility.yul\":30845:30881   */\n    tag_730:\n        /* \"#utility.yul\":30697:30888   */\n      swap3\n      swap2\n      pop\n      pop\n      jump\t// out\n        /* \"#utility.yul\":30894:31528   */\n    tag_328:\n        /* \"#utility.yul\":31115:31119   */\n      0x00\n        /* \"#utility.yul\":31153:31155   */\n      0x40\n        /* \"#utility.yul\":31142:31151   */\n      dup3\n        /* \"#utility.yul\":31138:31156   */\n      add\n        /* \"#utility.yul\":31130:31156   */\n      swap1\n      pop\n        /* \"#utility.yul\":31202:31211   */\n      dup2\n        /* \"#utility.yul\":31196:31200   */\n      dup2\n        /* \"#utility.yul\":31192:31212   */\n      sub\n        /* \"#utility.yul\":31188:31189   */\n      0x00\n        /* \"#utility.yul\":31177:31186   */\n      dup4\n        /* \"#utility.yul\":31173:31190   */\n      add\n        /* \"#utility.yul\":31166:31213   */\n      mstore\n        /* \"#utility.yul\":31230:31338   */\n      tag_733\n        /* \"#utility.yul\":31333:31337   */\n      dup2\n        /* \"#utility.yul\":31324:31330   */\n      dup6\n        /* \"#utility.yul\":31230:31338   */\n      tag_374\n      jump\t// in\n    tag_733:\n        /* \"#utility.yul\":31222:31338   */\n      swap1\n      pop\n        /* \"#utility.yul\":31385:31394   */\n      dup2\n        /* \"#utility.yul\":31379:31383   */\n      dup2\n        /* \"#utility.yul\":31375:31395   */\n      sub\n        /* \"#utility.yul\":31370:31372   */\n      0x20\n        /* \"#utility.yul\":31359:31368   */\n      dup4\n        /* \"#utility.yul\":31355:31373   */\n      add\n        /* \"#utility.yul\":31348:31396   */\n      mstore\n        /* \"#utility.yul\":31413:31521   */\n      tag_734\n        /* \"#utility.yul\":31516:31520   */\n      dup2\n        /* \"#utility.yul\":31507:31513   */\n      dup5\n        /* \"#utility.yul\":31413:31521   */\n      tag_374\n      jump\t// in\n    tag_734:\n        /* \"#utility.yul\":31405:31521   */\n      swap1\n      pop\n        /* \"#utility.yul\":30894:31528   */\n      swap4\n      swap3\n      pop\n      pop\n      pop\n      jump\t// out\n\n    auxdata: 0xa2646970667358221220765dcb65d43641e58c9e66255e7b4dab49010423ba70d8452b8b0c5e53923a1e64736f6c63430008190033\n}\n",
				"bytecode": {
					"linkReferences": {},
					"object": "608060405234801561000f575f80fd5b50604051612f2d380380612f2d8339818101604052810190610031919061022f565b806040518060800160405280604b8152602001612ee2604b913961005a816100fb60201b60201c565b505f73ffffffffffffffffffffffffffffffffffffffff168173ffffffffffffffffffffffffffffffffffffffff16036100cb575f6040517f1e4fbdf70000000000000000000000000000000000000000000000000000000081526004016100c29190610269565b60405180910390fd5b6100da8161010e60201b60201c565b505f600360146101000a81548160ff0219169083151502179055505061058b565b806002908161010a91906104bc565b5050565b5f60035f9054906101000a900473ffffffffffffffffffffffffffffffffffffffff1690508160035f6101000a81548173ffffffffffffffffffffffffffffffffffffffff021916908373ffffffffffffffffffffffffffffffffffffffff1602179055508173ffffffffffffffffffffffffffffffffffffffff168173ffffffffffffffffffffffffffffffffffffffff167f8be0079c531659141344cd1fd0a4f28419497f9722a3daafe3b4186f6b6457e060405160405180910390a35050565b5f80fd5b5f73ffffffffffffffffffffffffffffffffffffffff82169050919050565b5f6101fe826101d5565b9050919050565b61020e816101f4565b8114610218575f80fd5b50565b5f8151905061022981610205565b92915050565b5f60208284031215610244576102436101d1565b5b5f6102518482850161021b565b91505092915050565b610263816101f4565b82525050565b5f60208201905061027c5f83018461025a565b92915050565b5f81519050919050565b7f4e487b71000000000000000000000000000000000000000000000000000000005f52604160045260245ffd5b7f4e487b71000000000000000000000000000000000000000000000000000000005f52602260045260245ffd5b5f60028204905060018216806102fd57607f821691505b6020821081036103105761030f6102b9565b5b50919050565b5f819050815f5260205f209050919050565b5f6020601f8301049050919050565b5f82821b905092915050565b5f600883026103727fffffffffffffffffffffffffffffffffffffffffffffffffffffffffffffffff82610337565b61037c8683610337565b95508019841693508086168417925050509392505050565b5f819050919050565b5f819050919050565b5f6103c06103bb6103b684610394565b61039d565b610394565b9050919050565b5f819050919050565b6103d9836103a6565b6103ed6103e5826103c7565b848454610343565b825550505050565b5f90565b6104016103f5565b61040c8184846103d0565b505050565b5b8181101561042f576104245f826103f9565b600181019050610412565b5050565b601f8211156104745761044581610316565b61044e84610328565b8101602085101561045d578190505b61047161046985610328565b830182610411565b50505b505050565b5f82821c905092915050565b5f6104945f1984600802610479565b1980831691505092915050565b5f6104ac8383610485565b9150826002028217905092915050565b6104c582610282565b67ffffffffffffffff8111156104de576104dd61028c565b5b6104e882546102e6565b6104f3828285610433565b5f60209050601f831160018114610524575f8415610512578287015190505b61051c85826104a1565b865550610583565b601f19841661053286610316565b5f5b8281101561055957848901518255600182019150602085019450602081019050610534565b868310156105765784890151610572601f891682610485565b8355505b6001600288020188555050505b505050505050565b61294a806105985f395ff3fe608060405234801561000f575f80fd5b5060043610610108575f3560e01c80635c975abb116100a05780638da5cb5b1161006f5780638da5cb5b14610278578063a22cb46514610296578063e985e9c5146102b2578063f242432a146102e2578063f2fde38b146102fe57610108565b80635c975abb1461022a578063715018a614610248578063731133e9146102525780638456cb591461026e57610108565b80631f7fdffa116100dc5780631f7fdffa146101b85780632eb2c2d6146101d45780633f4ba83a146101f05780634e1273f4146101fa57610108565b8062fdd58e1461010c57806301ffc9a71461013c57806302fe53051461016c5780630e89341c14610188575b5f80fd5b61012660048036038101906101219190611964565b61031a565b60405161013391906119b1565b60405180910390f35b61015660048036038101906101519190611a1f565b61036f565b6040516101639190611a64565b60405180910390f35b61018660048036038101906101819190611bb9565b610450565b005b6101a2600480360381019061019d9190611c00565b610464565b6040516101af9190611c8b565b60405180910390f35b6101d260048036038101906101cd9190611e0d565b6104f6565b005b6101ee60048036038101906101e99190611ec5565b610510565b005b6101f86105b7565b005b610214600480360381019061020f9190612050565b6105c9565b604051610221919061217d565b60405180910390f35b6102326106d0565b60405161023f9190611a64565b60405180910390f35b6102506106e6565b005b61026c6004803603810190610267919061219d565b6106f9565b005b610276610713565b005b610280610725565b60405161028d919061222c565b60405180910390f35b6102b060048036038101906102ab919061226f565b61074d565b005b6102cc60048036038101906102c791906122ad565b610763565b6040516102d99190611a64565b60405180910390f35b6102fc60048036038101906102f791906122eb565b6107f1565b005b6103186004803603810190610313919061237e565b610898565b005b5f805f8381526020019081526020015f205f8473ffffffffffffffffffffffffffffffffffffffff1673ffffffffffffffffffffffffffffffffffffffff1681526020019081526020015f2054905092915050565b5f7fd9b67a26000000000000000000000000000000000000000000000000000000007bffffffffffffffffffffffffffffffffffffffffffffffffffffffff1916827bffffffffffffffffffffffffffffffffffffffffffffffffffffffff1916148061043957507f0e89341c000000000000000000000000000000000000000000000000000000007bffffffffffffffffffffffffffffffffffffffffffffffffffffffff1916827bffffffffffffffffffffffffffffffffffffffffffffffffffffffff1916145b8061044957506104488261091c565b5b9050919050565b610458610985565b61046181610a0c565b50565b606060028054610473906123d6565b80601f016020809104026020016040519081016040528092919081815260200182805461049f906123d6565b80156104ea5780601f106104c1576101008083540402835291602001916104ea565b820191905f5260205f20905b8154815290600101906020018083116104cd57829003601f168201915b50505050509050919050565b6104fe610985565b61050a84848484610a1f565b50505050565b5f610519610aa2565b90508073ffffffffffffffffffffffffffffffffffffffff168673ffffffffffffffffffffffffffffffffffffffff161415801561055e575061055c8682610763565b155b156105a25780866040517fe237d922000000000000000000000000000000000000000000000000000000008152600401610599929190612406565b60405180910390fd5b6105af8686868686610aa9565b505050505050565b6105bf610985565b6105c7610b9d565b565b6060815183511461061557815183516040517f5b05999100000000000000000000000000000000000000000000000000000000815260040161060c92919061242d565b60405180910390fd5b5f835167ffffffffffffffff81111561063157610630611a95565b5b60405190808252806020026020018201604052801561065f5781602001602082028036833780820191505090505b5090505f5b84518110156106c55761069b6106838287610bff90919063ffffffff16565b6106968387610c1290919063ffffffff16565b61031a565b8282815181106106ae576106ad612454565b5b602002602001018181525050806001019050610664565b508091505092915050565b5f600360149054906101000a900460ff16905090565b6106ee610985565b6106f75f610c25565b565b610701610985565b61070d84848484610ce8565b50505050565b61071b610985565b610723610d7d565b565b5f60035f9054906101000a900473ffffffffffffffffffffffffffffffffffffffff16905090565b61075f610758610aa2565b8383610de0565b5050565b5f60015f8473ffffffffffffffffffffffffffffffffffffffff1673ffffffffffffffffffffffffffffffffffffffff1681526020019081526020015f205f8373ffffffffffffffffffffffffffffffffffffffff1673ffffffffffffffffffffffffffffffffffffffff1681526020019081526020015f205f9054906101000a900460ff16905092915050565b5f6107fa610aa2565b90508073ffffffffffffffffffffffffffffffffffffffff168673ffffffffffffffffffffffffffffffffffffffff161415801561083f575061083d8682610763565b155b156108835780866040517fe237d92200000000000000000000000000000000000000000000000000000000815260040161087a929190612406565b60405180910390fd5b6108908686868686610f49565b505050505050565b6108a0610985565b5f73ffffffffffffffffffffffffffffffffffffffff168173ffffffffffffffffffffffffffffffffffffffff1603610910575f6040517f1e4fbdf7000000000000000000000000000000000000000000000000000000008152600401610907919061222c565b60405180910390fd5b61091981610c25565b50565b5f7f01ffc9a7000000000000000000000000000000000000000000000000000000007bffffffffffffffffffffffffffffffffffffffffffffffffffffffff1916827bffffffffffffffffffffffffffffffffffffffffffffffffffffffff1916149050919050565b61098d610aa2565b73ffffffffffffffffffffffffffffffffffffffff166109ab610725565b73ffffffffffffffffffffffffffffffffffffffff1614610a0a576109ce610aa2565b6040517f118cdaa7000000000000000000000000000000000000000000000000000000008152600401610a01919061222c565b60405180910390fd5b565b8060029081610a1b919061261e565b5050565b5f73ffffffffffffffffffffffffffffffffffffffff168473ffffffffffffffffffffffffffffffffffffffff1603610a8f575f6040517f57f447ce000000000000000000000000000000000000000000000000000000008152600401610a86919061222c565b60405180910390fd5b610a9c5f8585858561104f565b50505050565b5f33905090565b5f73ffffffffffffffffffffffffffffffffffffffff168473ffffffffffffffffffffffffffffffffffffffff1603610b19575f6040517f57f447ce000000000000000000000000000000000000000000000000000000008152600401610b10919061222c565b60405180910390fd5b5f73ffffffffffffffffffffffffffffffffffffffff168573ffffffffffffffffffffffffffffffffffffffff1603610b89575f6040517f01a83514000000000000000000000000000000000000000000000000000000008152600401610b80919061222c565b60405180910390fd5b610b96858585858561104f565b5050505050565b610ba56110fb565b5f600360146101000a81548160ff0219169083151502179055507f5db9ee0a495bf2e6ff9c91a7834c1ba4fdd244a5e8aa4e537bd38aeae4b073aa610be8610aa2565b604051610bf5919061222c565b60405180910390a1565b5f60208202602084010151905092915050565b5f60208202602084010151905092915050565b5f60035f9054906101000a900473ffffffffffffffffffffffffffffffffffffffff1690508160035f6101000a81548173ffffffffffffffffffffffffffffffffffffffff021916908373ffffffffffffffffffffffffffffffffffffffff1602179055508173ffffffffffffffffffffffffffffffffffffffff168173ffffffffffffffffffffffffffffffffffffffff167f8be0079c531659141344cd1fd0a4f28419497f9722a3daafe3b4186f6b6457e060405160405180910390a35050565b5f73ffffffffffffffffffffffffffffffffffffffff168473ffffffffffffffffffffffffffffffffffffffff1603610d58575f6040517f57f447ce000000000000000000000000000000000000000000000000000000008152600401610d4f919061222c565b60405180910390fd5b5f80610d64858561113b565b91509150610d755f8784848761104f565b505050505050565b610d8561116b565b6001600360146101000a81548160ff0219169083151502179055507f62e78cea01bee320cd4e420270b5ea74000d11b0c9f74754ebdbfc544b05a258610dc9610aa2565b604051610dd6919061222c565b60405180910390a1565b5f73ffffffffffffffffffffffffffffffffffffffff168273ffffffffffffffffffffffffffffffffffffffff1603610e50575f6040517fced3e100000000000000000000000000000000000000000000000000000000008152600401610e47919061222c565b60405180910390fd5b8060015f8573ffffffffffffffffffffffffffffffffffffffff1673ffffffffffffffffffffffffffffffffffffffff1681526020019081526020015f205f8473ffffffffffffffffffffffffffffffffffffffff1673ffffffffffffffffffffffffffffffffffffffff1681526020019081526020015f205f6101000a81548160ff0219169083151502179055508173ffffffffffffffffffffffffffffffffffffffff168373ffffffffffffffffffffffffffffffffffffffff167f17307eab39ab6107e8899845ad3d59bd9653f200f220920489ca2b5937696c3183604051610f3c9190611a64565b60405180910390a3505050565b5f73ffffffffffffffffffffffffffffffffffffffff168473ffffffffffffffffffffffffffffffffffffffff1603610fb9575f6040517f57f447ce000000000000000000000000000000000000000000000000000000008152600401610fb0919061222c565b60405180910390fd5b5f73ffffffffffffffffffffffffffffffffffffffff168573ffffffffffffffffffffffffffffffffffffffff1603611029575f6040517f01a83514000000000000000000000000000000000000000000000000000000008152600401611020919061222c565b60405180910390fd5b5f80611035858561113b565b91509150611046878784848761104f565b50505050505050565b61105b858585856111ac565b5f73ffffffffffffffffffffffffffffffffffffffff168473ffffffffffffffffffffffffffffffffffffffff16146110f4575f611097610aa2565b905060018451036110e3575f6110b65f86610c1290919063ffffffff16565b90505f6110cc5f86610c1290919063ffffffff16565b90506110dc8389898585896111be565b50506110f2565b6110f181878787878761136d565b5b505b5050505050565b6111036106d0565b611139576040517f8dfc202b00000000000000000000000000000000000000000000000000000000815260040160405180910390fd5b565b60608060405191506001825283602083015260408201905060018152826020820152604081016040529250929050565b6111736106d0565b156111aa576040517fd93c066500000000000000000000000000000000000000000000000000000000815260040160405180910390fd5b565b6111b88484848461151c565b50505050565b5f8473ffffffffffffffffffffffffffffffffffffffff163b1115611365578373ffffffffffffffffffffffffffffffffffffffff1663f23a6e6187878686866040518663ffffffff1660e01b815260040161121e95949392919061273f565b6020604051808303815f875af192505050801561125957506040513d601f19601f8201168201806040525081019061125691906127ab565b60015b6112da573d805f8114611287576040519150601f19603f3d011682016040523d82523d5f602084013e61128c565b606091505b505f8151036112d257846040517f57f447ce0000000000000000000000000000000000000000000000000000000081526004016112c9919061222c565b60405180910390fd5b805181602001fd5b63f23a6e6160e01b7bffffffffffffffffffffffffffffffffffffffffffffffffffffffff1916817bffffffffffffffffffffffffffffffffffffffffffffffffffffffff19161461136357846040517f57f447ce00000000000000000000000000000000000000000000000000000000815260040161135a919061222c565b60405180910390fd5b505b505050505050565b5f8473ffffffffffffffffffffffffffffffffffffffff163b1115611514578373ffffffffffffffffffffffffffffffffffffffff1663bc197c8187878686866040518663ffffffff1660e01b81526004016113cd9594939291906127d6565b6020604051808303815f875af192505050801561140857506040513d601f19601f8201168201806040525081019061140591906127ab565b60015b611489573d805f8114611436576040519150601f19603f3d011682016040523d82523d5f602084013e61143b565b606091505b505f81510361148157846040517f57f447ce000000000000000000000000000000000000000000000000000000008152600401611478919061222c565b60405180910390fd5b805181602001fd5b63bc197c8160e01b7bffffffffffffffffffffffffffffffffffffffffffffffffffffffff1916817bffffffffffffffffffffffffffffffffffffffffffffffffffffffff19161461151257846040517f57f447ce000000000000000000000000000000000000000000000000000000008152600401611509919061222c565b60405180910390fd5b505b505050505050565b61152461116b565b61153084848484611536565b50505050565b805182511461158057815181516040517f5b05999100000000000000000000000000000000000000000000000000000000815260040161157792919061242d565b60405180910390fd5b5f611589610aa2565b90505f5b8351811015611785575f6115aa8286610c1290919063ffffffff16565b90505f6115c08386610c1290919063ffffffff16565b90505f73ffffffffffffffffffffffffffffffffffffffff168873ffffffffffffffffffffffffffffffffffffffff16146116e3575f805f8481526020019081526020015f205f8a73ffffffffffffffffffffffffffffffffffffffff1673ffffffffffffffffffffffffffffffffffffffff1681526020019081526020015f205490508181101561168f57888183856040517f03dee4c5000000000000000000000000000000000000000000000000000000008152600401611686949392919061283c565b60405180910390fd5b8181035f808581526020019081526020015f205f8b73ffffffffffffffffffffffffffffffffffffffff1673ffffffffffffffffffffffffffffffffffffffff1681526020019081526020015f2081905550505b5f73ffffffffffffffffffffffffffffffffffffffff168773ffffffffffffffffffffffffffffffffffffffff161461177857805f808481526020019081526020015f205f8973ffffffffffffffffffffffffffffffffffffffff1673ffffffffffffffffffffffffffffffffffffffff1681526020019081526020015f205f82825461177091906128ac565b925050819055505b505080600101905061158d565b506001835103611840575f6117a35f85610c1290919063ffffffff16565b90505f6117b95f85610c1290919063ffffffff16565b90508573ffffffffffffffffffffffffffffffffffffffff168773ffffffffffffffffffffffffffffffffffffffff168473ffffffffffffffffffffffffffffffffffffffff167fc3d58168c5ae7397731d063d5bbf3d657854427343f4c083240f7aacaa2d0f62858560405161183192919061242d565b60405180910390a450506118bf565b8373ffffffffffffffffffffffffffffffffffffffff168573ffffffffffffffffffffffffffffffffffffffff168273ffffffffffffffffffffffffffffffffffffffff167f4a39dc06d4c0dbc64b70af90fd698a233a518aa5d07e595d983b8c0526c8f7fb86866040516118b69291906128df565b60405180910390a45b5050505050565b5f604051905090565b5f80fd5b5f80fd5b5f73ffffffffffffffffffffffffffffffffffffffff82169050919050565b5f611900826118d7565b9050919050565b611910816118f6565b811461191a575f80fd5b50565b5f8135905061192b81611907565b92915050565b5f819050919050565b61194381611931565b811461194d575f80fd5b50565b5f8135905061195e8161193a565b92915050565b5f806040838503121561197a576119796118cf565b5b5f6119878582860161191d565b925050602061199885828601611950565b9150509250929050565b6119ab81611931565b82525050565b5f6020820190506119c45f8301846119a2565b92915050565b5f7fffffffff0000000000000000000000000000000000000000000000000000000082169050919050565b6119fe816119ca565b8114611a08575f80fd5b50565b5f81359050611a19816119f5565b92915050565b5f60208284031215611a3457611a336118cf565b5b5f611a4184828501611a0b565b91505092915050565b5f8115159050919050565b611a5e81611a4a565b82525050565b5f602082019050611a775f830184611a55565b92915050565b5f80fd5b5f80fd5b5f601f19601f8301169050919050565b7f4e487b71000000000000000000000000000000000000000000000000000000005f52604160045260245ffd5b611acb82611a85565b810181811067ffffffffffffffff82111715611aea57611ae9611a95565b5b80604052505050565b5f611afc6118c6565b9050611b088282611ac2565b919050565b5f67ffffffffffffffff821115611b2757611b26611a95565b5b611b3082611a85565b9050602081019050919050565b828183375f83830152505050565b5f611b5d611b5884611b0d565b611af3565b905082815260208101848484011115611b7957611b78611a81565b5b611b84848285611b3d565b509392505050565b5f82601f830112611ba057611b9f611a7d565b5b8135611bb0848260208601611b4b565b91505092915050565b5f60208284031215611bce57611bcd6118cf565b5b5f82013567ffffffffffffffff811115611beb57611bea6118d3565b5b611bf784828501611b8c565b91505092915050565b5f60208284031215611c1557611c146118cf565b5b5f611c2284828501611950565b91505092915050565b5f81519050919050565b5f82825260208201905092915050565b8281835e5f83830152505050565b5f611c5d82611c2b565b611c678185611c35565b9350611c77818560208601611c45565b611c8081611a85565b840191505092915050565b5f6020820190508181035f830152611ca38184611c53565b905092915050565b5f67ffffffffffffffff821115611cc557611cc4611a95565b5b602082029050602081019050919050565b5f80fd5b5f611cec611ce784611cab565b611af3565b90508083825260208201905060208402830185811115611d0f57611d0e611cd6565b5b835b81811015611d385780611d248882611950565b845260208401935050602081019050611d11565b5050509392505050565b5f82601f830112611d5657611d55611a7d565b5b8135611d66848260208601611cda565b91505092915050565b5f67ffffffffffffffff821115611d8957611d88611a95565b5b611d9282611a85565b9050602081019050919050565b5f611db1611dac84611d6f565b611af3565b905082815260208101848484011115611dcd57611dcc611a81565b5b611dd8848285611b3d565b509392505050565b5f82601f830112611df457611df3611a7d565b5b8135611e04848260208601611d9f565b91505092915050565b5f805f8060808587031215611e2557611e246118cf565b5b5f611e328782880161191d565b945050602085013567ffffffffffffffff811115611e5357611e526118d3565b5b611e5f87828801611d42565b935050604085013567ffffffffffffffff811115611e8057611e7f6118d3565b5b611e8c87828801611d42565b925050606085013567ffffffffffffffff811115611ead57611eac6118d3565b5b611eb987828801611de0565b91505092959194509250565b5f805f805f60a08688031215611ede57611edd6118cf565b5b5f611eeb8882890161191d565b9550506020611efc8882890161191d565b945050604086013567ffffffffffffffff811115611f1d57611f1c6118d3565b5b611f2988828901611d42565b935050606086013567ffffffffffffffff811115611f4a57611f496118d3565b5b611f5688828901611d42565b925050608086013567ffffffffffffffff811115611f7757611f766118d3565b5b611f8388828901611de0565b9150509295509295909350565b5f67ffffffffffffffff821115611faa57611fa9611a95565b5b602082029050602081019050919050565b5f611fcd611fc884611f90565b611af3565b90508083825260208201905060208402830185811115611ff057611fef611cd6565b5b835b818110156120195780612005888261191d565b845260208401935050602081019050611ff2565b5050509392505050565b5f82601f83011261203757612036611a7d565b5b8135612047848260208601611fbb565b91505092915050565b5f8060408385031215612066576120656118cf565b5b5f83013567ffffffffffffffff811115612083576120826118d3565b5b61208f85828601612023565b925050602083013567ffffffffffffffff8111156120b0576120af6118d3565b5b6120bc85828601611d42565b9150509250929050565b5f81519050919050565b5f82825260208201905092915050565b5f819050602082019050919050565b6120f881611931565b82525050565b5f61210983836120ef565b60208301905092915050565b5f602082019050919050565b5f61212b826120c6565b61213581856120d0565b9350612140836120e0565b805f5b8381101561217057815161215788826120fe565b975061216283612115565b925050600181019050612143565b5085935050505092915050565b5f6020820190508181035f8301526121958184612121565b905092915050565b5f805f80608085870312156121b5576121b46118cf565b5b5f6121c28782880161191d565b94505060206121d387828801611950565b93505060406121e487828801611950565b925050606085013567ffffffffffffffff811115612205576122046118d3565b5b61221187828801611de0565b91505092959194509250565b612226816118f6565b82525050565b5f60208201905061223f5f83018461221d565b92915050565b61224e81611a4a565b8114612258575f80fd5b50565b5f8135905061226981612245565b92915050565b5f8060408385031215612285576122846118cf565b5b5f6122928582860161191d565b92505060206122a38582860161225b565b9150509250929050565b5f80604083850312156122c3576122c26118cf565b5b5f6122d08582860161191d565b92505060206122e18582860161191d565b9150509250929050565b5f805f805f60a08688031215612304576123036118cf565b5b5f6123118882890161191d565b95505060206123228882890161191d565b945050604061233388828901611950565b935050606061234488828901611950565b925050608086013567ffffffffffffffff811115612365576123646118d3565b5b61237188828901611de0565b9150509295509295909350565b5f60208284031215612393576123926118cf565b5b5f6123a08482850161191d565b91505092915050565b7f4e487b71000000000000000000000000000000000000000000000000000000005f52602260045260245ffd5b5f60028204905060018216806123ed57607f821691505b602082108103612400576123ff6123a9565b5b50919050565b5f6040820190506124195f83018561221d565b612426602083018461221d565b9392505050565b5f6040820190506124405f8301856119a2565b61244d60208301846119a2565b9392505050565b7f4e487b71000000000000000000000000000000000000000000000000000000005f52603260045260245ffd5b5f819050815f5260205f209050919050565b5f6020601f8301049050919050565b5f82821b905092915050565b5f600883026124dd7fffffffffffffffffffffffffffffffffffffffffffffffffffffffffffffffff826124a2565b6124e786836124a2565b95508019841693508086168417925050509392505050565b5f819050919050565b5f61252261251d61251884611931565b6124ff565b611931565b9050919050565b5f819050919050565b61253b83612508565b61254f61254782612529565b8484546124ae565b825550505050565b5f90565b612563612557565b61256e818484612532565b505050565b5b81811015612591576125865f8261255b565b600181019050612574565b5050565b601f8211156125d6576125a781612481565b6125b084612493565b810160208510156125bf578190505b6125d36125cb85612493565b830182612573565b50505b505050565b5f82821c905092915050565b5f6125f65f19846008026125db565b1980831691505092915050565b5f61260e83836125e7565b9150826002028217905092915050565b61262782611c2b565b67ffffffffffffffff8111156126405761263f611a95565b5b61264a82546123d6565b612655828285612595565b5f60209050601f831160018114612686575f8415612674578287015190505b61267e8582612603565b8655506126e5565b601f19841661269486612481565b5f5b828110156126bb57848901518255600182019150602085019450602081019050612696565b868310156126d857848901516126d4601f8916826125e7565b8355505b6001600288020188555050505b505050505050565b5f81519050919050565b5f82825260208201905092915050565b5f612711826126ed565b61271b81856126f7565b935061272b818560208601611c45565b61273481611a85565b840191505092915050565b5f60a0820190506127525f83018861221d565b61275f602083018761221d565b61276c60408301866119a2565b61277960608301856119a2565b818103608083015261278b8184612707565b90509695505050505050565b5f815190506127a5816119f5565b92915050565b5f602082840312156127c0576127bf6118cf565b5b5f6127cd84828501612797565b91505092915050565b5f60a0820190506127e95f83018861221d565b6127f6602083018761221d565b81810360408301526128088186612121565b9050818103606083015261281c8185612121565b905081810360808301526128308184612707565b90509695505050505050565b5f60808201905061284f5f83018761221d565b61285c60208301866119a2565b61286960408301856119a2565b61287660608301846119a2565b95945050505050565b7f4e487b71000000000000000000000000000000000000000000000000000000005f52601160045260245ffd5b5f6128b682611931565b91506128c183611931565b92508282019050808211156128d9576128d861287f565b5b92915050565b5f6040820190508181035f8301526128f78185612121565b9050818103602083015261290b8184612121565b9050939250505056fea2646970667358221220765dcb65d43641e58c9e66255e7b4dab49010423ba70d8452b8b0c5e53923a1e64736f6c6343000819003368747470733a2f2f7261772e67697468756275736572636f6e74656e742e636f6d2f4a4c44536a722f6d657461646174615f626c6f636b636861696e2f6d61696e2f7b69647d2e6a736f6e",
					"opcodes": "PUSH1 0x80 PUSH1 0x40 MSTORE CALLVALUE DUP1 ISZERO PUSH2 0xF JUMPI PUSH0 DUP1 REVERT JUMPDEST POP PUSH1 0x40 MLOAD PUSH2 0x2F2D CODESIZE SUB DUP1 PUSH2 0x2F2D DUP4 CODECOPY DUP2 DUP2 ADD PUSH1 0x40 MSTORE DUP2 ADD SWAP1 PUSH2 0x31 SWAP2 SWAP1 PUSH2 0x22F JUMP JUMPDEST DUP1 PUSH1 0x40 MLOAD DUP1 PUSH1 0x80 ADD PUSH1 0x40 MSTORE DUP1 PUSH1 0x4B DUP2 MSTORE PUSH1 0x20 ADD PUSH2 0x2EE2 PUSH1 0x4B SWAP2 CODECOPY PUSH2 0x5A DUP2 PUSH2 0xFB PUSH1 0x20 SHL PUSH1 0x20 SHR JUMP JUMPDEST POP PUSH0 PUSH20 0xFFFFFFFFFFFFFFFFFFFFFFFFFFFFFFFFFFFFFFFF AND DUP2 PUSH20 0xFFFFFFFFFFFFFFFFFFFFFFFFFFFFFFFFFFFFFFFF AND SUB PUSH2 0xCB JUMPI PUSH0 PUSH1 0x40 MLOAD PUSH32 0x1E4FBDF700000000000000000000000000000000000000000000000000000000 DUP2 MSTORE PUSH1 0x4 ADD PUSH2 0xC2 SWAP2 SWAP1 PUSH2 0x269 JUMP JUMPDEST PUSH1 0x40 MLOAD DUP1 SWAP2 SUB SWAP1 REVERT JUMPDEST PUSH2 0xDA DUP2 PUSH2 0x10E PUSH1 0x20 SHL PUSH1 0x20 SHR JUMP JUMPDEST POP PUSH0 PUSH1 0x3 PUSH1 0x14 PUSH2 0x100 EXP DUP2 SLOAD DUP2 PUSH1 0xFF MUL NOT AND SWAP1 DUP4 ISZERO ISZERO MUL OR SWAP1 SSTORE POP POP PUSH2 0x58B JUMP JUMPDEST DUP1 PUSH1 0x2 SWAP1 DUP2 PUSH2 0x10A SWAP2 SWAP1 PUSH2 0x4BC JUMP JUMPDEST POP POP JUMP JUMPDEST PUSH0 PUSH1 0x3 PUSH0 SWAP1 SLOAD SWAP1 PUSH2 0x100 EXP SWAP1 DIV PUSH20 0xFFFFFFFFFFFFFFFFFFFFFFFFFFFFFFFFFFFFFFFF AND SWAP1 POP DUP2 PUSH1 0x3 PUSH0 PUSH2 0x100 EXP DUP2 SLOAD DUP2 PUSH20 0xFFFFFFFFFFFFFFFFFFFFFFFFFFFFFFFFFFFFFFFF MUL NOT AND SWAP1 DUP4 PUSH20 0xFFFFFFFFFFFFFFFFFFFFFFFFFFFFFFFFFFFFFFFF AND MUL OR SWAP1 SSTORE POP DUP2 PUSH20 0xFFFFFFFFFFFFFFFFFFFFFFFFFFFFFFFFFFFFFFFF AND DUP2 PUSH20 0xFFFFFFFFFFFFFFFFFFFFFFFFFFFFFFFFFFFFFFFF AND PUSH32 0x8BE0079C531659141344CD1FD0A4F28419497F9722A3DAAFE3B4186F6B6457E0 PUSH1 0x40 MLOAD PUSH1 0x40 MLOAD DUP1 SWAP2 SUB SWAP1 LOG3 POP POP JUMP JUMPDEST PUSH0 DUP1 REVERT JUMPDEST PUSH0 PUSH20 0xFFFFFFFFFFFFFFFFFFFFFFFFFFFFFFFFFFFFFFFF DUP3 AND SWAP1 POP SWAP2 SWAP1 POP JUMP JUMPDEST PUSH0 PUSH2 0x1FE DUP3 PUSH2 0x1D5 JUMP JUMPDEST SWAP1 POP SWAP2 SWAP1 POP JUMP JUMPDEST PUSH2 0x20E DUP2 PUSH2 0x1F4 JUMP JUMPDEST DUP2 EQ PUSH2 0x218 JUMPI PUSH0 DUP1 REVERT JUMPDEST POP JUMP JUMPDEST PUSH0 DUP2 MLOAD SWAP1 POP PUSH2 0x229 DUP2 PUSH2 0x205 JUMP JUMPDEST SWAP3 SWAP2 POP POP JUMP JUMPDEST PUSH0 PUSH1 0x20 DUP3 DUP5 SUB SLT ISZERO PUSH2 0x244 JUMPI PUSH2 0x243 PUSH2 0x1D1 JUMP JUMPDEST JUMPDEST PUSH0 PUSH2 0x251 DUP5 DUP3 DUP6 ADD PUSH2 0x21B JUMP JUMPDEST SWAP2 POP POP SWAP3 SWAP2 POP POP JUMP JUMPDEST PUSH2 0x263 DUP2 PUSH2 0x1F4 JUMP JUMPDEST DUP3 MSTORE POP POP JUMP JUMPDEST PUSH0 PUSH1 0x20 DUP3 ADD SWAP1 POP PUSH2 0x27C PUSH0 DUP4 ADD DUP5 PUSH2 0x25A JUMP JUMPDEST SWAP3 SWAP2 POP POP JUMP JUMPDEST PUSH0 DUP2 MLOAD SWAP1 POP SWAP2 SWAP1 POP JUMP JUMPDEST PUSH32 0x4E487B7100000000000000000000000000000000000000000000000000000000 PUSH0 MSTORE PUSH1 0x41 PUSH1 0x4 MSTORE PUSH1 0x24 PUSH0 REVERT JUMPDEST PUSH32 0x4E487B7100000000000000000000000000000000000000000000000000000000 PUSH0 MSTORE PUSH1 0x22 PUSH1 0x4 MSTORE PUSH1 0x24 PUSH0 REVERT JUMPDEST PUSH0 PUSH1 0x2 DUP3 DIV SWAP1 POP PUSH1 0x1 DUP3 AND DUP1 PUSH2 0x2FD JUMPI PUSH1 0x7F DUP3 AND SWAP2 POP JUMPDEST PUSH1 0x20 DUP3 LT DUP2 SUB PUSH2 0x310 JUMPI PUSH2 0x30F PUSH2 0x2B9 JUMP JUMPDEST JUMPDEST POP SWAP2 SWAP1 POP JUMP JUMPDEST PUSH0 DUP2 SWAP1 POP DUP2 PUSH0 MSTORE PUSH1 0x20 PUSH0 KECCAK256 SWAP1 POP SWAP2 SWAP1 POP JUMP JUMPDEST PUSH0 PUSH1 0x20 PUSH1 0x1F DUP4 ADD DIV SWAP1 POP SWAP2 SWAP1 POP JUMP JUMPDEST PUSH0 DUP3 DUP3 SHL SWAP1 POP SWAP3 SWAP2 POP POP JUMP JUMPDEST PUSH0 PUSH1 0x8 DUP4 MUL PUSH2 0x372 PUSH32 0xFFFFFFFFFFFFFFFFFFFFFFFFFFFFFFFFFFFFFFFFFFFFFFFFFFFFFFFFFFFFFFFF DUP3 PUSH2 0x337 JUMP JUMPDEST PUSH2 0x37C DUP7 DUP4 PUSH2 0x337 JUMP JUMPDEST SWAP6 POP DUP1 NOT DUP5 AND SWAP4 POP DUP1 DUP7 AND DUP5 OR SWAP3 POP POP POP SWAP4 SWAP3 POP POP POP JUMP JUMPDEST PUSH0 DUP2 SWAP1 POP SWAP2 SWAP1 POP JUMP JUMPDEST PUSH0 DUP2 SWAP1 POP SWAP2 SWAP1 POP JUMP JUMPDEST PUSH0 PUSH2 0x3C0 PUSH2 0x3BB PUSH2 0x3B6 DUP5 PUSH2 0x394 JUMP JUMPDEST PUSH2 0x39D JUMP JUMPDEST PUSH2 0x394 JUMP JUMPDEST SWAP1 POP SWAP2 SWAP1 POP JUMP JUMPDEST PUSH0 DUP2 SWAP1 POP SWAP2 SWAP1 POP JUMP JUMPDEST PUSH2 0x3D9 DUP4 PUSH2 0x3A6 JUMP JUMPDEST PUSH2 0x3ED PUSH2 0x3E5 DUP3 PUSH2 0x3C7 JUMP JUMPDEST DUP5 DUP5 SLOAD PUSH2 0x343 JUMP JUMPDEST DUP3 SSTORE POP POP POP POP JUMP JUMPDEST PUSH0 SWAP1 JUMP JUMPDEST PUSH2 0x401 PUSH2 0x3F5 JUMP JUMPDEST PUSH2 0x40C DUP2 DUP5 DUP5 PUSH2 0x3D0 JUMP JUMPDEST POP POP POP JUMP JUMPDEST JUMPDEST DUP2 DUP2 LT ISZERO PUSH2 0x42F JUMPI PUSH2 0x424 PUSH0 DUP3 PUSH2 0x3F9 JUMP JUMPDEST PUSH1 0x1 DUP2 ADD SWAP1 POP PUSH2 0x412 JUMP JUMPDEST POP POP JUMP JUMPDEST PUSH1 0x1F DUP3 GT ISZERO PUSH2 0x474 JUMPI PUSH2 0x445 DUP2 PUSH2 0x316 JUMP JUMPDEST PUSH2 0x44E DUP5 PUSH2 0x328 JUMP JUMPDEST DUP2 ADD PUSH1 0x20 DUP6 LT ISZERO PUSH2 0x45D JUMPI DUP2 SWAP1 POP JUMPDEST PUSH2 0x471 PUSH2 0x469 DUP6 PUSH2 0x328 JUMP JUMPDEST DUP4 ADD DUP3 PUSH2 0x411 JUMP JUMPDEST POP POP JUMPDEST POP POP POP JUMP JUMPDEST PUSH0 DUP3 DUP3 SHR SWAP1 POP SWAP3 SWAP2 POP POP JUMP JUMPDEST PUSH0 PUSH2 0x494 PUSH0 NOT DUP5 PUSH1 0x8 MUL PUSH2 0x479 JUMP JUMPDEST NOT DUP1 DUP4 AND SWAP2 POP POP SWAP3 SWAP2 POP POP JUMP JUMPDEST PUSH0 PUSH2 0x4AC DUP4 DUP4 PUSH2 0x485 JUMP JUMPDEST SWAP2 POP DUP3 PUSH1 0x2 MUL DUP3 OR SWAP1 POP SWAP3 SWAP2 POP POP JUMP JUMPDEST PUSH2 0x4C5 DUP3 PUSH2 0x282 JUMP JUMPDEST PUSH8 0xFFFFFFFFFFFFFFFF DUP2 GT ISZERO PUSH2 0x4DE JUMPI PUSH2 0x4DD PUSH2 0x28C JUMP JUMPDEST JUMPDEST PUSH2 0x4E8 DUP3 SLOAD PUSH2 0x2E6 JUMP JUMPDEST PUSH2 0x4F3 DUP3 DUP3 DUP6 PUSH2 0x433 JUMP JUMPDEST PUSH0 PUSH1 0x20 SWAP1 POP PUSH1 0x1F DUP4 GT PUSH1 0x1 DUP2 EQ PUSH2 0x524 JUMPI PUSH0 DUP5 ISZERO PUSH2 0x512 JUMPI DUP3 DUP8 ADD MLOAD SWAP1 POP JUMPDEST PUSH2 0x51C DUP6 DUP3 PUSH2 0x4A1 JUMP JUMPDEST DUP7 SSTORE POP PUSH2 0x583 JUMP JUMPDEST PUSH1 0x1F NOT DUP5 AND PUSH2 0x532 DUP7 PUSH2 0x316 JUMP JUMPDEST PUSH0 JUMPDEST DUP3 DUP2 LT ISZERO PUSH2 0x559 JUMPI DUP5 DUP10 ADD MLOAD DUP3 SSTORE PUSH1 0x1 DUP3 ADD SWAP2 POP PUSH1 0x20 DUP6 ADD SWAP5 POP PUSH1 0x20 DUP2 ADD SWAP1 POP PUSH2 0x534 JUMP JUMPDEST DUP7 DUP4 LT ISZERO PUSH2 0x576 JUMPI DUP5 DUP10 ADD MLOAD PUSH2 0x572 PUSH1 0x1F DUP10 AND DUP3 PUSH2 0x485 JUMP JUMPDEST DUP4 SSTORE POP JUMPDEST PUSH1 0x1 PUSH1 0x2 DUP9 MUL ADD DUP9 SSTORE POP POP POP JUMPDEST POP POP POP POP POP POP JUMP JUMPDEST PUSH2 0x294A DUP1 PUSH2 0x598 PUSH0 CODECOPY PUSH0 RETURN INVALID PUSH1 0x80 PUSH1 0x40 MSTORE CALLVALUE DUP1 ISZERO PUSH2 0xF JUMPI PUSH0 DUP1 REVERT JUMPDEST POP PUSH1 0x4 CALLDATASIZE LT PUSH2 0x108 JUMPI PUSH0 CALLDATALOAD PUSH1 0xE0 SHR DUP1 PUSH4 0x5C975ABB GT PUSH2 0xA0 JUMPI DUP1 PUSH4 0x8DA5CB5B GT PUSH2 0x6F JUMPI DUP1 PUSH4 0x8DA5CB5B EQ PUSH2 0x278 JUMPI DUP1 PUSH4 0xA22CB465 EQ PUSH2 0x296 JUMPI DUP1 PUSH4 0xE985E9C5 EQ PUSH2 0x2B2 JUMPI DUP1 PUSH4 0xF242432A EQ PUSH2 0x2E2 JUMPI DUP1 PUSH4 0xF2FDE38B EQ PUSH2 0x2FE JUMPI PUSH2 0x108 JUMP JUMPDEST DUP1 PUSH4 0x5C975ABB EQ PUSH2 0x22A JUMPI DUP1 PUSH4 0x715018A6 EQ PUSH2 0x248 JUMPI DUP1 PUSH4 0x731133E9 EQ PUSH2 0x252 JUMPI DUP1 PUSH4 0x8456CB59 EQ PUSH2 0x26E JUMPI PUSH2 0x108 JUMP JUMPDEST DUP1 PUSH4 0x1F7FDFFA GT PUSH2 0xDC JUMPI DUP1 PUSH4 0x1F7FDFFA EQ PUSH2 0x1B8 JUMPI DUP1 PUSH4 0x2EB2C2D6 EQ PUSH2 0x1D4 JUMPI DUP1 PUSH4 0x3F4BA83A EQ PUSH2 0x1F0 JUMPI DUP1 PUSH4 0x4E1273F4 EQ PUSH2 0x1FA JUMPI PUSH2 0x108 JUMP JUMPDEST DUP1 PUSH3 0xFDD58E EQ PUSH2 0x10C JUMPI DUP1 PUSH4 0x1FFC9A7 EQ PUSH2 0x13C JUMPI DUP1 PUSH4 0x2FE5305 EQ PUSH2 0x16C JUMPI DUP1 PUSH4 0xE89341C EQ PUSH2 0x188 JUMPI JUMPDEST PUSH0 DUP1 REVERT JUMPDEST PUSH2 0x126 PUSH1 0x4 DUP1 CALLDATASIZE SUB DUP2 ADD SWAP1 PUSH2 0x121 SWAP2 SWAP1 PUSH2 0x1964 JUMP JUMPDEST PUSH2 0x31A JUMP JUMPDEST PUSH1 0x40 MLOAD PUSH2 0x133 SWAP2 SWAP1 PUSH2 0x19B1 JUMP JUMPDEST PUSH1 0x40 MLOAD DUP1 SWAP2 SUB SWAP1 RETURN JUMPDEST PUSH2 0x156 PUSH1 0x4 DUP1 CALLDATASIZE SUB DUP2 ADD SWAP1 PUSH2 0x151 SWAP2 SWAP1 PUSH2 0x1A1F JUMP JUMPDEST PUSH2 0x36F JUMP JUMPDEST PUSH1 0x40 MLOAD PUSH2 0x163 SWAP2 SWAP1 PUSH2 0x1A64 JUMP JUMPDEST PUSH1 0x40 MLOAD DUP1 SWAP2 SUB SWAP1 RETURN JUMPDEST PUSH2 0x186 PUSH1 0x4 DUP1 CALLDATASIZE SUB DUP2 ADD SWAP1 PUSH2 0x181 SWAP2 SWAP1 PUSH2 0x1BB9 JUMP JUMPDEST PUSH2 0x450 JUMP JUMPDEST STOP JUMPDEST PUSH2 0x1A2 PUSH1 0x4 DUP1 CALLDATASIZE SUB DUP2 ADD SWAP1 PUSH2 0x19D SWAP2 SWAP1 PUSH2 0x1C00 JUMP JUMPDEST PUSH2 0x464 JUMP JUMPDEST PUSH1 0x40 MLOAD PUSH2 0x1AF SWAP2 SWAP1 PUSH2 0x1C8B JUMP JUMPDEST PUSH1 0x40 MLOAD DUP1 SWAP2 SUB SWAP1 RETURN JUMPDEST PUSH2 0x1D2 PUSH1 0x4 DUP1 CALLDATASIZE SUB DUP2 ADD SWAP1 PUSH2 0x1CD SWAP2 SWAP1 PUSH2 0x1E0D JUMP JUMPDEST PUSH2 0x4F6 JUMP JUMPDEST STOP JUMPDEST PUSH2 0x1EE PUSH1 0x4 DUP1 CALLDATASIZE SUB DUP2 ADD SWAP1 PUSH2 0x1E9 SWAP2 SWAP1 PUSH2 0x1EC5 JUMP JUMPDEST PUSH2 0x510 JUMP JUMPDEST STOP JUMPDEST PUSH2 0x1F8 PUSH2 0x5B7 JUMP JUMPDEST STOP JUMPDEST PUSH2 0x214 PUSH1 0x4 DUP1 CALLDATASIZE SUB DUP2 ADD SWAP1 PUSH2 0x20F SWAP2 SWAP1 PUSH2 0x2050 JUMP JUMPDEST PUSH2 0x5C9 JUMP JUMPDEST PUSH1 0x40 MLOAD PUSH2 0x221 SWAP2 SWAP1 PUSH2 0x217D JUMP JUMPDEST PUSH1 0x40 MLOAD DUP1 SWAP2 SUB SWAP1 RETURN JUMPDEST PUSH2 0x232 PUSH2 0x6D0 JUMP JUMPDEST PUSH1 0x40 MLOAD PUSH2 0x23F SWAP2 SWAP1 PUSH2 0x1A64 JUMP JUMPDEST PUSH1 0x40 MLOAD DUP1 SWAP2 SUB SWAP1 RETURN JUMPDEST PUSH2 0x250 PUSH2 0x6E6 JUMP JUMPDEST STOP JUMPDEST PUSH2 0x26C PUSH1 0x4 DUP1 CALLDATASIZE SUB DUP2 ADD SWAP1 PUSH2 0x267 SWAP2 SWAP1 PUSH2 0x219D JUMP JUMPDEST PUSH2 0x6F9 JUMP JUMPDEST STOP JUMPDEST PUSH2 0x276 PUSH2 0x713 JUMP JUMPDEST STOP JUMPDEST PUSH2 0x280 PUSH2 0x725 JUMP JUMPDEST PUSH1 0x40 MLOAD PUSH2 0x28D SWAP2 SWAP1 PUSH2 0x222C JUMP JUMPDEST PUSH1 0x40 MLOAD DUP1 SWAP2 SUB SWAP1 RETURN JUMPDEST PUSH2 0x2B0 PUSH1 0x4 DUP1 CALLDATASIZE SUB DUP2 ADD SWAP1 PUSH2 0x2AB SWAP2 SWAP1 PUSH2 0x226F JUMP JUMPDEST PUSH2 0x74D JUMP JUMPDEST STOP JUMPDEST PUSH2 0x2CC PUSH1 0x4 DUP1 CALLDATASIZE SUB DUP2 ADD SWAP1 PUSH2 0x2C7 SWAP2 SWAP1 PUSH2 0x22AD JUMP JUMPDEST PUSH2 0x763 JUMP JUMPDEST PUSH1 0x40 MLOAD PUSH2 0x2D9 SWAP2 SWAP1 PUSH2 0x1A64 JUMP JUMPDEST PUSH1 0x40 MLOAD DUP1 SWAP2 SUB SWAP1 RETURN JUMPDEST PUSH2 0x2FC PUSH1 0x4 DUP1 CALLDATASIZE SUB DUP2 ADD SWAP1 PUSH2 0x2F7 SWAP2 SWAP1 PUSH2 0x22EB JUMP JUMPDEST PUSH2 0x7F1 JUMP JUMPDEST STOP JUMPDEST PUSH2 0x318 PUSH1 0x4 DUP1 CALLDATASIZE SUB DUP2 ADD SWAP1 PUSH2 0x313 SWAP2 SWAP1 PUSH2 0x237E JUMP JUMPDEST PUSH2 0x898 JUMP JUMPDEST STOP JUMPDEST PUSH0 DUP1 PUSH0 DUP4 DUP2 MSTORE PUSH1 0x20 ADD SWAP1 DUP2 MSTORE PUSH1 0x20 ADD PUSH0 KECCAK256 PUSH0 DUP5 PUSH20 0xFFFFFFFFFFFFFFFFFFFFFFFFFFFFFFFFFFFFFFFF AND PUSH20 0xFFFFFFFFFFFFFFFFFFFFFFFFFFFFFFFFFFFFFFFF AND DUP2 MSTORE PUSH1 0x20 ADD SWAP1 DUP2 MSTORE PUSH1 0x20 ADD PUSH0 KECCAK256 SLOAD SWAP1 POP SWAP3 SWAP2 POP POP JUMP JUMPDEST PUSH0 PUSH32 0xD9B67A2600000000000000000000000000000000000000000000000000000000 PUSH28 0xFFFFFFFFFFFFFFFFFFFFFFFFFFFFFFFFFFFFFFFFFFFFFFFFFFFFFFFF NOT AND DUP3 PUSH28 0xFFFFFFFFFFFFFFFFFFFFFFFFFFFFFFFFFFFFFFFFFFFFFFFFFFFFFFFF NOT AND EQ DUP1 PUSH2 0x439 JUMPI POP PUSH32 0xE89341C00000000000000000000000000000000000000000000000000000000 PUSH28 0xFFFFFFFFFFFFFFFFFFFFFFFFFFFFFFFFFFFFFFFFFFFFFFFFFFFFFFFF NOT AND DUP3 PUSH28 0xFFFFFFFFFFFFFFFFFFFFFFFFFFFFFFFFFFFFFFFFFFFFFFFFFFFFFFFF NOT AND EQ JUMPDEST DUP1 PUSH2 0x449 JUMPI POP PUSH2 0x448 DUP3 PUSH2 0x91C JUMP JUMPDEST JUMPDEST SWAP1 POP SWAP2 SWAP1 POP JUMP JUMPDEST PUSH2 0x458 PUSH2 0x985 JUMP JUMPDEST PUSH2 0x461 DUP2 PUSH2 0xA0C JUMP JUMPDEST POP JUMP JUMPDEST PUSH1 0x60 PUSH1 0x2 DUP1 SLOAD PUSH2 0x473 SWAP1 PUSH2 0x23D6 JUMP JUMPDEST DUP1 PUSH1 0x1F ADD PUSH1 0x20 DUP1 SWAP2 DIV MUL PUSH1 0x20 ADD PUSH1 0x40 MLOAD SWAP1 DUP2 ADD PUSH1 0x40 MSTORE DUP1 SWAP3 SWAP2 SWAP1 DUP2 DUP2 MSTORE PUSH1 0x20 ADD DUP3 DUP1 SLOAD PUSH2 0x49F SWAP1 PUSH2 0x23D6 JUMP JUMPDEST DUP1 ISZERO PUSH2 0x4EA JUMPI DUP1 PUSH1 0x1F LT PUSH2 0x4C1 JUMPI PUSH2 0x100 DUP1 DUP4 SLOAD DIV MUL DUP4 MSTORE SWAP2 PUSH1 0x20 ADD SWAP2 PUSH2 0x4EA JUMP JUMPDEST DUP3 ADD SWAP2 SWAP1 PUSH0 MSTORE PUSH1 0x20 PUSH0 KECCAK256 SWAP1 JUMPDEST DUP2 SLOAD DUP2 MSTORE SWAP1 PUSH1 0x1 ADD SWAP1 PUSH1 0x20 ADD DUP1 DUP4 GT PUSH2 0x4CD JUMPI DUP3 SWAP1 SUB PUSH1 0x1F AND DUP3 ADD SWAP2 JUMPDEST POP POP POP POP POP SWAP1 POP SWAP2 SWAP1 POP JUMP JUMPDEST PUSH2 0x4FE PUSH2 0x985 JUMP JUMPDEST PUSH2 0x50A DUP5 DUP5 DUP5 DUP5 PUSH2 0xA1F JUMP JUMPDEST POP POP POP POP JUMP JUMPDEST PUSH0 PUSH2 0x519 PUSH2 0xAA2 JUMP JUMPDEST SWAP1 POP DUP1 PUSH20 0xFFFFFFFFFFFFFFFFFFFFFFFFFFFFFFFFFFFFFFFF AND DUP7 PUSH20 0xFFFFFFFFFFFFFFFFFFFFFFFFFFFFFFFFFFFFFFFF AND EQ ISZERO DUP1 ISZERO PUSH2 0x55E JUMPI POP PUSH2 0x55C DUP7 DUP3 PUSH2 0x763 JUMP JUMPDEST ISZERO JUMPDEST ISZERO PUSH2 0x5A2 JUMPI DUP1 DUP7 PUSH1 0x40 MLOAD PUSH32 0xE237D92200000000000000000000000000000000000000000000000000000000 DUP2 MSTORE PUSH1 0x4 ADD PUSH2 0x599 SWAP3 SWAP2 SWAP1 PUSH2 0x2406 JUMP JUMPDEST PUSH1 0x40 MLOAD DUP1 SWAP2 SUB SWAP1 REVERT JUMPDEST PUSH2 0x5AF DUP7 DUP7 DUP7 DUP7 DUP7 PUSH2 0xAA9 JUMP JUMPDEST POP POP POP POP POP POP JUMP JUMPDEST PUSH2 0x5BF PUSH2 0x985 JUMP JUMPDEST PUSH2 0x5C7 PUSH2 0xB9D JUMP JUMPDEST JUMP JUMPDEST PUSH1 0x60 DUP2 MLOAD DUP4 MLOAD EQ PUSH2 0x615 JUMPI DUP2 MLOAD DUP4 MLOAD PUSH1 0x40 MLOAD PUSH32 0x5B05999100000000000000000000000000000000000000000000000000000000 DUP2 MSTORE PUSH1 0x4 ADD PUSH2 0x60C SWAP3 SWAP2 SWAP1 PUSH2 0x242D JUMP JUMPDEST PUSH1 0x40 MLOAD DUP1 SWAP2 SUB SWAP1 REVERT JUMPDEST PUSH0 DUP4 MLOAD PUSH8 0xFFFFFFFFFFFFFFFF DUP2 GT ISZERO PUSH2 0x631 JUMPI PUSH2 0x630 PUSH2 0x1A95 JUMP JUMPDEST JUMPDEST PUSH1 0x40 MLOAD SWAP1 DUP1 DUP3 MSTORE DUP1 PUSH1 0x20 MUL PUSH1 0x20 ADD DUP3 ADD PUSH1 0x40 MSTORE DUP1 ISZERO PUSH2 0x65F JUMPI DUP2 PUSH1 0x20 ADD PUSH1 0x20 DUP3 MUL DUP1 CALLDATASIZE DUP4 CALLDATACOPY DUP1 DUP3 ADD SWAP2 POP POP SWAP1 POP JUMPDEST POP SWAP1 POP PUSH0 JUMPDEST DUP5 MLOAD DUP2 LT ISZERO PUSH2 0x6C5 JUMPI PUSH2 0x69B PUSH2 0x683 DUP3 DUP8 PUSH2 0xBFF SWAP1 SWAP2 SWAP1 PUSH4 0xFFFFFFFF AND JUMP JUMPDEST PUSH2 0x696 DUP4 DUP8 PUSH2 0xC12 SWAP1 SWAP2 SWAP1 PUSH4 0xFFFFFFFF AND JUMP JUMPDEST PUSH2 0x31A JUMP JUMPDEST DUP3 DUP3 DUP2 MLOAD DUP2 LT PUSH2 0x6AE JUMPI PUSH2 0x6AD PUSH2 0x2454 JUMP JUMPDEST JUMPDEST PUSH1 0x20 MUL PUSH1 0x20 ADD ADD DUP2 DUP2 MSTORE POP POP DUP1 PUSH1 0x1 ADD SWAP1 POP PUSH2 0x664 JUMP JUMPDEST POP DUP1 SWAP2 POP POP SWAP3 SWAP2 POP POP JUMP JUMPDEST PUSH0 PUSH1 0x3 PUSH1 0x14 SWAP1 SLOAD SWAP1 PUSH2 0x100 EXP SWAP1 DIV PUSH1 0xFF AND SWAP1 POP SWAP1 JUMP JUMPDEST PUSH2 0x6EE PUSH2 0x985 JUMP JUMPDEST PUSH2 0x6F7 PUSH0 PUSH2 0xC25 JUMP JUMPDEST JUMP JUMPDEST PUSH2 0x701 PUSH2 0x985 JUMP JUMPDEST PUSH2 0x70D DUP5 DUP5 DUP5 DUP5 PUSH2 0xCE8 JUMP JUMPDEST POP POP POP POP JUMP JUMPDEST PUSH2 0x71B PUSH2 0x985 JUMP JUMPDEST PUSH2 0x723 PUSH2 0xD7D JUMP JUMPDEST JUMP JUMPDEST PUSH0 PUSH1 0x3 PUSH0 SWAP1 SLOAD SWAP1 PUSH2 0x100 EXP SWAP1 DIV PUSH20 0xFFFFFFFFFFFFFFFFFFFFFFFFFFFFFFFFFFFFFFFF AND SWAP1 POP SWAP1 JUMP JUMPDEST PUSH2 0x75F PUSH2 0x758 PUSH2 0xAA2 JUMP JUMPDEST DUP4 DUP4 PUSH2 0xDE0 JUMP JUMPDEST POP POP JUMP JUMPDEST PUSH0 PUSH1 0x1 PUSH0 DUP5 PUSH20 0xFFFFFFFFFFFFFFFFFFFFFFFFFFFFFFFFFFFFFFFF AND PUSH20 0xFFFFFFFFFFFFFFFFFFFFFFFFFFFFFFFFFFFFFFFF AND DUP2 MSTORE PUSH1 0x20 ADD SWAP1 DUP2 MSTORE PUSH1 0x20 ADD PUSH0 KECCAK256 PUSH0 DUP4 PUSH20 0xFFFFFFFFFFFFFFFFFFFFFFFFFFFFFFFFFFFFFFFF AND PUSH20 0xFFFFFFFFFFFFFFFFFFFFFFFFFFFFFFFFFFFFFFFF AND DUP2 MSTORE PUSH1 0x20 ADD SWAP1 DUP2 MSTORE PUSH1 0x20 ADD PUSH0 KECCAK256 PUSH0 SWAP1 SLOAD SWAP1 PUSH2 0x100 EXP SWAP1 DIV PUSH1 0xFF AND SWAP1 POP SWAP3 SWAP2 POP POP JUMP JUMPDEST PUSH0 PUSH2 0x7FA PUSH2 0xAA2 JUMP JUMPDEST SWAP1 POP DUP1 PUSH20 0xFFFFFFFFFFFFFFFFFFFFFFFFFFFFFFFFFFFFFFFF AND DUP7 PUSH20 0xFFFFFFFFFFFFFFFFFFFFFFFFFFFFFFFFFFFFFFFF AND EQ ISZERO DUP1 ISZERO PUSH2 0x83F JUMPI POP PUSH2 0x83D DUP7 DUP3 PUSH2 0x763 JUMP JUMPDEST ISZERO JUMPDEST ISZERO PUSH2 0x883 JUMPI DUP1 DUP7 PUSH1 0x40 MLOAD PUSH32 0xE237D92200000000000000000000000000000000000000000000000000000000 DUP2 MSTORE PUSH1 0x4 ADD PUSH2 0x87A SWAP3 SWAP2 SWAP1 PUSH2 0x2406 JUMP JUMPDEST PUSH1 0x40 MLOAD DUP1 SWAP2 SUB SWAP1 REVERT JUMPDEST PUSH2 0x890 DUP7 DUP7 DUP7 DUP7 DUP7 PUSH2 0xF49 JUMP JUMPDEST POP POP POP POP POP POP JUMP JUMPDEST PUSH2 0x8A0 PUSH2 0x985 JUMP JUMPDEST PUSH0 PUSH20 0xFFFFFFFFFFFFFFFFFFFFFFFFFFFFFFFFFFFFFFFF AND DUP2 PUSH20 0xFFFFFFFFFFFFFFFFFFFFFFFFFFFFFFFFFFFFFFFF AND SUB PUSH2 0x910 JUMPI PUSH0 PUSH1 0x40 MLOAD PUSH32 0x1E4FBDF700000000000000000000000000000000000000000000000000000000 DUP2 MSTORE PUSH1 0x4 ADD PUSH2 0x907 SWAP2 SWAP1 PUSH2 0x222C JUMP JUMPDEST PUSH1 0x40 MLOAD DUP1 SWAP2 SUB SWAP1 REVERT JUMPDEST PUSH2 0x919 DUP2 PUSH2 0xC25 JUMP JUMPDEST POP JUMP JUMPDEST PUSH0 PUSH32 0x1FFC9A700000000000000000000000000000000000000000000000000000000 PUSH28 0xFFFFFFFFFFFFFFFFFFFFFFFFFFFFFFFFFFFFFFFFFFFFFFFFFFFFFFFF NOT AND DUP3 PUSH28 0xFFFFFFFFFFFFFFFFFFFFFFFFFFFFFFFFFFFFFFFFFFFFFFFFFFFFFFFF NOT AND EQ SWAP1 POP SWAP2 SWAP1 POP JUMP JUMPDEST PUSH2 0x98D PUSH2 0xAA2 JUMP JUMPDEST PUSH20 0xFFFFFFFFFFFFFFFFFFFFFFFFFFFFFFFFFFFFFFFF AND PUSH2 0x9AB PUSH2 0x725 JUMP JUMPDEST PUSH20 0xFFFFFFFFFFFFFFFFFFFFFFFFFFFFFFFFFFFFFFFF AND EQ PUSH2 0xA0A JUMPI PUSH2 0x9CE PUSH2 0xAA2 JUMP JUMPDEST PUSH1 0x40 MLOAD PUSH32 0x118CDAA700000000000000000000000000000000000000000000000000000000 DUP2 MSTORE PUSH1 0x4 ADD PUSH2 0xA01 SWAP2 SWAP1 PUSH2 0x222C JUMP JUMPDEST PUSH1 0x40 MLOAD DUP1 SWAP2 SUB SWAP1 REVERT JUMPDEST JUMP JUMPDEST DUP1 PUSH1 0x2 SWAP1 DUP2 PUSH2 0xA1B SWAP2 SWAP1 PUSH2 0x261E JUMP JUMPDEST POP POP JUMP JUMPDEST PUSH0 PUSH20 0xFFFFFFFFFFFFFFFFFFFFFFFFFFFFFFFFFFFFFFFF AND DUP5 PUSH20 0xFFFFFFFFFFFFFFFFFFFFFFFFFFFFFFFFFFFFFFFF AND SUB PUSH2 0xA8F JUMPI PUSH0 PUSH1 0x40 MLOAD PUSH32 0x57F447CE00000000000000000000000000000000000000000000000000000000 DUP2 MSTORE PUSH1 0x4 ADD PUSH2 0xA86 SWAP2 SWAP1 PUSH2 0x222C JUMP JUMPDEST PUSH1 0x40 MLOAD DUP1 SWAP2 SUB SWAP1 REVERT JUMPDEST PUSH2 0xA9C PUSH0 DUP6 DUP6 DUP6 DUP6 PUSH2 0x104F JUMP JUMPDEST POP POP POP POP JUMP JUMPDEST PUSH0 CALLER SWAP1 POP SWAP1 JUMP JUMPDEST PUSH0 PUSH20 0xFFFFFFFFFFFFFFFFFFFFFFFFFFFFFFFFFFFFFFFF AND DUP5 PUSH20 0xFFFFFFFFFFFFFFFFFFFFFFFFFFFFFFFFFFFFFFFF AND SUB PUSH2 0xB19 JUMPI PUSH0 PUSH1 0x40 MLOAD PUSH32 0x57F447CE00000000000000000000000000000000000000000000000000000000 DUP2 MSTORE PUSH1 0x4 ADD PUSH2 0xB10 SWAP2 SWAP1 PUSH2 0x222C JUMP JUMPDEST PUSH1 0x40 MLOAD DUP1 SWAP2 SUB SWAP1 REVERT JUMPDEST PUSH0 PUSH20 0xFFFFFFFFFFFFFFFFFFFFFFFFFFFFFFFFFFFFFFFF AND DUP6 PUSH20 0xFFFFFFFFFFFFFFFFFFFFFFFFFFFFFFFFFFFFFFFF AND SUB PUSH2 0xB89 JUMPI PUSH0 PUSH1 0x40 MLOAD PUSH32 0x1A8351400000000000000000000000000000000000000000000000000000000 DUP2 MSTORE PUSH1 0x4 ADD PUSH2 0xB80 SWAP2 SWAP1 PUSH2 0x222C JUMP JUMPDEST PUSH1 0x40 MLOAD DUP1 SWAP2 SUB SWAP1 REVERT JUMPDEST PUSH2 0xB96 DUP6 DUP6 DUP6 DUP6 DUP6 PUSH2 0x104F JUMP JUMPDEST POP POP POP POP POP JUMP JUMPDEST PUSH2 0xBA5 PUSH2 0x10FB JUMP JUMPDEST PUSH0 PUSH1 0x3 PUSH1 0x14 PUSH2 0x100 EXP DUP2 SLOAD DUP2 PUSH1 0xFF MUL NOT AND SWAP1 DUP4 ISZERO ISZERO MUL OR SWAP1 SSTORE POP PUSH32 0x5DB9EE0A495BF2E6FF9C91A7834C1BA4FDD244A5E8AA4E537BD38AEAE4B073AA PUSH2 0xBE8 PUSH2 0xAA2 JUMP JUMPDEST PUSH1 0x40 MLOAD PUSH2 0xBF5 SWAP2 SWAP1 PUSH2 0x222C JUMP JUMPDEST PUSH1 0x40 MLOAD DUP1 SWAP2 SUB SWAP1 LOG1 JUMP JUMPDEST PUSH0 PUSH1 0x20 DUP3 MUL PUSH1 0x20 DUP5 ADD ADD MLOAD SWAP1 POP SWAP3 SWAP2 POP POP JUMP JUMPDEST PUSH0 PUSH1 0x20 DUP3 MUL PUSH1 0x20 DUP5 ADD ADD MLOAD SWAP1 POP SWAP3 SWAP2 POP POP JUMP JUMPDEST PUSH0 PUSH1 0x3 PUSH0 SWAP1 SLOAD SWAP1 PUSH2 0x100 EXP SWAP1 DIV PUSH20 0xFFFFFFFFFFFFFFFFFFFFFFFFFFFFFFFFFFFFFFFF AND SWAP1 POP DUP2 PUSH1 0x3 PUSH0 PUSH2 0x100 EXP DUP2 SLOAD DUP2 PUSH20 0xFFFFFFFFFFFFFFFFFFFFFFFFFFFFFFFFFFFFFFFF MUL NOT AND SWAP1 DUP4 PUSH20 0xFFFFFFFFFFFFFFFFFFFFFFFFFFFFFFFFFFFFFFFF AND MUL OR SWAP1 SSTORE POP DUP2 PUSH20 0xFFFFFFFFFFFFFFFFFFFFFFFFFFFFFFFFFFFFFFFF AND DUP2 PUSH20 0xFFFFFFFFFFFFFFFFFFFFFFFFFFFFFFFFFFFFFFFF AND PUSH32 0x8BE0079C531659141344CD1FD0A4F28419497F9722A3DAAFE3B4186F6B6457E0 PUSH1 0x40 MLOAD PUSH1 0x40 MLOAD DUP1 SWAP2 SUB SWAP1 LOG3 POP POP JUMP JUMPDEST PUSH0 PUSH20 0xFFFFFFFFFFFFFFFFFFFFFFFFFFFFFFFFFFFFFFFF AND DUP5 PUSH20 0xFFFFFFFFFFFFFFFFFFFFFFFFFFFFFFFFFFFFFFFF AND SUB PUSH2 0xD58 JUMPI PUSH0 PUSH1 0x40 MLOAD PUSH32 0x57F447CE00000000000000000000000000000000000000000000000000000000 DUP2 MSTORE PUSH1 0x4 ADD PUSH2 0xD4F SWAP2 SWAP1 PUSH2 0x222C JUMP JUMPDEST PUSH1 0x40 MLOAD DUP1 SWAP2 SUB SWAP1 REVERT JUMPDEST PUSH0 DUP1 PUSH2 0xD64 DUP6 DUP6 PUSH2 0x113B JUMP JUMPDEST SWAP2 POP SWAP2 POP PUSH2 0xD75 PUSH0 DUP8 DUP5 DUP5 DUP8 PUSH2 0x104F JUMP JUMPDEST POP POP POP POP POP POP JUMP JUMPDEST PUSH2 0xD85 PUSH2 0x116B JUMP JUMPDEST PUSH1 0x1 PUSH1 0x3 PUSH1 0x14 PUSH2 0x100 EXP DUP2 SLOAD DUP2 PUSH1 0xFF MUL NOT AND SWAP1 DUP4 ISZERO ISZERO MUL OR SWAP1 SSTORE POP PUSH32 0x62E78CEA01BEE320CD4E420270B5EA74000D11B0C9F74754EBDBFC544B05A258 PUSH2 0xDC9 PUSH2 0xAA2 JUMP JUMPDEST PUSH1 0x40 MLOAD PUSH2 0xDD6 SWAP2 SWAP1 PUSH2 0x222C JUMP JUMPDEST PUSH1 0x40 MLOAD DUP1 SWAP2 SUB SWAP1 LOG1 JUMP JUMPDEST PUSH0 PUSH20 0xFFFFFFFFFFFFFFFFFFFFFFFFFFFFFFFFFFFFFFFF AND DUP3 PUSH20 0xFFFFFFFFFFFFFFFFFFFFFFFFFFFFFFFFFFFFFFFF AND SUB PUSH2 0xE50 JUMPI PUSH0 PUSH1 0x40 MLOAD PUSH32 0xCED3E10000000000000000000000000000000000000000000000000000000000 DUP2 MSTORE PUSH1 0x4 ADD PUSH2 0xE47 SWAP2 SWAP1 PUSH2 0x222C JUMP JUMPDEST PUSH1 0x40 MLOAD DUP1 SWAP2 SUB SWAP1 REVERT JUMPDEST DUP1 PUSH1 0x1 PUSH0 DUP6 PUSH20 0xFFFFFFFFFFFFFFFFFFFFFFFFFFFFFFFFFFFFFFFF AND PUSH20 0xFFFFFFFFFFFFFFFFFFFFFFFFFFFFFFFFFFFFFFFF AND DUP2 MSTORE PUSH1 0x20 ADD SWAP1 DUP2 MSTORE PUSH1 0x20 ADD PUSH0 KECCAK256 PUSH0 DUP5 PUSH20 0xFFFFFFFFFFFFFFFFFFFFFFFFFFFFFFFFFFFFFFFF AND PUSH20 0xFFFFFFFFFFFFFFFFFFFFFFFFFFFFFFFFFFFFFFFF AND DUP2 MSTORE PUSH1 0x20 ADD SWAP1 DUP2 MSTORE PUSH1 0x20 ADD PUSH0 KECCAK256 PUSH0 PUSH2 0x100 EXP DUP2 SLOAD DUP2 PUSH1 0xFF MUL NOT AND SWAP1 DUP4 ISZERO ISZERO MUL OR SWAP1 SSTORE POP DUP2 PUSH20 0xFFFFFFFFFFFFFFFFFFFFFFFFFFFFFFFFFFFFFFFF AND DUP4 PUSH20 0xFFFFFFFFFFFFFFFFFFFFFFFFFFFFFFFFFFFFFFFF AND PUSH32 0x17307EAB39AB6107E8899845AD3D59BD9653F200F220920489CA2B5937696C31 DUP4 PUSH1 0x40 MLOAD PUSH2 0xF3C SWAP2 SWAP1 PUSH2 0x1A64 JUMP JUMPDEST PUSH1 0x40 MLOAD DUP1 SWAP2 SUB SWAP1 LOG3 POP POP POP JUMP JUMPDEST PUSH0 PUSH20 0xFFFFFFFFFFFFFFFFFFFFFFFFFFFFFFFFFFFFFFFF AND DUP5 PUSH20 0xFFFFFFFFFFFFFFFFFFFFFFFFFFFFFFFFFFFFFFFF AND SUB PUSH2 0xFB9 JUMPI PUSH0 PUSH1 0x40 MLOAD PUSH32 0x57F447CE00000000000000000000000000000000000000000000000000000000 DUP2 MSTORE PUSH1 0x4 ADD PUSH2 0xFB0 SWAP2 SWAP1 PUSH2 0x222C JUMP JUMPDEST PUSH1 0x40 MLOAD DUP1 SWAP2 SUB SWAP1 REVERT JUMPDEST PUSH0 PUSH20 0xFFFFFFFFFFFFFFFFFFFFFFFFFFFFFFFFFFFFFFFF AND DUP6 PUSH20 0xFFFFFFFFFFFFFFFFFFFFFFFFFFFFFFFFFFFFFFFF AND SUB PUSH2 0x1029 JUMPI PUSH0 PUSH1 0x40 MLOAD PUSH32 0x1A8351400000000000000000000000000000000000000000000000000000000 DUP2 MSTORE PUSH1 0x4 ADD PUSH2 0x1020 SWAP2 SWAP1 PUSH2 0x222C JUMP JUMPDEST PUSH1 0x40 MLOAD DUP1 SWAP2 SUB SWAP1 REVERT JUMPDEST PUSH0 DUP1 PUSH2 0x1035 DUP6 DUP6 PUSH2 0x113B JUMP JUMPDEST SWAP2 POP SWAP2 POP PUSH2 0x1046 DUP8 DUP8 DUP5 DUP5 DUP8 PUSH2 0x104F JUMP JUMPDEST POP POP POP POP POP POP POP JUMP JUMPDEST PUSH2 0x105B DUP6 DUP6 DUP6 DUP6 PUSH2 0x11AC JUMP JUMPDEST PUSH0 PUSH20 0xFFFFFFFFFFFFFFFFFFFFFFFFFFFFFFFFFFFFFFFF AND DUP5 PUSH20 0xFFFFFFFFFFFFFFFFFFFFFFFFFFFFFFFFFFFFFFFF AND EQ PUSH2 0x10F4 JUMPI PUSH0 PUSH2 0x1097 PUSH2 0xAA2 JUMP JUMPDEST SWAP1 POP PUSH1 0x1 DUP5 MLOAD SUB PUSH2 0x10E3 JUMPI PUSH0 PUSH2 0x10B6 PUSH0 DUP7 PUSH2 0xC12 SWAP1 SWAP2 SWAP1 PUSH4 0xFFFFFFFF AND JUMP JUMPDEST SWAP1 POP PUSH0 PUSH2 0x10CC PUSH0 DUP7 PUSH2 0xC12 SWAP1 SWAP2 SWAP1 PUSH4 0xFFFFFFFF AND JUMP JUMPDEST SWAP1 POP PUSH2 0x10DC DUP4 DUP10 DUP10 DUP6 DUP6 DUP10 PUSH2 0x11BE JUMP JUMPDEST POP POP PUSH2 0x10F2 JUMP JUMPDEST PUSH2 0x10F1 DUP2 DUP8 DUP8 DUP8 DUP8 DUP8 PUSH2 0x136D JUMP JUMPDEST JUMPDEST POP JUMPDEST POP POP POP POP POP JUMP JUMPDEST PUSH2 0x1103 PUSH2 0x6D0 JUMP JUMPDEST PUSH2 0x1139 JUMPI PUSH1 0x40 MLOAD PUSH32 0x8DFC202B00000000000000000000000000000000000000000000000000000000 DUP2 MSTORE PUSH1 0x4 ADD PUSH1 0x40 MLOAD DUP1 SWAP2 SUB SWAP1 REVERT JUMPDEST JUMP JUMPDEST PUSH1 0x60 DUP1 PUSH1 0x40 MLOAD SWAP2 POP PUSH1 0x1 DUP3 MSTORE DUP4 PUSH1 0x20 DUP4 ADD MSTORE PUSH1 0x40 DUP3 ADD SWAP1 POP PUSH1 0x1 DUP2 MSTORE DUP3 PUSH1 0x20 DUP3 ADD MSTORE PUSH1 0x40 DUP2 ADD PUSH1 0x40 MSTORE SWAP3 POP SWAP3 SWAP1 POP JUMP JUMPDEST PUSH2 0x1173 PUSH2 0x6D0 JUMP JUMPDEST ISZERO PUSH2 0x11AA JUMPI PUSH1 0x40 MLOAD PUSH32 0xD93C066500000000000000000000000000000000000000000000000000000000 DUP2 MSTORE PUSH1 0x4 ADD PUSH1 0x40 MLOAD DUP1 SWAP2 SUB SWAP1 REVERT JUMPDEST JUMP JUMPDEST PUSH2 0x11B8 DUP5 DUP5 DUP5 DUP5 PUSH2 0x151C JUMP JUMPDEST POP POP POP POP JUMP JUMPDEST PUSH0 DUP5 PUSH20 0xFFFFFFFFFFFFFFFFFFFFFFFFFFFFFFFFFFFFFFFF AND EXTCODESIZE GT ISZERO PUSH2 0x1365 JUMPI DUP4 PUSH20 0xFFFFFFFFFFFFFFFFFFFFFFFFFFFFFFFFFFFFFFFF AND PUSH4 0xF23A6E61 DUP8 DUP8 DUP7 DUP7 DUP7 PUSH1 0x40 MLOAD DUP7 PUSH4 0xFFFFFFFF AND PUSH1 0xE0 SHL DUP2 MSTORE PUSH1 0x4 ADD PUSH2 0x121E SWAP6 SWAP5 SWAP4 SWAP3 SWAP2 SWAP1 PUSH2 0x273F JUMP JUMPDEST PUSH1 0x20 PUSH1 0x40 MLOAD DUP1 DUP4 SUB DUP2 PUSH0 DUP8 GAS CALL SWAP3 POP POP POP DUP1 ISZERO PUSH2 0x1259 JUMPI POP PUSH1 0x40 MLOAD RETURNDATASIZE PUSH1 0x1F NOT PUSH1 0x1F DUP3 ADD AND DUP3 ADD DUP1 PUSH1 0x40 MSTORE POP DUP2 ADD SWAP1 PUSH2 0x1256 SWAP2 SWAP1 PUSH2 0x27AB JUMP JUMPDEST PUSH1 0x1 JUMPDEST PUSH2 0x12DA JUMPI RETURNDATASIZE DUP1 PUSH0 DUP2 EQ PUSH2 0x1287 JUMPI PUSH1 0x40 MLOAD SWAP2 POP PUSH1 0x1F NOT PUSH1 0x3F RETURNDATASIZE ADD AND DUP3 ADD PUSH1 0x40 MSTORE RETURNDATASIZE DUP3 MSTORE RETURNDATASIZE PUSH0 PUSH1 0x20 DUP5 ADD RETURNDATACOPY PUSH2 0x128C JUMP JUMPDEST PUSH1 0x60 SWAP2 POP JUMPDEST POP PUSH0 DUP2 MLOAD SUB PUSH2 0x12D2 JUMPI DUP5 PUSH1 0x40 MLOAD PUSH32 0x57F447CE00000000000000000000000000000000000000000000000000000000 DUP2 MSTORE PUSH1 0x4 ADD PUSH2 0x12C9 SWAP2 SWAP1 PUSH2 0x222C JUMP JUMPDEST PUSH1 0x40 MLOAD DUP1 SWAP2 SUB SWAP1 REVERT JUMPDEST DUP1 MLOAD DUP2 PUSH1 0x20 ADD REVERT JUMPDEST PUSH4 0xF23A6E61 PUSH1 0xE0 SHL PUSH28 0xFFFFFFFFFFFFFFFFFFFFFFFFFFFFFFFFFFFFFFFFFFFFFFFFFFFFFFFF NOT AND DUP2 PUSH28 0xFFFFFFFFFFFFFFFFFFFFFFFFFFFFFFFFFFFFFFFFFFFFFFFFFFFFFFFF NOT AND EQ PUSH2 0x1363 JUMPI DUP5 PUSH1 0x40 MLOAD PUSH32 0x57F447CE00000000000000000000000000000000000000000000000000000000 DUP2 MSTORE PUSH1 0x4 ADD PUSH2 0x135A SWAP2 SWAP1 PUSH2 0x222C JUMP JUMPDEST PUSH1 0x40 MLOAD DUP1 SWAP2 SUB SWAP1 REVERT JUMPDEST POP JUMPDEST POP POP POP POP POP POP JUMP JUMPDEST PUSH0 DUP5 PUSH20 0xFFFFFFFFFFFFFFFFFFFFFFFFFFFFFFFFFFFFFFFF AND EXTCODESIZE GT ISZERO PUSH2 0x1514 JUMPI DUP4 PUSH20 0xFFFFFFFFFFFFFFFFFFFFFFFFFFFFFFFFFFFFFFFF AND PUSH4 0xBC197C81 DUP8 DUP8 DUP7 DUP7 DUP7 PUSH1 0x40 MLOAD DUP7 PUSH4 0xFFFFFFFF AND PUSH1 0xE0 SHL DUP2 MSTORE PUSH1 0x4 ADD PUSH2 0x13CD SWAP6 SWAP5 SWAP4 SWAP3 SWAP2 SWAP1 PUSH2 0x27D6 JUMP JUMPDEST PUSH1 0x20 PUSH1 0x40 MLOAD DUP1 DUP4 SUB DUP2 PUSH0 DUP8 GAS CALL SWAP3 POP POP POP DUP1 ISZERO PUSH2 0x1408 JUMPI POP PUSH1 0x40 MLOAD RETURNDATASIZE PUSH1 0x1F NOT PUSH1 0x1F DUP3 ADD AND DUP3 ADD DUP1 PUSH1 0x40 MSTORE POP DUP2 ADD SWAP1 PUSH2 0x1405 SWAP2 SWAP1 PUSH2 0x27AB JUMP JUMPDEST PUSH1 0x1 JUMPDEST PUSH2 0x1489 JUMPI RETURNDATASIZE DUP1 PUSH0 DUP2 EQ PUSH2 0x1436 JUMPI PUSH1 0x40 MLOAD SWAP2 POP PUSH1 0x1F NOT PUSH1 0x3F RETURNDATASIZE ADD AND DUP3 ADD PUSH1 0x40 MSTORE RETURNDATASIZE DUP3 MSTORE RETURNDATASIZE PUSH0 PUSH1 0x20 DUP5 ADD RETURNDATACOPY PUSH2 0x143B JUMP JUMPDEST PUSH1 0x60 SWAP2 POP JUMPDEST POP PUSH0 DUP2 MLOAD SUB PUSH2 0x1481 JUMPI DUP5 PUSH1 0x40 MLOAD PUSH32 0x57F447CE00000000000000000000000000000000000000000000000000000000 DUP2 MSTORE PUSH1 0x4 ADD PUSH2 0x1478 SWAP2 SWAP1 PUSH2 0x222C JUMP JUMPDEST PUSH1 0x40 MLOAD DUP1 SWAP2 SUB SWAP1 REVERT JUMPDEST DUP1 MLOAD DUP2 PUSH1 0x20 ADD REVERT JUMPDEST PUSH4 0xBC197C81 PUSH1 0xE0 SHL PUSH28 0xFFFFFFFFFFFFFFFFFFFFFFFFFFFFFFFFFFFFFFFFFFFFFFFFFFFFFFFF NOT AND DUP2 PUSH28 0xFFFFFFFFFFFFFFFFFFFFFFFFFFFFFFFFFFFFFFFFFFFFFFFFFFFFFFFF NOT AND EQ PUSH2 0x1512 JUMPI DUP5 PUSH1 0x40 MLOAD PUSH32 0x57F447CE00000000000000000000000000000000000000000000000000000000 DUP2 MSTORE PUSH1 0x4 ADD PUSH2 0x1509 SWAP2 SWAP1 PUSH2 0x222C JUMP JUMPDEST PUSH1 0x40 MLOAD DUP1 SWAP2 SUB SWAP1 REVERT JUMPDEST POP JUMPDEST POP POP POP POP POP POP JUMP JUMPDEST PUSH2 0x1524 PUSH2 0x116B JUMP JUMPDEST PUSH2 0x1530 DUP5 DUP5 DUP5 DUP5 PUSH2 0x1536 JUMP JUMPDEST POP POP POP POP JUMP JUMPDEST DUP1 MLOAD DUP3 MLOAD EQ PUSH2 0x1580 JUMPI DUP2 MLOAD DUP2 MLOAD PUSH1 0x40 MLOAD PUSH32 0x5B05999100000000000000000000000000000000000000000000000000000000 DUP2 MSTORE PUSH1 0x4 ADD PUSH2 0x1577 SWAP3 SWAP2 SWAP1 PUSH2 0x242D JUMP JUMPDEST PUSH1 0x40 MLOAD DUP1 SWAP2 SUB SWAP1 REVERT JUMPDEST PUSH0 PUSH2 0x1589 PUSH2 0xAA2 JUMP JUMPDEST SWAP1 POP PUSH0 JUMPDEST DUP4 MLOAD DUP2 LT ISZERO PUSH2 0x1785 JUMPI PUSH0 PUSH2 0x15AA DUP3 DUP7 PUSH2 0xC12 SWAP1 SWAP2 SWAP1 PUSH4 0xFFFFFFFF AND JUMP JUMPDEST SWAP1 POP PUSH0 PUSH2 0x15C0 DUP4 DUP7 PUSH2 0xC12 SWAP1 SWAP2 SWAP1 PUSH4 0xFFFFFFFF AND JUMP JUMPDEST SWAP1 POP PUSH0 PUSH20 0xFFFFFFFFFFFFFFFFFFFFFFFFFFFFFFFFFFFFFFFF AND DUP9 PUSH20 0xFFFFFFFFFFFFFFFFFFFFFFFFFFFFFFFFFFFFFFFF AND EQ PUSH2 0x16E3 JUMPI PUSH0 DUP1 PUSH0 DUP5 DUP2 MSTORE PUSH1 0x20 ADD SWAP1 DUP2 MSTORE PUSH1 0x20 ADD PUSH0 KECCAK256 PUSH0 DUP11 PUSH20 0xFFFFFFFFFFFFFFFFFFFFFFFFFFFFFFFFFFFFFFFF AND PUSH20 0xFFFFFFFFFFFFFFFFFFFFFFFFFFFFFFFFFFFFFFFF AND DUP2 MSTORE PUSH1 0x20 ADD SWAP1 DUP2 MSTORE PUSH1 0x20 ADD PUSH0 KECCAK256 SLOAD SWAP1 POP DUP2 DUP2 LT ISZERO PUSH2 0x168F JUMPI DUP9 DUP2 DUP4 DUP6 PUSH1 0x40 MLOAD PUSH32 0x3DEE4C500000000000000000000000000000000000000000000000000000000 DUP2 MSTORE PUSH1 0x4 ADD PUSH2 0x1686 SWAP5 SWAP4 SWAP3 SWAP2 SWAP1 PUSH2 0x283C JUMP JUMPDEST PUSH1 0x40 MLOAD DUP1 SWAP2 SUB SWAP1 REVERT JUMPDEST DUP2 DUP2 SUB PUSH0 DUP1 DUP6 DUP2 MSTORE PUSH1 0x20 ADD SWAP1 DUP2 MSTORE PUSH1 0x20 ADD PUSH0 KECCAK256 PUSH0 DUP12 PUSH20 0xFFFFFFFFFFFFFFFFFFFFFFFFFFFFFFFFFFFFFFFF AND PUSH20 0xFFFFFFFFFFFFFFFFFFFFFFFFFFFFFFFFFFFFFFFF AND DUP2 MSTORE PUSH1 0x20 ADD SWAP1 DUP2 MSTORE PUSH1 0x20 ADD PUSH0 KECCAK256 DUP2 SWAP1 SSTORE POP POP JUMPDEST PUSH0 PUSH20 0xFFFFFFFFFFFFFFFFFFFFFFFFFFFFFFFFFFFFFFFF AND DUP8 PUSH20 0xFFFFFFFFFFFFFFFFFFFFFFFFFFFFFFFFFFFFFFFF AND EQ PUSH2 0x1778 JUMPI DUP1 PUSH0 DUP1 DUP5 DUP2 MSTORE PUSH1 0x20 ADD SWAP1 DUP2 MSTORE PUSH1 0x20 ADD PUSH0 KECCAK256 PUSH0 DUP10 PUSH20 0xFFFFFFFFFFFFFFFFFFFFFFFFFFFFFFFFFFFFFFFF AND PUSH20 0xFFFFFFFFFFFFFFFFFFFFFFFFFFFFFFFFFFFFFFFF AND DUP2 MSTORE PUSH1 0x20 ADD SWAP1 DUP2 MSTORE PUSH1 0x20 ADD PUSH0 KECCAK256 PUSH0 DUP3 DUP3 SLOAD PUSH2 0x1770 SWAP2 SWAP1 PUSH2 0x28AC JUMP JUMPDEST SWAP3 POP POP DUP2 SWAP1 SSTORE POP JUMPDEST POP POP DUP1 PUSH1 0x1 ADD SWAP1 POP PUSH2 0x158D JUMP JUMPDEST POP PUSH1 0x1 DUP4 MLOAD SUB PUSH2 0x1840 JUMPI PUSH0 PUSH2 0x17A3 PUSH0 DUP6 PUSH2 0xC12 SWAP1 SWAP2 SWAP1 PUSH4 0xFFFFFFFF AND JUMP JUMPDEST SWAP1 POP PUSH0 PUSH2 0x17B9 PUSH0 DUP6 PUSH2 0xC12 SWAP1 SWAP2 SWAP1 PUSH4 0xFFFFFFFF AND JUMP JUMPDEST SWAP1 POP DUP6 PUSH20 0xFFFFFFFFFFFFFFFFFFFFFFFFFFFFFFFFFFFFFFFF AND DUP8 PUSH20 0xFFFFFFFFFFFFFFFFFFFFFFFFFFFFFFFFFFFFFFFF AND DUP5 PUSH20 0xFFFFFFFFFFFFFFFFFFFFFFFFFFFFFFFFFFFFFFFF AND PUSH32 0xC3D58168C5AE7397731D063D5BBF3D657854427343F4C083240F7AACAA2D0F62 DUP6 DUP6 PUSH1 0x40 MLOAD PUSH2 0x1831 SWAP3 SWAP2 SWAP1 PUSH2 0x242D JUMP JUMPDEST PUSH1 0x40 MLOAD DUP1 SWAP2 SUB SWAP1 LOG4 POP POP PUSH2 0x18BF JUMP JUMPDEST DUP4 PUSH20 0xFFFFFFFFFFFFFFFFFFFFFFFFFFFFFFFFFFFFFFFF AND DUP6 PUSH20 0xFFFFFFFFFFFFFFFFFFFFFFFFFFFFFFFFFFFFFFFF AND DUP3 PUSH20 0xFFFFFFFFFFFFFFFFFFFFFFFFFFFFFFFFFFFFFFFF AND PUSH32 0x4A39DC06D4C0DBC64B70AF90FD698A233A518AA5D07E595D983B8C0526C8F7FB DUP7 DUP7 PUSH1 0x40 MLOAD PUSH2 0x18B6 SWAP3 SWAP2 SWAP1 PUSH2 0x28DF JUMP JUMPDEST PUSH1 0x40 MLOAD DUP1 SWAP2 SUB SWAP1 LOG4 JUMPDEST POP POP POP POP POP JUMP JUMPDEST PUSH0 PUSH1 0x40 MLOAD SWAP1 POP SWAP1 JUMP JUMPDEST PUSH0 DUP1 REVERT JUMPDEST PUSH0 DUP1 REVERT JUMPDEST PUSH0 PUSH20 0xFFFFFFFFFFFFFFFFFFFFFFFFFFFFFFFFFFFFFFFF DUP3 AND SWAP1 POP SWAP2 SWAP1 POP JUMP JUMPDEST PUSH0 PUSH2 0x1900 DUP3 PUSH2 0x18D7 JUMP JUMPDEST SWAP1 POP SWAP2 SWAP1 POP JUMP JUMPDEST PUSH2 0x1910 DUP2 PUSH2 0x18F6 JUMP JUMPDEST DUP2 EQ PUSH2 0x191A JUMPI PUSH0 DUP1 REVERT JUMPDEST POP JUMP JUMPDEST PUSH0 DUP2 CALLDATALOAD SWAP1 POP PUSH2 0x192B DUP2 PUSH2 0x1907 JUMP JUMPDEST SWAP3 SWAP2 POP POP JUMP JUMPDEST PUSH0 DUP2 SWAP1 POP SWAP2 SWAP1 POP JUMP JUMPDEST PUSH2 0x1943 DUP2 PUSH2 0x1931 JUMP JUMPDEST DUP2 EQ PUSH2 0x194D JUMPI PUSH0 DUP1 REVERT JUMPDEST POP JUMP JUMPDEST PUSH0 DUP2 CALLDATALOAD SWAP1 POP PUSH2 0x195E DUP2 PUSH2 0x193A JUMP JUMPDEST SWAP3 SWAP2 POP POP JUMP JUMPDEST PUSH0 DUP1 PUSH1 0x40 DUP4 DUP6 SUB SLT ISZERO PUSH2 0x197A JUMPI PUSH2 0x1979 PUSH2 0x18CF JUMP JUMPDEST JUMPDEST PUSH0 PUSH2 0x1987 DUP6 DUP3 DUP7 ADD PUSH2 0x191D JUMP JUMPDEST SWAP3 POP POP PUSH1 0x20 PUSH2 0x1998 DUP6 DUP3 DUP7 ADD PUSH2 0x1950 JUMP JUMPDEST SWAP2 POP POP SWAP3 POP SWAP3 SWAP1 POP JUMP JUMPDEST PUSH2 0x19AB DUP2 PUSH2 0x1931 JUMP JUMPDEST DUP3 MSTORE POP POP JUMP JUMPDEST PUSH0 PUSH1 0x20 DUP3 ADD SWAP1 POP PUSH2 0x19C4 PUSH0 DUP4 ADD DUP5 PUSH2 0x19A2 JUMP JUMPDEST SWAP3 SWAP2 POP POP JUMP JUMPDEST PUSH0 PUSH32 0xFFFFFFFF00000000000000000000000000000000000000000000000000000000 DUP3 AND SWAP1 POP SWAP2 SWAP1 POP JUMP JUMPDEST PUSH2 0x19FE DUP2 PUSH2 0x19CA JUMP JUMPDEST DUP2 EQ PUSH2 0x1A08 JUMPI PUSH0 DUP1 REVERT JUMPDEST POP JUMP JUMPDEST PUSH0 DUP2 CALLDATALOAD SWAP1 POP PUSH2 0x1A19 DUP2 PUSH2 0x19F5 JUMP JUMPDEST SWAP3 SWAP2 POP POP JUMP JUMPDEST PUSH0 PUSH1 0x20 DUP3 DUP5 SUB SLT ISZERO PUSH2 0x1A34 JUMPI PUSH2 0x1A33 PUSH2 0x18CF JUMP JUMPDEST JUMPDEST PUSH0 PUSH2 0x1A41 DUP5 DUP3 DUP6 ADD PUSH2 0x1A0B JUMP JUMPDEST SWAP2 POP POP SWAP3 SWAP2 POP POP JUMP JUMPDEST PUSH0 DUP2 ISZERO ISZERO SWAP1 POP SWAP2 SWAP1 POP JUMP JUMPDEST PUSH2 0x1A5E DUP2 PUSH2 0x1A4A JUMP JUMPDEST DUP3 MSTORE POP POP JUMP JUMPDEST PUSH0 PUSH1 0x20 DUP3 ADD SWAP1 POP PUSH2 0x1A77 PUSH0 DUP4 ADD DUP5 PUSH2 0x1A55 JUMP JUMPDEST SWAP3 SWAP2 POP POP JUMP JUMPDEST PUSH0 DUP1 REVERT JUMPDEST PUSH0 DUP1 REVERT JUMPDEST PUSH0 PUSH1 0x1F NOT PUSH1 0x1F DUP4 ADD AND SWAP1 POP SWAP2 SWAP1 POP JUMP JUMPDEST PUSH32 0x4E487B7100000000000000000000000000000000000000000000000000000000 PUSH0 MSTORE PUSH1 0x41 PUSH1 0x4 MSTORE PUSH1 0x24 PUSH0 REVERT JUMPDEST PUSH2 0x1ACB DUP3 PUSH2 0x1A85 JUMP JUMPDEST DUP2 ADD DUP2 DUP2 LT PUSH8 0xFFFFFFFFFFFFFFFF DUP3 GT OR ISZERO PUSH2 0x1AEA JUMPI PUSH2 0x1AE9 PUSH2 0x1A95 JUMP JUMPDEST JUMPDEST DUP1 PUSH1 0x40 MSTORE POP POP POP JUMP JUMPDEST PUSH0 PUSH2 0x1AFC PUSH2 0x18C6 JUMP JUMPDEST SWAP1 POP PUSH2 0x1B08 DUP3 DUP3 PUSH2 0x1AC2 JUMP JUMPDEST SWAP2 SWAP1 POP JUMP JUMPDEST PUSH0 PUSH8 0xFFFFFFFFFFFFFFFF DUP3 GT ISZERO PUSH2 0x1B27 JUMPI PUSH2 0x1B26 PUSH2 0x1A95 JUMP JUMPDEST JUMPDEST PUSH2 0x1B30 DUP3 PUSH2 0x1A85 JUMP JUMPDEST SWAP1 POP PUSH1 0x20 DUP2 ADD SWAP1 POP SWAP2 SWAP1 POP JUMP JUMPDEST DUP3 DUP2 DUP4 CALLDATACOPY PUSH0 DUP4 DUP4 ADD MSTORE POP POP POP JUMP JUMPDEST PUSH0 PUSH2 0x1B5D PUSH2 0x1B58 DUP5 PUSH2 0x1B0D JUMP JUMPDEST PUSH2 0x1AF3 JUMP JUMPDEST SWAP1 POP DUP3 DUP2 MSTORE PUSH1 0x20 DUP2 ADD DUP5 DUP5 DUP5 ADD GT ISZERO PUSH2 0x1B79 JUMPI PUSH2 0x1B78 PUSH2 0x1A81 JUMP JUMPDEST JUMPDEST PUSH2 0x1B84 DUP5 DUP3 DUP6 PUSH2 0x1B3D JUMP JUMPDEST POP SWAP4 SWAP3 POP POP POP JUMP JUMPDEST PUSH0 DUP3 PUSH1 0x1F DUP4 ADD SLT PUSH2 0x1BA0 JUMPI PUSH2 0x1B9F PUSH2 0x1A7D JUMP JUMPDEST JUMPDEST DUP2 CALLDATALOAD PUSH2 0x1BB0 DUP5 DUP3 PUSH1 0x20 DUP7 ADD PUSH2 0x1B4B JUMP JUMPDEST SWAP2 POP POP SWAP3 SWAP2 POP POP JUMP JUMPDEST PUSH0 PUSH1 0x20 DUP3 DUP5 SUB SLT ISZERO PUSH2 0x1BCE JUMPI PUSH2 0x1BCD PUSH2 0x18CF JUMP JUMPDEST JUMPDEST PUSH0 DUP3 ADD CALLDATALOAD PUSH8 0xFFFFFFFFFFFFFFFF DUP2 GT ISZERO PUSH2 0x1BEB JUMPI PUSH2 0x1BEA PUSH2 0x18D3 JUMP JUMPDEST JUMPDEST PUSH2 0x1BF7 DUP5 DUP3 DUP6 ADD PUSH2 0x1B8C JUMP JUMPDEST SWAP2 POP POP SWAP3 SWAP2 POP POP JUMP JUMPDEST PUSH0 PUSH1 0x20 DUP3 DUP5 SUB SLT ISZERO PUSH2 0x1C15 JUMPI PUSH2 0x1C14 PUSH2 0x18CF JUMP JUMPDEST JUMPDEST PUSH0 PUSH2 0x1C22 DUP5 DUP3 DUP6 ADD PUSH2 0x1950 JUMP JUMPDEST SWAP2 POP POP SWAP3 SWAP2 POP POP JUMP JUMPDEST PUSH0 DUP2 MLOAD SWAP1 POP SWAP2 SWAP1 POP JUMP JUMPDEST PUSH0 DUP3 DUP3 MSTORE PUSH1 0x20 DUP3 ADD SWAP1 POP SWAP3 SWAP2 POP POP JUMP JUMPDEST DUP3 DUP2 DUP4 MCOPY PUSH0 DUP4 DUP4 ADD MSTORE POP POP POP JUMP JUMPDEST PUSH0 PUSH2 0x1C5D DUP3 PUSH2 0x1C2B JUMP JUMPDEST PUSH2 0x1C67 DUP2 DUP6 PUSH2 0x1C35 JUMP JUMPDEST SWAP4 POP PUSH2 0x1C77 DUP2 DUP6 PUSH1 0x20 DUP7 ADD PUSH2 0x1C45 JUMP JUMPDEST PUSH2 0x1C80 DUP2 PUSH2 0x1A85 JUMP JUMPDEST DUP5 ADD SWAP2 POP POP SWAP3 SWAP2 POP POP JUMP JUMPDEST PUSH0 PUSH1 0x20 DUP3 ADD SWAP1 POP DUP2 DUP2 SUB PUSH0 DUP4 ADD MSTORE PUSH2 0x1CA3 DUP2 DUP5 PUSH2 0x1C53 JUMP JUMPDEST SWAP1 POP SWAP3 SWAP2 POP POP JUMP JUMPDEST PUSH0 PUSH8 0xFFFFFFFFFFFFFFFF DUP3 GT ISZERO PUSH2 0x1CC5 JUMPI PUSH2 0x1CC4 PUSH2 0x1A95 JUMP JUMPDEST JUMPDEST PUSH1 0x20 DUP3 MUL SWAP1 POP PUSH1 0x20 DUP2 ADD SWAP1 POP SWAP2 SWAP1 POP JUMP JUMPDEST PUSH0 DUP1 REVERT JUMPDEST PUSH0 PUSH2 0x1CEC PUSH2 0x1CE7 DUP5 PUSH2 0x1CAB JUMP JUMPDEST PUSH2 0x1AF3 JUMP JUMPDEST SWAP1 POP DUP1 DUP4 DUP3 MSTORE PUSH1 0x20 DUP3 ADD SWAP1 POP PUSH1 0x20 DUP5 MUL DUP4 ADD DUP6 DUP2 GT ISZERO PUSH2 0x1D0F JUMPI PUSH2 0x1D0E PUSH2 0x1CD6 JUMP JUMPDEST JUMPDEST DUP4 JUMPDEST DUP2 DUP2 LT ISZERO PUSH2 0x1D38 JUMPI DUP1 PUSH2 0x1D24 DUP9 DUP3 PUSH2 0x1950 JUMP JUMPDEST DUP5 MSTORE PUSH1 0x20 DUP5 ADD SWAP4 POP POP PUSH1 0x20 DUP2 ADD SWAP1 POP PUSH2 0x1D11 JUMP JUMPDEST POP POP POP SWAP4 SWAP3 POP POP POP JUMP JUMPDEST PUSH0 DUP3 PUSH1 0x1F DUP4 ADD SLT PUSH2 0x1D56 JUMPI PUSH2 0x1D55 PUSH2 0x1A7D JUMP JUMPDEST JUMPDEST DUP2 CALLDATALOAD PUSH2 0x1D66 DUP5 DUP3 PUSH1 0x20 DUP7 ADD PUSH2 0x1CDA JUMP JUMPDEST SWAP2 POP POP SWAP3 SWAP2 POP POP JUMP JUMPDEST PUSH0 PUSH8 0xFFFFFFFFFFFFFFFF DUP3 GT ISZERO PUSH2 0x1D89 JUMPI PUSH2 0x1D88 PUSH2 0x1A95 JUMP JUMPDEST JUMPDEST PUSH2 0x1D92 DUP3 PUSH2 0x1A85 JUMP JUMPDEST SWAP1 POP PUSH1 0x20 DUP2 ADD SWAP1 POP SWAP2 SWAP1 POP JUMP JUMPDEST PUSH0 PUSH2 0x1DB1 PUSH2 0x1DAC DUP5 PUSH2 0x1D6F JUMP JUMPDEST PUSH2 0x1AF3 JUMP JUMPDEST SWAP1 POP DUP3 DUP2 MSTORE PUSH1 0x20 DUP2 ADD DUP5 DUP5 DUP5 ADD GT ISZERO PUSH2 0x1DCD JUMPI PUSH2 0x1DCC PUSH2 0x1A81 JUMP JUMPDEST JUMPDEST PUSH2 0x1DD8 DUP5 DUP3 DUP6 PUSH2 0x1B3D JUMP JUMPDEST POP SWAP4 SWAP3 POP POP POP JUMP JUMPDEST PUSH0 DUP3 PUSH1 0x1F DUP4 ADD SLT PUSH2 0x1DF4 JUMPI PUSH2 0x1DF3 PUSH2 0x1A7D JUMP JUMPDEST JUMPDEST DUP2 CALLDATALOAD PUSH2 0x1E04 DUP5 DUP3 PUSH1 0x20 DUP7 ADD PUSH2 0x1D9F JUMP JUMPDEST SWAP2 POP POP SWAP3 SWAP2 POP POP JUMP JUMPDEST PUSH0 DUP1 PUSH0 DUP1 PUSH1 0x80 DUP6 DUP8 SUB SLT ISZERO PUSH2 0x1E25 JUMPI PUSH2 0x1E24 PUSH2 0x18CF JUMP JUMPDEST JUMPDEST PUSH0 PUSH2 0x1E32 DUP8 DUP3 DUP9 ADD PUSH2 0x191D JUMP JUMPDEST SWAP5 POP POP PUSH1 0x20 DUP6 ADD CALLDATALOAD PUSH8 0xFFFFFFFFFFFFFFFF DUP2 GT ISZERO PUSH2 0x1E53 JUMPI PUSH2 0x1E52 PUSH2 0x18D3 JUMP JUMPDEST JUMPDEST PUSH2 0x1E5F DUP8 DUP3 DUP9 ADD PUSH2 0x1D42 JUMP JUMPDEST SWAP4 POP POP PUSH1 0x40 DUP6 ADD CALLDATALOAD PUSH8 0xFFFFFFFFFFFFFFFF DUP2 GT ISZERO PUSH2 0x1E80 JUMPI PUSH2 0x1E7F PUSH2 0x18D3 JUMP JUMPDEST JUMPDEST PUSH2 0x1E8C DUP8 DUP3 DUP9 ADD PUSH2 0x1D42 JUMP JUMPDEST SWAP3 POP POP PUSH1 0x60 DUP6 ADD CALLDATALOAD PUSH8 0xFFFFFFFFFFFFFFFF DUP2 GT ISZERO PUSH2 0x1EAD JUMPI PUSH2 0x1EAC PUSH2 0x18D3 JUMP JUMPDEST JUMPDEST PUSH2 0x1EB9 DUP8 DUP3 DUP9 ADD PUSH2 0x1DE0 JUMP JUMPDEST SWAP2 POP POP SWAP3 SWAP6 SWAP2 SWAP5 POP SWAP3 POP JUMP JUMPDEST PUSH0 DUP1 PUSH0 DUP1 PUSH0 PUSH1 0xA0 DUP7 DUP9 SUB SLT ISZERO PUSH2 0x1EDE JUMPI PUSH2 0x1EDD PUSH2 0x18CF JUMP JUMPDEST JUMPDEST PUSH0 PUSH2 0x1EEB DUP9 DUP3 DUP10 ADD PUSH2 0x191D JUMP JUMPDEST SWAP6 POP POP PUSH1 0x20 PUSH2 0x1EFC DUP9 DUP3 DUP10 ADD PUSH2 0x191D JUMP JUMPDEST SWAP5 POP POP PUSH1 0x40 DUP7 ADD CALLDATALOAD PUSH8 0xFFFFFFFFFFFFFFFF DUP2 GT ISZERO PUSH2 0x1F1D JUMPI PUSH2 0x1F1C PUSH2 0x18D3 JUMP JUMPDEST JUMPDEST PUSH2 0x1F29 DUP9 DUP3 DUP10 ADD PUSH2 0x1D42 JUMP JUMPDEST SWAP4 POP POP PUSH1 0x60 DUP7 ADD CALLDATALOAD PUSH8 0xFFFFFFFFFFFFFFFF DUP2 GT ISZERO PUSH2 0x1F4A JUMPI PUSH2 0x1F49 PUSH2 0x18D3 JUMP JUMPDEST JUMPDEST PUSH2 0x1F56 DUP9 DUP3 DUP10 ADD PUSH2 0x1D42 JUMP JUMPDEST SWAP3 POP POP PUSH1 0x80 DUP7 ADD CALLDATALOAD PUSH8 0xFFFFFFFFFFFFFFFF DUP2 GT ISZERO PUSH2 0x1F77 JUMPI PUSH2 0x1F76 PUSH2 0x18D3 JUMP JUMPDEST JUMPDEST PUSH2 0x1F83 DUP9 DUP3 DUP10 ADD PUSH2 0x1DE0 JUMP JUMPDEST SWAP2 POP POP SWAP3 SWAP6 POP SWAP3 SWAP6 SWAP1 SWAP4 POP JUMP JUMPDEST PUSH0 PUSH8 0xFFFFFFFFFFFFFFFF DUP3 GT ISZERO PUSH2 0x1FAA JUMPI PUSH2 0x1FA9 PUSH2 0x1A95 JUMP JUMPDEST JUMPDEST PUSH1 0x20 DUP3 MUL SWAP1 POP PUSH1 0x20 DUP2 ADD SWAP1 POP SWAP2 SWAP1 POP JUMP JUMPDEST PUSH0 PUSH2 0x1FCD PUSH2 0x1FC8 DUP5 PUSH2 0x1F90 JUMP JUMPDEST PUSH2 0x1AF3 JUMP JUMPDEST SWAP1 POP DUP1 DUP4 DUP3 MSTORE PUSH1 0x20 DUP3 ADD SWAP1 POP PUSH1 0x20 DUP5 MUL DUP4 ADD DUP6 DUP2 GT ISZERO PUSH2 0x1FF0 JUMPI PUSH2 0x1FEF PUSH2 0x1CD6 JUMP JUMPDEST JUMPDEST DUP4 JUMPDEST DUP2 DUP2 LT ISZERO PUSH2 0x2019 JUMPI DUP1 PUSH2 0x2005 DUP9 DUP3 PUSH2 0x191D JUMP JUMPDEST DUP5 MSTORE PUSH1 0x20 DUP5 ADD SWAP4 POP POP PUSH1 0x20 DUP2 ADD SWAP1 POP PUSH2 0x1FF2 JUMP JUMPDEST POP POP POP SWAP4 SWAP3 POP POP POP JUMP JUMPDEST PUSH0 DUP3 PUSH1 0x1F DUP4 ADD SLT PUSH2 0x2037 JUMPI PUSH2 0x2036 PUSH2 0x1A7D JUMP JUMPDEST JUMPDEST DUP2 CALLDATALOAD PUSH2 0x2047 DUP5 DUP3 PUSH1 0x20 DUP7 ADD PUSH2 0x1FBB JUMP JUMPDEST SWAP2 POP POP SWAP3 SWAP2 POP POP JUMP JUMPDEST PUSH0 DUP1 PUSH1 0x40 DUP4 DUP6 SUB SLT ISZERO PUSH2 0x2066 JUMPI PUSH2 0x2065 PUSH2 0x18CF JUMP JUMPDEST JUMPDEST PUSH0 DUP4 ADD CALLDATALOAD PUSH8 0xFFFFFFFFFFFFFFFF DUP2 GT ISZERO PUSH2 0x2083 JUMPI PUSH2 0x2082 PUSH2 0x18D3 JUMP JUMPDEST JUMPDEST PUSH2 0x208F DUP6 DUP3 DUP7 ADD PUSH2 0x2023 JUMP JUMPDEST SWAP3 POP POP PUSH1 0x20 DUP4 ADD CALLDATALOAD PUSH8 0xFFFFFFFFFFFFFFFF DUP2 GT ISZERO PUSH2 0x20B0 JUMPI PUSH2 0x20AF PUSH2 0x18D3 JUMP JUMPDEST JUMPDEST PUSH2 0x20BC DUP6 DUP3 DUP7 ADD PUSH2 0x1D42 JUMP JUMPDEST SWAP2 POP POP SWAP3 POP SWAP3 SWAP1 POP JUMP JUMPDEST PUSH0 DUP2 MLOAD SWAP1 POP SWAP2 SWAP1 POP JUMP JUMPDEST PUSH0 DUP3 DUP3 MSTORE PUSH1 0x20 DUP3 ADD SWAP1 POP SWAP3 SWAP2 POP POP JUMP JUMPDEST PUSH0 DUP2 SWAP1 POP PUSH1 0x20 DUP3 ADD SWAP1 POP SWAP2 SWAP1 POP JUMP JUMPDEST PUSH2 0x20F8 DUP2 PUSH2 0x1931 JUMP JUMPDEST DUP3 MSTORE POP POP JUMP JUMPDEST PUSH0 PUSH2 0x2109 DUP4 DUP4 PUSH2 0x20EF JUMP JUMPDEST PUSH1 0x20 DUP4 ADD SWAP1 POP SWAP3 SWAP2 POP POP JUMP JUMPDEST PUSH0 PUSH1 0x20 DUP3 ADD SWAP1 POP SWAP2 SWAP1 POP JUMP JUMPDEST PUSH0 PUSH2 0x212B DUP3 PUSH2 0x20C6 JUMP JUMPDEST PUSH2 0x2135 DUP2 DUP6 PUSH2 0x20D0 JUMP JUMPDEST SWAP4 POP PUSH2 0x2140 DUP4 PUSH2 0x20E0 JUMP JUMPDEST DUP1 PUSH0 JUMPDEST DUP4 DUP2 LT ISZERO PUSH2 0x2170 JUMPI DUP2 MLOAD PUSH2 0x2157 DUP9 DUP3 PUSH2 0x20FE JUMP JUMPDEST SWAP8 POP PUSH2 0x2162 DUP4 PUSH2 0x2115 JUMP JUMPDEST SWAP3 POP POP PUSH1 0x1 DUP2 ADD SWAP1 POP PUSH2 0x2143 JUMP JUMPDEST POP DUP6 SWAP4 POP POP POP POP SWAP3 SWAP2 POP POP JUMP JUMPDEST PUSH0 PUSH1 0x20 DUP3 ADD SWAP1 POP DUP2 DUP2 SUB PUSH0 DUP4 ADD MSTORE PUSH2 0x2195 DUP2 DUP5 PUSH2 0x2121 JUMP JUMPDEST SWAP1 POP SWAP3 SWAP2 POP POP JUMP JUMPDEST PUSH0 DUP1 PUSH0 DUP1 PUSH1 0x80 DUP6 DUP8 SUB SLT ISZERO PUSH2 0x21B5 JUMPI PUSH2 0x21B4 PUSH2 0x18CF JUMP JUMPDEST JUMPDEST PUSH0 PUSH2 0x21C2 DUP8 DUP3 DUP9 ADD PUSH2 0x191D JUMP JUMPDEST SWAP5 POP POP PUSH1 0x20 PUSH2 0x21D3 DUP8 DUP3 DUP9 ADD PUSH2 0x1950 JUMP JUMPDEST SWAP4 POP POP PUSH1 0x40 PUSH2 0x21E4 DUP8 DUP3 DUP9 ADD PUSH2 0x1950 JUMP JUMPDEST SWAP3 POP POP PUSH1 0x60 DUP6 ADD CALLDATALOAD PUSH8 0xFFFFFFFFFFFFFFFF DUP2 GT ISZERO PUSH2 0x2205 JUMPI PUSH2 0x2204 PUSH2 0x18D3 JUMP JUMPDEST JUMPDEST PUSH2 0x2211 DUP8 DUP3 DUP9 ADD PUSH2 0x1DE0 JUMP JUMPDEST SWAP2 POP POP SWAP3 SWAP6 SWAP2 SWAP5 POP SWAP3 POP JUMP JUMPDEST PUSH2 0x2226 DUP2 PUSH2 0x18F6 JUMP JUMPDEST DUP3 MSTORE POP POP JUMP JUMPDEST PUSH0 PUSH1 0x20 DUP3 ADD SWAP1 POP PUSH2 0x223F PUSH0 DUP4 ADD DUP5 PUSH2 0x221D JUMP JUMPDEST SWAP3 SWAP2 POP POP JUMP JUMPDEST PUSH2 0x224E DUP2 PUSH2 0x1A4A JUMP JUMPDEST DUP2 EQ PUSH2 0x2258 JUMPI PUSH0 DUP1 REVERT JUMPDEST POP JUMP JUMPDEST PUSH0 DUP2 CALLDATALOAD SWAP1 POP PUSH2 0x2269 DUP2 PUSH2 0x2245 JUMP JUMPDEST SWAP3 SWAP2 POP POP JUMP JUMPDEST PUSH0 DUP1 PUSH1 0x40 DUP4 DUP6 SUB SLT ISZERO PUSH2 0x2285 JUMPI PUSH2 0x2284 PUSH2 0x18CF JUMP JUMPDEST JUMPDEST PUSH0 PUSH2 0x2292 DUP6 DUP3 DUP7 ADD PUSH2 0x191D JUMP JUMPDEST SWAP3 POP POP PUSH1 0x20 PUSH2 0x22A3 DUP6 DUP3 DUP7 ADD PUSH2 0x225B JUMP JUMPDEST SWAP2 POP POP SWAP3 POP SWAP3 SWAP1 POP JUMP JUMPDEST PUSH0 DUP1 PUSH1 0x40 DUP4 DUP6 SUB SLT ISZERO PUSH2 0x22C3 JUMPI PUSH2 0x22C2 PUSH2 0x18CF JUMP JUMPDEST JUMPDEST PUSH0 PUSH2 0x22D0 DUP6 DUP3 DUP7 ADD PUSH2 0x191D JUMP JUMPDEST SWAP3 POP POP PUSH1 0x20 PUSH2 0x22E1 DUP6 DUP3 DUP7 ADD PUSH2 0x191D JUMP JUMPDEST SWAP2 POP POP SWAP3 POP SWAP3 SWAP1 POP JUMP JUMPDEST PUSH0 DUP1 PUSH0 DUP1 PUSH0 PUSH1 0xA0 DUP7 DUP9 SUB SLT ISZERO PUSH2 0x2304 JUMPI PUSH2 0x2303 PUSH2 0x18CF JUMP JUMPDEST JUMPDEST PUSH0 PUSH2 0x2311 DUP9 DUP3 DUP10 ADD PUSH2 0x191D JUMP JUMPDEST SWAP6 POP POP PUSH1 0x20 PUSH2 0x2322 DUP9 DUP3 DUP10 ADD PUSH2 0x191D JUMP JUMPDEST SWAP5 POP POP PUSH1 0x40 PUSH2 0x2333 DUP9 DUP3 DUP10 ADD PUSH2 0x1950 JUMP JUMPDEST SWAP4 POP POP PUSH1 0x60 PUSH2 0x2344 DUP9 DUP3 DUP10 ADD PUSH2 0x1950 JUMP JUMPDEST SWAP3 POP POP PUSH1 0x80 DUP7 ADD CALLDATALOAD PUSH8 0xFFFFFFFFFFFFFFFF DUP2 GT ISZERO PUSH2 0x2365 JUMPI PUSH2 0x2364 PUSH2 0x18D3 JUMP JUMPDEST JUMPDEST PUSH2 0x2371 DUP9 DUP3 DUP10 ADD PUSH2 0x1DE0 JUMP JUMPDEST SWAP2 POP POP SWAP3 SWAP6 POP SWAP3 SWAP6 SWAP1 SWAP4 POP JUMP JUMPDEST PUSH0 PUSH1 0x20 DUP3 DUP5 SUB SLT ISZERO PUSH2 0x2393 JUMPI PUSH2 0x2392 PUSH2 0x18CF JUMP JUMPDEST JUMPDEST PUSH0 PUSH2 0x23A0 DUP5 DUP3 DUP6 ADD PUSH2 0x191D JUMP JUMPDEST SWAP2 POP POP SWAP3 SWAP2 POP POP JUMP JUMPDEST PUSH32 0x4E487B7100000000000000000000000000000000000000000000000000000000 PUSH0 MSTORE PUSH1 0x22 PUSH1 0x4 MSTORE PUSH1 0x24 PUSH0 REVERT JUMPDEST PUSH0 PUSH1 0x2 DUP3 DIV SWAP1 POP PUSH1 0x1 DUP3 AND DUP1 PUSH2 0x23ED JUMPI PUSH1 0x7F DUP3 AND SWAP2 POP JUMPDEST PUSH1 0x20 DUP3 LT DUP2 SUB PUSH2 0x2400 JUMPI PUSH2 0x23FF PUSH2 0x23A9 JUMP JUMPDEST JUMPDEST POP SWAP2 SWAP1 POP JUMP JUMPDEST PUSH0 PUSH1 0x40 DUP3 ADD SWAP1 POP PUSH2 0x2419 PUSH0 DUP4 ADD DUP6 PUSH2 0x221D JUMP JUMPDEST PUSH2 0x2426 PUSH1 0x20 DUP4 ADD DUP5 PUSH2 0x221D JUMP JUMPDEST SWAP4 SWAP3 POP POP POP JUMP JUMPDEST PUSH0 PUSH1 0x40 DUP3 ADD SWAP1 POP PUSH2 0x2440 PUSH0 DUP4 ADD DUP6 PUSH2 0x19A2 JUMP JUMPDEST PUSH2 0x244D PUSH1 0x20 DUP4 ADD DUP5 PUSH2 0x19A2 JUMP JUMPDEST SWAP4 SWAP3 POP POP POP JUMP JUMPDEST PUSH32 0x4E487B7100000000000000000000000000000000000000000000000000000000 PUSH0 MSTORE PUSH1 0x32 PUSH1 0x4 MSTORE PUSH1 0x24 PUSH0 REVERT JUMPDEST PUSH0 DUP2 SWAP1 POP DUP2 PUSH0 MSTORE PUSH1 0x20 PUSH0 KECCAK256 SWAP1 POP SWAP2 SWAP1 POP JUMP JUMPDEST PUSH0 PUSH1 0x20 PUSH1 0x1F DUP4 ADD DIV SWAP1 POP SWAP2 SWAP1 POP JUMP JUMPDEST PUSH0 DUP3 DUP3 SHL SWAP1 POP SWAP3 SWAP2 POP POP JUMP JUMPDEST PUSH0 PUSH1 0x8 DUP4 MUL PUSH2 0x24DD PUSH32 0xFFFFFFFFFFFFFFFFFFFFFFFFFFFFFFFFFFFFFFFFFFFFFFFFFFFFFFFFFFFFFFFF DUP3 PUSH2 0x24A2 JUMP JUMPDEST PUSH2 0x24E7 DUP7 DUP4 PUSH2 0x24A2 JUMP JUMPDEST SWAP6 POP DUP1 NOT DUP5 AND SWAP4 POP DUP1 DUP7 AND DUP5 OR SWAP3 POP POP POP SWAP4 SWAP3 POP POP POP JUMP JUMPDEST PUSH0 DUP2 SWAP1 POP SWAP2 SWAP1 POP JUMP JUMPDEST PUSH0 PUSH2 0x2522 PUSH2 0x251D PUSH2 0x2518 DUP5 PUSH2 0x1931 JUMP JUMPDEST PUSH2 0x24FF JUMP JUMPDEST PUSH2 0x1931 JUMP JUMPDEST SWAP1 POP SWAP2 SWAP1 POP JUMP JUMPDEST PUSH0 DUP2 SWAP1 POP SWAP2 SWAP1 POP JUMP JUMPDEST PUSH2 0x253B DUP4 PUSH2 0x2508 JUMP JUMPDEST PUSH2 0x254F PUSH2 0x2547 DUP3 PUSH2 0x2529 JUMP JUMPDEST DUP5 DUP5 SLOAD PUSH2 0x24AE JUMP JUMPDEST DUP3 SSTORE POP POP POP POP JUMP JUMPDEST PUSH0 SWAP1 JUMP JUMPDEST PUSH2 0x2563 PUSH2 0x2557 JUMP JUMPDEST PUSH2 0x256E DUP2 DUP5 DUP5 PUSH2 0x2532 JUMP JUMPDEST POP POP POP JUMP JUMPDEST JUMPDEST DUP2 DUP2 LT ISZERO PUSH2 0x2591 JUMPI PUSH2 0x2586 PUSH0 DUP3 PUSH2 0x255B JUMP JUMPDEST PUSH1 0x1 DUP2 ADD SWAP1 POP PUSH2 0x2574 JUMP JUMPDEST POP POP JUMP JUMPDEST PUSH1 0x1F DUP3 GT ISZERO PUSH2 0x25D6 JUMPI PUSH2 0x25A7 DUP2 PUSH2 0x2481 JUMP JUMPDEST PUSH2 0x25B0 DUP5 PUSH2 0x2493 JUMP JUMPDEST DUP2 ADD PUSH1 0x20 DUP6 LT ISZERO PUSH2 0x25BF JUMPI DUP2 SWAP1 POP JUMPDEST PUSH2 0x25D3 PUSH2 0x25CB DUP6 PUSH2 0x2493 JUMP JUMPDEST DUP4 ADD DUP3 PUSH2 0x2573 JUMP JUMPDEST POP POP JUMPDEST POP POP POP JUMP JUMPDEST PUSH0 DUP3 DUP3 SHR SWAP1 POP SWAP3 SWAP2 POP POP JUMP JUMPDEST PUSH0 PUSH2 0x25F6 PUSH0 NOT DUP5 PUSH1 0x8 MUL PUSH2 0x25DB JUMP JUMPDEST NOT DUP1 DUP4 AND SWAP2 POP POP SWAP3 SWAP2 POP POP JUMP JUMPDEST PUSH0 PUSH2 0x260E DUP4 DUP4 PUSH2 0x25E7 JUMP JUMPDEST SWAP2 POP DUP3 PUSH1 0x2 MUL DUP3 OR SWAP1 POP SWAP3 SWAP2 POP POP JUMP JUMPDEST PUSH2 0x2627 DUP3 PUSH2 0x1C2B JUMP JUMPDEST PUSH8 0xFFFFFFFFFFFFFFFF DUP2 GT ISZERO PUSH2 0x2640 JUMPI PUSH2 0x263F PUSH2 0x1A95 JUMP JUMPDEST JUMPDEST PUSH2 0x264A DUP3 SLOAD PUSH2 0x23D6 JUMP JUMPDEST PUSH2 0x2655 DUP3 DUP3 DUP6 PUSH2 0x2595 JUMP JUMPDEST PUSH0 PUSH1 0x20 SWAP1 POP PUSH1 0x1F DUP4 GT PUSH1 0x1 DUP2 EQ PUSH2 0x2686 JUMPI PUSH0 DUP5 ISZERO PUSH2 0x2674 JUMPI DUP3 DUP8 ADD MLOAD SWAP1 POP JUMPDEST PUSH2 0x267E DUP6 DUP3 PUSH2 0x2603 JUMP JUMPDEST DUP7 SSTORE POP PUSH2 0x26E5 JUMP JUMPDEST PUSH1 0x1F NOT DUP5 AND PUSH2 0x2694 DUP7 PUSH2 0x2481 JUMP JUMPDEST PUSH0 JUMPDEST DUP3 DUP2 LT ISZERO PUSH2 0x26BB JUMPI DUP5 DUP10 ADD MLOAD DUP3 SSTORE PUSH1 0x1 DUP3 ADD SWAP2 POP PUSH1 0x20 DUP6 ADD SWAP5 POP PUSH1 0x20 DUP2 ADD SWAP1 POP PUSH2 0x2696 JUMP JUMPDEST DUP7 DUP4 LT ISZERO PUSH2 0x26D8 JUMPI DUP5 DUP10 ADD MLOAD PUSH2 0x26D4 PUSH1 0x1F DUP10 AND DUP3 PUSH2 0x25E7 JUMP JUMPDEST DUP4 SSTORE POP JUMPDEST PUSH1 0x1 PUSH1 0x2 DUP9 MUL ADD DUP9 SSTORE POP POP POP JUMPDEST POP POP POP POP POP POP JUMP JUMPDEST PUSH0 DUP2 MLOAD SWAP1 POP SWAP2 SWAP1 POP JUMP JUMPDEST PUSH0 DUP3 DUP3 MSTORE PUSH1 0x20 DUP3 ADD SWAP1 POP SWAP3 SWAP2 POP POP JUMP JUMPDEST PUSH0 PUSH2 0x2711 DUP3 PUSH2 0x26ED JUMP JUMPDEST PUSH2 0x271B DUP2 DUP6 PUSH2 0x26F7 JUMP JUMPDEST SWAP4 POP PUSH2 0x272B DUP2 DUP6 PUSH1 0x20 DUP7 ADD PUSH2 0x1C45 JUMP JUMPDEST PUSH2 0x2734 DUP2 PUSH2 0x1A85 JUMP JUMPDEST DUP5 ADD SWAP2 POP POP SWAP3 SWAP2 POP POP JUMP JUMPDEST PUSH0 PUSH1 0xA0 DUP3 ADD SWAP1 POP PUSH2 0x2752 PUSH0 DUP4 ADD DUP9 PUSH2 0x221D JUMP JUMPDEST PUSH2 0x275F PUSH1 0x20 DUP4 ADD DUP8 PUSH2 0x221D JUMP JUMPDEST PUSH2 0x276C PUSH1 0x40 DUP4 ADD DUP7 PUSH2 0x19A2 JUMP JUMPDEST PUSH2 0x2779 PUSH1 0x60 DUP4 ADD DUP6 PUSH2 0x19A2 JUMP JUMPDEST DUP2 DUP2 SUB PUSH1 0x80 DUP4 ADD MSTORE PUSH2 0x278B DUP2 DUP5 PUSH2 0x2707 JUMP JUMPDEST SWAP1 POP SWAP7 SWAP6 POP POP POP POP POP POP JUMP JUMPDEST PUSH0 DUP2 MLOAD SWAP1 POP PUSH2 0x27A5 DUP2 PUSH2 0x19F5 JUMP JUMPDEST SWAP3 SWAP2 POP POP JUMP JUMPDEST PUSH0 PUSH1 0x20 DUP3 DUP5 SUB SLT ISZERO PUSH2 0x27C0 JUMPI PUSH2 0x27BF PUSH2 0x18CF JUMP JUMPDEST JUMPDEST PUSH0 PUSH2 0x27CD DUP5 DUP3 DUP6 ADD PUSH2 0x2797 JUMP JUMPDEST SWAP2 POP POP SWAP3 SWAP2 POP POP JUMP JUMPDEST PUSH0 PUSH1 0xA0 DUP3 ADD SWAP1 POP PUSH2 0x27E9 PUSH0 DUP4 ADD DUP9 PUSH2 0x221D JUMP JUMPDEST PUSH2 0x27F6 PUSH1 0x20 DUP4 ADD DUP8 PUSH2 0x221D JUMP JUMPDEST DUP2 DUP2 SUB PUSH1 0x40 DUP4 ADD MSTORE PUSH2 0x2808 DUP2 DUP7 PUSH2 0x2121 JUMP JUMPDEST SWAP1 POP DUP2 DUP2 SUB PUSH1 0x60 DUP4 ADD MSTORE PUSH2 0x281C DUP2 DUP6 PUSH2 0x2121 JUMP JUMPDEST SWAP1 POP DUP2 DUP2 SUB PUSH1 0x80 DUP4 ADD MSTORE PUSH2 0x2830 DUP2 DUP5 PUSH2 0x2707 JUMP JUMPDEST SWAP1 POP SWAP7 SWAP6 POP POP POP POP POP POP JUMP JUMPDEST PUSH0 PUSH1 0x80 DUP3 ADD SWAP1 POP PUSH2 0x284F PUSH0 DUP4 ADD DUP8 PUSH2 0x221D JUMP JUMPDEST PUSH2 0x285C PUSH1 0x20 DUP4 ADD DUP7 PUSH2 0x19A2 JUMP JUMPDEST PUSH2 0x2869 PUSH1 0x40 DUP4 ADD DUP6 PUSH2 0x19A2 JUMP JUMPDEST PUSH2 0x2876 PUSH1 0x60 DUP4 ADD DUP5 PUSH2 0x19A2 JUMP JUMPDEST SWAP6 SWAP5 POP POP POP POP POP JUMP JUMPDEST PUSH32 0x4E487B7100000000000000000000000000000000000000000000000000000000 PUSH0 MSTORE PUSH1 0x11 PUSH1 0x4 MSTORE PUSH1 0x24 PUSH0 REVERT JUMPDEST PUSH0 PUSH2 0x28B6 DUP3 PUSH2 0x1931 JUMP JUMPDEST SWAP2 POP PUSH2 0x28C1 DUP4 PUSH2 0x1931 JUMP JUMPDEST SWAP3 POP DUP3 DUP3 ADD SWAP1 POP DUP1 DUP3 GT ISZERO PUSH2 0x28D9 JUMPI PUSH2 0x28D8 PUSH2 0x287F JUMP JUMPDEST JUMPDEST SWAP3 SWAP2 POP POP JUMP JUMPDEST PUSH0 PUSH1 0x40 DUP3 ADD SWAP1 POP DUP2 DUP2 SUB PUSH0 DUP4 ADD MSTORE PUSH2 0x28F7 DUP2 DUP6 PUSH2 0x2121 JUMP JUMPDEST SWAP1 POP DUP2 DUP2 SUB PUSH1 0x20 DUP4 ADD MSTORE PUSH2 0x290B DUP2 DUP5 PUSH2 0x2121 JUMP JUMPDEST SWAP1 POP SWAP4 SWAP3 POP POP POP JUMP INVALID LOG2 PUSH5 0x6970667358 0x22 SLT KECCAK256 PUSH23 0x5DCB65D43641E58C9E66255E7B4DAB49010423BA70D845 0x2B DUP12 0xC MCOPY MSTORE8 SWAP3 GASPRICE 0x1E PUSH5 0x736F6C6343 STOP ADDMOD NOT STOP CALLER PUSH9 0x747470733A2F2F7261 PUSH24 0x2E67697468756275736572636F6E74656E742E636F6D2F4A 0x4C PREVRANDAO MSTORE8 PUSH11 0x722F6D657461646174615F PUSH3 0x6C6F63 PUSH12 0x636861696E2F6D61696E2F7B PUSH10 0x647D2E6A736F6E000000 "
				},
				"gasEstimates": {
					"creation": {
						"codeDepositCost": "2114000",
						"executionCost": "infinite",
						"totalCost": "infinite"
					},
					"external": {
						"balanceOf(address,uint256)": "infinite",
						"balanceOfBatch(address[],uint256[])": "infinite",
						"isApprovedForAll(address,address)": "infinite",
						"mint(address,uint256,uint256,bytes)": "infinite",
						"mintBatch(address,uint256[],uint256[],bytes)": "infinite",
						"owner()": "2537",
						"pause()": "infinite",
						"paused()": "2547",
						"renounceOwnership()": "infinite",
						"safeBatchTransferFrom(address,address,uint256[],uint256[],bytes)": "infinite",
						"safeTransferFrom(address,address,uint256,uint256,bytes)": "infinite",
						"setApprovalForAll(address,bool)": "infinite",
						"setURI(string)": "infinite",
						"supportsInterface(bytes4)": "809",
						"transferOwnership(address)": "infinite",
						"unpause()": "infinite",
						"uri(uint256)": "infinite"
					},
					"internal": {
						"_update(address,address,uint256[] memory,uint256[] memory)": "infinite"
					}
				},
				"methodIdentifiers": {
					"balanceOf(address,uint256)": "00fdd58e",
					"balanceOfBatch(address[],uint256[])": "4e1273f4",
					"isApprovedForAll(address,address)": "e985e9c5",
					"mint(address,uint256,uint256,bytes)": "731133e9",
					"mintBatch(address,uint256[],uint256[],bytes)": "1f7fdffa",
					"owner()": "8da5cb5b",
					"pause()": "8456cb59",
					"paused()": "5c975abb",
					"renounceOwnership()": "715018a6",
					"safeBatchTransferFrom(address,address,uint256[],uint256[],bytes)": "2eb2c2d6",
					"safeTransferFrom(address,address,uint256,uint256,bytes)": "f242432a",
					"setApprovalForAll(address,bool)": "a22cb465",
					"setURI(string)": "02fe5305",
					"supportsInterface(bytes4)": "01ffc9a7",
					"transferOwnership(address)": "f2fde38b",
					"unpause()": "3f4ba83a",
					"uri(uint256)": "0e89341c"
				}
			},
			"storageLayout": {
				"storage": [
					{
						"astId": 326,
						"contract": "github/hugocis/VoluntariadoUFV/contracts/TokenUFV.sol:VoluntariadoUFV",
						"label": "_balances",
						"offset": 0,
						"slot": "0",
						"type": "t_mapping(t_uint256,t_mapping(t_address,t_uint256))"
					},
					{
						"astId": 332,
						"contract": "github/hugocis/VoluntariadoUFV/contracts/TokenUFV.sol:VoluntariadoUFV",
						"label": "_operatorApprovals",
						"offset": 0,
						"slot": "1",
						"type": "t_mapping(t_address,t_mapping(t_address,t_bool))"
					},
					{
						"astId": 334,
						"contract": "github/hugocis/VoluntariadoUFV/contracts/TokenUFV.sol:VoluntariadoUFV",
						"label": "_uri",
						"offset": 0,
						"slot": "2",
						"type": "t_string_storage"
					},
					{
						"astId": 8,
						"contract": "github/hugocis/VoluntariadoUFV/contracts/TokenUFV.sol:VoluntariadoUFV",
						"label": "_owner",
						"offset": 0,
						"slot": "3",
						"type": "t_address"
					},
					{
						"astId": 1777,
						"contract": "github/hugocis/VoluntariadoUFV/contracts/TokenUFV.sol:VoluntariadoUFV",
						"label": "_paused",
						"offset": 20,
						"slot": "3",
						"type": "t_bool"
					}
				],
				"types": {
					"t_address": {
						"encoding": "inplace",
						"label": "address",
						"numberOfBytes": "20"
					},
					"t_bool": {
						"encoding": "inplace",
						"label": "bool",
						"numberOfBytes": "1"
					},
					"t_mapping(t_address,t_bool)": {
						"encoding": "mapping",
						"key": "t_address",
						"label": "mapping(address => bool)",
						"numberOfBytes": "32",
						"value": "t_bool"
					},
					"t_mapping(t_address,t_mapping(t_address,t_bool))": {
						"encoding": "mapping",
						"key": "t_address",
						"label": "mapping(address => mapping(address => bool))",
						"numberOfBytes": "32",
						"value": "t_mapping(t_address,t_bool)"
					},
					"t_mapping(t_address,t_uint256)": {
						"encoding": "mapping",
						"key": "t_address",
						"label": "mapping(address => uint256)",
						"numberOfBytes": "32",
						"value": "t_uint256"
					},
					"t_mapping(t_uint256,t_mapping(t_address,t_uint256))": {
						"encoding": "mapping",
						"key": "t_uint256",
						"label": "mapping(uint256 => mapping(address => uint256))",
						"numberOfBytes": "32",
						"value": "t_mapping(t_address,t_uint256)"
					},
					"t_string_storage": {
						"encoding": "bytes",
						"label": "string",
						"numberOfBytes": "32"
					},
					"t_uint256": {
						"encoding": "inplace",
						"label": "uint256",
						"numberOfBytes": "32"
					}
				}
			},
			"userdoc": {
				"kind": "user",
				"methods": {},
				"version": 1
			}
		}
	}
}